{"contracts/gnjToken.sol":{"BEP20Token":{"abi":[{"inputs":[{"internalType":"address[]","name":"_owners","type":"address[]"},{"internalType":"uint256","name":"_requiredConfirmations","type":"uint256"}],"stateMutability":"nonpayable","type":"constructor"},{"anonymous":false,"inputs":[{"indexed":true,"internalType":"address","name":"owner","type":"address"},{"indexed":true,"internalType":"address","name":"spender","type":"address"},{"indexed":false,"internalType":"uint256","name":"value","type":"uint256"}],"name":"Approval","type":"event"},{"anonymous":false,"inputs":[{"indexed":true,"internalType":"address","name":"account","type":"address"},{"indexed":false,"internalType":"bool","name":"status","type":"bool"},{"indexed":true,"internalType":"address","name":"updatedBy","type":"address"}],"name":"BlacklistUpdated","type":"event"},{"anonymous":false,"inputs":[{"indexed":true,"internalType":"address","name":"from","type":"address"},{"indexed":false,"internalType":"uint256","name":"value","type":"uint256"}],"name":"Burn","type":"event"},{"anonymous":false,"inputs":[{"indexed":true,"internalType":"address","name":"from","type":"address"},{"indexed":false,"internalType":"uint256","name":"value","type":"uint256"},{"indexed":false,"internalType":"string","name":"burnType","type":"string"}],"name":"BurnAction","type":"event"},{"anonymous":false,"inputs":[{"indexed":false,"internalType":"uint256","name":"oldLimit","type":"uint256"},{"indexed":false,"internalType":"uint256","name":"newLimit","type":"uint256"},{"indexed":true,"internalType":"address","name":"updatedBy","type":"address"}],"name":"DailyLimitUpdated","type":"event"},{"anonymous":false,"inputs":[{"indexed":false,"internalType":"string","name":"action","type":"string"},{"indexed":true,"internalType":"address","name":"executor","type":"address"}],"name":"EmergencyAction","type":"event"},{"anonymous":false,"inputs":[{"indexed":true,"internalType":"address","name":"recipient","type":"address"},{"indexed":false,"internalType":"uint256","name":"amount","type":"uint256"}],"name":"EmergencyWithdrawal","type":"event"},{"anonymous":false,"inputs":[{"indexed":true,"internalType":"address","name":"owner","type":"address"}],"name":"OwnerAddition","type":"event"},{"anonymous":false,"inputs":[{"indexed":true,"internalType":"address","name":"owner","type":"address"}],"name":"OwnerRemoval","type":"event"},{"anonymous":false,"inputs":[{"indexed":false,"internalType":"address","name":"account","type":"address"}],"name":"Paused","type":"event"},{"anonymous":false,"inputs":[{"indexed":false,"internalType":"uint256","name":"required","type":"uint256"}],"name":"RequirementChange","type":"event"},{"anonymous":false,"inputs":[{"indexed":false,"internalType":"string","name":"alertType","type":"string"},{"indexed":true,"internalType":"address","name":"triggeredBy","type":"address"},{"indexed":false,"internalType":"uint256","name":"timestamp","type":"uint256"}],"name":"SecurityAlert","type":"event"},{"anonymous":false,"inputs":[{"indexed":true,"internalType":"uint256","name":"transactionId","type":"uint256"},{"indexed":true,"internalType":"address","name":"owner","type":"address"}],"name":"TransactionConfirmation","type":"event"},{"anonymous":false,"inputs":[{"indexed":true,"internalType":"uint256","name":"transactionId","type":"uint256"}],"name":"TransactionExecution","type":"event"},{"anonymous":false,"inputs":[{"indexed":true,"internalType":"uint256","name":"transactionId","type":"uint256"}],"name":"TransactionFailure","type":"event"},{"anonymous":false,"inputs":[{"indexed":true,"internalType":"uint256","name":"transactionId","type":"uint256"},{"indexed":true,"internalType":"address","name":"owner","type":"address"}],"name":"TransactionRevocation","type":"event"},{"anonymous":false,"inputs":[{"indexed":true,"internalType":"uint256","name":"transactionId","type":"uint256"},{"indexed":true,"internalType":"address","name":"submitter","type":"address"},{"indexed":false,"internalType":"string","name":"description","type":"string"}],"name":"TransactionSubmission","type":"event"},{"anonymous":false,"inputs":[{"indexed":true,"internalType":"address","name":"from","type":"address"},{"indexed":true,"internalType":"address","name":"to","type":"address"},{"indexed":false,"internalType":"uint256","name":"value","type":"uint256"}],"name":"Transfer","type":"event"},{"anonymous":false,"inputs":[{"indexed":false,"internalType":"address","name":"account","type":"address"}],"name":"Unpaused","type":"event"},{"inputs":[],"name":"EMERGENCY_TIMELOCK","outputs":[{"internalType":"uint256","name":"","type":"uint256"}],"stateMutability":"view","type":"function"},{"inputs":[],"name":"FIXED_SUPPLY","outputs":[{"internalType":"bool","name":"","type":"bool"}],"stateMutability":"view","type":"function"},{"inputs":[],"name":"TIMELOCK_DELAY","outputs":[{"internalType":"uint256","name":"","type":"uint256"}],"stateMutability":"view","type":"function"},{"inputs":[{"internalType":"address","name":"account","type":"address"},{"internalType":"uint256","name":"amount","type":"uint256"}],"name":"_burnLarge","outputs":[],"stateMutability":"nonpayable","type":"function"},{"inputs":[],"name":"_emergencyPauseContract","outputs":[],"stateMutability":"nonpayable","type":"function"},{"inputs":[{"internalType":"address","name":"recipient","type":"address"}],"name":"_emergencyWithdraw","outputs":[],"stateMutability":"nonpayable","type":"function"},{"inputs":[],"name":"_pauseContract","outputs":[],"stateMutability":"nonpayable","type":"function"},{"inputs":[{"internalType":"address","name":"account","type":"address"},{"internalType":"bool","name":"status","type":"bool"}],"name":"_setBlacklisted","outputs":[],"stateMutability":"nonpayable","type":"function"},{"inputs":[{"internalType":"uint256","name":"newLimit","type":"uint256"}],"name":"_setDailyTransferLimit","outputs":[],"stateMutability":"nonpayable","type":"function"},{"inputs":[],"name":"_unpauseContract","outputs":[],"stateMutability":"nonpayable","type":"function"},{"inputs":[{"internalType":"address","name":"owner","type":"address"},{"internalType":"address","name":"spender","type":"address"}],"name":"allowance","outputs":[{"internalType":"uint256","name":"","type":"uint256"}],"stateMutability":"view","type":"function"},{"inputs":[{"internalType":"address","name":"spender","type":"address"},{"internalType":"uint256","name":"amount","type":"uint256"}],"name":"approve","outputs":[{"internalType":"bool","name":"","type":"bool"}],"stateMutability":"nonpayable","type":"function"},{"inputs":[{"internalType":"address","name":"account","type":"address"}],"name":"balanceOf","outputs":[{"internalType":"uint256","name":"","type":"uint256"}],"stateMutability":"view","type":"function"},{"inputs":[{"internalType":"address","name":"","type":"address"}],"name":"blacklisted","outputs":[{"internalType":"bool","name":"","type":"bool"}],"stateMutability":"view","type":"function"},{"inputs":[{"internalType":"uint256","name":"amount","type":"uint256"}],"name":"burn","outputs":[],"stateMutability":"nonpayable","type":"function"},{"inputs":[{"internalType":"address","name":"account","type":"address"},{"internalType":"uint256","name":"amount","type":"uint256"}],"name":"burnFrom","outputs":[],"stateMutability":"nonpayable","type":"function"},{"inputs":[{"internalType":"uint256","name":"transactionId","type":"uint256"}],"name":"canExecute","outputs":[{"internalType":"bool","name":"","type":"bool"}],"stateMutability":"view","type":"function"},{"inputs":[{"internalType":"uint256","name":"transactionId","type":"uint256"}],"name":"confirmTransaction","outputs":[],"stateMutability":"nonpayable","type":"function"},{"inputs":[{"internalType":"uint256","name":"","type":"uint256"},{"internalType":"address","name":"","type":"address"}],"name":"confirmations","outputs":[{"internalType":"bool","name":"","type":"bool"}],"stateMutability":"view","type":"function"},{"inputs":[{"internalType":"address","name":"account","type":"address"},{"internalType":"bool","name":"status","type":"bool"}],"name":"createBlacklistTransaction","outputs":[{"internalType":"uint256","name":"","type":"uint256"}],"stateMutability":"nonpayable","type":"function"},{"inputs":[{"internalType":"uint256","name":"newLimit","type":"uint256"}],"name":"createDailyLimitTransaction","outputs":[{"internalType":"uint256","name":"","type":"uint256"}],"stateMutability":"nonpayable","type":"function"},{"inputs":[],"name":"createEmergencyPauseTransaction","outputs":[{"internalType":"uint256","name":"","type":"uint256"}],"stateMutability":"nonpayable","type":"function"},{"inputs":[{"internalType":"address","name":"recipient","type":"address"}],"name":"createEmergencyWithdrawTransaction","outputs":[{"internalType":"uint256","name":"","type":"uint256"}],"stateMutability":"nonpayable","type":"function"},{"inputs":[{"internalType":"address","name":"account","type":"address"},{"internalType":"uint256","name":"amount","type":"uint256"}],"name":"createLargeBurnTransaction","outputs":[{"internalType":"uint256","name":"","type":"uint256"}],"stateMutability":"nonpayable","type":"function"},{"inputs":[],"name":"createPauseTransaction","outputs":[{"internalType":"uint256","name":"","type":"uint256"}],"stateMutability":"nonpayable","type":"function"},{"inputs":[],"name":"createUnpauseTransaction","outputs":[{"internalType":"uint256","name":"","type":"uint256"}],"stateMutability":"nonpayable","type":"function"},{"inputs":[{"internalType":"address","name":"","type":"address"}],"name":"dailyTransferAmount","outputs":[{"internalType":"uint256","name":"","type":"uint256"}],"stateMutability":"view","type":"function"},{"inputs":[],"name":"decimals","outputs":[{"internalType":"uint8","name":"","type":"uint8"}],"stateMutability":"pure","type":"function"},{"inputs":[{"internalType":"address","name":"spender","type":"address"},{"internalType":"uint256","name":"subtractedValue","type":"uint256"}],"name":"decreaseAllowance","outputs":[{"internalType":"bool","name":"","type":"bool"}],"stateMutability":"nonpayable","type":"function"},{"inputs":[],"name":"emergencyMode","outputs":[{"internalType":"bool","name":"","type":"bool"}],"stateMutability":"view","type":"function"},{"inputs":[{"internalType":"uint256","name":"transactionId","type":"uint256"}],"name":"executeTransaction","outputs":[],"stateMutability":"nonpayable","type":"function"},{"inputs":[{"internalType":"uint256","name":"transactionId","type":"uint256"}],"name":"getConfirmationCount","outputs":[{"internalType":"uint256","name":"","type":"uint256"}],"stateMutability":"view","type":"function"},{"inputs":[],"name":"getContractInfo","outputs":[{"internalType":"string","name":"","type":"string"}],"stateMutability":"pure","type":"function"},{"inputs":[],"name":"getGovernanceInfo","outputs":[{"internalType":"uint256","name":"totalOwners","type":"uint256"},{"internalType":"uint256","name":"requiredSigs","type":"uint256"},{"internalType":"uint256","name":"timelockDelay","type":"uint256"},{"internalType":"uint256","name":"pendingTransactions","type":"uint256"}],"stateMutability":"view","type":"function"},{"inputs":[],"name":"getOwner","outputs":[{"internalType":"address","name":"","type":"address"}],"stateMutability":"view","type":"function"},{"inputs":[],"name":"getOwners","outputs":[{"internalType":"address[]","name":"","type":"address[]"}],"stateMutability":"view","type":"function"},{"inputs":[],"name":"getTransactionCount","outputs":[{"internalType":"uint256","name":"","type":"uint256"}],"stateMutability":"view","type":"function"},{"inputs":[{"internalType":"address","name":"spender","type":"address"},{"internalType":"uint256","name":"addedValue","type":"uint256"}],"name":"increaseAllowance","outputs":[{"internalType":"bool","name":"","type":"bool"}],"stateMutability":"nonpayable","type":"function"},{"inputs":[{"internalType":"uint256","name":"transactionId","type":"uint256"}],"name":"isConfirmed","outputs":[{"internalType":"bool","name":"","type":"bool"}],"stateMutability":"view","type":"function"},{"inputs":[{"internalType":"address","name":"","type":"address"}],"name":"isOwner","outputs":[{"internalType":"bool","name":"","type":"bool"}],"stateMutability":"view","type":"function"},{"inputs":[{"internalType":"address","name":"","type":"address"}],"name":"lastTransferDay","outputs":[{"internalType":"uint256","name":"","type":"uint256"}],"stateMutability":"view","type":"function"},{"inputs":[],"name":"maxDailyTransferLimit","outputs":[{"internalType":"uint256","name":"","type":"uint256"}],"stateMutability":"view","type":"function"},{"inputs":[],"name":"name","outputs":[{"internalType":"string","name":"","type":"string"}],"stateMutability":"pure","type":"function"},{"inputs":[{"internalType":"uint256","name":"","type":"uint256"}],"name":"owners","outputs":[{"internalType":"address","name":"","type":"address"}],"stateMutability":"view","type":"function"},{"inputs":[],"name":"paused","outputs":[{"internalType":"bool","name":"","type":"bool"}],"stateMutability":"view","type":"function"},{"inputs":[],"name":"requiredConfirmations","outputs":[{"internalType":"uint256","name":"","type":"uint256"}],"stateMutability":"view","type":"function"},{"inputs":[{"internalType":"uint256","name":"transactionId","type":"uint256"}],"name":"revokeConfirmation","outputs":[],"stateMutability":"nonpayable","type":"function"},{"inputs":[{"internalType":"address","name":"to","type":"address"},{"internalType":"bytes","name":"data","type":"bytes"},{"internalType":"string","name":"description","type":"string"}],"name":"submitTransaction","outputs":[{"internalType":"uint256","name":"transactionId","type":"uint256"}],"stateMutability":"nonpayable","type":"function"},{"inputs":[],"name":"symbol","outputs":[{"internalType":"string","name":"","type":"string"}],"stateMutability":"pure","type":"function"},{"inputs":[],"name":"totalSupply","outputs":[{"internalType":"uint256","name":"","type":"uint256"}],"stateMutability":"view","type":"function"},{"inputs":[{"internalType":"uint256","name":"","type":"uint256"}],"name":"transactions","outputs":[{"internalType":"address","name":"to","type":"address"},{"internalType":"bytes","name":"data","type":"bytes"},{"internalType":"bool","name":"executed","type":"bool"},{"internalType":"uint256","name":"confirmations","type":"uint256"},{"internalType":"uint256","name":"timestamp","type":"uint256"},{"internalType":"string","name":"description","type":"string"}],"stateMutability":"view","type":"function"},{"inputs":[{"internalType":"address","name":"recipient","type":"address"},{"internalType":"uint256","name":"amount","type":"uint256"}],"name":"transfer","outputs":[{"internalType":"bool","name":"","type":"bool"}],"stateMutability":"nonpayable","type":"function"},{"inputs":[{"internalType":"address","name":"sender","type":"address"},{"internalType":"address","name":"recipient","type":"address"},{"internalType":"uint256","name":"amount","type":"uint256"}],"name":"transferFrom","outputs":[{"internalType":"bool","name":"","type":"bool"}],"stateMutability":"nonpayable","type":"function"}],"evm":{"bytecode":{"linkReferences":{},"object":"60406080815234620003bc5762003d5c803803806200001e81620003c1565b9283398101918082840312620003bc5781516001600160401b039390848111620003bc57830190601f93818584011215620003bc578251958611620001a65760059186831b602094858062000075818501620003c1565b809b81520192820101928311620003bc5790858094939201905b82821062000390575050500151948051156200034c578515158062000340575b15620002eb5760005b8151811015620002425780831b82018401516001600160a01b03168015620002005780600052600180865260ff876000205416620001bc576000828152818752878120805460ff191683179055549068010000000000000000821015620001a657810180600055811015620001905760008080528681209190910180546001600160a01b031916831790557ff39e6e1eb0edcf53c221607b54b00cd28f3196fed0a24994dc308b8f611b682d9080a260001981146200017a57600101620000b8565b634e487b7160e01b600052601160045260246000fd5b634e487b7160e01b600052603260045260246000fd5b634e487b7160e01b600052604160045260246000fd5b865162461bcd60e51b815260048101879052601960248201527f4d756c74695369673a206475706c6963617465206f776e6572000000000000006044820152606490fd5b6064858888519162461bcd60e51b8352600483015260248201527f4d756c74695369673a20696e76616c6964206f776e65722061646472657373006044820152fd5b50507fa3f1ee9126a074d9326c682f561767f710e927faa811f7a99829d49dc421797a8286806002558551908152a160ff1990818154169055600160065569d3c21bcecceda1000000600b55600e5416600e5560007fddf252ad1be2c89b69c2b068fc378daa952ba7f163c4a11628f55a4df523b3ef6a084595161401484a000000928360095533835260078152838584205584519384523393a3516139749081620003e88239f35b835162461bcd60e51b815260048101849052602860248201527f4d756c74695369673a20696e76616c696420726571756972656420636f6e6669604482015267726d6174696f6e7360c01b6064820152608490fd5b508051861115620000af565b835162461bcd60e51b815260048101849052601960248201527f4d756c74695369673a206f776e657273207265717569726564000000000000006044820152606490fd5b815193945091929091906001600160a01b0381168103620003bc5781528593929184019084016200008f565b600080fd5b6040519190601f01601f191682016001600160401b03811183821017620001a65760405256fe608080604052600436101561001357600080fd5b60003560e01c908163025e7c271461274b57508063044007b91461269f57806306fdde03146126585780630905f56014612635578063095ea7b31461260757806318160ddd146125e957806320ea8d86146124c857806323b872dd14612488578063263bc1aa146121725780632e7700f0146121545780632f54bf6e14612115578063313ce567146120f95780633411c81c146120ac578063395093511461205357806339be9f3214611cee5780633d829b4114611cd057806342966c6814611bd457806348f6db1114611b4d5780634bc8472c14611aba5780635ba1c1a914611a9c5780635c975abb14611a7957806360d7442b14611a5c578063676a246d1461192757806370a08231146118ed57806372b8c0c7146118b5578063784547a71461189757806379cc6790146118585780637cc1f867146117ae57806382e717f71461179057806387299888146116ed578063893d20e81461166a5780638b51d13f1461163f5780638b6deeba146115765780638ed0099b146114df578063923f43371461145257806395d89b411461140d5780639abb68e8146113d35780639ace38c214611313578063a0e67e2b1461124c578063a181b99014610f26578063a3aab78e14610dc6578063a457c2d714610d11578063a9059cbb14610cd8578063ac9358a714610c9e578063b0b463fa14610b64578063c01a8c8414610a4b578063c969943e14610a2f578063cc63604a14610a07578063dbac26e9146109c8578063dd62ed3e14610977578063e398f56b146108bc578063ee22610b146106d65763f09460c11461026657600080fd5b346106d15760603660031901126106d15761027f6127a3565b6024356001600160401b0381116106d157366023820112156106d1576102af9036906024816004013591016129f1565b906044356001600160401b0381116106d157366023820112156106d1576102e09036906024816004013591016129f1565b3360005260016020526102fa60ff60406000205416612b0a565b600354916040519361030b85612949565b6001600160a01b03918216855260208501908152600060408601819052606086015242608086015260a08501839052600160401b84101561062557600184016003556103568461283e565b9290926106bb57855183546001600160a01b0319169116178255518051906001600160401b0382116106255761039c826103936001860154612879565b60018601612f47565b602090601f831160011461064657918060a0949260059460009261063b575b50508160011b916000199060031b1c19161760018201555b6103f260408701511515600283019060ff801983541691151516179055565b6060860151600382015560808601516004820155019301519283516001600160401b0381116106255761042f816104298454612879565b84612f47565b602094601f82116001146105bf579481929394956000926105b4575b50508160011b916000199060031b1c19161790555b8160008051602061391f8339815191526040516020815280610487339560208301906127cf565b0390a33360005260016020526104a460ff60406000205416612b0a565b6104b16003548210612f9b565b80600052600460205260406000203360005260205260ff6040600020541661055f578060005260046020526040600020336000526020526040600020600160ff1982541617905560036105038261283e565b500180549190600019831461054957600160209301905533817f1205fbf8acc69299dd15e8db91a27442f39bde8c77c4b61a1f713c51e707a6fc600080a3604051908152f35b634e487b7160e01b600052601160045260246000fd5b60405162461bcd60e51b815260206004820152602760248201527f4d756c74695369673a207472616e73616374696f6e20616c726561647920636f6044820152661b999a5c9b595960ca1b6064820152608490fd5b01519050388061044b565b601f198216958360005260206000209160005b88811061060d575083600195969798106105f4575b505050811b019055610460565b015160001960f88460031b161c191690553880806105e7565b919260206001819286850151815501940192016105d2565b634e487b7160e01b600052604160045260246000fd5b0151905038806103bb565b906001840160005260206000209160005b601f19851681106106a357509260a0949260019260059583601f1981161061068a575b505050811b0160018201556103d3565b015160001960f88460031b161c1916905538808061067a565b91926020600181928685015181550194019201610657565b634e487b7160e01b600052600060045260246000fd5b600080fd5b346106d1576020806003193601126106d1576004359033600052600180825261070660ff60406000205416612b0a565b6107136003548410612f9b565b61072d60ff60026107238661283e565b5001541615612ff3565b61073683612a4b565b1561086b576107448361283e565b50600281019260ff199280848654161785558060018060a01b0384541693016040519260009282549261077684612879565b9388838216918260001461085257505060011461081a575b5050505091816000809493819403925af13d15610815576107b96107b13d6129d6565b6040516129b5565b156107e75750507fa04152e2017fefaf7d75b86e3c491d40f690e6936155ca58eacae210f5655e60600080a2005b90917f6ee13fa93051b7cad9019e9932d8040cc31c2cf14ea6692e1d6b6c2f2ba322c1600080a28154169055005b6107b9565b600090815282812093945091925b848310610841575050509082019050816000818161078e565b805486840152918301918101610828565b168752505050508015150282019050816000818161078e565b60405162461bcd60e51b8152600481018390526024808201527f4d756c74695369673a2063616e6e6f742065786563757465207472616e7361636044820152633a34b7b760e11b6064820152608490fd5b346106d15760203660031901126106d1576004356108db303314613092565b6108e68115156138bb565b600b549080600b5560405191825260208201527f9c1605b55d1eafe13062f1b47079c158f82feaf16266e90067771249bf97219f60403292a260007f6ac6f29cb533706676e94ff2d30d8f95dd3e0c525a0e07e44c1f7762360b48946080604051604081526013604082015272111052531657d31253525517d5541110551151606a1b6060820152426020820152a2005b346106d15760403660031901126106d1576109906127a3565b6109986127b9565b9060018060a01b038091166000526008602052604060002091166000526020526020604060002054604051908152f35b346106d15760203660031901126106d1576001600160a01b036109e96127a3565b16600052600a602052602060ff604060002054166040519015158152f35b346106d15760203660031901126106d1576020610a25600435612a4b565b6040519015158152f35b346106d15760003660031901126106d157602060405160018152f35b346106d1576020806003193601126106d157600435903360005260018152610a7a60ff60406000205416612b0a565b610a876003548310612f9b565b8160005260048152604060002033600052815260ff60406000205416610b1057816000526004815260406000209033600052526040600020600160ff198254161790556003610ad58261283e565b50018054600019811461054957600101905533907f1205fbf8acc69299dd15e8db91a27442f39bde8c77c4b61a1f713c51e707a6fc600080a3005b6084906040519062461bcd60e51b82526004820152602760248201527f4d756c74695369673a207472616e73616374696f6e20616c726561647920636f6044820152661b999a5c9b595960ca1b6064820152fd5b346106d157610c657f6ac6f29cb533706676e94ff2d30d8f95dd3e0c525a0e07e44c1f7762360b4894610b963661280f565b9290610ba3303314613092565b6001600160a01b031692610bb8841515613820565b8360005260209060018252610bd560ff6040600020541615613865565b84600052600a8252610bf78160406000209060ff801983541691151516179055565b6040518115158152857fcae3b5efc2bd583aa46266b1fb3d632ecd709b47d81ad21012414e6774af2d0d843293a315610c7057604051610c3681612964565b600d81526c10931050d2d31254d517d05111609a1b82820152905b6040519283926040845260408401906127cf565b9042908301520390a2005b604051610c7c81612964565b601081526f424c41434b4c4953545f52454d4f564560801b8282015290610c51565b346106d15760203660031901126106d1576001600160a01b03610cbf6127a3565b16600052600c6020526020604060002054604051908152f35b346106d15760403660031901126106d157610d06610cf46127a3565b610cfc61304e565b60243590336131ff565b602060405160018152f35b346106d15760403660031901126106d157610d2a6127a3565b602435610d3561304e565b336000526008602052604060002060018060a01b03831660005260205260406000205490808210610d7357810390811161054957610d069133613550565b60405162461bcd60e51b815260206004820152602560248201527f42455032303a2064656372656173656420616c6c6f77616e63652062656c6f77604482015264207a65726f60d81b6064820152608490fd5b346106d1576020806003193601126106d157610de06127a3565b90610dec303314613092565b6001600160a01b038216918215610ee1578260005260018252610e1660ff604060002054166131a7565b3060005260078252604060002054908115610e9c5790610e59817f23d6711a1d031134a36921253c75aa59e967d38e369ac625992824315e204f209493306131ff565b836000805160206138ff833981519152606060405185815260128682015271454d455247454e43595f574954484452415760701b6040820152a2604051908152a2005b60405162461bcd60e51b815260048101849052601c60248201527f42455032303a206e6f20746f6b656e7320746f207769746864726177000000006044820152606490fd5b60405162461bcd60e51b815260048101839052601860248201527f42455032303a20696e76616c696420726563697069656e7400000000000000006044820152606490fd5b346106d15760203660031901126106d157600435336000526001602052610f5460ff60406000205416612b0a565b610f5f8115156138bb565b6040519063e398f56b60e01b6020830152602482015260248152610f828161297f565b604051610f8e8161297f565b602681527f4d756c74692d5369673a20557064617465206461696c79207472616e73666572602082015265081b1a5b5a5d60d21b6040820152336000526001602052610fe160ff60406000205416612b0a565b6003549060405192610ff284612949565b3084526020840190815260006040850152600060608501524260808501528160a0850152600160401b83101561062557600183016003556110328361283e565b9190916106bb57845182546001600160a01b0319166001600160a01b0391909116178255518051906001600160401b03821161062557611079826103936001860154612879565b602090601f83116001146111d757918060a094926005946000926111cc575b50508160011b916000199060031b1c19161760018201555b6110cf60408701511515600283019060ff801983541691151516179055565b6060860151600382015560808601516004820155019301519283516001600160401b03811161062557611106816104298454612879565b602094601f82116001146111675794819293949560009261115c5750508160011b916000199060031b1c19161790558160008051602061391f8339815191526040516020815280610487339560208301906127cf565b01519050858061044b565b601f198216958360005260206000209160005b8881106111b45750836001959697981061119b57505050811b019055610460565b015160001960f88460031b161c191690558580806105e7565b9192602060018192868501518155019401920161117a565b015190508880611098565b906001840160005260206000209160005b601f198516811061123457509260a0949260019260059583601f1981161061121b575b505050811b0160018201556110b0565b015160001960f88460031b161c1916905588808061120b565b919260206001819286850151815501940192016111e8565b346106d15760003660031901126106d1576040518060005480835260208093018091600080527f290decd9548b62a8d60345a988386fc84ba6bc95484008f6362f93160ef3e5639060005b868282106112f65786866112ad828803836129b5565b604051928392818401908285525180915260408401929160005b8281106112d657505050500390f35b83516001600160a01b0316855286955093810193928101926001016112c7565b83546001600160a01b031685529093019260019283019201611297565b346106d15760203660031901126106d1576004356003548110156106d15761133a9061283e565b5060018060a01b038154166113cf604051926113648461135d81600185016128b3565b03856129b5565b600560ff60028301541691600381015461139460048301549261138d60405180968193016128b3565b03846129b5565b6113b0604051978897885260c0602089015260c08801906127cf565b93151560408701526060860152608085015283820360a08501526127cf565b0390f35b346106d15760203660031901126106d1576001600160a01b036113f46127a3565b16600052600d6020526020604060002054604051908152f35b346106d15760003660031901126106d1576113cf60405161142d81612964565b6004815263474e4a5360e01b60208201526040519182916020835260208301906127cf565b346106d15760003660031901126106d15761146e303314613092565b61147661304e565b600160ff1960055416176005557f62e78cea01bee320cd4e420270b5ea74000d11b0c9f74754ebdbfc544b05a2586020604051338152a1604051602081526005602082015264504155534560d81b60408201526000805160206138ff83398151915260603292a2005b346106d15760003660031901126106d1576114fb303314613092565b61150361304e565b600160ff1960055416176005557f62e78cea01bee320cd4e420270b5ea74000d11b0c9f74754ebdbfc544b05a2586020604051338152a160405160208152600f60208201526e454d455247454e43595f504155534560881b60408201526000805160206138ff83398151915260603292a2005b346106d15760003660031901126106d157611592303314613092565b60055460ff8116156116035760ff19166005557f5db9ee0a495bf2e6ff9c91a7834c1ba4fdd244a5e8aa4e537bd38aeae4b073aa6020604051338152a1604051602081526007602082015266554e504155534560c81b60408201526000805160206138ff83398151915260603292a2005b60405162461bcd60e51b815260206004820152601460248201527314185d5cd8589b194e881b9bdd081c185d5cd95960621b6044820152606490fd5b346106d15760203660031901126106d1576020600361165f60043561283e565b500154604051908152f35b346106d15760003660031901126106d15760005415806116e3576116cd57600080527f290decd9548b62a8d60345a988386fc84ba6bc95484008f6362f93160ef3e563546020906001600160a01b03165b6040516001600160a01b039091168152f35b634e487b7160e01b600052603260045260246000fd5b50602060006116bb565b346106d15760003660031901126106d15733600052600160205261171860ff60406000205416612b0a565b6020611788604051638ed0099b60e01b838201526004815261173981612964565b604051906117468261297f565b602a82527f4d756c74692d5369673a20454d455247454e435920706175736520746f6b656e8483015269207472616e736665727360b01b604083015230612b55565b604051908152f35b346106d15760003660031901126106d1576020600254604051908152f35b346106d15760003660031901126106d1576113cf6040516117ce8161299a565b605781527f47616e6a657320546f6b656e2028474e4a5329202d204d756c74692d5369672060208201527f476f7665726e65642c20466978656420537570706c793a2031304d2c2050617560408201527f7361626c652c204275726e61626c652c2053656375726500000000000000000060608201526040519182916020835260208301906127cf565b346106d15760403660031901126106d1576118906118746127a3565b602435906118806130f1565b61188b823383613652565b6136e9565b6001600655005b346106d15760203660031901126106d1576020610a25600435612a28565b346106d15760003660031901126106d15760806000546002546003549060405192835260208301526201518060408301526060820152f35b346106d15760203660031901126106d1576001600160a01b0361190e6127a3565b1660005260076020526020604060002054604051908152f35b346106d15760403660031901126106d1576119406127a3565b602435336000526020916001835261195f60ff60406000205416612b0a565b60018060a01b031690816000526001835261198160ff60406000205416613147565b606460095404811115611a045790611788916040519163044007b960e01b8584015260248301526044820152604481526119ba8161299a565b604051906119c78261297f565b602582527f4d756c74692d5369673a204c6172676520746f6b656e206275726e206f706572848301526430ba34b7b760d91b604083015230612b55565b60405162461bcd60e51b815260048101849052602a60248201527f42455032303a2075736520646972656374206275726e282920666f7220736d616044820152696c6c20616d6f756e747360b01b6064820152608490fd5b346106d15760003660031901126106d1576020604051610e108152f35b346106d15760003660031901126106d157602060ff600554166040519015158152f35b346106d15760003660031901126106d1576020604051620151808152f35b346106d15760003660031901126106d157336000526001602052611ae560ff60406000205416612b0a565b60206117886040516345b6f75d60e11b8382015260048152611b0681612964565b60405190611b138261297f565b602282527f4d756c74692d5369673a20556e706175736520746f6b656e207472616e7366658483015261727360f01b604083015230612b55565b346106d15760003660031901126106d157336000526001602052611b7860ff60406000205416612b0a565b602061178860405163923f433760e01b8382015260048152611b9981612964565b60405190611ba682612964565b8382527f4d756c74692d5369673a20506175736520746f6b656e207472616e73666572738483015230612b55565b346106d15760203660031901126106d157600435336000526001602052611c0260ff60406000205416612b0a565b611c0a6130f1565b6064600954048111611c7557611c2081336136e9565b60405190815260406020820152600b60408201526a2224a922a1aa2fa12aa92760a91b60608201527f5ea61442894c79f0f25ebbdbf1d9a6d976586b539cf871a022f985083782865d60803392a26001600655005b60405162461bcd60e51b815260206004820152602d60248201527f42455032303a206c61726765206275726e732072657175697265206d756c746960448201526c0b5cda59c8185c1c1c9bdd985b609a1b6064820152608490fd5b346106d15760003660031901126106d1576020600b54604051908152f35b346106d157611cfc3661280f565b90336000526001602052611d1760ff60406000205416612b0a565b6001600160a01b0390811691611d2e831515613820565b826000526001602052611d4960ff6040600020541615613865565b6040519263585a31fd60e11b60208501526024840152801515604484015260448352611d748361299a565b1561200757604051611d8581612964565b601c81527f4d756c74692d5369673a20426c61636b6c69737420616464726573730000000060208201525b336000526001602052611dca60ff60406000205416612b0a565b6003549160405193611ddb85612949565b3085526020850190815260006040860152600060608601524260808601528260a0860152600160401b8410156106255760018401600355611e1b8461283e565b9290926106bb57855183546001600160a01b0319169116178255518051906001600160401b03821161062557611e58826103936001860154612879565b602090601f8311600114611f9257918060a09492600594600092611f87575b50508160011b916000199060031b1c19161760018201555b611eae60408701511515600283019060ff801983541691151516179055565b6060860151600382015560808601516004820155019301519283516001600160401b03811161062557611ee5816104298454612879565b602094601f8211600114611f3b5794819293949560009261115c5750508160011b916000199060031b1c19161790558160008051602061391f8339815191526040516020815280610487339560208301906127cf565b601f198216958360005260206000209160005b888110611f6f5750836001959697981061119b57505050811b019055610460565b91926020600181928685015181550194019201611f4e565b015190508880611e77565b906001840160005260206000209160005b601f1985168110611fef57509260a0949260019260059583601f19811610611fd6575b505050811b016001820155611e8f565b015160001960f88460031b161c19169055888080611fc6565b91926020600181928685015181550194019201611fa3565b6040516120138161297f565b602881527f4d756c74692d5369673a2052656d6f766520616464726573732066726f6d20626020820152671b1858dadb1a5cdd60c21b6040820152611db0565b346106d15760403660031901126106d157610d0661206f6127a3565b61207761304e565b336000526008602052604060002060018060a01b0382166000526020526120a5602435604060002054612a3e565b9033613550565b346106d15760403660031901126106d1576120c56127b9565b600435600052600460205260406000209060018060a01b0316600052602052602060ff604060002054166040519015158152f35b346106d15760003660031901126106d157602060405160128152f35b346106d15760203660031901126106d1576001600160a01b036121366127a3565b166000526001602052602060ff604060002054166040519015158152f35b346106d15760003660031901126106d1576020600354604051908152f35b346106d15760203660031901126106d15761218b6127a3565b3360005260016020526121a560ff60406000205416612b0a565b60018060a01b03809116908160005260016020526121ca60ff604060002054166131a7565b604051916351d55bc760e11b60208401526024830152602482526121ed8261297f565b6040516121f98161297f565b602581527f4d756c74692d5369673a20456d657267656e637920746f6b656e2077697468646020820152641c985dd85b60da1b604082015233600052600160205261224b60ff60406000205416612b0a565b600354916040519361225c85612949565b3085526020850190815260006040860152600060608601524260808601528260a0860152600160401b841015610625576001840160035561229c8461283e565b9290926106bb57855183546001600160a01b0319169116178255518051906001600160401b038211610625576122d9826103936001860154612879565b602090601f831160011461241357918060a09492600594600092612408575b50508160011b916000199060031b1c19161760018201555b61232f60408701511515600283019060ff801983541691151516179055565b6060860151600382015560808601516004820155019301519283516001600160401b03811161062557612366816104298454612879565b602094601f82116001146123bc5794819293949560009261115c5750508160011b916000199060031b1c19161790558160008051602061391f8339815191526040516020815280610487339560208301906127cf565b601f198216958360005260206000209160005b8881106123f05750836001959697981061119b57505050811b019055610460565b919260206001819286850151815501940192016123cf565b0151905088806122f8565b906001840160005260206000209160005b601f198516811061247057509260a0949260019260059583601f19811610612457575b505050811b016001820155612310565b015160001960f88460031b161c19169055888080612447565b91926020600181928685015181550194019201612424565b346106d15760603660031901126106d157610d066124a46127a3565b6124ac6127b9565b604435916124b861304e565b6124c3833383613652565b6131ff565b346106d1576020806003193601126106d1576004359033600052600181526124f760ff60406000205416612b0a565b6125046003548310612f9b565b61251460ff60026107238561283e565b8160005260048152604060002033600052815260ff60406000205416156125995781600052600481526040600020903360005252604060002060ff19815416905560036125608261283e565b5001805480156105495760001901905533907f320e919218f4d2fb16217ade7951038e1d5dbf90699405a9f2b52f7a4efdff42600080a3005b6084906040519062461bcd60e51b82526004820152602360248201527f4d756c74695369673a207472616e73616374696f6e206e6f7420636f6e6669726044820152621b595960ea1b6064820152fd5b346106d15760003660031901126106d1576020600954604051908152f35b346106d15760403660031901126106d157610d066126236127a3565b61262b61304e565b6024359033613550565b346106d15760003660031901126106d157602060ff600e54166040519015158152f35b346106d15760003660031901126106d1576113cf60405161267881612964565b600681526547616e6a657360d01b60208201526040519182916020835260208301906127cf565b346106d15760403660031901126106d1576126b86127a3565b7f5ea61442894c79f0f25ebbdbf1d9a6d976586b539cf871a022f985083782865d60806024356126e66130f1565b6126f1303314613092565b6127198160018060a01b0386169586600052600160205261188b60ff60406000205416613147565b60405190815260406020820152600d60408201526c26aaa62a24a9a4a3afa12aa92760991b6060820152a26001600655005b346106d15760203660031901126106d157600435906000548210156106d157600080527f290decd9548b62a8d60345a988386fc84ba6bc95484008f6362f93160ef3e563909101546001600160a01b03168152602090f35b600435906001600160a01b03821682036106d157565b602435906001600160a01b03821682036106d157565b919082519283825260005b8481106127fb575050826000602080949584010152601f8019910116010190565b6020818301810151848301820152016127da565b60409060031901126106d1576004356001600160a01b03811681036106d1579060243580151581036106d15790565b6003548110156116cd576006906003600052027fc2575a0e9e593c00f959f8c92f12db2869c3395a3b0502d05e2516446f71f85b0190600090565b90600182811c921680156128a9575b602083101461289357565b634e487b7160e01b600052602260045260246000fd5b91607f1691612888565b90600092918054916128c483612879565b91828252600193848116908160001461292657506001146128e6575b50505050565b90919394506000526020928360002092846000945b8386106129125750505050010190388080806128e0565b8054858701830152940193859082016128fb565b9294505050602093945060ff191683830152151560051b010190388080806128e0565b60c081019081106001600160401b0382111761062557604052565b604081019081106001600160401b0382111761062557604052565b606081019081106001600160401b0382111761062557604052565b608081019081106001600160401b0382111761062557604052565b90601f801991011681019081106001600160401b0382111761062557604052565b6001600160401b03811161062557601f01601f191660200190565b9291926129fd826129d6565b91612a0b60405193846129b5565b8294818452818301116106d1578281602093846000960137010152565b612a3360039161283e565b500154600254111590565b9190820180921161054957565b612a548161283e565b50612ad960405192612a6584612949565b82546001600160a01b03168452604051612a8d81612a8681600188016128b3565b03826129b5565b6020850152600560a060ff6002860154169560408101961515875260038601546060820152612ad26004870154966080830197885261138d60405180968193016128b3565b0152612a28565b9182612b00575b5081612aea575090565b9050516201518081018091116105495742101590565b5115915038612ae0565b15612b1157565b606460405162461bcd60e51b815260206004820152602060248201527f4d756c74695369673a2063616c6c6572206973206e6f7420616e206f776e65726044820152fd5b9190916000913383526001602052612b7360ff604085205416612b0a565b6003549360405190612b8482612949565b6001600160a01b03938416825260208201908152604082018590526060820185905242608083015260a08201839052600160401b861015612f335760018601600355612bcf8661283e565b949094612f1f57825185546001600160a01b0319169116178455518051906001600160401b038211612f0b578190612c1782612c0e6001890154612879565b60018901612f47565b602090601f8311600114612e9c578792612e91575b50508160011b916000199060031b1c19161760018401555b612c6360408201511515600285019060ff801983541691151516179055565b6060810151600384015560a0600560808301519460049586820155019101518051906001600160401b038211612e7e578190612ca982612ca38654612879565b86612f47565b602090601f8311600114612e1a578792612e0f575b50508160011b916000199060031b1c19161790555b8360008051602061391f8339815191526040516020815280612cfa339560208301906127cf565b0390a33382526001602052612d1560ff604084205416612b0a565b612d226003548410612f9b565b828252806020526040822033835260205260ff604083205416612dbb57828252806020526040822033835260205260408220600160ff198254161790556003612d6a8461283e565b5001805490916000198214612da857506001019055817f1205fbf8acc69299dd15e8db91a27442f39bde8c77c4b61a1f713c51e707a6fc339280a390565b634e487b7160e01b845260119052602483fd5b60849060206040519162461bcd60e51b8352820152602760248201527f4d756c74695369673a207472616e73616374696f6e20616c726561647920636f6044820152661b999a5c9b595960ca1b6064820152fd5b015190503880612cbe565b848852602088209250601f198416885b818110612e665750908460019594939210612e4d575b505050811b019055612cd3565b015160001960f88460031b161c19169055388080612e40565b92936020600181928786015181550195019301612e2a565b634e487b7160e01b865260418552602486fd5b015190503880612c2c565b9250600186018752602087209087935b601f1984168510612ef0576001945083601f19811610612ed7575b505050811b016001840155612c44565b015160001960f88460031b161c19169055388080612ec7565b81810151835560209485019460019093019290910190612eac565b634e487b7160e01b86526041600452602486fd5b634e487b7160e01b86526004869052602486fd5b634e487b7160e01b85526041600452602485fd5b90601f8111612f5557505050565b600091825260208220906020601f850160051c83019410612f91575b601f0160051c01915b828110612f8657505050565b818155600101612f7a565b9092508290612f71565b15612fa257565b60405162461bcd60e51b8152602060048201526024808201527f4d756c74695369673a207472616e73616374696f6e20646f6573206e6f7420656044820152631e1a5cdd60e21b6064820152608490fd5b15612ffa57565b60405162461bcd60e51b815260206004820152602660248201527f4d756c74695369673a207472616e73616374696f6e20616c72656164792065786044820152651958dd5d195960d21b6064820152608490fd5b60ff6005541661305a57565b60405162461bcd60e51b815260206004820152601060248201526f14185d5cd8589b194e881c185d5cd95960821b6044820152606490fd5b1561309957565b60405162461bcd60e51b815260206004820152602a60248201527f4d756c74695369673a206f6e6c792063616c6c61626c65207468726f75676820604482015269676f7665726e616e636560b01b6064820152608490fd5b600260065414613102576002600655565b60405162461bcd60e51b815260206004820152601f60248201527f5265656e7472616e637947756172643a207265656e7472616e742063616c6c006044820152606490fd5b1561314e57565b60405162461bcd60e51b815260206004820152602b60248201527f4d756c74695369673a2063616e206f6e6c79206275726e2066726f6d206f776e60448201526a6572206163636f756e747360a81b6064820152608490fd5b156131ae57565b60405162461bcd60e51b8152602060048201526024808201527f4d756c74695369673a20726563697069656e74206d75737420626520616e206f6044820152633bb732b960e11b6064820152608490fd5b6001600160a01b039081169182156134fd57169182156134ac57600090828252602091600a835260409060ff828220541661346857858152600a845260ff828220541661342457600a6009540483116133d3575b8481526001845260ff828220541615806133c9575b613317575b84815260078452818120548381106132c4579181847fddf252ad1be2c89b69c2b068fc378daa952ba7f163c4a11628f55a4df523b3ef969594888495526007875203828220558781522082815401905551908152a3565b825162461bcd60e51b815260048101869052602660248201527f42455032303a207472616e7366657220616d6f756e7420657863656564732062604482015265616c616e636560d01b6064820152608490fd5b620151804204600d85528083832054036133b2575b50600c845261333e8383832054612a3e565b600b541061336257848152600c845281812061335b848254612a3e565b905561326d565b815162461bcd60e51b8152600481018590526024808201527f42455032303a206461696c79207472616e73666572206c696d697420657863656044820152631959195960e21b6064820152608490fd5b600c85528183812055600d8552828220553861332c565b5030851415613268565b847f6ac6f29cb533706676e94ff2d30d8f95dd3e0c525a0e07e44c1f7762360b489460808451858152600e868201526d2620a923a2afaa2920a729a322a960911b60608201524288820152a2613253565b815162461bcd60e51b815260048101859052601f60248201527f42455032303a20726563697069656e7420697320626c61636b6c6973746564006044820152606490fd5b815162461bcd60e51b815260048101859052601c60248201527f42455032303a2073656e64657220697320626c61636b6c6973746564000000006044820152606490fd5b60405162461bcd60e51b815260206004820152602360248201527f42455032303a207472616e7366657220746f20746865207a65726f206164647260448201526265737360e81b6064820152608490fd5b60405162461bcd60e51b815260206004820152602560248201527f42455032303a207472616e736665722066726f6d20746865207a65726f206164604482015264647265737360d81b6064820152608490fd5b6001600160a01b0390811691821561360157169182156135b15760207f8c5be1e5ebec7d5bd14f71427d1e84f3dd0314c0f7b2291e5b200ac8c7c3b925918360005260088252604060002085600052825280604060002055604051908152a3565b60405162461bcd60e51b815260206004820152602260248201527f42455032303a20617070726f766520746f20746865207a65726f206164647265604482015261737360f01b6064820152608490fd5b60405162461bcd60e51b8152602060048201526024808201527f42455032303a20617070726f76652066726f6d20746865207a65726f206164646044820152637265737360e01b6064820152608490fd5b9060018060a01b03808316600052600860205260406000209082166000526020526040600020549260001984036136895750505050565b8084106136a45761369b930391613550565b388080806128e0565b60405162461bcd60e51b815260206004820152601d60248201527f42455032303a20696e73756666696369656e7420616c6c6f77616e63650000006044820152606490fd5b6001600160a01b03169081156137d15781600052600760205260406000205481811061378157817fcc16f5dbb4873280815c1ee09dbd06736cffcc184412cf7a71a0fdb75d397ca59260209285600052600784520360406000205580600954036009556000847fddf252ad1be2c89b69c2b068fc378daa952ba7f163c4a11628f55a4df523b3ef84604051858152a3604051908152a2565b60405162461bcd60e51b815260206004820152602260248201527f42455032303a206275726e20616d6f756e7420657863656564732062616c616e604482015261636560f01b6064820152608490fd5b60405162461bcd60e51b815260206004820152602160248201527f42455032303a206275726e2066726f6d20746865207a65726f206164647265736044820152607360f81b6064820152608490fd5b1561382757565b60405162461bcd60e51b815260206004820152601660248201527542455032303a20696e76616c6964206164647265737360501b6044820152606490fd5b1561386c57565b60405162461bcd60e51b815260206004820152602160248201527f4d756c74695369673a2063616e6e6f7420626c61636b6c697374206f776e65726044820152607360f81b6064820152608490fd5b156138c257565b60405162461bcd60e51b81526020600482015260146024820152731091540c8c0e881a5b9d985b1a59081b1a5b5a5d60621b6044820152606490fdfe2a09e26ec96218a3a144df2e04de096b7f0410106a4caff3cdfa5d667e604f2a8546ea40e101fc827ab39bbab7c2c8a00cda94f3a6ee1bd55cc7af23be294ec5a26469706673582212204f8626e4e496cac6f5447e8ea59ac080201ab1eb05c592b574d412fdaea801eb64736f6c63430008140033","opcodes":"PUSH1 0x40 PUSH1 0x80 DUP2 MSTORE CALLVALUE PUSH3 0x3BC JUMPI PUSH3 0x3D5C DUP1 CODESIZE SUB DUP1 PUSH3 0x1E DUP2 PUSH3 0x3C1 JUMP JUMPDEST SWAP3 DUP4 CODECOPY DUP2 ADD SWAP2 DUP1 DUP3 DUP5 SUB SLT PUSH3 0x3BC JUMPI DUP2 MLOAD PUSH1 0x1 PUSH1 0x1 PUSH1 0x40 SHL SUB SWAP4 SWAP1 DUP5 DUP2 GT PUSH3 0x3BC JUMPI DUP4 ADD SWAP1 PUSH1 0x1F SWAP4 DUP2 DUP6 DUP5 ADD SLT ISZERO PUSH3 0x3BC JUMPI DUP3 MLOAD SWAP6 DUP7 GT PUSH3 0x1A6 JUMPI PUSH1 0x5 SWAP2 DUP7 DUP4 SHL PUSH1 0x20 SWAP5 DUP6 DUP1 PUSH3 0x75 DUP2 DUP6 ADD PUSH3 0x3C1 JUMP JUMPDEST DUP1 SWAP12 DUP2 MSTORE ADD SWAP3 DUP3 ADD ADD SWAP3 DUP4 GT PUSH3 0x3BC JUMPI SWAP1 DUP6 DUP1 SWAP5 SWAP4 SWAP3 ADD SWAP1 JUMPDEST DUP3 DUP3 LT PUSH3 0x390 JUMPI POP POP POP ADD MLOAD SWAP5 DUP1 MLOAD ISZERO PUSH3 0x34C JUMPI DUP6 ISZERO ISZERO DUP1 PUSH3 0x340 JUMPI JUMPDEST ISZERO PUSH3 0x2EB JUMPI PUSH1 0x0 JUMPDEST DUP2 MLOAD DUP2 LT ISZERO PUSH3 0x242 JUMPI DUP1 DUP4 SHL DUP3 ADD DUP5 ADD MLOAD PUSH1 0x1 PUSH1 0x1 PUSH1 0xA0 SHL SUB AND DUP1 ISZERO PUSH3 0x200 JUMPI DUP1 PUSH1 0x0 MSTORE PUSH1 0x1 DUP1 DUP7 MSTORE PUSH1 0xFF DUP8 PUSH1 0x0 KECCAK256 SLOAD AND PUSH3 0x1BC JUMPI PUSH1 0x0 DUP3 DUP2 MSTORE DUP2 DUP8 MSTORE DUP8 DUP2 KECCAK256 DUP1 SLOAD PUSH1 0xFF NOT AND DUP4 OR SWAP1 SSTORE SLOAD SWAP1 PUSH9 0x10000000000000000 DUP3 LT ISZERO PUSH3 0x1A6 JUMPI DUP2 ADD DUP1 PUSH1 0x0 SSTORE DUP2 LT ISZERO PUSH3 0x190 JUMPI PUSH1 0x0 DUP1 DUP1 MSTORE DUP7 DUP2 KECCAK256 SWAP2 SWAP1 SWAP2 ADD DUP1 SLOAD PUSH1 0x1 PUSH1 0x1 PUSH1 0xA0 SHL SUB NOT AND DUP4 OR SWAP1 SSTORE PUSH32 0xF39E6E1EB0EDCF53C221607B54B00CD28F3196FED0A24994DC308B8F611B682D SWAP1 DUP1 LOG2 PUSH1 0x0 NOT DUP2 EQ PUSH3 0x17A JUMPI PUSH1 0x1 ADD PUSH3 0xB8 JUMP JUMPDEST PUSH4 0x4E487B71 PUSH1 0xE0 SHL PUSH1 0x0 MSTORE PUSH1 0x11 PUSH1 0x4 MSTORE PUSH1 0x24 PUSH1 0x0 REVERT JUMPDEST PUSH4 0x4E487B71 PUSH1 0xE0 SHL PUSH1 0x0 MSTORE PUSH1 0x32 PUSH1 0x4 MSTORE PUSH1 0x24 PUSH1 0x0 REVERT JUMPDEST PUSH4 0x4E487B71 PUSH1 0xE0 SHL PUSH1 0x0 MSTORE PUSH1 0x41 PUSH1 0x4 MSTORE PUSH1 0x24 PUSH1 0x0 REVERT JUMPDEST DUP7 MLOAD PUSH3 0x461BCD PUSH1 0xE5 SHL DUP2 MSTORE PUSH1 0x4 DUP2 ADD DUP8 SWAP1 MSTORE PUSH1 0x19 PUSH1 0x24 DUP3 ADD MSTORE PUSH32 0x4D756C74695369673A206475706C6963617465206F776E657200000000000000 PUSH1 0x44 DUP3 ADD MSTORE PUSH1 0x64 SWAP1 REVERT JUMPDEST PUSH1 0x64 DUP6 DUP9 DUP9 MLOAD SWAP2 PUSH3 0x461BCD PUSH1 0xE5 SHL DUP4 MSTORE PUSH1 0x4 DUP4 ADD MSTORE PUSH1 0x24 DUP3 ADD MSTORE PUSH32 0x4D756C74695369673A20696E76616C6964206F776E6572206164647265737300 PUSH1 0x44 DUP3 ADD MSTORE REVERT JUMPDEST POP POP PUSH32 0xA3F1EE9126A074D9326C682F561767F710E927FAA811F7A99829D49DC421797A DUP3 DUP7 DUP1 PUSH1 0x2 SSTORE DUP6 MLOAD SWAP1 DUP2 MSTORE LOG1 PUSH1 0xFF NOT SWAP1 DUP2 DUP2 SLOAD AND SWAP1 SSTORE PUSH1 0x1 PUSH1 0x6 SSTORE PUSH10 0xD3C21BCECCEDA1000000 PUSH1 0xB SSTORE PUSH1 0xE SLOAD AND PUSH1 0xE SSTORE PUSH1 0x0 PUSH32 0xDDF252AD1BE2C89B69C2B068FC378DAA952BA7F163C4A11628F55A4DF523B3EF PUSH11 0x84595161401484A000000 SWAP3 DUP4 PUSH1 0x9 SSTORE CALLER DUP4 MSTORE PUSH1 0x7 DUP2 MSTORE DUP4 DUP6 DUP5 KECCAK256 SSTORE DUP5 MLOAD SWAP4 DUP5 MSTORE CALLER SWAP4 LOG3 MLOAD PUSH2 0x3974 SWAP1 DUP2 PUSH3 0x3E8 DUP3 CODECOPY RETURN JUMPDEST DUP4 MLOAD PUSH3 0x461BCD PUSH1 0xE5 SHL DUP2 MSTORE PUSH1 0x4 DUP2 ADD DUP5 SWAP1 MSTORE PUSH1 0x28 PUSH1 0x24 DUP3 ADD MSTORE PUSH32 0x4D756C74695369673A20696E76616C696420726571756972656420636F6E6669 PUSH1 0x44 DUP3 ADD MSTORE PUSH8 0x726D6174696F6E73 PUSH1 0xC0 SHL PUSH1 0x64 DUP3 ADD MSTORE PUSH1 0x84 SWAP1 REVERT JUMPDEST POP DUP1 MLOAD DUP7 GT ISZERO PUSH3 0xAF JUMP JUMPDEST DUP4 MLOAD PUSH3 0x461BCD PUSH1 0xE5 SHL DUP2 MSTORE PUSH1 0x4 DUP2 ADD DUP5 SWAP1 MSTORE PUSH1 0x19 PUSH1 0x24 DUP3 ADD MSTORE PUSH32 0x4D756C74695369673A206F776E65727320726571756972656400000000000000 PUSH1 0x44 DUP3 ADD MSTORE PUSH1 0x64 SWAP1 REVERT JUMPDEST DUP2 MLOAD SWAP4 SWAP5 POP SWAP2 SWAP3 SWAP1 SWAP2 SWAP1 PUSH1 0x1 PUSH1 0x1 PUSH1 0xA0 SHL SUB DUP2 AND DUP2 SUB PUSH3 0x3BC JUMPI DUP2 MSTORE DUP6 SWAP4 SWAP3 SWAP2 DUP5 ADD SWAP1 DUP5 ADD PUSH3 0x8F JUMP JUMPDEST PUSH1 0x0 DUP1 REVERT JUMPDEST PUSH1 0x40 MLOAD SWAP2 SWAP1 PUSH1 0x1F ADD PUSH1 0x1F NOT AND DUP3 ADD PUSH1 0x1 PUSH1 0x1 PUSH1 0x40 SHL SUB DUP2 GT DUP4 DUP3 LT OR PUSH3 0x1A6 JUMPI PUSH1 0x40 MSTORE JUMP INVALID PUSH1 0x80 DUP1 PUSH1 0x40 MSTORE PUSH1 0x4 CALLDATASIZE LT ISZERO PUSH2 0x13 JUMPI PUSH1 0x0 DUP1 REVERT JUMPDEST PUSH1 0x0 CALLDATALOAD PUSH1 0xE0 SHR SWAP1 DUP2 PUSH4 0x25E7C27 EQ PUSH2 0x274B JUMPI POP DUP1 PUSH4 0x44007B9 EQ PUSH2 0x269F JUMPI DUP1 PUSH4 0x6FDDE03 EQ PUSH2 0x2658 JUMPI DUP1 PUSH4 0x905F560 EQ PUSH2 0x2635 JUMPI DUP1 PUSH4 0x95EA7B3 EQ PUSH2 0x2607 JUMPI DUP1 PUSH4 0x18160DDD EQ PUSH2 0x25E9 JUMPI DUP1 PUSH4 0x20EA8D86 EQ PUSH2 0x24C8 JUMPI DUP1 PUSH4 0x23B872DD EQ PUSH2 0x2488 JUMPI DUP1 PUSH4 0x263BC1AA EQ PUSH2 0x2172 JUMPI DUP1 PUSH4 0x2E7700F0 EQ PUSH2 0x2154 JUMPI DUP1 PUSH4 0x2F54BF6E EQ PUSH2 0x2115 JUMPI DUP1 PUSH4 0x313CE567 EQ PUSH2 0x20F9 JUMPI DUP1 PUSH4 0x3411C81C EQ PUSH2 0x20AC JUMPI DUP1 PUSH4 0x39509351 EQ PUSH2 0x2053 JUMPI DUP1 PUSH4 0x39BE9F32 EQ PUSH2 0x1CEE JUMPI DUP1 PUSH4 0x3D829B41 EQ PUSH2 0x1CD0 JUMPI DUP1 PUSH4 0x42966C68 EQ PUSH2 0x1BD4 JUMPI DUP1 PUSH4 0x48F6DB11 EQ PUSH2 0x1B4D JUMPI DUP1 PUSH4 0x4BC8472C EQ PUSH2 0x1ABA JUMPI DUP1 PUSH4 0x5BA1C1A9 EQ PUSH2 0x1A9C JUMPI DUP1 PUSH4 0x5C975ABB EQ PUSH2 0x1A79 JUMPI DUP1 PUSH4 0x60D7442B EQ PUSH2 0x1A5C JUMPI DUP1 PUSH4 0x676A246D EQ PUSH2 0x1927 JUMPI DUP1 PUSH4 0x70A08231 EQ PUSH2 0x18ED JUMPI DUP1 PUSH4 0x72B8C0C7 EQ PUSH2 0x18B5 JUMPI DUP1 PUSH4 0x784547A7 EQ PUSH2 0x1897 JUMPI DUP1 PUSH4 0x79CC6790 EQ PUSH2 0x1858 JUMPI DUP1 PUSH4 0x7CC1F867 EQ PUSH2 0x17AE JUMPI DUP1 PUSH4 0x82E717F7 EQ PUSH2 0x1790 JUMPI DUP1 PUSH4 0x87299888 EQ PUSH2 0x16ED JUMPI DUP1 PUSH4 0x893D20E8 EQ PUSH2 0x166A JUMPI DUP1 PUSH4 0x8B51D13F EQ PUSH2 0x163F JUMPI DUP1 PUSH4 0x8B6DEEBA EQ PUSH2 0x1576 JUMPI DUP1 PUSH4 0x8ED0099B EQ PUSH2 0x14DF JUMPI DUP1 PUSH4 0x923F4337 EQ PUSH2 0x1452 JUMPI DUP1 PUSH4 0x95D89B41 EQ PUSH2 0x140D JUMPI DUP1 PUSH4 0x9ABB68E8 EQ PUSH2 0x13D3 JUMPI DUP1 PUSH4 0x9ACE38C2 EQ PUSH2 0x1313 JUMPI DUP1 PUSH4 0xA0E67E2B EQ PUSH2 0x124C JUMPI DUP1 PUSH4 0xA181B990 EQ PUSH2 0xF26 JUMPI DUP1 PUSH4 0xA3AAB78E EQ PUSH2 0xDC6 JUMPI DUP1 PUSH4 0xA457C2D7 EQ PUSH2 0xD11 JUMPI DUP1 PUSH4 0xA9059CBB EQ PUSH2 0xCD8 JUMPI DUP1 PUSH4 0xAC9358A7 EQ PUSH2 0xC9E JUMPI DUP1 PUSH4 0xB0B463FA EQ PUSH2 0xB64 JUMPI DUP1 PUSH4 0xC01A8C84 EQ PUSH2 0xA4B JUMPI DUP1 PUSH4 0xC969943E EQ PUSH2 0xA2F JUMPI DUP1 PUSH4 0xCC63604A EQ PUSH2 0xA07 JUMPI DUP1 PUSH4 0xDBAC26E9 EQ PUSH2 0x9C8 JUMPI DUP1 PUSH4 0xDD62ED3E EQ PUSH2 0x977 JUMPI DUP1 PUSH4 0xE398F56B EQ PUSH2 0x8BC JUMPI DUP1 PUSH4 0xEE22610B EQ PUSH2 0x6D6 JUMPI PUSH4 0xF09460C1 EQ PUSH2 0x266 JUMPI PUSH1 0x0 DUP1 REVERT JUMPDEST CALLVALUE PUSH2 0x6D1 JUMPI PUSH1 0x60 CALLDATASIZE PUSH1 0x3 NOT ADD SLT PUSH2 0x6D1 JUMPI PUSH2 0x27F PUSH2 0x27A3 JUMP JUMPDEST PUSH1 0x24 CALLDATALOAD PUSH1 0x1 PUSH1 0x1 PUSH1 0x40 SHL SUB DUP2 GT PUSH2 0x6D1 JUMPI CALLDATASIZE PUSH1 0x23 DUP3 ADD SLT ISZERO PUSH2 0x6D1 JUMPI PUSH2 0x2AF SWAP1 CALLDATASIZE SWAP1 PUSH1 0x24 DUP2 PUSH1 0x4 ADD CALLDATALOAD SWAP2 ADD PUSH2 0x29F1 JUMP JUMPDEST SWAP1 PUSH1 0x44 CALLDATALOAD PUSH1 0x1 PUSH1 0x1 PUSH1 0x40 SHL SUB DUP2 GT PUSH2 0x6D1 JUMPI CALLDATASIZE PUSH1 0x23 DUP3 ADD SLT ISZERO PUSH2 0x6D1 JUMPI PUSH2 0x2E0 SWAP1 CALLDATASIZE SWAP1 PUSH1 0x24 DUP2 PUSH1 0x4 ADD CALLDATALOAD SWAP2 ADD PUSH2 0x29F1 JUMP JUMPDEST CALLER PUSH1 0x0 MSTORE PUSH1 0x1 PUSH1 0x20 MSTORE PUSH2 0x2FA PUSH1 0xFF PUSH1 0x40 PUSH1 0x0 KECCAK256 SLOAD AND PUSH2 0x2B0A JUMP JUMPDEST PUSH1 0x3 SLOAD SWAP2 PUSH1 0x40 MLOAD SWAP4 PUSH2 0x30B DUP6 PUSH2 0x2949 JUMP JUMPDEST PUSH1 0x1 PUSH1 0x1 PUSH1 0xA0 SHL SUB SWAP2 DUP3 AND DUP6 MSTORE PUSH1 0x20 DUP6 ADD SWAP1 DUP2 MSTORE PUSH1 0x0 PUSH1 0x40 DUP7 ADD DUP2 SWAP1 MSTORE PUSH1 0x60 DUP7 ADD MSTORE TIMESTAMP PUSH1 0x80 DUP7 ADD MSTORE PUSH1 0xA0 DUP6 ADD DUP4 SWAP1 MSTORE PUSH1 0x1 PUSH1 0x40 SHL DUP5 LT ISZERO PUSH2 0x625 JUMPI PUSH1 0x1 DUP5 ADD PUSH1 0x3 SSTORE PUSH2 0x356 DUP5 PUSH2 0x283E JUMP JUMPDEST SWAP3 SWAP1 SWAP3 PUSH2 0x6BB JUMPI DUP6 MLOAD DUP4 SLOAD PUSH1 0x1 PUSH1 0x1 PUSH1 0xA0 SHL SUB NOT AND SWAP2 AND OR DUP3 SSTORE MLOAD DUP1 MLOAD SWAP1 PUSH1 0x1 PUSH1 0x1 PUSH1 0x40 SHL SUB DUP3 GT PUSH2 0x625 JUMPI PUSH2 0x39C DUP3 PUSH2 0x393 PUSH1 0x1 DUP7 ADD SLOAD PUSH2 0x2879 JUMP JUMPDEST PUSH1 0x1 DUP7 ADD PUSH2 0x2F47 JUMP JUMPDEST PUSH1 0x20 SWAP1 PUSH1 0x1F DUP4 GT PUSH1 0x1 EQ PUSH2 0x646 JUMPI SWAP2 DUP1 PUSH1 0xA0 SWAP5 SWAP3 PUSH1 0x5 SWAP5 PUSH1 0x0 SWAP3 PUSH2 0x63B JUMPI JUMPDEST POP POP DUP2 PUSH1 0x1 SHL SWAP2 PUSH1 0x0 NOT SWAP1 PUSH1 0x3 SHL SHR NOT AND OR PUSH1 0x1 DUP3 ADD SSTORE JUMPDEST PUSH2 0x3F2 PUSH1 0x40 DUP8 ADD MLOAD ISZERO ISZERO PUSH1 0x2 DUP4 ADD SWAP1 PUSH1 0xFF DUP1 NOT DUP4 SLOAD AND SWAP2 ISZERO ISZERO AND OR SWAP1 SSTORE JUMP JUMPDEST PUSH1 0x60 DUP7 ADD MLOAD PUSH1 0x3 DUP3 ADD SSTORE PUSH1 0x80 DUP7 ADD MLOAD PUSH1 0x4 DUP3 ADD SSTORE ADD SWAP4 ADD MLOAD SWAP3 DUP4 MLOAD PUSH1 0x1 PUSH1 0x1 PUSH1 0x40 SHL SUB DUP2 GT PUSH2 0x625 JUMPI PUSH2 0x42F DUP2 PUSH2 0x429 DUP5 SLOAD PUSH2 0x2879 JUMP JUMPDEST DUP5 PUSH2 0x2F47 JUMP JUMPDEST PUSH1 0x20 SWAP5 PUSH1 0x1F DUP3 GT PUSH1 0x1 EQ PUSH2 0x5BF JUMPI SWAP5 DUP2 SWAP3 SWAP4 SWAP5 SWAP6 PUSH1 0x0 SWAP3 PUSH2 0x5B4 JUMPI JUMPDEST POP POP DUP2 PUSH1 0x1 SHL SWAP2 PUSH1 0x0 NOT SWAP1 PUSH1 0x3 SHL SHR NOT AND OR SWAP1 SSTORE JUMPDEST DUP2 PUSH1 0x0 DUP1 MLOAD PUSH1 0x20 PUSH2 0x391F DUP4 CODECOPY DUP2 MLOAD SWAP2 MSTORE PUSH1 0x40 MLOAD PUSH1 0x20 DUP2 MSTORE DUP1 PUSH2 0x487 CALLER SWAP6 PUSH1 0x20 DUP4 ADD SWAP1 PUSH2 0x27CF JUMP JUMPDEST SUB SWAP1 LOG3 CALLER PUSH1 0x0 MSTORE PUSH1 0x1 PUSH1 0x20 MSTORE PUSH2 0x4A4 PUSH1 0xFF PUSH1 0x40 PUSH1 0x0 KECCAK256 SLOAD AND PUSH2 0x2B0A JUMP JUMPDEST PUSH2 0x4B1 PUSH1 0x3 SLOAD DUP3 LT PUSH2 0x2F9B JUMP JUMPDEST DUP1 PUSH1 0x0 MSTORE PUSH1 0x4 PUSH1 0x20 MSTORE PUSH1 0x40 PUSH1 0x0 KECCAK256 CALLER PUSH1 0x0 MSTORE PUSH1 0x20 MSTORE PUSH1 0xFF PUSH1 0x40 PUSH1 0x0 KECCAK256 SLOAD AND PUSH2 0x55F JUMPI DUP1 PUSH1 0x0 MSTORE PUSH1 0x4 PUSH1 0x20 MSTORE PUSH1 0x40 PUSH1 0x0 KECCAK256 CALLER PUSH1 0x0 MSTORE PUSH1 0x20 MSTORE PUSH1 0x40 PUSH1 0x0 KECCAK256 PUSH1 0x1 PUSH1 0xFF NOT DUP3 SLOAD AND OR SWAP1 SSTORE PUSH1 0x3 PUSH2 0x503 DUP3 PUSH2 0x283E JUMP JUMPDEST POP ADD DUP1 SLOAD SWAP2 SWAP1 PUSH1 0x0 NOT DUP4 EQ PUSH2 0x549 JUMPI PUSH1 0x1 PUSH1 0x20 SWAP4 ADD SWAP1 SSTORE CALLER DUP2 PUSH32 0x1205FBF8ACC69299DD15E8DB91A27442F39BDE8C77C4B61A1F713C51E707A6FC PUSH1 0x0 DUP1 LOG3 PUSH1 0x40 MLOAD SWAP1 DUP2 MSTORE RETURN JUMPDEST PUSH4 0x4E487B71 PUSH1 0xE0 SHL PUSH1 0x0 MSTORE PUSH1 0x11 PUSH1 0x4 MSTORE PUSH1 0x24 PUSH1 0x0 REVERT JUMPDEST PUSH1 0x40 MLOAD PUSH3 0x461BCD PUSH1 0xE5 SHL DUP2 MSTORE PUSH1 0x20 PUSH1 0x4 DUP3 ADD MSTORE PUSH1 0x27 PUSH1 0x24 DUP3 ADD MSTORE PUSH32 0x4D756C74695369673A207472616E73616374696F6E20616C726561647920636F PUSH1 0x44 DUP3 ADD MSTORE PUSH7 0x1B999A5C9B5959 PUSH1 0xCA SHL PUSH1 0x64 DUP3 ADD MSTORE PUSH1 0x84 SWAP1 REVERT JUMPDEST ADD MLOAD SWAP1 POP CODESIZE DUP1 PUSH2 0x44B JUMP JUMPDEST PUSH1 0x1F NOT DUP3 AND SWAP6 DUP4 PUSH1 0x0 MSTORE PUSH1 0x20 PUSH1 0x0 KECCAK256 SWAP2 PUSH1 0x0 JUMPDEST DUP9 DUP2 LT PUSH2 0x60D JUMPI POP DUP4 PUSH1 0x1 SWAP6 SWAP7 SWAP8 SWAP9 LT PUSH2 0x5F4 JUMPI JUMPDEST POP POP POP DUP2 SHL ADD SWAP1 SSTORE PUSH2 0x460 JUMP JUMPDEST ADD MLOAD PUSH1 0x0 NOT PUSH1 0xF8 DUP5 PUSH1 0x3 SHL AND SHR NOT AND SWAP1 SSTORE CODESIZE DUP1 DUP1 PUSH2 0x5E7 JUMP JUMPDEST SWAP2 SWAP3 PUSH1 0x20 PUSH1 0x1 DUP2 SWAP3 DUP7 DUP6 ADD MLOAD DUP2 SSTORE ADD SWAP5 ADD SWAP3 ADD PUSH2 0x5D2 JUMP JUMPDEST PUSH4 0x4E487B71 PUSH1 0xE0 SHL PUSH1 0x0 MSTORE PUSH1 0x41 PUSH1 0x4 MSTORE PUSH1 0x24 PUSH1 0x0 REVERT JUMPDEST ADD MLOAD SWAP1 POP CODESIZE DUP1 PUSH2 0x3BB JUMP JUMPDEST SWAP1 PUSH1 0x1 DUP5 ADD PUSH1 0x0 MSTORE PUSH1 0x20 PUSH1 0x0 KECCAK256 SWAP2 PUSH1 0x0 JUMPDEST PUSH1 0x1F NOT DUP6 AND DUP2 LT PUSH2 0x6A3 JUMPI POP SWAP3 PUSH1 0xA0 SWAP5 SWAP3 PUSH1 0x1 SWAP3 PUSH1 0x5 SWAP6 DUP4 PUSH1 0x1F NOT DUP2 AND LT PUSH2 0x68A JUMPI JUMPDEST POP POP POP DUP2 SHL ADD PUSH1 0x1 DUP3 ADD SSTORE PUSH2 0x3D3 JUMP JUMPDEST ADD MLOAD PUSH1 0x0 NOT PUSH1 0xF8 DUP5 PUSH1 0x3 SHL AND SHR NOT AND SWAP1 SSTORE CODESIZE DUP1 DUP1 PUSH2 0x67A JUMP JUMPDEST SWAP2 SWAP3 PUSH1 0x20 PUSH1 0x1 DUP2 SWAP3 DUP7 DUP6 ADD MLOAD DUP2 SSTORE ADD SWAP5 ADD SWAP3 ADD PUSH2 0x657 JUMP JUMPDEST PUSH4 0x4E487B71 PUSH1 0xE0 SHL PUSH1 0x0 MSTORE PUSH1 0x0 PUSH1 0x4 MSTORE PUSH1 0x24 PUSH1 0x0 REVERT JUMPDEST PUSH1 0x0 DUP1 REVERT JUMPDEST CALLVALUE PUSH2 0x6D1 JUMPI PUSH1 0x20 DUP1 PUSH1 0x3 NOT CALLDATASIZE ADD SLT PUSH2 0x6D1 JUMPI PUSH1 0x4 CALLDATALOAD SWAP1 CALLER PUSH1 0x0 MSTORE PUSH1 0x1 DUP1 DUP3 MSTORE PUSH2 0x706 PUSH1 0xFF PUSH1 0x40 PUSH1 0x0 KECCAK256 SLOAD AND PUSH2 0x2B0A JUMP JUMPDEST PUSH2 0x713 PUSH1 0x3 SLOAD DUP5 LT PUSH2 0x2F9B JUMP JUMPDEST PUSH2 0x72D PUSH1 0xFF PUSH1 0x2 PUSH2 0x723 DUP7 PUSH2 0x283E JUMP JUMPDEST POP ADD SLOAD AND ISZERO PUSH2 0x2FF3 JUMP JUMPDEST PUSH2 0x736 DUP4 PUSH2 0x2A4B JUMP JUMPDEST ISZERO PUSH2 0x86B JUMPI PUSH2 0x744 DUP4 PUSH2 0x283E JUMP JUMPDEST POP PUSH1 0x2 DUP2 ADD SWAP3 PUSH1 0xFF NOT SWAP3 DUP1 DUP5 DUP7 SLOAD AND OR DUP6 SSTORE DUP1 PUSH1 0x1 DUP1 PUSH1 0xA0 SHL SUB DUP5 SLOAD AND SWAP4 ADD PUSH1 0x40 MLOAD SWAP3 PUSH1 0x0 SWAP3 DUP3 SLOAD SWAP3 PUSH2 0x776 DUP5 PUSH2 0x2879 JUMP JUMPDEST SWAP4 DUP9 DUP4 DUP3 AND SWAP2 DUP3 PUSH1 0x0 EQ PUSH2 0x852 JUMPI POP POP PUSH1 0x1 EQ PUSH2 0x81A JUMPI JUMPDEST POP POP POP POP SWAP2 DUP2 PUSH1 0x0 DUP1 SWAP5 SWAP4 DUP2 SWAP5 SUB SWAP3 GAS CALL RETURNDATASIZE ISZERO PUSH2 0x815 JUMPI PUSH2 0x7B9 PUSH2 0x7B1 RETURNDATASIZE PUSH2 0x29D6 JUMP JUMPDEST PUSH1 0x40 MLOAD PUSH2 0x29B5 JUMP JUMPDEST ISZERO PUSH2 0x7E7 JUMPI POP POP PUSH32 0xA04152E2017FEFAF7D75B86E3C491D40F690E6936155CA58EACAE210F5655E60 PUSH1 0x0 DUP1 LOG2 STOP JUMPDEST SWAP1 SWAP2 PUSH32 0x6EE13FA93051B7CAD9019E9932D8040CC31C2CF14EA6692E1D6B6C2F2BA322C1 PUSH1 0x0 DUP1 LOG2 DUP2 SLOAD AND SWAP1 SSTORE STOP JUMPDEST PUSH2 0x7B9 JUMP JUMPDEST PUSH1 0x0 SWAP1 DUP2 MSTORE DUP3 DUP2 KECCAK256 SWAP4 SWAP5 POP SWAP2 SWAP3 JUMPDEST DUP5 DUP4 LT PUSH2 0x841 JUMPI POP POP POP SWAP1 DUP3 ADD SWAP1 POP DUP2 PUSH1 0x0 DUP2 DUP2 PUSH2 0x78E JUMP JUMPDEST DUP1 SLOAD DUP7 DUP5 ADD MSTORE SWAP2 DUP4 ADD SWAP2 DUP2 ADD PUSH2 0x828 JUMP JUMPDEST AND DUP8 MSTORE POP POP POP POP DUP1 ISZERO ISZERO MUL DUP3 ADD SWAP1 POP DUP2 PUSH1 0x0 DUP2 DUP2 PUSH2 0x78E JUMP JUMPDEST PUSH1 0x40 MLOAD PUSH3 0x461BCD PUSH1 0xE5 SHL DUP2 MSTORE PUSH1 0x4 DUP2 ADD DUP4 SWAP1 MSTORE PUSH1 0x24 DUP1 DUP3 ADD MSTORE PUSH32 0x4D756C74695369673A2063616E6E6F742065786563757465207472616E736163 PUSH1 0x44 DUP3 ADD MSTORE PUSH4 0x3A34B7B7 PUSH1 0xE1 SHL PUSH1 0x64 DUP3 ADD MSTORE PUSH1 0x84 SWAP1 REVERT JUMPDEST CALLVALUE PUSH2 0x6D1 JUMPI PUSH1 0x20 CALLDATASIZE PUSH1 0x3 NOT ADD SLT PUSH2 0x6D1 JUMPI PUSH1 0x4 CALLDATALOAD PUSH2 0x8DB ADDRESS CALLER EQ PUSH2 0x3092 JUMP JUMPDEST PUSH2 0x8E6 DUP2 ISZERO ISZERO PUSH2 0x38BB JUMP JUMPDEST PUSH1 0xB SLOAD SWAP1 DUP1 PUSH1 0xB SSTORE PUSH1 0x40 MLOAD SWAP2 DUP3 MSTORE PUSH1 0x20 DUP3 ADD MSTORE PUSH32 0x9C1605B55D1EAFE13062F1B47079C158F82FEAF16266E90067771249BF97219F PUSH1 0x40 ORIGIN SWAP3 LOG2 PUSH1 0x0 PUSH32 0x6AC6F29CB533706676E94FF2D30D8F95DD3E0C525A0E07E44C1F7762360B4894 PUSH1 0x80 PUSH1 0x40 MLOAD PUSH1 0x40 DUP2 MSTORE PUSH1 0x13 PUSH1 0x40 DUP3 ADD MSTORE PUSH19 0x111052531657D31253525517D5541110551151 PUSH1 0x6A SHL PUSH1 0x60 DUP3 ADD MSTORE TIMESTAMP PUSH1 0x20 DUP3 ADD MSTORE LOG2 STOP JUMPDEST CALLVALUE PUSH2 0x6D1 JUMPI PUSH1 0x40 CALLDATASIZE PUSH1 0x3 NOT ADD SLT PUSH2 0x6D1 JUMPI PUSH2 0x990 PUSH2 0x27A3 JUMP JUMPDEST PUSH2 0x998 PUSH2 0x27B9 JUMP JUMPDEST SWAP1 PUSH1 0x1 DUP1 PUSH1 0xA0 SHL SUB DUP1 SWAP2 AND PUSH1 0x0 MSTORE PUSH1 0x8 PUSH1 0x20 MSTORE PUSH1 0x40 PUSH1 0x0 KECCAK256 SWAP2 AND PUSH1 0x0 MSTORE PUSH1 0x20 MSTORE PUSH1 0x20 PUSH1 0x40 PUSH1 0x0 KECCAK256 SLOAD PUSH1 0x40 MLOAD SWAP1 DUP2 MSTORE RETURN JUMPDEST CALLVALUE PUSH2 0x6D1 JUMPI PUSH1 0x20 CALLDATASIZE PUSH1 0x3 NOT ADD SLT PUSH2 0x6D1 JUMPI PUSH1 0x1 PUSH1 0x1 PUSH1 0xA0 SHL SUB PUSH2 0x9E9 PUSH2 0x27A3 JUMP JUMPDEST AND PUSH1 0x0 MSTORE PUSH1 0xA PUSH1 0x20 MSTORE PUSH1 0x20 PUSH1 0xFF PUSH1 0x40 PUSH1 0x0 KECCAK256 SLOAD AND PUSH1 0x40 MLOAD SWAP1 ISZERO ISZERO DUP2 MSTORE RETURN JUMPDEST CALLVALUE PUSH2 0x6D1 JUMPI PUSH1 0x20 CALLDATASIZE PUSH1 0x3 NOT ADD SLT PUSH2 0x6D1 JUMPI PUSH1 0x20 PUSH2 0xA25 PUSH1 0x4 CALLDATALOAD PUSH2 0x2A4B JUMP JUMPDEST PUSH1 0x40 MLOAD SWAP1 ISZERO ISZERO DUP2 MSTORE RETURN JUMPDEST CALLVALUE PUSH2 0x6D1 JUMPI PUSH1 0x0 CALLDATASIZE PUSH1 0x3 NOT ADD SLT PUSH2 0x6D1 JUMPI PUSH1 0x20 PUSH1 0x40 MLOAD PUSH1 0x1 DUP2 MSTORE RETURN JUMPDEST CALLVALUE PUSH2 0x6D1 JUMPI PUSH1 0x20 DUP1 PUSH1 0x3 NOT CALLDATASIZE ADD SLT PUSH2 0x6D1 JUMPI PUSH1 0x4 CALLDATALOAD SWAP1 CALLER PUSH1 0x0 MSTORE PUSH1 0x1 DUP2 MSTORE PUSH2 0xA7A PUSH1 0xFF PUSH1 0x40 PUSH1 0x0 KECCAK256 SLOAD AND PUSH2 0x2B0A JUMP JUMPDEST PUSH2 0xA87 PUSH1 0x3 SLOAD DUP4 LT PUSH2 0x2F9B JUMP JUMPDEST DUP2 PUSH1 0x0 MSTORE PUSH1 0x4 DUP2 MSTORE PUSH1 0x40 PUSH1 0x0 KECCAK256 CALLER PUSH1 0x0 MSTORE DUP2 MSTORE PUSH1 0xFF PUSH1 0x40 PUSH1 0x0 KECCAK256 SLOAD AND PUSH2 0xB10 JUMPI DUP2 PUSH1 0x0 MSTORE PUSH1 0x4 DUP2 MSTORE PUSH1 0x40 PUSH1 0x0 KECCAK256 SWAP1 CALLER PUSH1 0x0 MSTORE MSTORE PUSH1 0x40 PUSH1 0x0 KECCAK256 PUSH1 0x1 PUSH1 0xFF NOT DUP3 SLOAD AND OR SWAP1 SSTORE PUSH1 0x3 PUSH2 0xAD5 DUP3 PUSH2 0x283E JUMP JUMPDEST POP ADD DUP1 SLOAD PUSH1 0x0 NOT DUP2 EQ PUSH2 0x549 JUMPI PUSH1 0x1 ADD SWAP1 SSTORE CALLER SWAP1 PUSH32 0x1205FBF8ACC69299DD15E8DB91A27442F39BDE8C77C4B61A1F713C51E707A6FC PUSH1 0x0 DUP1 LOG3 STOP JUMPDEST PUSH1 0x84 SWAP1 PUSH1 0x40 MLOAD SWAP1 PUSH3 0x461BCD PUSH1 0xE5 SHL DUP3 MSTORE PUSH1 0x4 DUP3 ADD MSTORE PUSH1 0x27 PUSH1 0x24 DUP3 ADD MSTORE PUSH32 0x4D756C74695369673A207472616E73616374696F6E20616C726561647920636F PUSH1 0x44 DUP3 ADD MSTORE PUSH7 0x1B999A5C9B5959 PUSH1 0xCA SHL PUSH1 0x64 DUP3 ADD MSTORE REVERT JUMPDEST CALLVALUE PUSH2 0x6D1 JUMPI PUSH2 0xC65 PUSH32 0x6AC6F29CB533706676E94FF2D30D8F95DD3E0C525A0E07E44C1F7762360B4894 PUSH2 0xB96 CALLDATASIZE PUSH2 0x280F JUMP JUMPDEST SWAP3 SWAP1 PUSH2 0xBA3 ADDRESS CALLER EQ PUSH2 0x3092 JUMP JUMPDEST PUSH1 0x1 PUSH1 0x1 PUSH1 0xA0 SHL SUB AND SWAP3 PUSH2 0xBB8 DUP5 ISZERO ISZERO PUSH2 0x3820 JUMP JUMPDEST DUP4 PUSH1 0x0 MSTORE PUSH1 0x20 SWAP1 PUSH1 0x1 DUP3 MSTORE PUSH2 0xBD5 PUSH1 0xFF PUSH1 0x40 PUSH1 0x0 KECCAK256 SLOAD AND ISZERO PUSH2 0x3865 JUMP JUMPDEST DUP5 PUSH1 0x0 MSTORE PUSH1 0xA DUP3 MSTORE PUSH2 0xBF7 DUP2 PUSH1 0x40 PUSH1 0x0 KECCAK256 SWAP1 PUSH1 0xFF DUP1 NOT DUP4 SLOAD AND SWAP2 ISZERO ISZERO AND OR SWAP1 SSTORE JUMP JUMPDEST PUSH1 0x40 MLOAD DUP2 ISZERO ISZERO DUP2 MSTORE DUP6 PUSH32 0xCAE3B5EFC2BD583AA46266B1FB3D632ECD709B47D81AD21012414E6774AF2D0D DUP5 ORIGIN SWAP4 LOG3 ISZERO PUSH2 0xC70 JUMPI PUSH1 0x40 MLOAD PUSH2 0xC36 DUP2 PUSH2 0x2964 JUMP JUMPDEST PUSH1 0xD DUP2 MSTORE PUSH13 0x10931050D2D31254D517D05111 PUSH1 0x9A SHL DUP3 DUP3 ADD MSTORE SWAP1 JUMPDEST PUSH1 0x40 MLOAD SWAP3 DUP4 SWAP3 PUSH1 0x40 DUP5 MSTORE PUSH1 0x40 DUP5 ADD SWAP1 PUSH2 0x27CF JUMP JUMPDEST SWAP1 TIMESTAMP SWAP1 DUP4 ADD MSTORE SUB SWAP1 LOG2 STOP JUMPDEST PUSH1 0x40 MLOAD PUSH2 0xC7C DUP2 PUSH2 0x2964 JUMP JUMPDEST PUSH1 0x10 DUP2 MSTORE PUSH16 0x424C41434B4C4953545F52454D4F5645 PUSH1 0x80 SHL DUP3 DUP3 ADD MSTORE SWAP1 PUSH2 0xC51 JUMP JUMPDEST CALLVALUE PUSH2 0x6D1 JUMPI PUSH1 0x20 CALLDATASIZE PUSH1 0x3 NOT ADD SLT PUSH2 0x6D1 JUMPI PUSH1 0x1 PUSH1 0x1 PUSH1 0xA0 SHL SUB PUSH2 0xCBF PUSH2 0x27A3 JUMP JUMPDEST AND PUSH1 0x0 MSTORE PUSH1 0xC PUSH1 0x20 MSTORE PUSH1 0x20 PUSH1 0x40 PUSH1 0x0 KECCAK256 SLOAD PUSH1 0x40 MLOAD SWAP1 DUP2 MSTORE RETURN JUMPDEST CALLVALUE PUSH2 0x6D1 JUMPI PUSH1 0x40 CALLDATASIZE PUSH1 0x3 NOT ADD SLT PUSH2 0x6D1 JUMPI PUSH2 0xD06 PUSH2 0xCF4 PUSH2 0x27A3 JUMP JUMPDEST PUSH2 0xCFC PUSH2 0x304E JUMP JUMPDEST PUSH1 0x24 CALLDATALOAD SWAP1 CALLER PUSH2 0x31FF JUMP JUMPDEST PUSH1 0x20 PUSH1 0x40 MLOAD PUSH1 0x1 DUP2 MSTORE RETURN JUMPDEST CALLVALUE PUSH2 0x6D1 JUMPI PUSH1 0x40 CALLDATASIZE PUSH1 0x3 NOT ADD SLT PUSH2 0x6D1 JUMPI PUSH2 0xD2A PUSH2 0x27A3 JUMP JUMPDEST PUSH1 0x24 CALLDATALOAD PUSH2 0xD35 PUSH2 0x304E JUMP JUMPDEST CALLER PUSH1 0x0 MSTORE PUSH1 0x8 PUSH1 0x20 MSTORE PUSH1 0x40 PUSH1 0x0 KECCAK256 PUSH1 0x1 DUP1 PUSH1 0xA0 SHL SUB DUP4 AND PUSH1 0x0 MSTORE PUSH1 0x20 MSTORE PUSH1 0x40 PUSH1 0x0 KECCAK256 SLOAD SWAP1 DUP1 DUP3 LT PUSH2 0xD73 JUMPI DUP2 SUB SWAP1 DUP2 GT PUSH2 0x549 JUMPI PUSH2 0xD06 SWAP2 CALLER PUSH2 0x3550 JUMP JUMPDEST PUSH1 0x40 MLOAD PUSH3 0x461BCD PUSH1 0xE5 SHL DUP2 MSTORE PUSH1 0x20 PUSH1 0x4 DUP3 ADD MSTORE PUSH1 0x25 PUSH1 0x24 DUP3 ADD MSTORE PUSH32 0x42455032303A2064656372656173656420616C6C6F77616E63652062656C6F77 PUSH1 0x44 DUP3 ADD MSTORE PUSH5 0x207A65726F PUSH1 0xD8 SHL PUSH1 0x64 DUP3 ADD MSTORE PUSH1 0x84 SWAP1 REVERT JUMPDEST CALLVALUE PUSH2 0x6D1 JUMPI PUSH1 0x20 DUP1 PUSH1 0x3 NOT CALLDATASIZE ADD SLT PUSH2 0x6D1 JUMPI PUSH2 0xDE0 PUSH2 0x27A3 JUMP JUMPDEST SWAP1 PUSH2 0xDEC ADDRESS CALLER EQ PUSH2 0x3092 JUMP JUMPDEST PUSH1 0x1 PUSH1 0x1 PUSH1 0xA0 SHL SUB DUP3 AND SWAP2 DUP3 ISZERO PUSH2 0xEE1 JUMPI DUP3 PUSH1 0x0 MSTORE PUSH1 0x1 DUP3 MSTORE PUSH2 0xE16 PUSH1 0xFF PUSH1 0x40 PUSH1 0x0 KECCAK256 SLOAD AND PUSH2 0x31A7 JUMP JUMPDEST ADDRESS PUSH1 0x0 MSTORE PUSH1 0x7 DUP3 MSTORE PUSH1 0x40 PUSH1 0x0 KECCAK256 SLOAD SWAP1 DUP2 ISZERO PUSH2 0xE9C JUMPI SWAP1 PUSH2 0xE59 DUP2 PUSH32 0x23D6711A1D031134A36921253C75AA59E967D38E369AC625992824315E204F20 SWAP5 SWAP4 ADDRESS PUSH2 0x31FF JUMP JUMPDEST DUP4 PUSH1 0x0 DUP1 MLOAD PUSH1 0x20 PUSH2 0x38FF DUP4 CODECOPY DUP2 MLOAD SWAP2 MSTORE PUSH1 0x60 PUSH1 0x40 MLOAD DUP6 DUP2 MSTORE PUSH1 0x12 DUP7 DUP3 ADD MSTORE PUSH18 0x454D455247454E43595F5749544844524157 PUSH1 0x70 SHL PUSH1 0x40 DUP3 ADD MSTORE LOG2 PUSH1 0x40 MLOAD SWAP1 DUP2 MSTORE LOG2 STOP JUMPDEST PUSH1 0x40 MLOAD PUSH3 0x461BCD PUSH1 0xE5 SHL DUP2 MSTORE PUSH1 0x4 DUP2 ADD DUP5 SWAP1 MSTORE PUSH1 0x1C PUSH1 0x24 DUP3 ADD MSTORE PUSH32 0x42455032303A206E6F20746F6B656E7320746F20776974686472617700000000 PUSH1 0x44 DUP3 ADD MSTORE PUSH1 0x64 SWAP1 REVERT JUMPDEST PUSH1 0x40 MLOAD PUSH3 0x461BCD PUSH1 0xE5 SHL DUP2 MSTORE PUSH1 0x4 DUP2 ADD DUP4 SWAP1 MSTORE PUSH1 0x18 PUSH1 0x24 DUP3 ADD MSTORE PUSH32 0x42455032303A20696E76616C696420726563697069656E740000000000000000 PUSH1 0x44 DUP3 ADD MSTORE PUSH1 0x64 SWAP1 REVERT JUMPDEST CALLVALUE PUSH2 0x6D1 JUMPI PUSH1 0x20 CALLDATASIZE PUSH1 0x3 NOT ADD SLT PUSH2 0x6D1 JUMPI PUSH1 0x4 CALLDATALOAD CALLER PUSH1 0x0 MSTORE PUSH1 0x1 PUSH1 0x20 MSTORE PUSH2 0xF54 PUSH1 0xFF PUSH1 0x40 PUSH1 0x0 KECCAK256 SLOAD AND PUSH2 0x2B0A JUMP JUMPDEST PUSH2 0xF5F DUP2 ISZERO ISZERO PUSH2 0x38BB JUMP JUMPDEST PUSH1 0x40 MLOAD SWAP1 PUSH4 0xE398F56B PUSH1 0xE0 SHL PUSH1 0x20 DUP4 ADD MSTORE PUSH1 0x24 DUP3 ADD MSTORE PUSH1 0x24 DUP2 MSTORE PUSH2 0xF82 DUP2 PUSH2 0x297F JUMP JUMPDEST PUSH1 0x40 MLOAD PUSH2 0xF8E DUP2 PUSH2 0x297F JUMP JUMPDEST PUSH1 0x26 DUP2 MSTORE PUSH32 0x4D756C74692D5369673A20557064617465206461696C79207472616E73666572 PUSH1 0x20 DUP3 ADD MSTORE PUSH6 0x81B1A5B5A5D PUSH1 0xD2 SHL PUSH1 0x40 DUP3 ADD MSTORE CALLER PUSH1 0x0 MSTORE PUSH1 0x1 PUSH1 0x20 MSTORE PUSH2 0xFE1 PUSH1 0xFF PUSH1 0x40 PUSH1 0x0 KECCAK256 SLOAD AND PUSH2 0x2B0A JUMP JUMPDEST PUSH1 0x3 SLOAD SWAP1 PUSH1 0x40 MLOAD SWAP3 PUSH2 0xFF2 DUP5 PUSH2 0x2949 JUMP JUMPDEST ADDRESS DUP5 MSTORE PUSH1 0x20 DUP5 ADD SWAP1 DUP2 MSTORE PUSH1 0x0 PUSH1 0x40 DUP6 ADD MSTORE PUSH1 0x0 PUSH1 0x60 DUP6 ADD MSTORE TIMESTAMP PUSH1 0x80 DUP6 ADD MSTORE DUP2 PUSH1 0xA0 DUP6 ADD MSTORE PUSH1 0x1 PUSH1 0x40 SHL DUP4 LT ISZERO PUSH2 0x625 JUMPI PUSH1 0x1 DUP4 ADD PUSH1 0x3 SSTORE PUSH2 0x1032 DUP4 PUSH2 0x283E JUMP JUMPDEST SWAP2 SWAP1 SWAP2 PUSH2 0x6BB JUMPI DUP5 MLOAD DUP3 SLOAD PUSH1 0x1 PUSH1 0x1 PUSH1 0xA0 SHL SUB NOT AND PUSH1 0x1 PUSH1 0x1 PUSH1 0xA0 SHL SUB SWAP2 SWAP1 SWAP2 AND OR DUP3 SSTORE MLOAD DUP1 MLOAD SWAP1 PUSH1 0x1 PUSH1 0x1 PUSH1 0x40 SHL SUB DUP3 GT PUSH2 0x625 JUMPI PUSH2 0x1079 DUP3 PUSH2 0x393 PUSH1 0x1 DUP7 ADD SLOAD PUSH2 0x2879 JUMP JUMPDEST PUSH1 0x20 SWAP1 PUSH1 0x1F DUP4 GT PUSH1 0x1 EQ PUSH2 0x11D7 JUMPI SWAP2 DUP1 PUSH1 0xA0 SWAP5 SWAP3 PUSH1 0x5 SWAP5 PUSH1 0x0 SWAP3 PUSH2 0x11CC JUMPI JUMPDEST POP POP DUP2 PUSH1 0x1 SHL SWAP2 PUSH1 0x0 NOT SWAP1 PUSH1 0x3 SHL SHR NOT AND OR PUSH1 0x1 DUP3 ADD SSTORE JUMPDEST PUSH2 0x10CF PUSH1 0x40 DUP8 ADD MLOAD ISZERO ISZERO PUSH1 0x2 DUP4 ADD SWAP1 PUSH1 0xFF DUP1 NOT DUP4 SLOAD AND SWAP2 ISZERO ISZERO AND OR SWAP1 SSTORE JUMP JUMPDEST PUSH1 0x60 DUP7 ADD MLOAD PUSH1 0x3 DUP3 ADD SSTORE PUSH1 0x80 DUP7 ADD MLOAD PUSH1 0x4 DUP3 ADD SSTORE ADD SWAP4 ADD MLOAD SWAP3 DUP4 MLOAD PUSH1 0x1 PUSH1 0x1 PUSH1 0x40 SHL SUB DUP2 GT PUSH2 0x625 JUMPI PUSH2 0x1106 DUP2 PUSH2 0x429 DUP5 SLOAD PUSH2 0x2879 JUMP JUMPDEST PUSH1 0x20 SWAP5 PUSH1 0x1F DUP3 GT PUSH1 0x1 EQ PUSH2 0x1167 JUMPI SWAP5 DUP2 SWAP3 SWAP4 SWAP5 SWAP6 PUSH1 0x0 SWAP3 PUSH2 0x115C JUMPI POP POP DUP2 PUSH1 0x1 SHL SWAP2 PUSH1 0x0 NOT SWAP1 PUSH1 0x3 SHL SHR NOT AND OR SWAP1 SSTORE DUP2 PUSH1 0x0 DUP1 MLOAD PUSH1 0x20 PUSH2 0x391F DUP4 CODECOPY DUP2 MLOAD SWAP2 MSTORE PUSH1 0x40 MLOAD PUSH1 0x20 DUP2 MSTORE DUP1 PUSH2 0x487 CALLER SWAP6 PUSH1 0x20 DUP4 ADD SWAP1 PUSH2 0x27CF JUMP JUMPDEST ADD MLOAD SWAP1 POP DUP6 DUP1 PUSH2 0x44B JUMP JUMPDEST PUSH1 0x1F NOT DUP3 AND SWAP6 DUP4 PUSH1 0x0 MSTORE PUSH1 0x20 PUSH1 0x0 KECCAK256 SWAP2 PUSH1 0x0 JUMPDEST DUP9 DUP2 LT PUSH2 0x11B4 JUMPI POP DUP4 PUSH1 0x1 SWAP6 SWAP7 SWAP8 SWAP9 LT PUSH2 0x119B JUMPI POP POP POP DUP2 SHL ADD SWAP1 SSTORE PUSH2 0x460 JUMP JUMPDEST ADD MLOAD PUSH1 0x0 NOT PUSH1 0xF8 DUP5 PUSH1 0x3 SHL AND SHR NOT AND SWAP1 SSTORE DUP6 DUP1 DUP1 PUSH2 0x5E7 JUMP JUMPDEST SWAP2 SWAP3 PUSH1 0x20 PUSH1 0x1 DUP2 SWAP3 DUP7 DUP6 ADD MLOAD DUP2 SSTORE ADD SWAP5 ADD SWAP3 ADD PUSH2 0x117A JUMP JUMPDEST ADD MLOAD SWAP1 POP DUP9 DUP1 PUSH2 0x1098 JUMP JUMPDEST SWAP1 PUSH1 0x1 DUP5 ADD PUSH1 0x0 MSTORE PUSH1 0x20 PUSH1 0x0 KECCAK256 SWAP2 PUSH1 0x0 JUMPDEST PUSH1 0x1F NOT DUP6 AND DUP2 LT PUSH2 0x1234 JUMPI POP SWAP3 PUSH1 0xA0 SWAP5 SWAP3 PUSH1 0x1 SWAP3 PUSH1 0x5 SWAP6 DUP4 PUSH1 0x1F NOT DUP2 AND LT PUSH2 0x121B JUMPI JUMPDEST POP POP POP DUP2 SHL ADD PUSH1 0x1 DUP3 ADD SSTORE PUSH2 0x10B0 JUMP JUMPDEST ADD MLOAD PUSH1 0x0 NOT PUSH1 0xF8 DUP5 PUSH1 0x3 SHL AND SHR NOT AND SWAP1 SSTORE DUP9 DUP1 DUP1 PUSH2 0x120B JUMP JUMPDEST SWAP2 SWAP3 PUSH1 0x20 PUSH1 0x1 DUP2 SWAP3 DUP7 DUP6 ADD MLOAD DUP2 SSTORE ADD SWAP5 ADD SWAP3 ADD PUSH2 0x11E8 JUMP JUMPDEST CALLVALUE PUSH2 0x6D1 JUMPI PUSH1 0x0 CALLDATASIZE PUSH1 0x3 NOT ADD SLT PUSH2 0x6D1 JUMPI PUSH1 0x40 MLOAD DUP1 PUSH1 0x0 SLOAD DUP1 DUP4 MSTORE PUSH1 0x20 DUP1 SWAP4 ADD DUP1 SWAP2 PUSH1 0x0 DUP1 MSTORE PUSH32 0x290DECD9548B62A8D60345A988386FC84BA6BC95484008F6362F93160EF3E563 SWAP1 PUSH1 0x0 JUMPDEST DUP7 DUP3 DUP3 LT PUSH2 0x12F6 JUMPI DUP7 DUP7 PUSH2 0x12AD DUP3 DUP9 SUB DUP4 PUSH2 0x29B5 JUMP JUMPDEST PUSH1 0x40 MLOAD SWAP3 DUP4 SWAP3 DUP2 DUP5 ADD SWAP1 DUP3 DUP6 MSTORE MLOAD DUP1 SWAP2 MSTORE PUSH1 0x40 DUP5 ADD SWAP3 SWAP2 PUSH1 0x0 JUMPDEST DUP3 DUP2 LT PUSH2 0x12D6 JUMPI POP POP POP POP SUB SWAP1 RETURN JUMPDEST DUP4 MLOAD PUSH1 0x1 PUSH1 0x1 PUSH1 0xA0 SHL SUB AND DUP6 MSTORE DUP7 SWAP6 POP SWAP4 DUP2 ADD SWAP4 SWAP3 DUP2 ADD SWAP3 PUSH1 0x1 ADD PUSH2 0x12C7 JUMP JUMPDEST DUP4 SLOAD PUSH1 0x1 PUSH1 0x1 PUSH1 0xA0 SHL SUB AND DUP6 MSTORE SWAP1 SWAP4 ADD SWAP3 PUSH1 0x1 SWAP3 DUP4 ADD SWAP3 ADD PUSH2 0x1297 JUMP JUMPDEST CALLVALUE PUSH2 0x6D1 JUMPI PUSH1 0x20 CALLDATASIZE PUSH1 0x3 NOT ADD SLT PUSH2 0x6D1 JUMPI PUSH1 0x4 CALLDATALOAD PUSH1 0x3 SLOAD DUP2 LT ISZERO PUSH2 0x6D1 JUMPI PUSH2 0x133A SWAP1 PUSH2 0x283E JUMP JUMPDEST POP PUSH1 0x1 DUP1 PUSH1 0xA0 SHL SUB DUP2 SLOAD AND PUSH2 0x13CF PUSH1 0x40 MLOAD SWAP3 PUSH2 0x1364 DUP5 PUSH2 0x135D DUP2 PUSH1 0x1 DUP6 ADD PUSH2 0x28B3 JUMP JUMPDEST SUB DUP6 PUSH2 0x29B5 JUMP JUMPDEST PUSH1 0x5 PUSH1 0xFF PUSH1 0x2 DUP4 ADD SLOAD AND SWAP2 PUSH1 0x3 DUP2 ADD SLOAD PUSH2 0x1394 PUSH1 0x4 DUP4 ADD SLOAD SWAP3 PUSH2 0x138D PUSH1 0x40 MLOAD DUP1 SWAP7 DUP2 SWAP4 ADD PUSH2 0x28B3 JUMP JUMPDEST SUB DUP5 PUSH2 0x29B5 JUMP JUMPDEST PUSH2 0x13B0 PUSH1 0x40 MLOAD SWAP8 DUP9 SWAP8 DUP9 MSTORE PUSH1 0xC0 PUSH1 0x20 DUP10 ADD MSTORE PUSH1 0xC0 DUP9 ADD SWAP1 PUSH2 0x27CF JUMP JUMPDEST SWAP4 ISZERO ISZERO PUSH1 0x40 DUP8 ADD MSTORE PUSH1 0x60 DUP7 ADD MSTORE PUSH1 0x80 DUP6 ADD MSTORE DUP4 DUP3 SUB PUSH1 0xA0 DUP6 ADD MSTORE PUSH2 0x27CF JUMP JUMPDEST SUB SWAP1 RETURN JUMPDEST CALLVALUE PUSH2 0x6D1 JUMPI PUSH1 0x20 CALLDATASIZE PUSH1 0x3 NOT ADD SLT PUSH2 0x6D1 JUMPI PUSH1 0x1 PUSH1 0x1 PUSH1 0xA0 SHL SUB PUSH2 0x13F4 PUSH2 0x27A3 JUMP JUMPDEST AND PUSH1 0x0 MSTORE PUSH1 0xD PUSH1 0x20 MSTORE PUSH1 0x20 PUSH1 0x40 PUSH1 0x0 KECCAK256 SLOAD PUSH1 0x40 MLOAD SWAP1 DUP2 MSTORE RETURN JUMPDEST CALLVALUE PUSH2 0x6D1 JUMPI PUSH1 0x0 CALLDATASIZE PUSH1 0x3 NOT ADD SLT PUSH2 0x6D1 JUMPI PUSH2 0x13CF PUSH1 0x40 MLOAD PUSH2 0x142D DUP2 PUSH2 0x2964 JUMP JUMPDEST PUSH1 0x4 DUP2 MSTORE PUSH4 0x474E4A53 PUSH1 0xE0 SHL PUSH1 0x20 DUP3 ADD MSTORE PUSH1 0x40 MLOAD SWAP2 DUP3 SWAP2 PUSH1 0x20 DUP4 MSTORE PUSH1 0x20 DUP4 ADD SWAP1 PUSH2 0x27CF JUMP JUMPDEST CALLVALUE PUSH2 0x6D1 JUMPI PUSH1 0x0 CALLDATASIZE PUSH1 0x3 NOT ADD SLT PUSH2 0x6D1 JUMPI PUSH2 0x146E ADDRESS CALLER EQ PUSH2 0x3092 JUMP JUMPDEST PUSH2 0x1476 PUSH2 0x304E JUMP JUMPDEST PUSH1 0x1 PUSH1 0xFF NOT PUSH1 0x5 SLOAD AND OR PUSH1 0x5 SSTORE PUSH32 0x62E78CEA01BEE320CD4E420270B5EA74000D11B0C9F74754EBDBFC544B05A258 PUSH1 0x20 PUSH1 0x40 MLOAD CALLER DUP2 MSTORE LOG1 PUSH1 0x40 MLOAD PUSH1 0x20 DUP2 MSTORE PUSH1 0x5 PUSH1 0x20 DUP3 ADD MSTORE PUSH5 0x5041555345 PUSH1 0xD8 SHL PUSH1 0x40 DUP3 ADD MSTORE PUSH1 0x0 DUP1 MLOAD PUSH1 0x20 PUSH2 0x38FF DUP4 CODECOPY DUP2 MLOAD SWAP2 MSTORE PUSH1 0x60 ORIGIN SWAP3 LOG2 STOP JUMPDEST CALLVALUE PUSH2 0x6D1 JUMPI PUSH1 0x0 CALLDATASIZE PUSH1 0x3 NOT ADD SLT PUSH2 0x6D1 JUMPI PUSH2 0x14FB ADDRESS CALLER EQ PUSH2 0x3092 JUMP JUMPDEST PUSH2 0x1503 PUSH2 0x304E JUMP JUMPDEST PUSH1 0x1 PUSH1 0xFF NOT PUSH1 0x5 SLOAD AND OR PUSH1 0x5 SSTORE PUSH32 0x62E78CEA01BEE320CD4E420270B5EA74000D11B0C9F74754EBDBFC544B05A258 PUSH1 0x20 PUSH1 0x40 MLOAD CALLER DUP2 MSTORE LOG1 PUSH1 0x40 MLOAD PUSH1 0x20 DUP2 MSTORE PUSH1 0xF PUSH1 0x20 DUP3 ADD MSTORE PUSH15 0x454D455247454E43595F5041555345 PUSH1 0x88 SHL PUSH1 0x40 DUP3 ADD MSTORE PUSH1 0x0 DUP1 MLOAD PUSH1 0x20 PUSH2 0x38FF DUP4 CODECOPY DUP2 MLOAD SWAP2 MSTORE PUSH1 0x60 ORIGIN SWAP3 LOG2 STOP JUMPDEST CALLVALUE PUSH2 0x6D1 JUMPI PUSH1 0x0 CALLDATASIZE PUSH1 0x3 NOT ADD SLT PUSH2 0x6D1 JUMPI PUSH2 0x1592 ADDRESS CALLER EQ PUSH2 0x3092 JUMP JUMPDEST PUSH1 0x5 SLOAD PUSH1 0xFF DUP2 AND ISZERO PUSH2 0x1603 JUMPI PUSH1 0xFF NOT AND PUSH1 0x5 SSTORE PUSH32 0x5DB9EE0A495BF2E6FF9C91A7834C1BA4FDD244A5E8AA4E537BD38AEAE4B073AA PUSH1 0x20 PUSH1 0x40 MLOAD CALLER DUP2 MSTORE LOG1 PUSH1 0x40 MLOAD PUSH1 0x20 DUP2 MSTORE PUSH1 0x7 PUSH1 0x20 DUP3 ADD MSTORE PUSH7 0x554E5041555345 PUSH1 0xC8 SHL PUSH1 0x40 DUP3 ADD MSTORE PUSH1 0x0 DUP1 MLOAD PUSH1 0x20 PUSH2 0x38FF DUP4 CODECOPY DUP2 MLOAD SWAP2 MSTORE PUSH1 0x60 ORIGIN SWAP3 LOG2 STOP JUMPDEST PUSH1 0x40 MLOAD PUSH3 0x461BCD PUSH1 0xE5 SHL DUP2 MSTORE PUSH1 0x20 PUSH1 0x4 DUP3 ADD MSTORE PUSH1 0x14 PUSH1 0x24 DUP3 ADD MSTORE PUSH20 0x14185D5CD8589B194E881B9BDD081C185D5CD959 PUSH1 0x62 SHL PUSH1 0x44 DUP3 ADD MSTORE PUSH1 0x64 SWAP1 REVERT JUMPDEST CALLVALUE PUSH2 0x6D1 JUMPI PUSH1 0x20 CALLDATASIZE PUSH1 0x3 NOT ADD SLT PUSH2 0x6D1 JUMPI PUSH1 0x20 PUSH1 0x3 PUSH2 0x165F PUSH1 0x4 CALLDATALOAD PUSH2 0x283E JUMP JUMPDEST POP ADD SLOAD PUSH1 0x40 MLOAD SWAP1 DUP2 MSTORE RETURN JUMPDEST CALLVALUE PUSH2 0x6D1 JUMPI PUSH1 0x0 CALLDATASIZE PUSH1 0x3 NOT ADD SLT PUSH2 0x6D1 JUMPI PUSH1 0x0 SLOAD ISZERO DUP1 PUSH2 0x16E3 JUMPI PUSH2 0x16CD JUMPI PUSH1 0x0 DUP1 MSTORE PUSH32 0x290DECD9548B62A8D60345A988386FC84BA6BC95484008F6362F93160EF3E563 SLOAD PUSH1 0x20 SWAP1 PUSH1 0x1 PUSH1 0x1 PUSH1 0xA0 SHL SUB AND JUMPDEST PUSH1 0x40 MLOAD PUSH1 0x1 PUSH1 0x1 PUSH1 0xA0 SHL SUB SWAP1 SWAP2 AND DUP2 MSTORE RETURN JUMPDEST PUSH4 0x4E487B71 PUSH1 0xE0 SHL PUSH1 0x0 MSTORE PUSH1 0x32 PUSH1 0x4 MSTORE PUSH1 0x24 PUSH1 0x0 REVERT JUMPDEST POP PUSH1 0x20 PUSH1 0x0 PUSH2 0x16BB JUMP JUMPDEST CALLVALUE PUSH2 0x6D1 JUMPI PUSH1 0x0 CALLDATASIZE PUSH1 0x3 NOT ADD SLT PUSH2 0x6D1 JUMPI CALLER PUSH1 0x0 MSTORE PUSH1 0x1 PUSH1 0x20 MSTORE PUSH2 0x1718 PUSH1 0xFF PUSH1 0x40 PUSH1 0x0 KECCAK256 SLOAD AND PUSH2 0x2B0A JUMP JUMPDEST PUSH1 0x20 PUSH2 0x1788 PUSH1 0x40 MLOAD PUSH4 0x8ED0099B PUSH1 0xE0 SHL DUP4 DUP3 ADD MSTORE PUSH1 0x4 DUP2 MSTORE PUSH2 0x1739 DUP2 PUSH2 0x2964 JUMP JUMPDEST PUSH1 0x40 MLOAD SWAP1 PUSH2 0x1746 DUP3 PUSH2 0x297F JUMP JUMPDEST PUSH1 0x2A DUP3 MSTORE PUSH32 0x4D756C74692D5369673A20454D455247454E435920706175736520746F6B656E DUP5 DUP4 ADD MSTORE PUSH10 0x207472616E7366657273 PUSH1 0xB0 SHL PUSH1 0x40 DUP4 ADD MSTORE ADDRESS PUSH2 0x2B55 JUMP JUMPDEST PUSH1 0x40 MLOAD SWAP1 DUP2 MSTORE RETURN JUMPDEST CALLVALUE PUSH2 0x6D1 JUMPI PUSH1 0x0 CALLDATASIZE PUSH1 0x3 NOT ADD SLT PUSH2 0x6D1 JUMPI PUSH1 0x20 PUSH1 0x2 SLOAD PUSH1 0x40 MLOAD SWAP1 DUP2 MSTORE RETURN JUMPDEST CALLVALUE PUSH2 0x6D1 JUMPI PUSH1 0x0 CALLDATASIZE PUSH1 0x3 NOT ADD SLT PUSH2 0x6D1 JUMPI PUSH2 0x13CF PUSH1 0x40 MLOAD PUSH2 0x17CE DUP2 PUSH2 0x299A JUMP JUMPDEST PUSH1 0x57 DUP2 MSTORE PUSH32 0x47616E6A657320546F6B656E2028474E4A5329202D204D756C74692D53696720 PUSH1 0x20 DUP3 ADD MSTORE PUSH32 0x476F7665726E65642C20466978656420537570706C793A2031304D2C20506175 PUSH1 0x40 DUP3 ADD MSTORE PUSH32 0x7361626C652C204275726E61626C652C20536563757265000000000000000000 PUSH1 0x60 DUP3 ADD MSTORE PUSH1 0x40 MLOAD SWAP2 DUP3 SWAP2 PUSH1 0x20 DUP4 MSTORE PUSH1 0x20 DUP4 ADD SWAP1 PUSH2 0x27CF JUMP JUMPDEST CALLVALUE PUSH2 0x6D1 JUMPI PUSH1 0x40 CALLDATASIZE PUSH1 0x3 NOT ADD SLT PUSH2 0x6D1 JUMPI PUSH2 0x1890 PUSH2 0x1874 PUSH2 0x27A3 JUMP JUMPDEST PUSH1 0x24 CALLDATALOAD SWAP1 PUSH2 0x1880 PUSH2 0x30F1 JUMP JUMPDEST PUSH2 0x188B DUP3 CALLER DUP4 PUSH2 0x3652 JUMP JUMPDEST PUSH2 0x36E9 JUMP JUMPDEST PUSH1 0x1 PUSH1 0x6 SSTORE STOP JUMPDEST CALLVALUE PUSH2 0x6D1 JUMPI PUSH1 0x20 CALLDATASIZE PUSH1 0x3 NOT ADD SLT PUSH2 0x6D1 JUMPI PUSH1 0x20 PUSH2 0xA25 PUSH1 0x4 CALLDATALOAD PUSH2 0x2A28 JUMP JUMPDEST CALLVALUE PUSH2 0x6D1 JUMPI PUSH1 0x0 CALLDATASIZE PUSH1 0x3 NOT ADD SLT PUSH2 0x6D1 JUMPI PUSH1 0x80 PUSH1 0x0 SLOAD PUSH1 0x2 SLOAD PUSH1 0x3 SLOAD SWAP1 PUSH1 0x40 MLOAD SWAP3 DUP4 MSTORE PUSH1 0x20 DUP4 ADD MSTORE PUSH3 0x15180 PUSH1 0x40 DUP4 ADD MSTORE PUSH1 0x60 DUP3 ADD MSTORE RETURN JUMPDEST CALLVALUE PUSH2 0x6D1 JUMPI PUSH1 0x20 CALLDATASIZE PUSH1 0x3 NOT ADD SLT PUSH2 0x6D1 JUMPI PUSH1 0x1 PUSH1 0x1 PUSH1 0xA0 SHL SUB PUSH2 0x190E PUSH2 0x27A3 JUMP JUMPDEST AND PUSH1 0x0 MSTORE PUSH1 0x7 PUSH1 0x20 MSTORE PUSH1 0x20 PUSH1 0x40 PUSH1 0x0 KECCAK256 SLOAD PUSH1 0x40 MLOAD SWAP1 DUP2 MSTORE RETURN JUMPDEST CALLVALUE PUSH2 0x6D1 JUMPI PUSH1 0x40 CALLDATASIZE PUSH1 0x3 NOT ADD SLT PUSH2 0x6D1 JUMPI PUSH2 0x1940 PUSH2 0x27A3 JUMP JUMPDEST PUSH1 0x24 CALLDATALOAD CALLER PUSH1 0x0 MSTORE PUSH1 0x20 SWAP2 PUSH1 0x1 DUP4 MSTORE PUSH2 0x195F PUSH1 0xFF PUSH1 0x40 PUSH1 0x0 KECCAK256 SLOAD AND PUSH2 0x2B0A JUMP JUMPDEST PUSH1 0x1 DUP1 PUSH1 0xA0 SHL SUB AND SWAP1 DUP2 PUSH1 0x0 MSTORE PUSH1 0x1 DUP4 MSTORE PUSH2 0x1981 PUSH1 0xFF PUSH1 0x40 PUSH1 0x0 KECCAK256 SLOAD AND PUSH2 0x3147 JUMP JUMPDEST PUSH1 0x64 PUSH1 0x9 SLOAD DIV DUP2 GT ISZERO PUSH2 0x1A04 JUMPI SWAP1 PUSH2 0x1788 SWAP2 PUSH1 0x40 MLOAD SWAP2 PUSH4 0x44007B9 PUSH1 0xE0 SHL DUP6 DUP5 ADD MSTORE PUSH1 0x24 DUP4 ADD MSTORE PUSH1 0x44 DUP3 ADD MSTORE PUSH1 0x44 DUP2 MSTORE PUSH2 0x19BA DUP2 PUSH2 0x299A JUMP JUMPDEST PUSH1 0x40 MLOAD SWAP1 PUSH2 0x19C7 DUP3 PUSH2 0x297F JUMP JUMPDEST PUSH1 0x25 DUP3 MSTORE PUSH32 0x4D756C74692D5369673A204C6172676520746F6B656E206275726E206F706572 DUP5 DUP4 ADD MSTORE PUSH5 0x30BA34B7B7 PUSH1 0xD9 SHL PUSH1 0x40 DUP4 ADD MSTORE ADDRESS PUSH2 0x2B55 JUMP JUMPDEST PUSH1 0x40 MLOAD PUSH3 0x461BCD PUSH1 0xE5 SHL DUP2 MSTORE PUSH1 0x4 DUP2 ADD DUP5 SWAP1 MSTORE PUSH1 0x2A PUSH1 0x24 DUP3 ADD MSTORE PUSH32 0x42455032303A2075736520646972656374206275726E282920666F7220736D61 PUSH1 0x44 DUP3 ADD MSTORE PUSH10 0x6C6C20616D6F756E7473 PUSH1 0xB0 SHL PUSH1 0x64 DUP3 ADD MSTORE PUSH1 0x84 SWAP1 REVERT JUMPDEST CALLVALUE PUSH2 0x6D1 JUMPI PUSH1 0x0 CALLDATASIZE PUSH1 0x3 NOT ADD SLT PUSH2 0x6D1 JUMPI PUSH1 0x20 PUSH1 0x40 MLOAD PUSH2 0xE10 DUP2 MSTORE RETURN JUMPDEST CALLVALUE PUSH2 0x6D1 JUMPI PUSH1 0x0 CALLDATASIZE PUSH1 0x3 NOT ADD SLT PUSH2 0x6D1 JUMPI PUSH1 0x20 PUSH1 0xFF PUSH1 0x5 SLOAD AND PUSH1 0x40 MLOAD SWAP1 ISZERO ISZERO DUP2 MSTORE RETURN JUMPDEST CALLVALUE PUSH2 0x6D1 JUMPI PUSH1 0x0 CALLDATASIZE PUSH1 0x3 NOT ADD SLT PUSH2 0x6D1 JUMPI PUSH1 0x20 PUSH1 0x40 MLOAD PUSH3 0x15180 DUP2 MSTORE RETURN JUMPDEST CALLVALUE PUSH2 0x6D1 JUMPI PUSH1 0x0 CALLDATASIZE PUSH1 0x3 NOT ADD SLT PUSH2 0x6D1 JUMPI CALLER PUSH1 0x0 MSTORE PUSH1 0x1 PUSH1 0x20 MSTORE PUSH2 0x1AE5 PUSH1 0xFF PUSH1 0x40 PUSH1 0x0 KECCAK256 SLOAD AND PUSH2 0x2B0A JUMP JUMPDEST PUSH1 0x20 PUSH2 0x1788 PUSH1 0x40 MLOAD PUSH4 0x45B6F75D PUSH1 0xE1 SHL DUP4 DUP3 ADD MSTORE PUSH1 0x4 DUP2 MSTORE PUSH2 0x1B06 DUP2 PUSH2 0x2964 JUMP JUMPDEST PUSH1 0x40 MLOAD SWAP1 PUSH2 0x1B13 DUP3 PUSH2 0x297F JUMP JUMPDEST PUSH1 0x22 DUP3 MSTORE PUSH32 0x4D756C74692D5369673A20556E706175736520746F6B656E207472616E736665 DUP5 DUP4 ADD MSTORE PUSH2 0x7273 PUSH1 0xF0 SHL PUSH1 0x40 DUP4 ADD MSTORE ADDRESS PUSH2 0x2B55 JUMP JUMPDEST CALLVALUE PUSH2 0x6D1 JUMPI PUSH1 0x0 CALLDATASIZE PUSH1 0x3 NOT ADD SLT PUSH2 0x6D1 JUMPI CALLER PUSH1 0x0 MSTORE PUSH1 0x1 PUSH1 0x20 MSTORE PUSH2 0x1B78 PUSH1 0xFF PUSH1 0x40 PUSH1 0x0 KECCAK256 SLOAD AND PUSH2 0x2B0A JUMP JUMPDEST PUSH1 0x20 PUSH2 0x1788 PUSH1 0x40 MLOAD PUSH4 0x923F4337 PUSH1 0xE0 SHL DUP4 DUP3 ADD MSTORE PUSH1 0x4 DUP2 MSTORE PUSH2 0x1B99 DUP2 PUSH2 0x2964 JUMP JUMPDEST PUSH1 0x40 MLOAD SWAP1 PUSH2 0x1BA6 DUP3 PUSH2 0x2964 JUMP JUMPDEST DUP4 DUP3 MSTORE PUSH32 0x4D756C74692D5369673A20506175736520746F6B656E207472616E7366657273 DUP5 DUP4 ADD MSTORE ADDRESS PUSH2 0x2B55 JUMP JUMPDEST CALLVALUE PUSH2 0x6D1 JUMPI PUSH1 0x20 CALLDATASIZE PUSH1 0x3 NOT ADD SLT PUSH2 0x6D1 JUMPI PUSH1 0x4 CALLDATALOAD CALLER PUSH1 0x0 MSTORE PUSH1 0x1 PUSH1 0x20 MSTORE PUSH2 0x1C02 PUSH1 0xFF PUSH1 0x40 PUSH1 0x0 KECCAK256 SLOAD AND PUSH2 0x2B0A JUMP JUMPDEST PUSH2 0x1C0A PUSH2 0x30F1 JUMP JUMPDEST PUSH1 0x64 PUSH1 0x9 SLOAD DIV DUP2 GT PUSH2 0x1C75 JUMPI PUSH2 0x1C20 DUP2 CALLER PUSH2 0x36E9 JUMP JUMPDEST PUSH1 0x40 MLOAD SWAP1 DUP2 MSTORE PUSH1 0x40 PUSH1 0x20 DUP3 ADD MSTORE PUSH1 0xB PUSH1 0x40 DUP3 ADD MSTORE PUSH11 0x2224A922A1AA2FA12AA927 PUSH1 0xA9 SHL PUSH1 0x60 DUP3 ADD MSTORE PUSH32 0x5EA61442894C79F0F25EBBDBF1D9A6D976586B539CF871A022F985083782865D PUSH1 0x80 CALLER SWAP3 LOG2 PUSH1 0x1 PUSH1 0x6 SSTORE STOP JUMPDEST PUSH1 0x40 MLOAD PUSH3 0x461BCD PUSH1 0xE5 SHL DUP2 MSTORE PUSH1 0x20 PUSH1 0x4 DUP3 ADD MSTORE PUSH1 0x2D PUSH1 0x24 DUP3 ADD MSTORE PUSH32 0x42455032303A206C61726765206275726E732072657175697265206D756C7469 PUSH1 0x44 DUP3 ADD MSTORE PUSH13 0xB5CDA59C8185C1C1C9BDD985B PUSH1 0x9A SHL PUSH1 0x64 DUP3 ADD MSTORE PUSH1 0x84 SWAP1 REVERT JUMPDEST CALLVALUE PUSH2 0x6D1 JUMPI PUSH1 0x0 CALLDATASIZE PUSH1 0x3 NOT ADD SLT PUSH2 0x6D1 JUMPI PUSH1 0x20 PUSH1 0xB SLOAD PUSH1 0x40 MLOAD SWAP1 DUP2 MSTORE RETURN JUMPDEST CALLVALUE PUSH2 0x6D1 JUMPI PUSH2 0x1CFC CALLDATASIZE PUSH2 0x280F JUMP JUMPDEST SWAP1 CALLER PUSH1 0x0 MSTORE PUSH1 0x1 PUSH1 0x20 MSTORE PUSH2 0x1D17 PUSH1 0xFF PUSH1 0x40 PUSH1 0x0 KECCAK256 SLOAD AND PUSH2 0x2B0A JUMP JUMPDEST PUSH1 0x1 PUSH1 0x1 PUSH1 0xA0 SHL SUB SWAP1 DUP2 AND SWAP2 PUSH2 0x1D2E DUP4 ISZERO ISZERO PUSH2 0x3820 JUMP JUMPDEST DUP3 PUSH1 0x0 MSTORE PUSH1 0x1 PUSH1 0x20 MSTORE PUSH2 0x1D49 PUSH1 0xFF PUSH1 0x40 PUSH1 0x0 KECCAK256 SLOAD AND ISZERO PUSH2 0x3865 JUMP JUMPDEST PUSH1 0x40 MLOAD SWAP3 PUSH4 0x585A31FD PUSH1 0xE1 SHL PUSH1 0x20 DUP6 ADD MSTORE PUSH1 0x24 DUP5 ADD MSTORE DUP1 ISZERO ISZERO PUSH1 0x44 DUP5 ADD MSTORE PUSH1 0x44 DUP4 MSTORE PUSH2 0x1D74 DUP4 PUSH2 0x299A JUMP JUMPDEST ISZERO PUSH2 0x2007 JUMPI PUSH1 0x40 MLOAD PUSH2 0x1D85 DUP2 PUSH2 0x2964 JUMP JUMPDEST PUSH1 0x1C DUP2 MSTORE PUSH32 0x4D756C74692D5369673A20426C61636B6C697374206164647265737300000000 PUSH1 0x20 DUP3 ADD MSTORE JUMPDEST CALLER PUSH1 0x0 MSTORE PUSH1 0x1 PUSH1 0x20 MSTORE PUSH2 0x1DCA PUSH1 0xFF PUSH1 0x40 PUSH1 0x0 KECCAK256 SLOAD AND PUSH2 0x2B0A JUMP JUMPDEST PUSH1 0x3 SLOAD SWAP2 PUSH1 0x40 MLOAD SWAP4 PUSH2 0x1DDB DUP6 PUSH2 0x2949 JUMP JUMPDEST ADDRESS DUP6 MSTORE PUSH1 0x20 DUP6 ADD SWAP1 DUP2 MSTORE PUSH1 0x0 PUSH1 0x40 DUP7 ADD MSTORE PUSH1 0x0 PUSH1 0x60 DUP7 ADD MSTORE TIMESTAMP PUSH1 0x80 DUP7 ADD MSTORE DUP3 PUSH1 0xA0 DUP7 ADD MSTORE PUSH1 0x1 PUSH1 0x40 SHL DUP5 LT ISZERO PUSH2 0x625 JUMPI PUSH1 0x1 DUP5 ADD PUSH1 0x3 SSTORE PUSH2 0x1E1B DUP5 PUSH2 0x283E JUMP JUMPDEST SWAP3 SWAP1 SWAP3 PUSH2 0x6BB JUMPI DUP6 MLOAD DUP4 SLOAD PUSH1 0x1 PUSH1 0x1 PUSH1 0xA0 SHL SUB NOT AND SWAP2 AND OR DUP3 SSTORE MLOAD DUP1 MLOAD SWAP1 PUSH1 0x1 PUSH1 0x1 PUSH1 0x40 SHL SUB DUP3 GT PUSH2 0x625 JUMPI PUSH2 0x1E58 DUP3 PUSH2 0x393 PUSH1 0x1 DUP7 ADD SLOAD PUSH2 0x2879 JUMP JUMPDEST PUSH1 0x20 SWAP1 PUSH1 0x1F DUP4 GT PUSH1 0x1 EQ PUSH2 0x1F92 JUMPI SWAP2 DUP1 PUSH1 0xA0 SWAP5 SWAP3 PUSH1 0x5 SWAP5 PUSH1 0x0 SWAP3 PUSH2 0x1F87 JUMPI JUMPDEST POP POP DUP2 PUSH1 0x1 SHL SWAP2 PUSH1 0x0 NOT SWAP1 PUSH1 0x3 SHL SHR NOT AND OR PUSH1 0x1 DUP3 ADD SSTORE JUMPDEST PUSH2 0x1EAE PUSH1 0x40 DUP8 ADD MLOAD ISZERO ISZERO PUSH1 0x2 DUP4 ADD SWAP1 PUSH1 0xFF DUP1 NOT DUP4 SLOAD AND SWAP2 ISZERO ISZERO AND OR SWAP1 SSTORE JUMP JUMPDEST PUSH1 0x60 DUP7 ADD MLOAD PUSH1 0x3 DUP3 ADD SSTORE PUSH1 0x80 DUP7 ADD MLOAD PUSH1 0x4 DUP3 ADD SSTORE ADD SWAP4 ADD MLOAD SWAP3 DUP4 MLOAD PUSH1 0x1 PUSH1 0x1 PUSH1 0x40 SHL SUB DUP2 GT PUSH2 0x625 JUMPI PUSH2 0x1EE5 DUP2 PUSH2 0x429 DUP5 SLOAD PUSH2 0x2879 JUMP JUMPDEST PUSH1 0x20 SWAP5 PUSH1 0x1F DUP3 GT PUSH1 0x1 EQ PUSH2 0x1F3B JUMPI SWAP5 DUP2 SWAP3 SWAP4 SWAP5 SWAP6 PUSH1 0x0 SWAP3 PUSH2 0x115C JUMPI POP POP DUP2 PUSH1 0x1 SHL SWAP2 PUSH1 0x0 NOT SWAP1 PUSH1 0x3 SHL SHR NOT AND OR SWAP1 SSTORE DUP2 PUSH1 0x0 DUP1 MLOAD PUSH1 0x20 PUSH2 0x391F DUP4 CODECOPY DUP2 MLOAD SWAP2 MSTORE PUSH1 0x40 MLOAD PUSH1 0x20 DUP2 MSTORE DUP1 PUSH2 0x487 CALLER SWAP6 PUSH1 0x20 DUP4 ADD SWAP1 PUSH2 0x27CF JUMP JUMPDEST PUSH1 0x1F NOT DUP3 AND SWAP6 DUP4 PUSH1 0x0 MSTORE PUSH1 0x20 PUSH1 0x0 KECCAK256 SWAP2 PUSH1 0x0 JUMPDEST DUP9 DUP2 LT PUSH2 0x1F6F JUMPI POP DUP4 PUSH1 0x1 SWAP6 SWAP7 SWAP8 SWAP9 LT PUSH2 0x119B JUMPI POP POP POP DUP2 SHL ADD SWAP1 SSTORE PUSH2 0x460 JUMP JUMPDEST SWAP2 SWAP3 PUSH1 0x20 PUSH1 0x1 DUP2 SWAP3 DUP7 DUP6 ADD MLOAD DUP2 SSTORE ADD SWAP5 ADD SWAP3 ADD PUSH2 0x1F4E JUMP JUMPDEST ADD MLOAD SWAP1 POP DUP9 DUP1 PUSH2 0x1E77 JUMP JUMPDEST SWAP1 PUSH1 0x1 DUP5 ADD PUSH1 0x0 MSTORE PUSH1 0x20 PUSH1 0x0 KECCAK256 SWAP2 PUSH1 0x0 JUMPDEST PUSH1 0x1F NOT DUP6 AND DUP2 LT PUSH2 0x1FEF JUMPI POP SWAP3 PUSH1 0xA0 SWAP5 SWAP3 PUSH1 0x1 SWAP3 PUSH1 0x5 SWAP6 DUP4 PUSH1 0x1F NOT DUP2 AND LT PUSH2 0x1FD6 JUMPI JUMPDEST POP POP POP DUP2 SHL ADD PUSH1 0x1 DUP3 ADD SSTORE PUSH2 0x1E8F JUMP JUMPDEST ADD MLOAD PUSH1 0x0 NOT PUSH1 0xF8 DUP5 PUSH1 0x3 SHL AND SHR NOT AND SWAP1 SSTORE DUP9 DUP1 DUP1 PUSH2 0x1FC6 JUMP JUMPDEST SWAP2 SWAP3 PUSH1 0x20 PUSH1 0x1 DUP2 SWAP3 DUP7 DUP6 ADD MLOAD DUP2 SSTORE ADD SWAP5 ADD SWAP3 ADD PUSH2 0x1FA3 JUMP JUMPDEST PUSH1 0x40 MLOAD PUSH2 0x2013 DUP2 PUSH2 0x297F JUMP JUMPDEST PUSH1 0x28 DUP2 MSTORE PUSH32 0x4D756C74692D5369673A2052656D6F766520616464726573732066726F6D2062 PUSH1 0x20 DUP3 ADD MSTORE PUSH8 0x1B1858DADB1A5CDD PUSH1 0xC2 SHL PUSH1 0x40 DUP3 ADD MSTORE PUSH2 0x1DB0 JUMP JUMPDEST CALLVALUE PUSH2 0x6D1 JUMPI PUSH1 0x40 CALLDATASIZE PUSH1 0x3 NOT ADD SLT PUSH2 0x6D1 JUMPI PUSH2 0xD06 PUSH2 0x206F PUSH2 0x27A3 JUMP JUMPDEST PUSH2 0x2077 PUSH2 0x304E JUMP JUMPDEST CALLER PUSH1 0x0 MSTORE PUSH1 0x8 PUSH1 0x20 MSTORE PUSH1 0x40 PUSH1 0x0 KECCAK256 PUSH1 0x1 DUP1 PUSH1 0xA0 SHL SUB DUP3 AND PUSH1 0x0 MSTORE PUSH1 0x20 MSTORE PUSH2 0x20A5 PUSH1 0x24 CALLDATALOAD PUSH1 0x40 PUSH1 0x0 KECCAK256 SLOAD PUSH2 0x2A3E JUMP JUMPDEST SWAP1 CALLER PUSH2 0x3550 JUMP JUMPDEST CALLVALUE PUSH2 0x6D1 JUMPI PUSH1 0x40 CALLDATASIZE PUSH1 0x3 NOT ADD SLT PUSH2 0x6D1 JUMPI PUSH2 0x20C5 PUSH2 0x27B9 JUMP JUMPDEST PUSH1 0x4 CALLDATALOAD PUSH1 0x0 MSTORE PUSH1 0x4 PUSH1 0x20 MSTORE PUSH1 0x40 PUSH1 0x0 KECCAK256 SWAP1 PUSH1 0x1 DUP1 PUSH1 0xA0 SHL SUB AND PUSH1 0x0 MSTORE PUSH1 0x20 MSTORE PUSH1 0x20 PUSH1 0xFF PUSH1 0x40 PUSH1 0x0 KECCAK256 SLOAD AND PUSH1 0x40 MLOAD SWAP1 ISZERO ISZERO DUP2 MSTORE RETURN JUMPDEST CALLVALUE PUSH2 0x6D1 JUMPI PUSH1 0x0 CALLDATASIZE PUSH1 0x3 NOT ADD SLT PUSH2 0x6D1 JUMPI PUSH1 0x20 PUSH1 0x40 MLOAD PUSH1 0x12 DUP2 MSTORE RETURN JUMPDEST CALLVALUE PUSH2 0x6D1 JUMPI PUSH1 0x20 CALLDATASIZE PUSH1 0x3 NOT ADD SLT PUSH2 0x6D1 JUMPI PUSH1 0x1 PUSH1 0x1 PUSH1 0xA0 SHL SUB PUSH2 0x2136 PUSH2 0x27A3 JUMP JUMPDEST AND PUSH1 0x0 MSTORE PUSH1 0x1 PUSH1 0x20 MSTORE PUSH1 0x20 PUSH1 0xFF PUSH1 0x40 PUSH1 0x0 KECCAK256 SLOAD AND PUSH1 0x40 MLOAD SWAP1 ISZERO ISZERO DUP2 MSTORE RETURN JUMPDEST CALLVALUE PUSH2 0x6D1 JUMPI PUSH1 0x0 CALLDATASIZE PUSH1 0x3 NOT ADD SLT PUSH2 0x6D1 JUMPI PUSH1 0x20 PUSH1 0x3 SLOAD PUSH1 0x40 MLOAD SWAP1 DUP2 MSTORE RETURN JUMPDEST CALLVALUE PUSH2 0x6D1 JUMPI PUSH1 0x20 CALLDATASIZE PUSH1 0x3 NOT ADD SLT PUSH2 0x6D1 JUMPI PUSH2 0x218B PUSH2 0x27A3 JUMP JUMPDEST CALLER PUSH1 0x0 MSTORE PUSH1 0x1 PUSH1 0x20 MSTORE PUSH2 0x21A5 PUSH1 0xFF PUSH1 0x40 PUSH1 0x0 KECCAK256 SLOAD AND PUSH2 0x2B0A JUMP JUMPDEST PUSH1 0x1 DUP1 PUSH1 0xA0 SHL SUB DUP1 SWAP2 AND SWAP1 DUP2 PUSH1 0x0 MSTORE PUSH1 0x1 PUSH1 0x20 MSTORE PUSH2 0x21CA PUSH1 0xFF PUSH1 0x40 PUSH1 0x0 KECCAK256 SLOAD AND PUSH2 0x31A7 JUMP JUMPDEST PUSH1 0x40 MLOAD SWAP2 PUSH4 0x51D55BC7 PUSH1 0xE1 SHL PUSH1 0x20 DUP5 ADD MSTORE PUSH1 0x24 DUP4 ADD MSTORE PUSH1 0x24 DUP3 MSTORE PUSH2 0x21ED DUP3 PUSH2 0x297F JUMP JUMPDEST PUSH1 0x40 MLOAD PUSH2 0x21F9 DUP2 PUSH2 0x297F JUMP JUMPDEST PUSH1 0x25 DUP2 MSTORE PUSH32 0x4D756C74692D5369673A20456D657267656E637920746F6B656E207769746864 PUSH1 0x20 DUP3 ADD MSTORE PUSH5 0x1C985DD85B PUSH1 0xDA SHL PUSH1 0x40 DUP3 ADD MSTORE CALLER PUSH1 0x0 MSTORE PUSH1 0x1 PUSH1 0x20 MSTORE PUSH2 0x224B PUSH1 0xFF PUSH1 0x40 PUSH1 0x0 KECCAK256 SLOAD AND PUSH2 0x2B0A JUMP JUMPDEST PUSH1 0x3 SLOAD SWAP2 PUSH1 0x40 MLOAD SWAP4 PUSH2 0x225C DUP6 PUSH2 0x2949 JUMP JUMPDEST ADDRESS DUP6 MSTORE PUSH1 0x20 DUP6 ADD SWAP1 DUP2 MSTORE PUSH1 0x0 PUSH1 0x40 DUP7 ADD MSTORE PUSH1 0x0 PUSH1 0x60 DUP7 ADD MSTORE TIMESTAMP PUSH1 0x80 DUP7 ADD MSTORE DUP3 PUSH1 0xA0 DUP7 ADD MSTORE PUSH1 0x1 PUSH1 0x40 SHL DUP5 LT ISZERO PUSH2 0x625 JUMPI PUSH1 0x1 DUP5 ADD PUSH1 0x3 SSTORE PUSH2 0x229C DUP5 PUSH2 0x283E JUMP JUMPDEST SWAP3 SWAP1 SWAP3 PUSH2 0x6BB JUMPI DUP6 MLOAD DUP4 SLOAD PUSH1 0x1 PUSH1 0x1 PUSH1 0xA0 SHL SUB NOT AND SWAP2 AND OR DUP3 SSTORE MLOAD DUP1 MLOAD SWAP1 PUSH1 0x1 PUSH1 0x1 PUSH1 0x40 SHL SUB DUP3 GT PUSH2 0x625 JUMPI PUSH2 0x22D9 DUP3 PUSH2 0x393 PUSH1 0x1 DUP7 ADD SLOAD PUSH2 0x2879 JUMP JUMPDEST PUSH1 0x20 SWAP1 PUSH1 0x1F DUP4 GT PUSH1 0x1 EQ PUSH2 0x2413 JUMPI SWAP2 DUP1 PUSH1 0xA0 SWAP5 SWAP3 PUSH1 0x5 SWAP5 PUSH1 0x0 SWAP3 PUSH2 0x2408 JUMPI JUMPDEST POP POP DUP2 PUSH1 0x1 SHL SWAP2 PUSH1 0x0 NOT SWAP1 PUSH1 0x3 SHL SHR NOT AND OR PUSH1 0x1 DUP3 ADD SSTORE JUMPDEST PUSH2 0x232F PUSH1 0x40 DUP8 ADD MLOAD ISZERO ISZERO PUSH1 0x2 DUP4 ADD SWAP1 PUSH1 0xFF DUP1 NOT DUP4 SLOAD AND SWAP2 ISZERO ISZERO AND OR SWAP1 SSTORE JUMP JUMPDEST PUSH1 0x60 DUP7 ADD MLOAD PUSH1 0x3 DUP3 ADD SSTORE PUSH1 0x80 DUP7 ADD MLOAD PUSH1 0x4 DUP3 ADD SSTORE ADD SWAP4 ADD MLOAD SWAP3 DUP4 MLOAD PUSH1 0x1 PUSH1 0x1 PUSH1 0x40 SHL SUB DUP2 GT PUSH2 0x625 JUMPI PUSH2 0x2366 DUP2 PUSH2 0x429 DUP5 SLOAD PUSH2 0x2879 JUMP JUMPDEST PUSH1 0x20 SWAP5 PUSH1 0x1F DUP3 GT PUSH1 0x1 EQ PUSH2 0x23BC JUMPI SWAP5 DUP2 SWAP3 SWAP4 SWAP5 SWAP6 PUSH1 0x0 SWAP3 PUSH2 0x115C JUMPI POP POP DUP2 PUSH1 0x1 SHL SWAP2 PUSH1 0x0 NOT SWAP1 PUSH1 0x3 SHL SHR NOT AND OR SWAP1 SSTORE DUP2 PUSH1 0x0 DUP1 MLOAD PUSH1 0x20 PUSH2 0x391F DUP4 CODECOPY DUP2 MLOAD SWAP2 MSTORE PUSH1 0x40 MLOAD PUSH1 0x20 DUP2 MSTORE DUP1 PUSH2 0x487 CALLER SWAP6 PUSH1 0x20 DUP4 ADD SWAP1 PUSH2 0x27CF JUMP JUMPDEST PUSH1 0x1F NOT DUP3 AND SWAP6 DUP4 PUSH1 0x0 MSTORE PUSH1 0x20 PUSH1 0x0 KECCAK256 SWAP2 PUSH1 0x0 JUMPDEST DUP9 DUP2 LT PUSH2 0x23F0 JUMPI POP DUP4 PUSH1 0x1 SWAP6 SWAP7 SWAP8 SWAP9 LT PUSH2 0x119B JUMPI POP POP POP DUP2 SHL ADD SWAP1 SSTORE PUSH2 0x460 JUMP JUMPDEST SWAP2 SWAP3 PUSH1 0x20 PUSH1 0x1 DUP2 SWAP3 DUP7 DUP6 ADD MLOAD DUP2 SSTORE ADD SWAP5 ADD SWAP3 ADD PUSH2 0x23CF JUMP JUMPDEST ADD MLOAD SWAP1 POP DUP9 DUP1 PUSH2 0x22F8 JUMP JUMPDEST SWAP1 PUSH1 0x1 DUP5 ADD PUSH1 0x0 MSTORE PUSH1 0x20 PUSH1 0x0 KECCAK256 SWAP2 PUSH1 0x0 JUMPDEST PUSH1 0x1F NOT DUP6 AND DUP2 LT PUSH2 0x2470 JUMPI POP SWAP3 PUSH1 0xA0 SWAP5 SWAP3 PUSH1 0x1 SWAP3 PUSH1 0x5 SWAP6 DUP4 PUSH1 0x1F NOT DUP2 AND LT PUSH2 0x2457 JUMPI JUMPDEST POP POP POP DUP2 SHL ADD PUSH1 0x1 DUP3 ADD SSTORE PUSH2 0x2310 JUMP JUMPDEST ADD MLOAD PUSH1 0x0 NOT PUSH1 0xF8 DUP5 PUSH1 0x3 SHL AND SHR NOT AND SWAP1 SSTORE DUP9 DUP1 DUP1 PUSH2 0x2447 JUMP JUMPDEST SWAP2 SWAP3 PUSH1 0x20 PUSH1 0x1 DUP2 SWAP3 DUP7 DUP6 ADD MLOAD DUP2 SSTORE ADD SWAP5 ADD SWAP3 ADD PUSH2 0x2424 JUMP JUMPDEST CALLVALUE PUSH2 0x6D1 JUMPI PUSH1 0x60 CALLDATASIZE PUSH1 0x3 NOT ADD SLT PUSH2 0x6D1 JUMPI PUSH2 0xD06 PUSH2 0x24A4 PUSH2 0x27A3 JUMP JUMPDEST PUSH2 0x24AC PUSH2 0x27B9 JUMP JUMPDEST PUSH1 0x44 CALLDATALOAD SWAP2 PUSH2 0x24B8 PUSH2 0x304E JUMP JUMPDEST PUSH2 0x24C3 DUP4 CALLER DUP4 PUSH2 0x3652 JUMP JUMPDEST PUSH2 0x31FF JUMP JUMPDEST CALLVALUE PUSH2 0x6D1 JUMPI PUSH1 0x20 DUP1 PUSH1 0x3 NOT CALLDATASIZE ADD SLT PUSH2 0x6D1 JUMPI PUSH1 0x4 CALLDATALOAD SWAP1 CALLER PUSH1 0x0 MSTORE PUSH1 0x1 DUP2 MSTORE PUSH2 0x24F7 PUSH1 0xFF PUSH1 0x40 PUSH1 0x0 KECCAK256 SLOAD AND PUSH2 0x2B0A JUMP JUMPDEST PUSH2 0x2504 PUSH1 0x3 SLOAD DUP4 LT PUSH2 0x2F9B JUMP JUMPDEST PUSH2 0x2514 PUSH1 0xFF PUSH1 0x2 PUSH2 0x723 DUP6 PUSH2 0x283E JUMP JUMPDEST DUP2 PUSH1 0x0 MSTORE PUSH1 0x4 DUP2 MSTORE PUSH1 0x40 PUSH1 0x0 KECCAK256 CALLER PUSH1 0x0 MSTORE DUP2 MSTORE PUSH1 0xFF PUSH1 0x40 PUSH1 0x0 KECCAK256 SLOAD AND ISZERO PUSH2 0x2599 JUMPI DUP2 PUSH1 0x0 MSTORE PUSH1 0x4 DUP2 MSTORE PUSH1 0x40 PUSH1 0x0 KECCAK256 SWAP1 CALLER PUSH1 0x0 MSTORE MSTORE PUSH1 0x40 PUSH1 0x0 KECCAK256 PUSH1 0xFF NOT DUP2 SLOAD AND SWAP1 SSTORE PUSH1 0x3 PUSH2 0x2560 DUP3 PUSH2 0x283E JUMP JUMPDEST POP ADD DUP1 SLOAD DUP1 ISZERO PUSH2 0x549 JUMPI PUSH1 0x0 NOT ADD SWAP1 SSTORE CALLER SWAP1 PUSH32 0x320E919218F4D2FB16217ADE7951038E1D5DBF90699405A9F2B52F7A4EFDFF42 PUSH1 0x0 DUP1 LOG3 STOP JUMPDEST PUSH1 0x84 SWAP1 PUSH1 0x40 MLOAD SWAP1 PUSH3 0x461BCD PUSH1 0xE5 SHL DUP3 MSTORE PUSH1 0x4 DUP3 ADD MSTORE PUSH1 0x23 PUSH1 0x24 DUP3 ADD MSTORE PUSH32 0x4D756C74695369673A207472616E73616374696F6E206E6F7420636F6E666972 PUSH1 0x44 DUP3 ADD MSTORE PUSH3 0x1B5959 PUSH1 0xEA SHL PUSH1 0x64 DUP3 ADD MSTORE REVERT JUMPDEST CALLVALUE PUSH2 0x6D1 JUMPI PUSH1 0x0 CALLDATASIZE PUSH1 0x3 NOT ADD SLT PUSH2 0x6D1 JUMPI PUSH1 0x20 PUSH1 0x9 SLOAD PUSH1 0x40 MLOAD SWAP1 DUP2 MSTORE RETURN JUMPDEST CALLVALUE PUSH2 0x6D1 JUMPI PUSH1 0x40 CALLDATASIZE PUSH1 0x3 NOT ADD SLT PUSH2 0x6D1 JUMPI PUSH2 0xD06 PUSH2 0x2623 PUSH2 0x27A3 JUMP JUMPDEST PUSH2 0x262B PUSH2 0x304E JUMP JUMPDEST PUSH1 0x24 CALLDATALOAD SWAP1 CALLER PUSH2 0x3550 JUMP JUMPDEST CALLVALUE PUSH2 0x6D1 JUMPI PUSH1 0x0 CALLDATASIZE PUSH1 0x3 NOT ADD SLT PUSH2 0x6D1 JUMPI PUSH1 0x20 PUSH1 0xFF PUSH1 0xE SLOAD AND PUSH1 0x40 MLOAD SWAP1 ISZERO ISZERO DUP2 MSTORE RETURN JUMPDEST CALLVALUE PUSH2 0x6D1 JUMPI PUSH1 0x0 CALLDATASIZE PUSH1 0x3 NOT ADD SLT PUSH2 0x6D1 JUMPI PUSH2 0x13CF PUSH1 0x40 MLOAD PUSH2 0x2678 DUP2 PUSH2 0x2964 JUMP JUMPDEST PUSH1 0x6 DUP2 MSTORE PUSH6 0x47616E6A6573 PUSH1 0xD0 SHL PUSH1 0x20 DUP3 ADD MSTORE PUSH1 0x40 MLOAD SWAP2 DUP3 SWAP2 PUSH1 0x20 DUP4 MSTORE PUSH1 0x20 DUP4 ADD SWAP1 PUSH2 0x27CF JUMP JUMPDEST CALLVALUE PUSH2 0x6D1 JUMPI PUSH1 0x40 CALLDATASIZE PUSH1 0x3 NOT ADD SLT PUSH2 0x6D1 JUMPI PUSH2 0x26B8 PUSH2 0x27A3 JUMP JUMPDEST PUSH32 0x5EA61442894C79F0F25EBBDBF1D9A6D976586B539CF871A022F985083782865D PUSH1 0x80 PUSH1 0x24 CALLDATALOAD PUSH2 0x26E6 PUSH2 0x30F1 JUMP JUMPDEST PUSH2 0x26F1 ADDRESS CALLER EQ PUSH2 0x3092 JUMP JUMPDEST PUSH2 0x2719 DUP2 PUSH1 0x1 DUP1 PUSH1 0xA0 SHL SUB DUP7 AND SWAP6 DUP7 PUSH1 0x0 MSTORE PUSH1 0x1 PUSH1 0x20 MSTORE PUSH2 0x188B PUSH1 0xFF PUSH1 0x40 PUSH1 0x0 KECCAK256 SLOAD AND PUSH2 0x3147 JUMP JUMPDEST PUSH1 0x40 MLOAD SWAP1 DUP2 MSTORE PUSH1 0x40 PUSH1 0x20 DUP3 ADD MSTORE PUSH1 0xD PUSH1 0x40 DUP3 ADD MSTORE PUSH13 0x26AAA62A24A9A4A3AFA12AA927 PUSH1 0x99 SHL PUSH1 0x60 DUP3 ADD MSTORE LOG2 PUSH1 0x1 PUSH1 0x6 SSTORE STOP JUMPDEST CALLVALUE PUSH2 0x6D1 JUMPI PUSH1 0x20 CALLDATASIZE PUSH1 0x3 NOT ADD SLT PUSH2 0x6D1 JUMPI PUSH1 0x4 CALLDATALOAD SWAP1 PUSH1 0x0 SLOAD DUP3 LT ISZERO PUSH2 0x6D1 JUMPI PUSH1 0x0 DUP1 MSTORE PUSH32 0x290DECD9548B62A8D60345A988386FC84BA6BC95484008F6362F93160EF3E563 SWAP1 SWAP2 ADD SLOAD PUSH1 0x1 PUSH1 0x1 PUSH1 0xA0 SHL SUB AND DUP2 MSTORE PUSH1 0x20 SWAP1 RETURN JUMPDEST PUSH1 0x4 CALLDATALOAD SWAP1 PUSH1 0x1 PUSH1 0x1 PUSH1 0xA0 SHL SUB DUP3 AND DUP3 SUB PUSH2 0x6D1 JUMPI JUMP JUMPDEST PUSH1 0x24 CALLDATALOAD SWAP1 PUSH1 0x1 PUSH1 0x1 PUSH1 0xA0 SHL SUB DUP3 AND DUP3 SUB PUSH2 0x6D1 JUMPI JUMP JUMPDEST SWAP2 SWAP1 DUP3 MLOAD SWAP3 DUP4 DUP3 MSTORE PUSH1 0x0 JUMPDEST DUP5 DUP2 LT PUSH2 0x27FB JUMPI POP POP DUP3 PUSH1 0x0 PUSH1 0x20 DUP1 SWAP5 SWAP6 DUP5 ADD ADD MSTORE PUSH1 0x1F DUP1 NOT SWAP2 ADD AND ADD ADD SWAP1 JUMP JUMPDEST PUSH1 0x20 DUP2 DUP4 ADD DUP2 ADD MLOAD DUP5 DUP4 ADD DUP3 ADD MSTORE ADD PUSH2 0x27DA JUMP JUMPDEST PUSH1 0x40 SWAP1 PUSH1 0x3 NOT ADD SLT PUSH2 0x6D1 JUMPI PUSH1 0x4 CALLDATALOAD PUSH1 0x1 PUSH1 0x1 PUSH1 0xA0 SHL SUB DUP2 AND DUP2 SUB PUSH2 0x6D1 JUMPI SWAP1 PUSH1 0x24 CALLDATALOAD DUP1 ISZERO ISZERO DUP2 SUB PUSH2 0x6D1 JUMPI SWAP1 JUMP JUMPDEST PUSH1 0x3 SLOAD DUP2 LT ISZERO PUSH2 0x16CD JUMPI PUSH1 0x6 SWAP1 PUSH1 0x3 PUSH1 0x0 MSTORE MUL PUSH32 0xC2575A0E9E593C00F959F8C92F12DB2869C3395A3B0502D05E2516446F71F85B ADD SWAP1 PUSH1 0x0 SWAP1 JUMP JUMPDEST SWAP1 PUSH1 0x1 DUP3 DUP2 SHR SWAP3 AND DUP1 ISZERO PUSH2 0x28A9 JUMPI JUMPDEST PUSH1 0x20 DUP4 LT EQ PUSH2 0x2893 JUMPI JUMP JUMPDEST PUSH4 0x4E487B71 PUSH1 0xE0 SHL PUSH1 0x0 MSTORE PUSH1 0x22 PUSH1 0x4 MSTORE PUSH1 0x24 PUSH1 0x0 REVERT JUMPDEST SWAP2 PUSH1 0x7F AND SWAP2 PUSH2 0x2888 JUMP JUMPDEST SWAP1 PUSH1 0x0 SWAP3 SWAP2 DUP1 SLOAD SWAP2 PUSH2 0x28C4 DUP4 PUSH2 0x2879 JUMP JUMPDEST SWAP2 DUP3 DUP3 MSTORE PUSH1 0x1 SWAP4 DUP5 DUP2 AND SWAP1 DUP2 PUSH1 0x0 EQ PUSH2 0x2926 JUMPI POP PUSH1 0x1 EQ PUSH2 0x28E6 JUMPI JUMPDEST POP POP POP POP JUMP JUMPDEST SWAP1 SWAP2 SWAP4 SWAP5 POP PUSH1 0x0 MSTORE PUSH1 0x20 SWAP3 DUP4 PUSH1 0x0 KECCAK256 SWAP3 DUP5 PUSH1 0x0 SWAP5 JUMPDEST DUP4 DUP7 LT PUSH2 0x2912 JUMPI POP POP POP POP ADD ADD SWAP1 CODESIZE DUP1 DUP1 DUP1 PUSH2 0x28E0 JUMP JUMPDEST DUP1 SLOAD DUP6 DUP8 ADD DUP4 ADD MSTORE SWAP5 ADD SWAP4 DUP6 SWAP1 DUP3 ADD PUSH2 0x28FB JUMP JUMPDEST SWAP3 SWAP5 POP POP POP PUSH1 0x20 SWAP4 SWAP5 POP PUSH1 0xFF NOT AND DUP4 DUP4 ADD MSTORE ISZERO ISZERO PUSH1 0x5 SHL ADD ADD SWAP1 CODESIZE DUP1 DUP1 DUP1 PUSH2 0x28E0 JUMP JUMPDEST PUSH1 0xC0 DUP2 ADD SWAP1 DUP2 LT PUSH1 0x1 PUSH1 0x1 PUSH1 0x40 SHL SUB DUP3 GT OR PUSH2 0x625 JUMPI PUSH1 0x40 MSTORE JUMP JUMPDEST PUSH1 0x40 DUP2 ADD SWAP1 DUP2 LT PUSH1 0x1 PUSH1 0x1 PUSH1 0x40 SHL SUB DUP3 GT OR PUSH2 0x625 JUMPI PUSH1 0x40 MSTORE JUMP JUMPDEST PUSH1 0x60 DUP2 ADD SWAP1 DUP2 LT PUSH1 0x1 PUSH1 0x1 PUSH1 0x40 SHL SUB DUP3 GT OR PUSH2 0x625 JUMPI PUSH1 0x40 MSTORE JUMP JUMPDEST PUSH1 0x80 DUP2 ADD SWAP1 DUP2 LT PUSH1 0x1 PUSH1 0x1 PUSH1 0x40 SHL SUB DUP3 GT OR PUSH2 0x625 JUMPI PUSH1 0x40 MSTORE JUMP JUMPDEST SWAP1 PUSH1 0x1F DUP1 NOT SWAP2 ADD AND DUP2 ADD SWAP1 DUP2 LT PUSH1 0x1 PUSH1 0x1 PUSH1 0x40 SHL SUB DUP3 GT OR PUSH2 0x625 JUMPI PUSH1 0x40 MSTORE JUMP JUMPDEST PUSH1 0x1 PUSH1 0x1 PUSH1 0x40 SHL SUB DUP2 GT PUSH2 0x625 JUMPI PUSH1 0x1F ADD PUSH1 0x1F NOT AND PUSH1 0x20 ADD SWAP1 JUMP JUMPDEST SWAP3 SWAP2 SWAP3 PUSH2 0x29FD DUP3 PUSH2 0x29D6 JUMP JUMPDEST SWAP2 PUSH2 0x2A0B PUSH1 0x40 MLOAD SWAP4 DUP5 PUSH2 0x29B5 JUMP JUMPDEST DUP3 SWAP5 DUP2 DUP5 MSTORE DUP2 DUP4 ADD GT PUSH2 0x6D1 JUMPI DUP3 DUP2 PUSH1 0x20 SWAP4 DUP5 PUSH1 0x0 SWAP7 ADD CALLDATACOPY ADD ADD MSTORE JUMP JUMPDEST PUSH2 0x2A33 PUSH1 0x3 SWAP2 PUSH2 0x283E JUMP JUMPDEST POP ADD SLOAD PUSH1 0x2 SLOAD GT ISZERO SWAP1 JUMP JUMPDEST SWAP2 SWAP1 DUP3 ADD DUP1 SWAP3 GT PUSH2 0x549 JUMPI JUMP JUMPDEST PUSH2 0x2A54 DUP2 PUSH2 0x283E JUMP JUMPDEST POP PUSH2 0x2AD9 PUSH1 0x40 MLOAD SWAP3 PUSH2 0x2A65 DUP5 PUSH2 0x2949 JUMP JUMPDEST DUP3 SLOAD PUSH1 0x1 PUSH1 0x1 PUSH1 0xA0 SHL SUB AND DUP5 MSTORE PUSH1 0x40 MLOAD PUSH2 0x2A8D DUP2 PUSH2 0x2A86 DUP2 PUSH1 0x1 DUP9 ADD PUSH2 0x28B3 JUMP JUMPDEST SUB DUP3 PUSH2 0x29B5 JUMP JUMPDEST PUSH1 0x20 DUP6 ADD MSTORE PUSH1 0x5 PUSH1 0xA0 PUSH1 0xFF PUSH1 0x2 DUP7 ADD SLOAD AND SWAP6 PUSH1 0x40 DUP2 ADD SWAP7 ISZERO ISZERO DUP8 MSTORE PUSH1 0x3 DUP7 ADD SLOAD PUSH1 0x60 DUP3 ADD MSTORE PUSH2 0x2AD2 PUSH1 0x4 DUP8 ADD SLOAD SWAP7 PUSH1 0x80 DUP4 ADD SWAP8 DUP9 MSTORE PUSH2 0x138D PUSH1 0x40 MLOAD DUP1 SWAP7 DUP2 SWAP4 ADD PUSH2 0x28B3 JUMP JUMPDEST ADD MSTORE PUSH2 0x2A28 JUMP JUMPDEST SWAP2 DUP3 PUSH2 0x2B00 JUMPI JUMPDEST POP DUP2 PUSH2 0x2AEA JUMPI POP SWAP1 JUMP JUMPDEST SWAP1 POP MLOAD PUSH3 0x15180 DUP2 ADD DUP1 SWAP2 GT PUSH2 0x549 JUMPI TIMESTAMP LT ISZERO SWAP1 JUMP JUMPDEST MLOAD ISZERO SWAP2 POP CODESIZE PUSH2 0x2AE0 JUMP JUMPDEST ISZERO PUSH2 0x2B11 JUMPI JUMP JUMPDEST PUSH1 0x64 PUSH1 0x40 MLOAD PUSH3 0x461BCD PUSH1 0xE5 SHL DUP2 MSTORE PUSH1 0x20 PUSH1 0x4 DUP3 ADD MSTORE PUSH1 0x20 PUSH1 0x24 DUP3 ADD MSTORE PUSH32 0x4D756C74695369673A2063616C6C6572206973206E6F7420616E206F776E6572 PUSH1 0x44 DUP3 ADD MSTORE REVERT JUMPDEST SWAP2 SWAP1 SWAP2 PUSH1 0x0 SWAP2 CALLER DUP4 MSTORE PUSH1 0x1 PUSH1 0x20 MSTORE PUSH2 0x2B73 PUSH1 0xFF PUSH1 0x40 DUP6 KECCAK256 SLOAD AND PUSH2 0x2B0A JUMP JUMPDEST PUSH1 0x3 SLOAD SWAP4 PUSH1 0x40 MLOAD SWAP1 PUSH2 0x2B84 DUP3 PUSH2 0x2949 JUMP JUMPDEST PUSH1 0x1 PUSH1 0x1 PUSH1 0xA0 SHL SUB SWAP4 DUP5 AND DUP3 MSTORE PUSH1 0x20 DUP3 ADD SWAP1 DUP2 MSTORE PUSH1 0x40 DUP3 ADD DUP6 SWAP1 MSTORE PUSH1 0x60 DUP3 ADD DUP6 SWAP1 MSTORE TIMESTAMP PUSH1 0x80 DUP4 ADD MSTORE PUSH1 0xA0 DUP3 ADD DUP4 SWAP1 MSTORE PUSH1 0x1 PUSH1 0x40 SHL DUP7 LT ISZERO PUSH2 0x2F33 JUMPI PUSH1 0x1 DUP7 ADD PUSH1 0x3 SSTORE PUSH2 0x2BCF DUP7 PUSH2 0x283E JUMP JUMPDEST SWAP5 SWAP1 SWAP5 PUSH2 0x2F1F JUMPI DUP3 MLOAD DUP6 SLOAD PUSH1 0x1 PUSH1 0x1 PUSH1 0xA0 SHL SUB NOT AND SWAP2 AND OR DUP5 SSTORE MLOAD DUP1 MLOAD SWAP1 PUSH1 0x1 PUSH1 0x1 PUSH1 0x40 SHL SUB DUP3 GT PUSH2 0x2F0B JUMPI DUP2 SWAP1 PUSH2 0x2C17 DUP3 PUSH2 0x2C0E PUSH1 0x1 DUP10 ADD SLOAD PUSH2 0x2879 JUMP JUMPDEST PUSH1 0x1 DUP10 ADD PUSH2 0x2F47 JUMP JUMPDEST PUSH1 0x20 SWAP1 PUSH1 0x1F DUP4 GT PUSH1 0x1 EQ PUSH2 0x2E9C JUMPI DUP8 SWAP3 PUSH2 0x2E91 JUMPI JUMPDEST POP POP DUP2 PUSH1 0x1 SHL SWAP2 PUSH1 0x0 NOT SWAP1 PUSH1 0x3 SHL SHR NOT AND OR PUSH1 0x1 DUP5 ADD SSTORE JUMPDEST PUSH2 0x2C63 PUSH1 0x40 DUP3 ADD MLOAD ISZERO ISZERO PUSH1 0x2 DUP6 ADD SWAP1 PUSH1 0xFF DUP1 NOT DUP4 SLOAD AND SWAP2 ISZERO ISZERO AND OR SWAP1 SSTORE JUMP JUMPDEST PUSH1 0x60 DUP2 ADD MLOAD PUSH1 0x3 DUP5 ADD SSTORE PUSH1 0xA0 PUSH1 0x5 PUSH1 0x80 DUP4 ADD MLOAD SWAP5 PUSH1 0x4 SWAP6 DUP7 DUP3 ADD SSTORE ADD SWAP2 ADD MLOAD DUP1 MLOAD SWAP1 PUSH1 0x1 PUSH1 0x1 PUSH1 0x40 SHL SUB DUP3 GT PUSH2 0x2E7E JUMPI DUP2 SWAP1 PUSH2 0x2CA9 DUP3 PUSH2 0x2CA3 DUP7 SLOAD PUSH2 0x2879 JUMP JUMPDEST DUP7 PUSH2 0x2F47 JUMP JUMPDEST PUSH1 0x20 SWAP1 PUSH1 0x1F DUP4 GT PUSH1 0x1 EQ PUSH2 0x2E1A JUMPI DUP8 SWAP3 PUSH2 0x2E0F JUMPI JUMPDEST POP POP DUP2 PUSH1 0x1 SHL SWAP2 PUSH1 0x0 NOT SWAP1 PUSH1 0x3 SHL SHR NOT AND OR SWAP1 SSTORE JUMPDEST DUP4 PUSH1 0x0 DUP1 MLOAD PUSH1 0x20 PUSH2 0x391F DUP4 CODECOPY DUP2 MLOAD SWAP2 MSTORE PUSH1 0x40 MLOAD PUSH1 0x20 DUP2 MSTORE DUP1 PUSH2 0x2CFA CALLER SWAP6 PUSH1 0x20 DUP4 ADD SWAP1 PUSH2 0x27CF JUMP JUMPDEST SUB SWAP1 LOG3 CALLER DUP3 MSTORE PUSH1 0x1 PUSH1 0x20 MSTORE PUSH2 0x2D15 PUSH1 0xFF PUSH1 0x40 DUP5 KECCAK256 SLOAD AND PUSH2 0x2B0A JUMP JUMPDEST PUSH2 0x2D22 PUSH1 0x3 SLOAD DUP5 LT PUSH2 0x2F9B JUMP JUMPDEST DUP3 DUP3 MSTORE DUP1 PUSH1 0x20 MSTORE PUSH1 0x40 DUP3 KECCAK256 CALLER DUP4 MSTORE PUSH1 0x20 MSTORE PUSH1 0xFF PUSH1 0x40 DUP4 KECCAK256 SLOAD AND PUSH2 0x2DBB JUMPI DUP3 DUP3 MSTORE DUP1 PUSH1 0x20 MSTORE PUSH1 0x40 DUP3 KECCAK256 CALLER DUP4 MSTORE PUSH1 0x20 MSTORE PUSH1 0x40 DUP3 KECCAK256 PUSH1 0x1 PUSH1 0xFF NOT DUP3 SLOAD AND OR SWAP1 SSTORE PUSH1 0x3 PUSH2 0x2D6A DUP5 PUSH2 0x283E JUMP JUMPDEST POP ADD DUP1 SLOAD SWAP1 SWAP2 PUSH1 0x0 NOT DUP3 EQ PUSH2 0x2DA8 JUMPI POP PUSH1 0x1 ADD SWAP1 SSTORE DUP2 PUSH32 0x1205FBF8ACC69299DD15E8DB91A27442F39BDE8C77C4B61A1F713C51E707A6FC CALLER SWAP3 DUP1 LOG3 SWAP1 JUMP JUMPDEST PUSH4 0x4E487B71 PUSH1 0xE0 SHL DUP5 MSTORE PUSH1 0x11 SWAP1 MSTORE PUSH1 0x24 DUP4 REVERT JUMPDEST PUSH1 0x84 SWAP1 PUSH1 0x20 PUSH1 0x40 MLOAD SWAP2 PUSH3 0x461BCD PUSH1 0xE5 SHL DUP4 MSTORE DUP3 ADD MSTORE PUSH1 0x27 PUSH1 0x24 DUP3 ADD MSTORE PUSH32 0x4D756C74695369673A207472616E73616374696F6E20616C726561647920636F PUSH1 0x44 DUP3 ADD MSTORE PUSH7 0x1B999A5C9B5959 PUSH1 0xCA SHL PUSH1 0x64 DUP3 ADD MSTORE REVERT JUMPDEST ADD MLOAD SWAP1 POP CODESIZE DUP1 PUSH2 0x2CBE JUMP JUMPDEST DUP5 DUP9 MSTORE PUSH1 0x20 DUP9 KECCAK256 SWAP3 POP PUSH1 0x1F NOT DUP5 AND DUP9 JUMPDEST DUP2 DUP2 LT PUSH2 0x2E66 JUMPI POP SWAP1 DUP5 PUSH1 0x1 SWAP6 SWAP5 SWAP4 SWAP3 LT PUSH2 0x2E4D JUMPI JUMPDEST POP POP POP DUP2 SHL ADD SWAP1 SSTORE PUSH2 0x2CD3 JUMP JUMPDEST ADD MLOAD PUSH1 0x0 NOT PUSH1 0xF8 DUP5 PUSH1 0x3 SHL AND SHR NOT AND SWAP1 SSTORE CODESIZE DUP1 DUP1 PUSH2 0x2E40 JUMP JUMPDEST SWAP3 SWAP4 PUSH1 0x20 PUSH1 0x1 DUP2 SWAP3 DUP8 DUP7 ADD MLOAD DUP2 SSTORE ADD SWAP6 ADD SWAP4 ADD PUSH2 0x2E2A JUMP JUMPDEST PUSH4 0x4E487B71 PUSH1 0xE0 SHL DUP7 MSTORE PUSH1 0x41 DUP6 MSTORE PUSH1 0x24 DUP7 REVERT JUMPDEST ADD MLOAD SWAP1 POP CODESIZE DUP1 PUSH2 0x2C2C JUMP JUMPDEST SWAP3 POP PUSH1 0x1 DUP7 ADD DUP8 MSTORE PUSH1 0x20 DUP8 KECCAK256 SWAP1 DUP8 SWAP4 JUMPDEST PUSH1 0x1F NOT DUP5 AND DUP6 LT PUSH2 0x2EF0 JUMPI PUSH1 0x1 SWAP5 POP DUP4 PUSH1 0x1F NOT DUP2 AND LT PUSH2 0x2ED7 JUMPI JUMPDEST POP POP POP DUP2 SHL ADD PUSH1 0x1 DUP5 ADD SSTORE PUSH2 0x2C44 JUMP JUMPDEST ADD MLOAD PUSH1 0x0 NOT PUSH1 0xF8 DUP5 PUSH1 0x3 SHL AND SHR NOT AND SWAP1 SSTORE CODESIZE DUP1 DUP1 PUSH2 0x2EC7 JUMP JUMPDEST DUP2 DUP2 ADD MLOAD DUP4 SSTORE PUSH1 0x20 SWAP5 DUP6 ADD SWAP5 PUSH1 0x1 SWAP1 SWAP4 ADD SWAP3 SWAP1 SWAP2 ADD SWAP1 PUSH2 0x2EAC JUMP JUMPDEST PUSH4 0x4E487B71 PUSH1 0xE0 SHL DUP7 MSTORE PUSH1 0x41 PUSH1 0x4 MSTORE PUSH1 0x24 DUP7 REVERT JUMPDEST PUSH4 0x4E487B71 PUSH1 0xE0 SHL DUP7 MSTORE PUSH1 0x4 DUP7 SWAP1 MSTORE PUSH1 0x24 DUP7 REVERT JUMPDEST PUSH4 0x4E487B71 PUSH1 0xE0 SHL DUP6 MSTORE PUSH1 0x41 PUSH1 0x4 MSTORE PUSH1 0x24 DUP6 REVERT JUMPDEST SWAP1 PUSH1 0x1F DUP2 GT PUSH2 0x2F55 JUMPI POP POP POP JUMP JUMPDEST PUSH1 0x0 SWAP2 DUP3 MSTORE PUSH1 0x20 DUP3 KECCAK256 SWAP1 PUSH1 0x20 PUSH1 0x1F DUP6 ADD PUSH1 0x5 SHR DUP4 ADD SWAP5 LT PUSH2 0x2F91 JUMPI JUMPDEST PUSH1 0x1F ADD PUSH1 0x5 SHR ADD SWAP2 JUMPDEST DUP3 DUP2 LT PUSH2 0x2F86 JUMPI POP POP POP JUMP JUMPDEST DUP2 DUP2 SSTORE PUSH1 0x1 ADD PUSH2 0x2F7A JUMP JUMPDEST SWAP1 SWAP3 POP DUP3 SWAP1 PUSH2 0x2F71 JUMP JUMPDEST ISZERO PUSH2 0x2FA2 JUMPI JUMP JUMPDEST PUSH1 0x40 MLOAD PUSH3 0x461BCD PUSH1 0xE5 SHL DUP2 MSTORE PUSH1 0x20 PUSH1 0x4 DUP3 ADD MSTORE PUSH1 0x24 DUP1 DUP3 ADD MSTORE PUSH32 0x4D756C74695369673A207472616E73616374696F6E20646F6573206E6F742065 PUSH1 0x44 DUP3 ADD MSTORE PUSH4 0x1E1A5CDD PUSH1 0xE2 SHL PUSH1 0x64 DUP3 ADD MSTORE PUSH1 0x84 SWAP1 REVERT JUMPDEST ISZERO PUSH2 0x2FFA JUMPI JUMP JUMPDEST PUSH1 0x40 MLOAD PUSH3 0x461BCD PUSH1 0xE5 SHL DUP2 MSTORE PUSH1 0x20 PUSH1 0x4 DUP3 ADD MSTORE PUSH1 0x26 PUSH1 0x24 DUP3 ADD MSTORE PUSH32 0x4D756C74695369673A207472616E73616374696F6E20616C7265616479206578 PUSH1 0x44 DUP3 ADD MSTORE PUSH6 0x1958DD5D1959 PUSH1 0xD2 SHL PUSH1 0x64 DUP3 ADD MSTORE PUSH1 0x84 SWAP1 REVERT JUMPDEST PUSH1 0xFF PUSH1 0x5 SLOAD AND PUSH2 0x305A JUMPI JUMP JUMPDEST PUSH1 0x40 MLOAD PUSH3 0x461BCD PUSH1 0xE5 SHL DUP2 MSTORE PUSH1 0x20 PUSH1 0x4 DUP3 ADD MSTORE PUSH1 0x10 PUSH1 0x24 DUP3 ADD MSTORE PUSH16 0x14185D5CD8589B194E881C185D5CD959 PUSH1 0x82 SHL PUSH1 0x44 DUP3 ADD MSTORE PUSH1 0x64 SWAP1 REVERT JUMPDEST ISZERO PUSH2 0x3099 JUMPI JUMP JUMPDEST PUSH1 0x40 MLOAD PUSH3 0x461BCD PUSH1 0xE5 SHL DUP2 MSTORE PUSH1 0x20 PUSH1 0x4 DUP3 ADD MSTORE PUSH1 0x2A PUSH1 0x24 DUP3 ADD MSTORE PUSH32 0x4D756C74695369673A206F6E6C792063616C6C61626C65207468726F75676820 PUSH1 0x44 DUP3 ADD MSTORE PUSH10 0x676F7665726E616E6365 PUSH1 0xB0 SHL PUSH1 0x64 DUP3 ADD MSTORE PUSH1 0x84 SWAP1 REVERT JUMPDEST PUSH1 0x2 PUSH1 0x6 SLOAD EQ PUSH2 0x3102 JUMPI PUSH1 0x2 PUSH1 0x6 SSTORE JUMP JUMPDEST PUSH1 0x40 MLOAD PUSH3 0x461BCD PUSH1 0xE5 SHL DUP2 MSTORE PUSH1 0x20 PUSH1 0x4 DUP3 ADD MSTORE PUSH1 0x1F PUSH1 0x24 DUP3 ADD MSTORE PUSH32 0x5265656E7472616E637947756172643A207265656E7472616E742063616C6C00 PUSH1 0x44 DUP3 ADD MSTORE PUSH1 0x64 SWAP1 REVERT JUMPDEST ISZERO PUSH2 0x314E JUMPI JUMP JUMPDEST PUSH1 0x40 MLOAD PUSH3 0x461BCD PUSH1 0xE5 SHL DUP2 MSTORE PUSH1 0x20 PUSH1 0x4 DUP3 ADD MSTORE PUSH1 0x2B PUSH1 0x24 DUP3 ADD MSTORE PUSH32 0x4D756C74695369673A2063616E206F6E6C79206275726E2066726F6D206F776E PUSH1 0x44 DUP3 ADD MSTORE PUSH11 0x6572206163636F756E7473 PUSH1 0xA8 SHL PUSH1 0x64 DUP3 ADD MSTORE PUSH1 0x84 SWAP1 REVERT JUMPDEST ISZERO PUSH2 0x31AE JUMPI JUMP JUMPDEST PUSH1 0x40 MLOAD PUSH3 0x461BCD PUSH1 0xE5 SHL DUP2 MSTORE PUSH1 0x20 PUSH1 0x4 DUP3 ADD MSTORE PUSH1 0x24 DUP1 DUP3 ADD MSTORE PUSH32 0x4D756C74695369673A20726563697069656E74206D75737420626520616E206F PUSH1 0x44 DUP3 ADD MSTORE PUSH4 0x3BB732B9 PUSH1 0xE1 SHL PUSH1 0x64 DUP3 ADD MSTORE PUSH1 0x84 SWAP1 REVERT JUMPDEST PUSH1 0x1 PUSH1 0x1 PUSH1 0xA0 SHL SUB SWAP1 DUP2 AND SWAP2 DUP3 ISZERO PUSH2 0x34FD JUMPI AND SWAP2 DUP3 ISZERO PUSH2 0x34AC JUMPI PUSH1 0x0 SWAP1 DUP3 DUP3 MSTORE PUSH1 0x20 SWAP2 PUSH1 0xA DUP4 MSTORE PUSH1 0x40 SWAP1 PUSH1 0xFF DUP3 DUP3 KECCAK256 SLOAD AND PUSH2 0x3468 JUMPI DUP6 DUP2 MSTORE PUSH1 0xA DUP5 MSTORE PUSH1 0xFF DUP3 DUP3 KECCAK256 SLOAD AND PUSH2 0x3424 JUMPI PUSH1 0xA PUSH1 0x9 SLOAD DIV DUP4 GT PUSH2 0x33D3 JUMPI JUMPDEST DUP5 DUP2 MSTORE PUSH1 0x1 DUP5 MSTORE PUSH1 0xFF DUP3 DUP3 KECCAK256 SLOAD AND ISZERO DUP1 PUSH2 0x33C9 JUMPI JUMPDEST PUSH2 0x3317 JUMPI JUMPDEST DUP5 DUP2 MSTORE PUSH1 0x7 DUP5 MSTORE DUP2 DUP2 KECCAK256 SLOAD DUP4 DUP2 LT PUSH2 0x32C4 JUMPI SWAP2 DUP2 DUP5 PUSH32 0xDDF252AD1BE2C89B69C2B068FC378DAA952BA7F163C4A11628F55A4DF523B3EF SWAP7 SWAP6 SWAP5 DUP9 DUP5 SWAP6 MSTORE PUSH1 0x7 DUP8 MSTORE SUB DUP3 DUP3 KECCAK256 SSTORE DUP8 DUP2 MSTORE KECCAK256 DUP3 DUP2 SLOAD ADD SWAP1 SSTORE MLOAD SWAP1 DUP2 MSTORE LOG3 JUMP JUMPDEST DUP3 MLOAD PUSH3 0x461BCD PUSH1 0xE5 SHL DUP2 MSTORE PUSH1 0x4 DUP2 ADD DUP7 SWAP1 MSTORE PUSH1 0x26 PUSH1 0x24 DUP3 ADD MSTORE PUSH32 0x42455032303A207472616E7366657220616D6F756E7420657863656564732062 PUSH1 0x44 DUP3 ADD MSTORE PUSH6 0x616C616E6365 PUSH1 0xD0 SHL PUSH1 0x64 DUP3 ADD MSTORE PUSH1 0x84 SWAP1 REVERT JUMPDEST PUSH3 0x15180 TIMESTAMP DIV PUSH1 0xD DUP6 MSTORE DUP1 DUP4 DUP4 KECCAK256 SLOAD SUB PUSH2 0x33B2 JUMPI JUMPDEST POP PUSH1 0xC DUP5 MSTORE PUSH2 0x333E DUP4 DUP4 DUP4 KECCAK256 SLOAD PUSH2 0x2A3E JUMP JUMPDEST PUSH1 0xB SLOAD LT PUSH2 0x3362 JUMPI DUP5 DUP2 MSTORE PUSH1 0xC DUP5 MSTORE DUP2 DUP2 KECCAK256 PUSH2 0x335B DUP5 DUP3 SLOAD PUSH2 0x2A3E JUMP JUMPDEST SWAP1 SSTORE PUSH2 0x326D JUMP JUMPDEST DUP2 MLOAD PUSH3 0x461BCD PUSH1 0xE5 SHL DUP2 MSTORE PUSH1 0x4 DUP2 ADD DUP6 SWAP1 MSTORE PUSH1 0x24 DUP1 DUP3 ADD MSTORE PUSH32 0x42455032303A206461696C79207472616E73666572206C696D69742065786365 PUSH1 0x44 DUP3 ADD MSTORE PUSH4 0x19591959 PUSH1 0xE2 SHL PUSH1 0x64 DUP3 ADD MSTORE PUSH1 0x84 SWAP1 REVERT JUMPDEST PUSH1 0xC DUP6 MSTORE DUP2 DUP4 DUP2 KECCAK256 SSTORE PUSH1 0xD DUP6 MSTORE DUP3 DUP3 KECCAK256 SSTORE CODESIZE PUSH2 0x332C JUMP JUMPDEST POP ADDRESS DUP6 EQ ISZERO PUSH2 0x3268 JUMP JUMPDEST DUP5 PUSH32 0x6AC6F29CB533706676E94FF2D30D8F95DD3E0C525A0E07E44C1F7762360B4894 PUSH1 0x80 DUP5 MLOAD DUP6 DUP2 MSTORE PUSH1 0xE DUP7 DUP3 ADD MSTORE PUSH14 0x2620A923A2AFAA2920A729A322A9 PUSH1 0x91 SHL PUSH1 0x60 DUP3 ADD MSTORE TIMESTAMP DUP9 DUP3 ADD MSTORE LOG2 PUSH2 0x3253 JUMP JUMPDEST DUP2 MLOAD PUSH3 0x461BCD PUSH1 0xE5 SHL DUP2 MSTORE PUSH1 0x4 DUP2 ADD DUP6 SWAP1 MSTORE PUSH1 0x1F PUSH1 0x24 DUP3 ADD MSTORE PUSH32 0x42455032303A20726563697069656E7420697320626C61636B6C697374656400 PUSH1 0x44 DUP3 ADD MSTORE PUSH1 0x64 SWAP1 REVERT JUMPDEST DUP2 MLOAD PUSH3 0x461BCD PUSH1 0xE5 SHL DUP2 MSTORE PUSH1 0x4 DUP2 ADD DUP6 SWAP1 MSTORE PUSH1 0x1C PUSH1 0x24 DUP3 ADD MSTORE PUSH32 0x42455032303A2073656E64657220697320626C61636B6C697374656400000000 PUSH1 0x44 DUP3 ADD MSTORE PUSH1 0x64 SWAP1 REVERT JUMPDEST PUSH1 0x40 MLOAD PUSH3 0x461BCD PUSH1 0xE5 SHL DUP2 MSTORE PUSH1 0x20 PUSH1 0x4 DUP3 ADD MSTORE PUSH1 0x23 PUSH1 0x24 DUP3 ADD MSTORE PUSH32 0x42455032303A207472616E7366657220746F20746865207A65726F2061646472 PUSH1 0x44 DUP3 ADD MSTORE PUSH3 0x657373 PUSH1 0xE8 SHL PUSH1 0x64 DUP3 ADD MSTORE PUSH1 0x84 SWAP1 REVERT JUMPDEST PUSH1 0x40 MLOAD PUSH3 0x461BCD PUSH1 0xE5 SHL DUP2 MSTORE PUSH1 0x20 PUSH1 0x4 DUP3 ADD MSTORE PUSH1 0x25 PUSH1 0x24 DUP3 ADD MSTORE PUSH32 0x42455032303A207472616E736665722066726F6D20746865207A65726F206164 PUSH1 0x44 DUP3 ADD MSTORE PUSH5 0x6472657373 PUSH1 0xD8 SHL PUSH1 0x64 DUP3 ADD MSTORE PUSH1 0x84 SWAP1 REVERT JUMPDEST PUSH1 0x1 PUSH1 0x1 PUSH1 0xA0 SHL SUB SWAP1 DUP2 AND SWAP2 DUP3 ISZERO PUSH2 0x3601 JUMPI AND SWAP2 DUP3 ISZERO PUSH2 0x35B1 JUMPI PUSH1 0x20 PUSH32 0x8C5BE1E5EBEC7D5BD14F71427D1E84F3DD0314C0F7B2291E5B200AC8C7C3B925 SWAP2 DUP4 PUSH1 0x0 MSTORE PUSH1 0x8 DUP3 MSTORE PUSH1 0x40 PUSH1 0x0 KECCAK256 DUP6 PUSH1 0x0 MSTORE DUP3 MSTORE DUP1 PUSH1 0x40 PUSH1 0x0 KECCAK256 SSTORE PUSH1 0x40 MLOAD SWAP1 DUP2 MSTORE LOG3 JUMP JUMPDEST PUSH1 0x40 MLOAD PUSH3 0x461BCD PUSH1 0xE5 SHL DUP2 MSTORE PUSH1 0x20 PUSH1 0x4 DUP3 ADD MSTORE PUSH1 0x22 PUSH1 0x24 DUP3 ADD MSTORE PUSH32 0x42455032303A20617070726F766520746F20746865207A65726F206164647265 PUSH1 0x44 DUP3 ADD MSTORE PUSH2 0x7373 PUSH1 0xF0 SHL PUSH1 0x64 DUP3 ADD MSTORE PUSH1 0x84 SWAP1 REVERT JUMPDEST PUSH1 0x40 MLOAD PUSH3 0x461BCD PUSH1 0xE5 SHL DUP2 MSTORE PUSH1 0x20 PUSH1 0x4 DUP3 ADD MSTORE PUSH1 0x24 DUP1 DUP3 ADD MSTORE PUSH32 0x42455032303A20617070726F76652066726F6D20746865207A65726F20616464 PUSH1 0x44 DUP3 ADD MSTORE PUSH4 0x72657373 PUSH1 0xE0 SHL PUSH1 0x64 DUP3 ADD MSTORE PUSH1 0x84 SWAP1 REVERT JUMPDEST SWAP1 PUSH1 0x1 DUP1 PUSH1 0xA0 SHL SUB DUP1 DUP4 AND PUSH1 0x0 MSTORE PUSH1 0x8 PUSH1 0x20 MSTORE PUSH1 0x40 PUSH1 0x0 KECCAK256 SWAP1 DUP3 AND PUSH1 0x0 MSTORE PUSH1 0x20 MSTORE PUSH1 0x40 PUSH1 0x0 KECCAK256 SLOAD SWAP3 PUSH1 0x0 NOT DUP5 SUB PUSH2 0x3689 JUMPI POP POP POP POP JUMP JUMPDEST DUP1 DUP5 LT PUSH2 0x36A4 JUMPI PUSH2 0x369B SWAP4 SUB SWAP2 PUSH2 0x3550 JUMP JUMPDEST CODESIZE DUP1 DUP1 DUP1 PUSH2 0x28E0 JUMP JUMPDEST PUSH1 0x40 MLOAD PUSH3 0x461BCD PUSH1 0xE5 SHL DUP2 MSTORE PUSH1 0x20 PUSH1 0x4 DUP3 ADD MSTORE PUSH1 0x1D PUSH1 0x24 DUP3 ADD MSTORE PUSH32 0x42455032303A20696E73756666696369656E7420616C6C6F77616E6365000000 PUSH1 0x44 DUP3 ADD MSTORE PUSH1 0x64 SWAP1 REVERT JUMPDEST PUSH1 0x1 PUSH1 0x1 PUSH1 0xA0 SHL SUB AND SWAP1 DUP2 ISZERO PUSH2 0x37D1 JUMPI DUP2 PUSH1 0x0 MSTORE PUSH1 0x7 PUSH1 0x20 MSTORE PUSH1 0x40 PUSH1 0x0 KECCAK256 SLOAD DUP2 DUP2 LT PUSH2 0x3781 JUMPI DUP2 PUSH32 0xCC16F5DBB4873280815C1EE09DBD06736CFFCC184412CF7A71A0FDB75D397CA5 SWAP3 PUSH1 0x20 SWAP3 DUP6 PUSH1 0x0 MSTORE PUSH1 0x7 DUP5 MSTORE SUB PUSH1 0x40 PUSH1 0x0 KECCAK256 SSTORE DUP1 PUSH1 0x9 SLOAD SUB PUSH1 0x9 SSTORE PUSH1 0x0 DUP5 PUSH32 0xDDF252AD1BE2C89B69C2B068FC378DAA952BA7F163C4A11628F55A4DF523B3EF DUP5 PUSH1 0x40 MLOAD DUP6 DUP2 MSTORE LOG3 PUSH1 0x40 MLOAD SWAP1 DUP2 MSTORE LOG2 JUMP JUMPDEST PUSH1 0x40 MLOAD PUSH3 0x461BCD PUSH1 0xE5 SHL DUP2 MSTORE PUSH1 0x20 PUSH1 0x4 DUP3 ADD MSTORE PUSH1 0x22 PUSH1 0x24 DUP3 ADD MSTORE PUSH32 0x42455032303A206275726E20616D6F756E7420657863656564732062616C616E PUSH1 0x44 DUP3 ADD MSTORE PUSH2 0x6365 PUSH1 0xF0 SHL PUSH1 0x64 DUP3 ADD MSTORE PUSH1 0x84 SWAP1 REVERT JUMPDEST PUSH1 0x40 MLOAD PUSH3 0x461BCD PUSH1 0xE5 SHL DUP2 MSTORE PUSH1 0x20 PUSH1 0x4 DUP3 ADD MSTORE PUSH1 0x21 PUSH1 0x24 DUP3 ADD MSTORE PUSH32 0x42455032303A206275726E2066726F6D20746865207A65726F20616464726573 PUSH1 0x44 DUP3 ADD MSTORE PUSH1 0x73 PUSH1 0xF8 SHL PUSH1 0x64 DUP3 ADD MSTORE PUSH1 0x84 SWAP1 REVERT JUMPDEST ISZERO PUSH2 0x3827 JUMPI JUMP JUMPDEST PUSH1 0x40 MLOAD PUSH3 0x461BCD PUSH1 0xE5 SHL DUP2 MSTORE PUSH1 0x20 PUSH1 0x4 DUP3 ADD MSTORE PUSH1 0x16 PUSH1 0x24 DUP3 ADD MSTORE PUSH22 0x42455032303A20696E76616C69642061646472657373 PUSH1 0x50 SHL PUSH1 0x44 DUP3 ADD MSTORE PUSH1 0x64 SWAP1 REVERT JUMPDEST ISZERO PUSH2 0x386C JUMPI JUMP JUMPDEST PUSH1 0x40 MLOAD PUSH3 0x461BCD PUSH1 0xE5 SHL DUP2 MSTORE PUSH1 0x20 PUSH1 0x4 DUP3 ADD MSTORE PUSH1 0x21 PUSH1 0x24 DUP3 ADD MSTORE PUSH32 0x4D756C74695369673A2063616E6E6F7420626C61636B6C697374206F776E6572 PUSH1 0x44 DUP3 ADD MSTORE PUSH1 0x73 PUSH1 0xF8 SHL PUSH1 0x64 DUP3 ADD MSTORE PUSH1 0x84 SWAP1 REVERT JUMPDEST ISZERO PUSH2 0x38C2 JUMPI JUMP JUMPDEST PUSH1 0x40 MLOAD PUSH3 0x461BCD PUSH1 0xE5 SHL DUP2 MSTORE PUSH1 0x20 PUSH1 0x4 DUP3 ADD MSTORE PUSH1 0x14 PUSH1 0x24 DUP3 ADD MSTORE PUSH20 0x1091540C8C0E881A5B9D985B1A59081B1A5B5A5D PUSH1 0x62 SHL PUSH1 0x44 DUP3 ADD MSTORE PUSH1 0x64 SWAP1 REVERT INVALID 0x2A MULMOD 0xE2 PUSH15 0xC96218A3A144DF2E04DE096B7F0410 LT PUSH11 0x4CAFF3CDFA5D667E604F2A DUP6 CHAINID 0xEA BLOCKHASH 0xE1 ADD 0xFC DUP3 PUSH27 0xB39BBAB7C2C8A00CDA94F3A6EE1BD55CC7AF23BE294EC5A2646970 PUSH7 0x73582212204F86 0x26 0xE4 0xE4 SWAP7 0xCA 0xC6 CREATE2 PREVRANDAO PUSH31 0x8EA59AC080201AB1EB05C592B574D412FDAEA801EB64736F6C634300081400 CALLER "},"methodIdentifiers":{"EMERGENCY_TIMELOCK()":"60d7442b","FIXED_SUPPLY()":"c969943e","TIMELOCK_DELAY()":"5ba1c1a9","_burnLarge(address,uint256)":"044007b9","_emergencyPauseContract()":"8ed0099b","_emergencyWithdraw(address)":"a3aab78e","_pauseContract()":"923f4337","_setBlacklisted(address,bool)":"b0b463fa","_setDailyTransferLimit(uint256)":"e398f56b","_unpauseContract()":"8b6deeba","allowance(address,address)":"dd62ed3e","approve(address,uint256)":"095ea7b3","balanceOf(address)":"70a08231","blacklisted(address)":"dbac26e9","burn(uint256)":"42966c68","burnFrom(address,uint256)":"79cc6790","canExecute(uint256)":"cc63604a","confirmTransaction(uint256)":"c01a8c84","confirmations(uint256,address)":"3411c81c","createBlacklistTransaction(address,bool)":"39be9f32","createDailyLimitTransaction(uint256)":"a181b990","createEmergencyPauseTransaction()":"87299888","createEmergencyWithdrawTransaction(address)":"263bc1aa","createLargeBurnTransaction(address,uint256)":"676a246d","createPauseTransaction()":"48f6db11","createUnpauseTransaction()":"4bc8472c","dailyTransferAmount(address)":"ac9358a7","decimals()":"313ce567","decreaseAllowance(address,uint256)":"a457c2d7","emergencyMode()":"0905f560","executeTransaction(uint256)":"ee22610b","getConfirmationCount(uint256)":"8b51d13f","getContractInfo()":"7cc1f867","getGovernanceInfo()":"72b8c0c7","getOwner()":"893d20e8","getOwners()":"a0e67e2b","getTransactionCount()":"2e7700f0","increaseAllowance(address,uint256)":"39509351","isConfirmed(uint256)":"784547a7","isOwner(address)":"2f54bf6e","lastTransferDay(address)":"9abb68e8","maxDailyTransferLimit()":"3d829b41","name()":"06fdde03","owners(uint256)":"025e7c27","paused()":"5c975abb","requiredConfirmations()":"82e717f7","revokeConfirmation(uint256)":"20ea8d86","submitTransaction(address,bytes,string)":"f09460c1","symbol()":"95d89b41","totalSupply()":"18160ddd","transactions(uint256)":"9ace38c2","transfer(address,uint256)":"a9059cbb","transferFrom(address,address,uint256)":"23b872dd"}}}}}