{"contracts/GanjesDAOOptimized.sol":{"GanjesDAOOptimized":{"abi":[{"inputs":[{"internalType":"address","name":"_governanceToken","type":"address"}],"stateMutability":"nonpayable","type":"constructor"},{"inputs":[],"name":"ContractPaused","type":"error"},{"inputs":[],"name":"EnforcedPause","type":"error"},{"inputs":[],"name":"ExpectedPause","type":"error"},{"inputs":[{"internalType":"uint256","name":"required","type":"uint256"},{"internalType":"uint256","name":"available","type":"uint256"}],"name":"InsufficientAllowance","type":"error"},{"inputs":[{"internalType":"uint256","name":"required","type":"uint256"},{"internalType":"uint256","name":"available","type":"uint256"}],"name":"InsufficientTokens","type":"error"},{"inputs":[{"internalType":"uint256","name":"goal","type":"uint256"}],"name":"InvalidFundingGoal","type":"error"},{"inputs":[{"internalType":"uint256","name":"proposalId","type":"uint256"}],"name":"InvalidProposal","type":"error"},{"inputs":[{"internalType":"uint256","name":"maxAllowed","type":"uint256"}],"name":"MaxProposalsReached","type":"error"},{"inputs":[{"internalType":"uint256","name":"proposalId","type":"uint256"}],"name":"ProposalAlreadyExecuted","type":"error"},{"inputs":[{"internalType":"uint256","name":"timeRemaining","type":"uint256"}],"name":"ProposalCooldownActive","type":"error"},{"inputs":[{"internalType":"uint256","name":"proposalId","type":"uint256"}],"name":"ProposerCannotVote","type":"error"},{"inputs":[],"name":"TransferFailed","type":"error"},{"inputs":[],"name":"Unauthorized","type":"error"},{"inputs":[{"internalType":"uint256","name":"proposalId","type":"uint256"}],"name":"VotingPeriodEnded","type":"error"},{"inputs":[{"internalType":"uint256","name":"proposalId","type":"uint256"}],"name":"VotingPeriodNotEnded","type":"error"},{"inputs":[],"name":"ZeroAddress","type":"error"},{"anonymous":false,"inputs":[{"indexed":true,"internalType":"address","name":"newAdmin","type":"address"},{"indexed":true,"internalType":"address","name":"addedBy","type":"address"},{"indexed":false,"internalType":"uint256","name":"timestamp","type":"uint256"}],"name":"AdminAdded","type":"event"},{"anonymous":false,"inputs":[{"indexed":true,"internalType":"address","name":"removedAdmin","type":"address"},{"indexed":true,"internalType":"address","name":"removedBy","type":"address"},{"indexed":false,"internalType":"uint256","name":"timestamp","type":"uint256"}],"name":"AdminRemoved","type":"event"},{"anonymous":false,"inputs":[{"indexed":true,"internalType":"uint256","name":"proposalId","type":"uint256"},{"indexed":true,"internalType":"address","name":"investor","type":"address"},{"indexed":false,"internalType":"uint256","name":"amount","type":"uint256"},{"indexed":false,"internalType":"uint256","name":"timestamp","type":"uint256"}],"name":"AutoRefundProcessed","type":"event"},{"anonymous":false,"inputs":[{"indexed":true,"internalType":"string","name":"parameter","type":"string"},{"indexed":false,"internalType":"uint256","name":"oldValue","type":"uint256"},{"indexed":false,"internalType":"uint256","name":"newValue","type":"uint256"},{"indexed":false,"internalType":"uint256","name":"timestamp","type":"uint256"}],"name":"ConfigurationChanged","type":"event"},{"anonymous":false,"inputs":[{"indexed":true,"internalType":"address","name":"recipient","type":"address"},{"indexed":false,"internalType":"uint256","name":"amount","type":"uint256"},{"indexed":false,"internalType":"string","name":"reason","type":"string"},{"indexed":false,"internalType":"uint256","name":"timestamp","type":"uint256"}],"name":"EmergencyWithdrawal","type":"event"},{"anonymous":false,"inputs":[{"indexed":true,"internalType":"address","name":"recipient","type":"address"},{"indexed":false,"internalType":"uint256","name":"amount","type":"uint256"},{"indexed":false,"internalType":"uint256","name":"timestamp","type":"uint256"}],"name":"FundsWithdrawn","type":"event"},{"anonymous":false,"inputs":[{"indexed":false,"internalType":"address","name":"account","type":"address"},{"indexed":false,"internalType":"uint256","name":"timestamp","type":"uint256"}],"name":"Paused","type":"event"},{"anonymous":false,"inputs":[{"indexed":true,"internalType":"address","name":"investor","type":"address"},{"indexed":false,"internalType":"uint256","name":"amount","type":"uint256"},{"indexed":false,"internalType":"uint256","name":"timestamp","type":"uint256"}],"name":"PendingRefundWithdrawn","type":"event"},{"anonymous":false,"inputs":[{"indexed":true,"internalType":"uint256","name":"proposalId","type":"uint256"},{"indexed":true,"internalType":"address","name":"proposer","type":"address"},{"indexed":true,"internalType":"string","name":"projectName","type":"string"},{"indexed":false,"internalType":"uint256","name":"fundingGoal","type":"uint256"},{"indexed":false,"internalType":"uint256","name":"proposalDeposit","type":"uint256"},{"indexed":false,"internalType":"uint256","name":"endTime","type":"uint256"},{"indexed":false,"internalType":"uint256","name":"timestamp","type":"uint256"}],"name":"ProposalCreated","type":"event"},{"anonymous":false,"inputs":[{"indexed":true,"internalType":"uint256","name":"proposalId","type":"uint256"},{"indexed":false,"internalType":"bool","name":"passed","type":"bool"},{"indexed":false,"internalType":"uint256","name":"amountAllocated","type":"uint256"},{"indexed":false,"internalType":"uint256","name":"timestamp","type":"uint256"},{"indexed":false,"internalType":"string","name":"message","type":"string"}],"name":"ProposalExecuted","type":"event"},{"anonymous":false,"inputs":[{"indexed":true,"internalType":"uint256","name":"proposalId","type":"uint256"},{"indexed":true,"internalType":"address","name":"proposer","type":"address"},{"indexed":false,"internalType":"uint256","name":"timestamp","type":"uint256"},{"indexed":false,"internalType":"string","name":"reason","type":"string"}],"name":"ProposalRejected","type":"event"},{"anonymous":false,"inputs":[{"indexed":true,"internalType":"uint256","name":"proposalId","type":"uint256"},{"indexed":false,"internalType":"uint256","name":"oldEndTime","type":"uint256"},{"indexed":false,"internalType":"uint256","name":"newEndTime","type":"uint256"},{"indexed":false,"internalType":"uint256","name":"timeChange","type":"uint256"},{"indexed":false,"internalType":"bool","name":"isExtension","type":"bool"},{"indexed":false,"internalType":"uint256","name":"timestamp","type":"uint256"}],"name":"ProposalVotingTimeChanged","type":"event"},{"anonymous":false,"inputs":[{"indexed":true,"internalType":"uint256","name":"proposalId","type":"uint256"},{"indexed":true,"internalType":"address","name":"investor","type":"address"},{"indexed":false,"internalType":"uint256","name":"amount","type":"uint256"},{"indexed":false,"internalType":"uint256","name":"timestamp","type":"uint256"}],"name":"RefundClaimed","type":"event"},{"anonymous":false,"inputs":[{"indexed":false,"internalType":"address","name":"account","type":"address"},{"indexed":false,"internalType":"uint256","name":"timestamp","type":"uint256"}],"name":"Unpaused","type":"event"},{"anonymous":false,"inputs":[{"indexed":true,"internalType":"uint256","name":"proposalId","type":"uint256"},{"indexed":true,"internalType":"address","name":"voter","type":"address"},{"indexed":true,"internalType":"bool","name":"support","type":"bool"},{"indexed":false,"internalType":"uint256","name":"weight","type":"uint256"},{"indexed":false,"internalType":"uint256","name":"investmentAmount","type":"uint256"},{"indexed":false,"internalType":"uint256","name":"timestamp","type":"uint256"}],"name":"Voted","type":"event"},{"inputs":[],"name":"MAX_EMERGENCY_WITHDRAW_PERCENT","outputs":[{"internalType":"uint256","name":"","type":"uint256"}],"stateMutability":"view","type":"function"},{"inputs":[],"name":"MAX_FUNDING_GOAL","outputs":[{"internalType":"uint256","name":"","type":"uint256"}],"stateMutability":"view","type":"function"},{"inputs":[],"name":"MAX_VOTING_DURATION","outputs":[{"internalType":"uint256","name":"","type":"uint256"}],"stateMutability":"view","type":"function"},{"inputs":[],"name":"MIN_FUNDING_GOAL","outputs":[{"internalType":"uint256","name":"","type":"uint256"}],"stateMutability":"view","type":"function"},{"inputs":[],"name":"MIN_QUORUM_PERCENT","outputs":[{"internalType":"uint256","name":"","type":"uint256"}],"stateMutability":"view","type":"function"},{"inputs":[],"name":"MIN_TOKENS_FOR_PROPOSAL","outputs":[{"internalType":"uint256","name":"","type":"uint256"}],"stateMutability":"view","type":"function"},{"inputs":[],"name":"MIN_VOTING_DURATION","outputs":[{"internalType":"uint256","name":"","type":"uint256"}],"stateMutability":"view","type":"function"},{"inputs":[],"name":"PROPOSAL_COOLDOWN","outputs":[{"internalType":"uint256","name":"","type":"uint256"}],"stateMutability":"view","type":"function"},{"inputs":[],"name":"PROPOSAL_CREATION_FEE","outputs":[{"internalType":"uint256","name":"","type":"uint256"}],"stateMutability":"view","type":"function"},{"inputs":[],"name":"TOTAL_TOKENS_REQUIRED","outputs":[{"internalType":"uint256","name":"","type":"uint256"}],"stateMutability":"view","type":"function"},{"inputs":[{"internalType":"address","name":"_newAdmin","type":"address"}],"name":"addAdmin","outputs":[],"stateMutability":"nonpayable","type":"function"},{"inputs":[],"name":"admin","outputs":[{"internalType":"address","name":"","type":"address"}],"stateMutability":"view","type":"function"},{"inputs":[],"name":"adminCount","outputs":[{"internalType":"uint256","name":"","type":"uint256"}],"stateMutability":"view","type":"function"},{"inputs":[{"internalType":"address","name":"","type":"address"}],"name":"admins","outputs":[{"internalType":"bool","name":"","type":"bool"}],"stateMutability":"view","type":"function"},{"inputs":[{"internalType":"uint256","name":"","type":"uint256"}],"name":"allProposalIds","outputs":[{"internalType":"uint256","name":"","type":"uint256"}],"stateMutability":"view","type":"function"},{"inputs":[{"internalType":"uint256","name":"_amount","type":"uint256"}],"name":"approveDAO","outputs":[{"internalType":"bool","name":"success","type":"bool"}],"stateMutability":"nonpayable","type":"function"},{"inputs":[{"internalType":"address","name":"_user","type":"address"},{"internalType":"uint256","name":"_requiredAmount","type":"uint256"}],"name":"checkAllowanceSufficiency","outputs":[{"internalType":"bool","name":"hasAllowance","type":"bool"},{"internalType":"uint256","name":"currentAllowance","type":"uint256"},{"internalType":"uint256","name":"shortfall","type":"uint256"}],"stateMutability":"view","type":"function"},{"inputs":[{"internalType":"address","name":"_proposer","type":"address"}],"name":"checkProposalRequirements","outputs":[{"components":[{"internalType":"bool","name":"canCreateProposal","type":"bool"},{"internalType":"bool","name":"hasMinTokens","type":"bool"},{"internalType":"bool","name":"hasDepositTokens","type":"bool"},{"internalType":"bool","name":"hasAllowance","type":"bool"},{"internalType":"bool","name":"cooldownPassed","type":"bool"},{"internalType":"bool","name":"belowMaxProposals","type":"bool"},{"internalType":"uint256","name":"userBalance","type":"uint256"},{"internalType":"uint256","name":"currentAllowance","type":"uint256"},{"internalType":"uint256","name":"tokensNeeded","type":"uint256"},{"internalType":"uint256","name":"depositNeeded","type":"uint256"},{"internalType":"uint256","name":"timeUntilNextProposal","type":"uint256"},{"internalType":"uint256","name":"proposalsCreated","type":"uint256"},{"internalType":"string","name":"statusMessage","type":"string"}],"internalType":"struct GanjesDAOOptimized.ProposalRequirements","name":"requirements","type":"tuple"}],"stateMutability":"view","type":"function"},{"inputs":[{"internalType":"uint256","name":"proposalId","type":"uint256"}],"name":"claimRefund","outputs":[],"stateMutability":"nonpayable","type":"function"},{"inputs":[{"internalType":"string","name":"description","type":"string"},{"internalType":"string","name":"projectName","type":"string"},{"internalType":"string","name":"projectUrl","type":"string"},{"internalType":"uint256","name":"fundingGoal","type":"uint256"}],"name":"createProposal","outputs":[],"stateMutability":"nonpayable","type":"function"},{"inputs":[{"internalType":"uint256","name":"_subtractedValue","type":"uint256"}],"name":"decreaseDAOAllowance","outputs":[{"internalType":"bool","name":"success","type":"bool"}],"stateMutability":"nonpayable","type":"function"},{"inputs":[{"internalType":"uint256","name":"_amount","type":"uint256"},{"internalType":"address","name":"_to","type":"address"},{"internalType":"string","name":"_reason","type":"string"}],"name":"emergencyWithdraw","outputs":[],"stateMutability":"nonpayable","type":"function"},{"inputs":[{"internalType":"uint256","name":"proposalId","type":"uint256"}],"name":"executeProposal","outputs":[],"stateMutability":"nonpayable","type":"function"},{"inputs":[{"internalType":"uint256","name":"proposalId","type":"uint256"},{"internalType":"uint256","name":"_extensionTime","type":"uint256"}],"name":"extendProposalVotingTime","outputs":[],"stateMutability":"nonpayable","type":"function"},{"inputs":[{"internalType":"uint256","name":"","type":"uint256"}],"name":"fundingHistory","outputs":[{"internalType":"uint256","name":"proposalId","type":"uint256"},{"internalType":"address","name":"recipient","type":"address"},{"internalType":"uint256","name":"amount","type":"uint256"},{"internalType":"uint256","name":"timestamp","type":"uint256"}],"stateMutability":"view","type":"function"},{"inputs":[],"name":"fundingRecordCount","outputs":[{"internalType":"uint256","name":"","type":"uint256"}],"stateMutability":"view","type":"function"},{"inputs":[],"name":"getAllProposalIds","outputs":[{"internalType":"uint256[]","name":"","type":"uint256[]"}],"stateMutability":"view","type":"function"},{"inputs":[{"internalType":"address","name":"_owner","type":"address"}],"name":"getDAOAllowance","outputs":[{"internalType":"uint256","name":"allowance","type":"uint256"}],"stateMutability":"view","type":"function"},{"inputs":[],"name":"getDAOStats","outputs":[{"internalType":"uint256","name":"totalProposals","type":"uint256"},{"internalType":"uint256","name":"activeProposals","type":"uint256"},{"internalType":"uint256","name":"passedProposals","type":"uint256"},{"internalType":"uint256","name":"rejectedProposals","type":"uint256"},{"internalType":"uint256","name":"activeInvestorsCount","type":"uint256"},{"internalType":"uint256","name":"inactiveInvestorsCount","type":"uint256"},{"internalType":"uint256","name":"totalFunded","type":"uint256"},{"internalType":"uint256","name":"allowedFunding","type":"uint256"},{"internalType":"uint256","name":"totalDepositsLocked","type":"uint256"},{"internalType":"uint256","name":"contractBalance","type":"uint256"}],"stateMutability":"view","type":"function"},{"inputs":[{"internalType":"uint256","name":"proposalId","type":"uint256"}],"name":"getInvestorCount","outputs":[{"internalType":"uint256","name":"count","type":"uint256"}],"stateMutability":"view","type":"function"},{"inputs":[{"internalType":"uint256","name":"proposalId","type":"uint256"}],"name":"getInvestorDetails","outputs":[{"internalType":"address[]","name":"investors","type":"address[]"},{"internalType":"uint256[]","name":"investments","type":"uint256[]"},{"internalType":"bool[]","name":"voteSupports","type":"bool[]"},{"internalType":"uint256[]","name":"timestamps","type":"uint256[]"},{"internalType":"bool[]","name":"hasVotedFlags","type":"bool[]"}],"stateMutability":"view","type":"function"},{"inputs":[{"internalType":"uint256","name":"proposalId","type":"uint256"}],"name":"getProposal","outputs":[{"internalType":"uint256","name":"id","type":"uint256"},{"internalType":"address","name":"proposer","type":"address"},{"internalType":"string","name":"description","type":"string"},{"internalType":"string","name":"projectName","type":"string"},{"internalType":"string","name":"projectUrl","type":"string"},{"internalType":"uint256","name":"fundingGoal","type":"uint256"},{"internalType":"uint256","name":"creationFee","type":"uint256"},{"internalType":"uint256","name":"endTime","type":"uint256"},{"internalType":"bool","name":"executed","type":"bool"},{"internalType":"bool","name":"passed","type":"bool"},{"internalType":"bool","name":"rejected","type":"bool"},{"internalType":"uint256","name":"totalVotesFor","type":"uint256"},{"internalType":"uint256","name":"totalVotesAgainst","type":"uint256"},{"internalType":"uint256","name":"totalInvested","type":"uint256"},{"internalType":"uint32","name":"votersFor","type":"uint32"},{"internalType":"uint32","name":"votersAgainst","type":"uint32"}],"stateMutability":"view","type":"function"},{"inputs":[{"internalType":"address","name":"_user","type":"address"}],"name":"getProposalCountByUser","outputs":[{"internalType":"uint256","name":"","type":"uint256"}],"stateMutability":"view","type":"function"},{"inputs":[{"internalType":"address","name":"_proposer","type":"address"}],"name":"getProposalsIDByProposer","outputs":[{"internalType":"uint256[]","name":"","type":"uint256[]"}],"stateMutability":"view","type":"function"},{"inputs":[{"internalType":"address","name":"_investor","type":"address"}],"name":"getProposalsIdByInvestor","outputs":[{"internalType":"uint256[]","name":"proposalIds","type":"uint256[]"}],"stateMutability":"view","type":"function"},{"inputs":[{"internalType":"address","name":"_user","type":"address"}],"name":"getTimeUntilNextProposal","outputs":[{"internalType":"uint256","name":"","type":"uint256"}],"stateMutability":"view","type":"function"},{"inputs":[{"internalType":"address","name":"_proposer","type":"address"}],"name":"getTotalCreationFeesPaid","outputs":[{"internalType":"uint256","name":"","type":"uint256"}],"stateMutability":"view","type":"function"},{"inputs":[],"name":"getTotalProposals","outputs":[{"internalType":"uint256","name":"","type":"uint256"}],"stateMutability":"view","type":"function"},{"inputs":[{"internalType":"uint256","name":"proposalId","type":"uint256"},{"internalType":"address","name":"_user","type":"address"}],"name":"getUserInvestment","outputs":[{"internalType":"uint256","name":"investment","type":"uint256"},{"internalType":"bool","name":"hasVoted","type":"bool"},{"internalType":"uint256","name":"voteTime","type":"uint256"}],"stateMutability":"view","type":"function"},{"inputs":[],"name":"governanceToken","outputs":[{"internalType":"contract IERC20","name":"","type":"address"}],"stateMutability":"view","type":"function"},{"inputs":[{"internalType":"uint256","name":"_addedValue","type":"uint256"}],"name":"increaseDAOAllowance","outputs":[{"internalType":"bool","name":"success","type":"bool"}],"stateMutability":"nonpayable","type":"function"},{"inputs":[{"internalType":"address","name":"","type":"address"}],"name":"lastProposalTime","outputs":[{"internalType":"uint256","name":"","type":"uint256"}],"stateMutability":"view","type":"function"},{"inputs":[],"name":"maxProposalsPerUser","outputs":[{"internalType":"uint256","name":"","type":"uint256"}],"stateMutability":"view","type":"function"},{"inputs":[],"name":"minInvestmentAmount","outputs":[{"internalType":"uint256","name":"","type":"uint256"}],"stateMutability":"view","type":"function"},{"inputs":[],"name":"pause","outputs":[],"stateMutability":"nonpayable","type":"function"},{"inputs":[],"name":"paused","outputs":[{"internalType":"bool","name":"","type":"bool"}],"stateMutability":"view","type":"function"},{"inputs":[{"internalType":"address","name":"","type":"address"}],"name":"pendingRefunds","outputs":[{"internalType":"uint256","name":"","type":"uint256"}],"stateMutability":"view","type":"function"},{"inputs":[],"name":"proposalCount","outputs":[{"internalType":"uint256","name":"","type":"uint256"}],"stateMutability":"view","type":"function"},{"inputs":[{"internalType":"address","name":"","type":"address"}],"name":"proposalCountByUser","outputs":[{"internalType":"uint256","name":"","type":"uint256"}],"stateMutability":"view","type":"function"},{"inputs":[{"internalType":"uint256","name":"","type":"uint256"},{"internalType":"address","name":"","type":"address"}],"name":"proposalInvestorIndex","outputs":[{"internalType":"uint256","name":"","type":"uint256"}],"stateMutability":"view","type":"function"},{"inputs":[{"internalType":"uint256","name":"","type":"uint256"},{"internalType":"uint256","name":"","type":"uint256"}],"name":"proposalInvestors","outputs":[{"internalType":"address","name":"","type":"address"}],"stateMutability":"view","type":"function"},{"inputs":[{"internalType":"uint256","name":"","type":"uint256"}],"name":"proposals","outputs":[{"internalType":"uint256","name":"id","type":"uint256"},{"internalType":"address","name":"proposer","type":"address"},{"internalType":"uint256","name":"fundingGoal","type":"uint256"},{"internalType":"uint256","name":"creationFee","type":"uint256"},{"internalType":"uint256","name":"totalVotesFor","type":"uint256"},{"internalType":"uint256","name":"totalVotesAgainst","type":"uint256"},{"internalType":"uint256","name":"totalInvested","type":"uint256"},{"internalType":"uint256","name":"endTime","type":"uint256"},{"internalType":"uint32","name":"votersFor","type":"uint32"},{"internalType":"uint32","name":"votersAgainst","type":"uint32"},{"internalType":"bool","name":"executed","type":"bool"},{"internalType":"bool","name":"passed","type":"bool"},{"internalType":"bool","name":"rejected","type":"bool"},{"internalType":"string","name":"description","type":"string"},{"internalType":"string","name":"projectName","type":"string"},{"internalType":"string","name":"projectUrl","type":"string"}],"stateMutability":"view","type":"function"},{"inputs":[{"internalType":"address","name":"","type":"address"},{"internalType":"uint256","name":"","type":"uint256"}],"name":"proposalsByProposer","outputs":[{"internalType":"uint256","name":"","type":"uint256"}],"stateMutability":"view","type":"function"},{"inputs":[{"internalType":"uint256","name":"proposalId","type":"uint256"},{"internalType":"uint256","name":"_reductionTime","type":"uint256"}],"name":"reduceProposalVotingTime","outputs":[],"stateMutability":"nonpayable","type":"function"},{"inputs":[{"internalType":"address","name":"_admin","type":"address"}],"name":"removeAdmin","outputs":[],"stateMutability":"nonpayable","type":"function"},{"inputs":[{"internalType":"uint256","name":"_maxProposals","type":"uint256"}],"name":"setMaxProposalsPerUser","outputs":[],"stateMutability":"nonpayable","type":"function"},{"inputs":[{"internalType":"uint256","name":"_minInvestmentAmount","type":"uint256"}],"name":"setMinInvestmentAmount","outputs":[],"stateMutability":"nonpayable","type":"function"},{"inputs":[{"internalType":"uint256","name":"_duration","type":"uint256"}],"name":"setVotingDuration","outputs":[],"stateMutability":"nonpayable","type":"function"},{"inputs":[{"internalType":"address","name":"","type":"address"}],"name":"totalCreationFeesPaid","outputs":[{"internalType":"uint256","name":"","type":"uint256"}],"stateMutability":"view","type":"function"},{"inputs":[],"name":"unpause","outputs":[],"stateMutability":"nonpayable","type":"function"},{"inputs":[{"internalType":"uint256","name":"proposalId","type":"uint256"},{"internalType":"bool","name":"support","type":"bool"},{"internalType":"uint256","name":"investmentAmount","type":"uint256"}],"name":"vote","outputs":[],"stateMutability":"nonpayable","type":"function"},{"inputs":[{"internalType":"address","name":"","type":"address"},{"internalType":"uint256","name":"","type":"uint256"}],"name":"votesByInvestor","outputs":[{"internalType":"uint256","name":"proposalId","type":"uint256"},{"internalType":"uint256","name":"investmentAmount","type":"uint256"},{"internalType":"uint256","name":"timestamp","type":"uint256"},{"internalType":"bool","name":"support","type":"bool"}],"stateMutability":"view","type":"function"},{"inputs":[],"name":"votingDuration","outputs":[{"internalType":"uint256","name":"","type":"uint256"}],"stateMutability":"view","type":"function"},{"inputs":[],"name":"withdrawPendingRefunds","outputs":[],"stateMutability":"nonpayable","type":"function"}],"evm":{"bytecode":{"linkReferences":{},"object":"60c0346200026357601f6200501238819003918201601f191683019291906001600160401b03841183851017620002685781602092849260409687528339810103126200026357516001600160a01b0381169081900362000263576000906001825560ff19908160015416600155801562000252576080523360a052338252600260205260018383209182541617905560016003558060085580600b55606080678ac7230489e80000928360045561012c9384600555600a6006558186514281527fc879829b6ab559448e08c444fd0ef1f6e6ec47d851c79f50bc979d2f8f00e18060203392a3601386517f6d696e496e766573746d656e74416d6f756e740000000000000000000000000081522090865190838252602082015242878201527f7b2f327fe3724e45a6d300853fc8629e1d8fd83607f6943007d3c5c3e3c7576f948591a2600e85516d3b37ba34b733a23ab930ba34b7b760911b81522093855191825260208201524285820152a251614d9390816200027f823960805181818161030d01528181610a1201528181610c1401528181610d3901528181610d99015281816112b9015281816113a6015281816115eb01528181611b6c01528181611df7015281816120ef0152818161262001528181612ca001528181612eeb0152818161388b01528181613f61015261455e015260a05181818161077a01528181610a570152818161204e015281816123b9015281816124ef015281816128cc01528181612a5b01528181612bc40152818161375201528181613bd701528181613c6301528181613dbb01526144ed0152f35b835163d92e233d60e01b8152600490fd5b600080fd5b634e487b7160e01b600052604160045260246000fdfe6080604052600436101561001257600080fd5b6000803560e01c8063013cf08b146145e25780630bfcc57b146145275780630d61b51914613e53578063132002fc14613e3557806316997edb14613dea5780631785f53c14613c065780631a5007dd146112525780631af5b8cd146139b55780631e5dca96146138505780632b7832b3146138325780633469219c14613816578063348acaec146137fa57806336d95f56146137d75780633f42b535146137815780633f4ba83a146136c5578063429b62e5146136865780634598985e14611c04578063467f67f9146136695780634c15676b14612e5c5780634d298a0714612e3e5780635b7ad57814612e055780635b7baf6414612bf35780635bcfadb514612aad5780635c975abb14612a8a5780635d33b93b146128fb57806370480275146129345780637325120e146128fb5780637cd22238146125915780637e31d46e1461251e5780637fbb1086146123e85780638456cb591461232757806386463a2c146122e35780638873fa2d1461226a57806388f8eb0c1461224c57806393e2c0a614611eff5780639d097b3314611c045780639fe8b3ba146121f7578063a083301b1461207d578063a907111d14611f38578063aa38c4b714611eff578063add7906414611eda578063b613b11414611ea1578063bfa4af4c14611e75578063c5d7b64914611da4578063c7f758a814611c59578063c97bfe6b14611c09578063cef163c214611c04578063cf9be73414611b1d578063d2dd506f14611a2c578063d46a5d7e14611270578063da35c66414611252578063da5467a51461120f578063e078d687146111f1578063e2f9e99c14610c89578063e745831014610bd4578063eaf1061c14610bb8578063eefe85e414610b9a578063efa90d3614610b0f578063f7063e8b14610a86578063f851a44014610a41578063f96dae0a146109fc578063f9ef0687146107a9578063ffafdde1146105795763ffc4bfde146102dd57600080fd5b346105765780600319360112610576576008546040516370a0823160e01b815230600482015282808060208180807f00000000000000000000000000000000000000000000000000000000000000006001600160a01b03168489602481845afa988915610411578499610547575b5060015b8a81111561041c5750998460049b6040519c8d80926318160ddd60e01b82525afa9a8b1561041157849b6103d6575b506101409a678ac7230489e8000090049384156103cd5793945b6040519a8b528a015260408901526060880152608087015260a086015260c085015260e0840152610100830152610120820152f35b80945094610398565b9a50848b813d831161040a575b6103ed81836147c7565b8101031261040657995199678ac7230489e8000061037e565b8380fd5b503d6103e3565b6040513d86823e3d90fd5b80859c999c52600786526040852060088101549960ff8b60401c1680159b8c809d61053a575b156104a457505061045561046291614a9e565b9d5b600383015490614a6e565b9980610497575b61047d575b5061047890614a9e565b61034f565b6104789198600261049092015490614a6e565b979061046e565b5060078101544210610469565b919e999591818061052d575b156104d85750506104d26104c661046292614a9e565b95600284015490614a6e565b98610457565b9599919581610506575b506104f1575b61046290610457565b946104fe61046291614a9e565b9590506104e8565b905060ff8160501c1690811561051e575b50386104e2565b60ff915060481c161538610517565b5060ff8160481c166104b0565b5060078401544210610442565b9098508481813d831161056f575b61055f81836147c7565b810103126104065751973861034b565b503d610555565b80fd5b503461057657610588366148d6565b3383526020906002825260ff6040852054161580610776575b610765578215801561075a575b61074157801561070357828452600782526040842060ff600882015460401c166106be576007018054926105e28385614a6e565b916105ef60055486614a91565b62278d0081018091116106aa57831161064b579160a09391817fb9873fccabec700bdb36ec123d2606eeddb0ef1ce51730ba5a83c0e27a098287969455604051938452830152604082015260016060820152426080820152a280f35b60405162461bcd60e51b815260048101839052603160248201527f457874656e73696f6e2065786365656473206d6178696d756d20616c6c6f776560448201527032103b37ba34b73390323ab930ba34b7b760791b6064820152608490fd5b634e487b7160e01b88526011600452602488fd5b60405162461bcd60e51b815260048101849052601f60248201527f43616e6e6f7420657874656e642065786563757465642070726f706f73616c006044820152606490fd5b60405162461bcd60e51b8152600481018390526016602482015275496e76616c696420657874656e73696f6e2074696d6560501b6044820152606490fd5b60405163654dd7a960e01b815260048101849052602490fd5b5060085483116105ae565b6040516282b42960e81b8152600490fd5b50337f00000000000000000000000000000000000000000000000000000000000000006001600160a01b031614156105a1565b5034610576576020908160031936011261057657600435801580156109f1575b6109d957815260078252604081206010835260408220604051808286829454938481520190865286862092865b888282106109ba5750505061080d925003826147c7565b805161081881614b01565b9361082660405195866147c7565b81855261083282614b01565b8587019690601f190136883761084783614b18565b9161085184614b18565b9361085b81614b18565b9561086582614b18565b978391600e8201600f830191600c600d85019401945b86811061091557505050505050506040519660a088019060a089525180915260c0880198915b8181106108f8575050506108e6926108ca886108f49796946108d8948a809c03908b015261499c565b9087820360408901526149ec565b90858203606087015261499c565b9083820360808501526149ec565b0390f35b82516001600160a01b03168a5298830198918301916001016108a1565b808d899f99828f8f908f938f8f90858f92948f8f8f9a8f9b6109b29f996109566109a89e61094c60409d60018060a01b0392614ad5565b5116978892614ad5565b52858952865261096a8b8a8a205492614ad5565b52838752845260ff976109838a8a8a8a20541692614ad5565b9015159052828652835261099b888787205492614ad5565b5283525220541692614ad5565b9015159052614a9e565b9c969c61087b565b85546001600160a01b03168452600195860195879550930192016107f6565b6024906040519063654dd7a960e01b82526004820152fd5b5060085481116107c9565b50346105765780600319360112610576576040517f00000000000000000000000000000000000000000000000000000000000000006001600160a01b03168152602090f35b50346105765780600319360112610576576040517f00000000000000000000000000000000000000000000000000000000000000006001600160a01b03168152602090f35b50346105765760403660031901126105765760043590610aa4614935565b82158015610b04575b6107415760609282526007602052604082209060018060a01b03168252600e810160205260408083205492600c8301602052600d60ff83832054169301602052205490604051928352151560208301526040820152f35b506008548311610aad565b5034610576578060031936011261057657604051809182600954808452602080940190600984527f6e1540171b6c0c960b71a7020d9f60077f6af931a8bbf590da0223dacf75c7af935b85828210610b8457505050610b70925003836147c7565b6108f460405192828493845283019061499c565b8554845260019586019588955093019201610b59565b5034610576578060031936011261057657602060405162278d008152f35b50346105765780600319360112610576576020604051603c8152f35b50346105765760203660031901126105765760405163095ea7b360e01b815230600480830191909152356024820152602081604481856001600160a01b037f0000000000000000000000000000000000000000000000000000000000000000165af1908115610c7e5760209291610c51575b506040519015158152f35b610c719150823d8111610c77575b610c6981836147c7565b810190614ae9565b38610c46565b503d610c5f565b6040513d84823e3d90fd5b503461057657602036600319011261057657610ca361491f565b604051906101a082018281106001600160401b038211176111dd576040528282528260208301528260408301528260608301528260808301528260a08301528260c08301528260e0830152826101008301528261012083015282610140830152826101608301526060610180830152604051906370a0823160e01b825260018060a01b03918282166004820152602081602481867f0000000000000000000000000000000000000000000000000000000000000000165afa9081156111a05785916111ab575b5060c0840152604051636eb1769f60e11b81526001600160a01b03821660048201523060248201526020816044817f000000000000000000000000000000000000000000000000000000000000000087165afa9081156111a057859161116a575b5060e084015268056bc75e2d6310000061010084015268056bc75e2d631000006101208401528181168452600f602052604084205461016084015216825260136020526040822054610e1081018111611156576101809290610e108101421061114157505b8061014083015268056bc75e2d6310000060c08301511080159081602085015281604085015268056bc75e2d6310000060e08501511090811593846060870152159283608087015261016086015160065411948560a0880152818092611139575b5081611131575b508061112a575b80611123575b80611116575b1515855260015460ff1615610f965750505050604051610ec981614776565b601281527110dbdb9d1c9858dd081a5cc81c185d5cd95960721b6020820152828201525b6108f4604051928392602084528051151560208501526020810151151560408501526040810151151560608501526060810151151560808501526080810151151560a085015260a0810151151560c085015260c081015160e085015260e08101516101008501526101008101516101208501526101208101516101408501526101408101516101608501526101608101518285015201516101a0808401526101c08301906148b1565b15610ff257505050604051610faa81614791565b602c81527f4e656564206174206c656173742031303020746f6b656e7320746f206372656160208201526b74652070726f706f73616c7360a01b604082015282820152610eed565b1561104557505060405161100581614791565b602481527f4d75737420617070726f76652044414f20746f207370656e642031303020746f6020820152636b656e7360e01b604082015282820152610eed565b611089575060405161105681614776565b601881527f50726f706f73616c20636f6f6c646f776e206163746976650000000000000000602082015282820152610eed565b6110d75760405161109981614791565b602281527f4d6178696d756d2070726f706f73616c73207065722075736572207265616368602082015261195960f21b604082015282820152610eed565b6040516110e381614776565b601881527f526561647920746f206372656174652070726f706f73616c0000000000000000602082015282820152610eed565b5060ff6001541615610eaa565b5083610ea4565b5082610e9e565b905038610e97565b915038610e90565b6111519150610e10429101614a91565b610e2f565b634e487b7160e01b83526011600452602483fd5b90506020813d602011611198575b81611185602093836147c7565b81010312611194575138610dca565b8480fd5b3d9150611178565b6040513d87823e3d90fd5b90506020813d6020116111d5575b816111c6602093836147c7565b81010312611194575138610d69565b3d91506111b9565b634e487b7160e01b84526041600452602484fd5b50346105765780600319360112610576576020600b54604051908152f35b50346105765760203660031901126105765760043580158015611247575b6109d9578160409160209352601083522054604051908152f35b50600854811161122d565b50346105765780600319360112610576576020600854604051908152f35b50346105765760603660031901126105765760243515156024350361057657600435158015611a1f575b611a06576040516370a0823160e01b81523360048201526020816024817f00000000000000000000000000000000000000000000000000000000000000006001600160a01b03165afa908115610c7e5782916119d0575b50600454908181106119b2575061130c600283541415614a22565b6002825560ff600154166119a05760043582526007602052604082209060018060a01b03600183015416331461198757600782015442101561196e57338352600c820160205260ff60408420541680611957575b6118f55760ff600883015460401c166118dc5780604435106118bd5750600281015460443511611878576040516370a0823160e01b8152336004820152906020826024817f00000000000000000000000000000000000000000000000000000000000000006001600160a01b03165afa91821561186d578392611835575b50338352600e81016020526040832054906113fb82604435614a91565b9182841061181757338552600e820160205260408520541561176a575b600c820160205260408520600160ff19825416179055600d8201602052426040862055600f8201908160205261145f602435604088209060ff801983541691151516179055565b600e830160205260443560408720556006830161147d858254614a6e565b90551590811561174d575084905b602435156116a957600483016114a2868254614a6e565b90551561163d575060088082015463ffffffff6114c0818316614aad565b169063ffffffff1916179101555b338352600d60205260408320604051906114e782614745565b6004358252604435602083015242604083015260243515156060830152805490600160401b8210156116295790611523916001820181556149d0565b919091611615579060036060836115629451845560208101516001850155604081015160028501550151151591019060ff801983541691151516179055565b806115b6575b5060408051918252604435602083015242908201526024351515903390600435907f2c707893af580790816fd02f801c18abd3c09cbcd05759060a0c85a0072faf7c90606090a46001815580f35b61160f90604051906323b872dd60e01b60208301523360248301523060448301526064820152606481526115e9816147ac565b7f0000000000000000000000000000000000000000000000000000000000000000614b8a565b38611568565b634e487b7160e01b85526004859052602485fd5b634e487b7160e01b86526041600452602486fd5b611648575b506114ce565b80600861167f816116a394015463ffffffff9081611667818316614aad565b169063ffffffff191617808486015560201c16614ac2565b91019067ffffffff0000000082549160201b169067ffffffff000000001916179055565b38611642565b600583016116b8868254614a6e565b9055156116e0575080600861167f63ffffffff826116db95015460201c16614aad565b6114ce565b6116ea57506114ce565b600863ffffffff61172a611705828486015460201c16614aad565b8385019067ffffffff0000000082549160201b169067ffffffff000000001916179055565b818301549061173a818316614ac2565b169063ffffffff19161791015538611642565b338652602052602435151560ff604087205416151514159061148b565b6004358552601060205260408520805490600160401b8210156118035790611797916001820181556148f1565b81546001600160a01b0360039290921b91821b19163390911b179055600435855260106020526040852054600019810181106117ef576004358652601160205260408620338752602052600019016040862055611418565b634e487b7160e01b86526011600452602486fd5b634e487b7160e01b87526041600452602487fd5b604483856040519163c7bcc1b960e01b835260048301526024820152fd5b9091506020813d602011611865575b81611851602093836147c7565b81010312611861575190386113de565b8280fd5b3d9150611844565b6040513d85823e3d90fd5b60405162461bcd60e51b815260206004820152601f60248201527f496e766573746d656e7420657863656564732066756e64696e6720676f616c006044820152606490fd5b6044906040519063c7bcc1b960e01b8252600482015281356024820152fd5b6024604051632776407360e11b81526004356004820152fd5b60405162461bcd60e51b815260206004820152603460248201527f43616e206f6e6c7920766f746520616761696e207769746820696e63726561736044820152731959081a5b9d995cdd1b595b9d08185b5bdd5b9d60621b6064820152608490fd5b50600e820160205260408320546044351115611360565b602460405163489b5c2b60e01b81526004356004820152fd5b602460405163291f60fd60e21b81526004356004820152fd5b60405163ab35696f60e01b8152600490fd5b604492506040519163c7bcc1b960e01b835260048301526024820152fd5b90506020813d6020116119fe575b816119eb602093836147c7565b810103126119fa5751386112f1565b5080fd5b3d91506119de565b602460405163654dd7a960e01b81526004356004820152fd5b506008546004351161129a565b5034610576576020806003193601126119fa57611a4761491f565b600854906001600160a01b03168360015b83811115611ada5750611a6a90614b18565b93809160015b84811115611a8b57604051868152806108f48189018a61499c565b80835260078652600c6040842001828452865260ff604084205416611ab9575b611ab490614a9e565b611a70565b92611ad28185611acc611ab4948b614ad5565b52614a9e565b939050611aab565b80865260078552600c6040872001838752855260ff604087205416611b08575b611b0390614a9e565b611a58565b90611b15611b0391614a9e565b919050611afa565b503461057657604036600319011261057657611b3761491f565b604051636eb1769f60e11b81526001600160a01b039182166004820152306024808301919091523591602090829060449082907f0000000000000000000000000000000000000000000000000000000000000000165afa90811561186d578391611bd2575b506060928282108015938391611bc2575050905b60405192835260208301526040820152f35b611bcc9250614a91565b90611bb0565b90506020813d8211611bfc575b81611bec602093836147c7565b8101031261186157516060611b9c565b3d9150611bdf565b61494b565b5034610576576020366003190112610576576004356009548110156119fa576009602092527f6e1540171b6c0c960b71a7020d9f60077f6af931a8bbf590da0223dacf75c7af0154604051908152f35b50346105765760203660031901126105765760043580158015611d99575b6109d95781526007602052604090208054600160a01b600190036001830154169160028101549060038101549060078101549160088201549260048301549060058401549260068501549460098101611ccf906147e8565b90611cdc600a82016147e8565b90600b01611ce9906147e8565b916040519b8c9b8c5260208c01526102008060408d01528b01611d0b916148b1565b8a810360608c0152611d1c916148b1565b89810360808b0152611d2d916148b1565b9660a089015260c088015260e08701528360401c60ff1615156101008701528360481c60ff1615156101208701528360501c60ff1615156101408701526101608601526101808501526101a084015263ffffffff908181166101c085015260201c166101e08301520390f35b506008548111611c77565b5034610576576020908160031936011261057657611df382611dc461491f565b604051636eb1769f60e11b81526001600160a01b03909116600482015230602482015291829081906044820190565b03817f00000000000000000000000000000000000000000000000000000000000000006001600160a01b03165afa918215611e69578092611e39575b5050604051908152f35b9091508282813d8311611e62575b611e5181836147c7565b810103126105765750513880611e2f565b503d611e47565b604051903d90823e3d90fd5b5034610576576020366003190112610576576020611e99611e9461491f565b614b4a565b604051908152f35b5034610576576020366003190112610576576020906040906001600160a01b03611ec961491f565b168152601283522054604051908152f35b5034610576578060031936011261057657602060405169d3c21bcecceda10000008152f35b5034610576576020366003190112610576576020906040906001600160a01b03611f2761491f565b168152600e83522054604051908152f35b503461057657602036600319011261057657600435338252600260205260ff604083205416158061204a575b6107655780158015612040575b612003577f7b2f327fe3724e45a6d300853fc8629e1d8fd83607f6943007d3c5c3e3c7576f7f8ea64594bef4d9ea7df01023c0d54bcd1f35c4c0479051fb25ad2d4cd3fadd979160065490806006557236b0bc283937b837b9b0b639a832b92ab9b2b960691b60405152611ffd6040519283924291846040919493926060820195825260208201520152565b0390a280f35b60405162461bcd60e51b8152602060048201526015602482015274496e76616c6964206d61782070726f706f73616c7360581b6044820152606490fd5b5060648111611f71565b50337f00000000000000000000000000000000000000000000000000000000000000006001600160a01b03161415611f64565b503461057657806003193601126105765761209c600282541415614a22565b6002815533815260206012815260408220549081156121be57338084526012825260408085208590555163a9059cbb60e01b81526004810191909152602481018390528181604481876001600160a01b037f0000000000000000000000000000000000000000000000000000000000000000165af19081156104115784916121a1575b501561215d5760405191825242908201527fd9ecbbe9911f2fb5a5b34cdefd44abe992b519f9a3ff70767ac7d00016a4235460403392a26001815580f35b6064906040519062461bcd60e51b82526004820152601860248201527f526566756e64207769746864726177616c206661696c656400000000000000006044820152fd5b6121b89150823d8411610c7757610c6981836147c7565b3861211f565b6064906040519062461bcd60e51b8252600482015260126024820152714e6f2070656e64696e6720726566756e647360701b6044820152fd5b50346105765760203660031901126105765760406080916004358152600a6020522080549060018060a01b03600182015416906003600282015491015491604051938452602084015260408301526060820152f35b50346105765780600319360112610576576020600654604051908152f35b50346105765760403660031901126105765761228461491f565b6001600160a01b03168152600d60205260408120805460243592908310156105765760806122b284846149d0565b5080549060018101549060ff6003600283015492015416916040519384526020840152604083015215156060820152f35b5034610576576040366003190112610576576040602091612302614935565b6004358252601184528282206001600160a01b03909116825283522054604051908152f35b5034610576578060031936011261057657338152600260205260ff60408220541615806123b5575b6107655760015460ff81166123a35760ff191660019081179055604080513381524260208201527fab40a374bc51de372200a8bc981af8c9ecdc08dfdaef0bb6e09f88f3c616ef3d91819081015b0390a180f35b60405163d93c066560e01b8152600490fd5b50337f00000000000000000000000000000000000000000000000000000000000000006001600160a01b0316141561234f565b503461057657602036600319011261057657600435338252600260205260ff60408320541615806124eb575b6107655780156124a6577f7b2f327fe3724e45a6d300853fc8629e1d8fd83607f6943007d3c5c3e3c7576f7fe608bdbf01ea587a7cb8c0bb558e5bf6eafebc535b5c810844e15d4e971fee9f916004549080600455721b5a5b925b9d995cdd1b595b9d105b5bdd5b9d606a1b60405152611ffd6040519283924291846040919493926060820195825260208201520152565b60405162461bcd60e51b815260206004820152601960248201527f496e76616c696420696e766573746d656e7420616d6f756e74000000000000006044820152606490fd5b50337f00000000000000000000000000000000000000000000000000000000000000006001600160a01b03161415612414565b5034610576576020806003193601126119fa576001600160a01b0361254161491f565b168252600c81526040822091604051809384918482549182815201918452848420935b8582821061257b57505050610b70925003836147c7565b8554845260019586019588955093019201612564565b5034610576576060366003190112610576576004356125ae614935565b906044356001600160401b038111610406576125ce90369060040161496f565b91903385526020916002835260ff60408720541615806128c8575b610765576001600160a01b03858116959086156128b65761260e600289541415614a22565b600288558215612880578515612849577f000000000000000000000000000000000000000000000000000000000000000016906040516370a0823160e01b81523060048201528581602481865afa90811561283e57899161280d575b5060058102818104600514821517156127f9576064900484116127a957831161276d5760405163a9059cbb60e01b81526001600160a01b0391909116600482015260248101839052908490829060449082908b905af1908115612762578791612745575b501561273357837fdf59a9581da64b249f2685aaa5efc1e94f9d3e2c1113931bf6fe212f05c085a59460809360606040519687958652850152816060850152848401378181018301879052426040830152601f01601f19168101030190a26001815580f35b6040516312171d8360e31b8152600490fd5b61275c9150843d8611610c7757610c6981836147c7565b386126ce565b6040513d89823e3d90fd5b60405162461bcd60e51b8152600481018690526014602482015273496e73756666696369656e742062616c616e636560601b6044820152606490fd5b60405162461bcd60e51b815260048101879052602260248201527f4578636565647320656d657267656e6379207769746864726177616c206c696d6044820152611a5d60f21b6064820152608490fd5b634e487b7160e01b8a52601160045260248afd5b90508581813d8311612837575b61282481836147c7565b8101031261283357513861266a565b8880fd5b503d61281a565b6040513d8b823e3d90fd5b60405162461bcd60e51b815260048101869052600f60248201526e1499585cdbdb881c995c5d5a5c9959608a1b6044820152606490fd5b60405162461bcd60e51b815260048101869052600e60248201526d125b9d985b1a5908185b5bdd5b9d60921b6044820152606490fd5b60405163d92e233d60e01b8152600490fd5b50337f00000000000000000000000000000000000000000000000000000000000000006001600160a01b031614156125e9565b5034610576576020366003190112610576576020906040906001600160a01b0361292361491f565b168152600f83522054604051908152f35b5034610576576020806003193601126119fa5761294f61491f565b3383526002825260ff6040842054161580612a57575b610765576001600160a01b031680156128b6578083526002825260ff604084205416612a1f57600a60035410156129e8578083526002825260408320600160ff198254161790556129b7600354614a9e565b6003557fc879829b6ab559448e08c444fd0ef1f6e6ec47d851c79f50bc979d2f8f00e180604051924284523393a380f35b60405162461bcd60e51b815260048101839052600f60248201526e546f6f206d616e792061646d696e7360881b6044820152606490fd5b60405162461bcd60e51b815260048101839052601060248201526f20b63932b0b23c9030b71030b236b4b760811b6044820152606490fd5b50337f00000000000000000000000000000000000000000000000000000000000000006001600160a01b03161415612965565b5034610576578060031936011261057657602060ff600154166040519015158152f35b503461057657602036600319011261057657600435338252600260205260ff6040832054161580612bc0575b61076557603c81108015612bb4575b612b6f577f7b2f327fe3724e45a6d300853fc8629e1d8fd83607f6943007d3c5c3e3c7576f7fabbfab0bf365e6c544c4bdc8c27846b398ef85deeb99659a1bd1cbbfddbc69a19160055490806005556d3b37ba34b733a23ab930ba34b7b760911b60405152611ffd6040519283924291846040919493926060820195825260208201520152565b60405162461bcd60e51b815260206004820152601760248201527f496e76616c696420766f74696e67206475726174696f6e0000000000000000006044820152606490fd5b5062278d008111612ae8565b50337f00000000000000000000000000000000000000000000000000000000000000006001600160a01b03161415612ad9565b5034610576576020806003193601126119fa5760043580158015612dfa575b6109d957612c24600284541415614a22565b600283558083526007825260408320600881015460ff8160401c1615612db55760481c60ff16612d7057600e01338452808352604084205415612d2b57338085529083526040808520805490869055905163a9059cbb60e01b815260048101929092526024820181905292908181604481886001600160a01b037f0000000000000000000000000000000000000000000000000000000000000000165af19081156111a0578591612d0e575b50156127335760405192835242908301527f8faa8f78dba131fcf5a374c153d58b8f646053b7c2789321a5449f127258e1cd60403393a36001815580f35b612d259150823d8411610c7757610c6981836147c7565b38612cd0565b60405162461bcd60e51b815260048101849052601760248201527f4e6f20696e766573746d656e7420746f20726566756e640000000000000000006044820152606490fd5b60405162461bcd60e51b815260048101849052601d60248201527f43616e6e6f7420726566756e64207061737365642070726f706f73616c0000006044820152606490fd5b60405162461bcd60e51b815260048101859052601960248201527f50726f706f73616c206e6f7420796574206578656375746564000000000000006044820152606490fd5b506008548111612c12565b5034610576576020366003190112610576576020906040906001600160a01b03612e2d61491f565b168152601383522054604051908152f35b50346105765780600319360112610576576020600454604051908152f35b5034610576576080366003190112610576576004356001600160401b0381116119fa57612e8d90369060040161496f565b6024356001600160401b03811161040657612eac90369060040161496f565b90916044356001600160401b03811161366557612ecd90369060040161496f565b6040516370a0823160e01b81523360048201529092906020816024817f00000000000000000000000000000000000000000000000000000000000000006001600160a01b03165afa90811561365a578891613624575b5068056bc75e2d6310000081106135fd5750612f43600288541415614a22565b6002875560ff600154166119a057678ac7230489e800006064351080156135e8575b6135ce57831580156135c6575b80156135be575b6135815733875260136020526040872054610e109081810180911161356d57421061351f5750338752600f6020526040872054600654809110156135075750612fc3600854614a9e565b60088190558088526007602052604088209081556001810180546001600160a01b03191633179055956001600160401b0382116134f3578190613009600989015461470b565b601f81116134a3575b508890601f831160011461343757899261342c575b50508160011b916000199060031b1c19161760098601555b6001600160401b0383116116295761305a600a86015461470b565b601f81116133e8575b508286601f821160011461337e578791613373575b508360011b906000198560031b1c191617600a8601555b6001600160401b0382116116295781906130ac600b87015461470b565b601f8111613323575b508690601f83116001146132b75787926132ac575b50508160011b916000199060031b1c191617600b8401555b606435600284015568056bc75e2d63100000600384015583600661310860055442614a6e565b9460078101958655600881016affffffffffffffffffffff1981541690550155338452600e6020526040842080549068056bc75e2d6310000082018092116117ef5755338452600f602052604084206131618154614a9e565b90553384526013602052426040852055600854600954600160401b90818110156118035760018101806009558110156132985782907f6e1540171b6c0c960b71a7020d9f60077f6af931a8bbf590da0223dacf75c7af0155338652600c6020526040862080549182101561180357906131df916001820181556148f1565b819291549060031b91821b91600019901b19161790556132306040516323b872dd60e01b602082015233602482015230604482015268056bc75e2d631000006064820152606481526115e9816147ac565b60085492549181604051928392833781018581520390209160405191606435835268056bc75e2d63100000602084015260408301524260608301527fdd0274ac6c4a9179cf8818ef29728b8de044741912dda8e475b72df2047cf56f60803393a46001815580f35b634e487b7160e01b87526032600452602487fd5b0135905038806130ca565b600b8701885260208820889450915b601f198416851061330b576001945083601f198116106132f1575b505050811b01600b8401556130e2565b0135600019600384901b60f8161c191690553880806132e1565b818101358355602094850194600190930192016132c6565b909150600b8601875260208720601f840160051c81016020851061336c575b90849392915b601f830160051c8201811061335e5750506130b5565b898155859450600101613348565b5080613342565b905084013538613078565b600a87018852602088209150875b601f19861681106133d0575084601f198116106133b6575b5050600183811b01600a86015561308f565b850135600019600386901b60f8161c1916905538806133a4565b9091602060018192858a01358155019301910161338c565b600a8601875260208720601f850160051c810160208610613425575b601f830160051c8201811061341a575050613063565b888155600101613404565b5080613404565b013590503880613027565b600989018a5260208a208a9450915b601f198416851061348b576001945083601f19811610613471575b505050811b01600986015561303f565b0135600019600384901b60f8161c19169055388080613461565b81810135835560209485019460019093019201613446565b90915060098801895260208920601f840160051c8101602085106134ec575b90849392915b601f830160051c820181106134de575050613012565b8b81558594506001016134c8565b50806134c2565b634e487b7160e01b88526041600452602488fd5b60249060405190635826019360e11b82526004820152fd5b876024913382526013602052604082205490810180911161355b5761354691504290614a91565b60405190630f11533d60e31b82526004820152fd5b50634e487b7160e01b81526011600452fd5b634e487b7160e01b89526011600452602489fd5b60405162461bcd60e51b8152602060048201526015602482015274456d707479207265717569726564206669656c647360581b6044820152606490fd5b508015612f79565b508215612f72565b604051630e08619960e31b81526064356004820152602490fd5b5069d3c21bcecceda100000060643511612f65565b6044906040519063c7bcc1b960e01b825268056bc75e2d6310000060048301526024820152fd5b90506020813d602011613652575b8161363f602093836147c7565b8101031261364e575138612f23565b8780fd5b3d9150613632565b6040513d8a823e3d90fd5b8580fd5b50346105765780600319360112610576576020604051610e108152f35b50346105765760203660031901126105765760209060ff906040906001600160a01b036136b161491f565b168152600284522054166040519015158152f35b5034610576578060031936011261057657338152600260205260ff604082205416158061374e575b6107655760015460ff81161561373c5760ff1916600155604080513381524260208201527f3582d1828e26bf56bd801502bc021ac0bc8afb57c826e4986b45593c8fad389c918190810161239d565b604051638dfc202b60e01b8152600490fd5b50337f00000000000000000000000000000000000000000000000000000000000000006001600160a01b031614156136ed565b50346105765760403660031901126105765761379b61491f565b6001600160a01b03168152600c60205260408120805460243592908310156105765760206137c984846148f1565b90546040519160031b1c8152f35b50346105765780600319360112610576576020604051678ac7230489e800008152f35b5034610576578060031936011261057657602060405160328152f35b5034610576578060031936011261057657602060405160058152f35b50346105765780600319360112610576576020600354604051908152f35b5034610576576020908160031936011261057657604051636eb1769f60e11b8152336004808301919091523060248301526001600160a01b037f000000000000000000000000000000000000000000000000000000000000000016919035908481604481865afa908115610411578491613988575b508181106139395783926138dd869361390793614a91565b60405163095ea7b360e01b8152306004820152602481019190915293849283919082906044820190565b03925af1918215611e69579161392257506040519015158152f35b610c719150823d8411610c7757610c6981836147c7565b60405162461bcd60e51b815260048101869052602160248201527f446563726561736520616d6f756e74206578636565647320616c6c6f77616e636044820152606560f81b6064820152608490fd5b90508481813d83116139ae575b61399f81836147c7565b810103126104065751386138c5565b503d613995565b5034610576576139c4366148d6565b3383526020906002825260ff6040852054161580613bd3575b6107655782158015613bc8575b610741578015613b8a57828452600782526040842060ff600882015460401c16613b4557600701805492603c420191824211613b315783851115613aec57613a328486614a91565b928310613a81579160a09391817fb9873fccabec700bdb36ec123d2606eeddb0ef1ce51730ba5a83c0e27a0982879694556040519384528301526040820152846060820152426080820152a280f35b60405162461bcd60e51b815260048101839052603b60248201527f4e657720656e642074696d6520746f6f206561726c79202d206d75737420616c60448201527f6c6f77206d696e696d756d20766f74696e67206475726174696f6e00000000006064820152608490fd5b60405162461bcd60e51b815260048101839052601860248201527f526564756374696f6e2074696d6520746f6f206c6172676500000000000000006044820152606490fd5b634e487b7160e01b87526011600452602487fd5b60405162461bcd60e51b815260048101849052601f60248201527f43616e6e6f74206d6f646966792065786563757465642070726f706f73616c006044820152606490fd5b60405162461bcd60e51b8152600481018390526016602482015275496e76616c696420726564756374696f6e2074696d6560501b6044820152606490fd5b5060085483116139ea565b50337f00000000000000000000000000000000000000000000000000000000000000006001600160a01b031614156139dd565b5034610576576020806003193601126119fa57613c2161491f565b3383526002825260ff6040842054161580613db7575b610765576001600160a01b039081169081156128b6578184526002835260ff60408520541615613d83577f0000000000000000000000000000000000000000000000000000000000000000168114613d3e5760016003541115613cf9578083526002825260408320805460ff191690556003548015613ce5576000190160035560405142815233927fdee304e7e1affe12c7a37539c214abe72d3be7fbc78070c4b889e5e57de433a891a380f35b634e487b7160e01b84526011600452602484fd5b60405162461bcd60e51b815260048101839052601c60248201527f4d7573742068617665206174206c65617374206f6e652061646d696e000000006044820152606490fd5b60405162461bcd60e51b815260048101839052601b60248201527f43616e6e6f742072656d6f7665207072696d6172792061646d696e00000000006044820152606490fd5b60405162461bcd60e51b815260048101849052600c60248201526b2737ba1030b71030b236b4b760a11b6044820152606490fd5b50337f00000000000000000000000000000000000000000000000000000000000000006001600160a01b03161415613c37565b503461057657613df9366148d6565b91908152601060205260408120908154831015610576576020613e1c84846148f1565b905460405160039290921b1c6001600160a01b03168152f35b50346105765780600319360112610576576020600554604051908152f35b50346105765760209081600319360112610576576004358015801561451c575b6109d9573382526002835260ff60408320541615806144e9575b61076557613e9f600283541415614a22565b6002825560019060ff8254166119a0578083526007845260408320936008850190815460ff8160401c166144d05760068701549260028801938454118015928160078b01544210816144c8575b506144af57600160401b68ff000000000000000019821617835560048a015491613f1d60058c015480851194614a6e565b151592859161449a575b5015614208575050805469ff000000000000000000191669010000000000000000001790556040516370a0823160e01b81523060048201527f0000000000000000000000000000000000000000000000000000000000000000976001600160a01b03918481602481868e165afa90811561283e5789916141db575b5085541161418b579661408981998760038a9b888a888e7faa8c17c2592e9bd58842fc20e64bc1e041adb179c5ced209d37d0ae18cc4a3cf9e9f604090613fea600b54614a9e565b9687600b55019a600a848d541695549683519a6140068c614745565b8b52808b01968752838b019788524260608c0190815298835252209651875591519186018054919092166001600160a01b0319909116179055516002840155519101558254875460405163a9059cbb60e01b898201529186166001600160a01b031660248301526044808301919091528152906140846064836147c7565b614b8a565b54169254927ffbc3a599b784fe88772fc5abcc07223f64ca0b13acc341f4fb1e46bef0510eb4604080518681524286820152a2156141345761412c6040516140d081614791565b602681527f50726f706f73616c207061737365643a2046756e64696e6720676f616c20616383820152651a1a595d995960d21b60408201525b6040519384938885528401524260408401526080606084015260808301906148b1565b0390a2815580f35b61412c60405161414381614791565b603181527f50726f706f73616c207061737365643a20466f7220766f746573206578636565838201527064656420616761696e737420766f74657360781b6040820152614109565b60405162461bcd60e51b815260048101859052602260248201527f496e73756666696369656e742044414f2066756e647320666f722066756e64696044820152616e6760f01b6064820152608490fd5b90508481813d8311614201575b6141f281836147c7565b81010312612833575138613fa2565b503d6141e8565b889993506a0100010000000000000000919895506aff00ff000000000000000019161790558383526007825284604084206010845260408520906040519182868254918281520191885286882090885b81811061447a575050508261426e9103836147c7565b600e869101925b6143db575b50505061412c907faa8c17c2592e9bd58842fc20e64bc1e041adb179c5ced209d37d0ae18cc4a3cf9495966000146143ac576040516142b881614791565b602b81527f416761696e737420766f746573206578636565646564206f7220657175616c65848201526a6420666f7220766f74657360a81b6040820152905b8760018060a01b0391015416867fbc8a9d0ba3f4dca083b7608d4a9fa1b7f9c9a0381f048804054af16296eec1d76040514281526040878201528061433f60408201876148b1565b0390a361438960336040518093720283937b837b9b0b6103932b532b1ba32b21d1606d1b878301526143798151809289868601910161488e565b81010360138101845201826147c7565b6040519384938185528401524260408401526080606084015260808301906148b1565b6040516143b881614776565b6011815270139bc81d9bdd195cc81c9958d95a5d9959607a1b84820152906142f7565b8151811015614475578792919061441e906001600160a01b036143fe8285614ad5565b5116808952848852898960408120805480614426575b5050505050614a9e565b909192614275565b7f365ca7c850bea522b7a0d5f1aa9ac24e37b725bc7c463fc1aecf3bd1dfaa4d10926040925560128c52818d2061445e828254614a6e565b90558151908152428c820152a33889898280614414565b61427a565b82546001600160a01b031684528d99508b96938901939283019201614258565b9050806144a8575b38613f27565b50816144a2565b60405163028675ff60e01b815260048101889052602490fd5b905038613eec565b604051632776407360e11b815260048101859052602490fd5b50337f00000000000000000000000000000000000000000000000000000000000000006001600160a01b03161415613e8d565b506008548111613e73565b5034610576576020908160031936011261057657604051636eb1769f60e11b81523360048201523060248201526001600160a01b037f000000000000000000000000000000000000000000000000000000000000000016908381604481855afa90811561186d57918491849384916145ac575b50906138dd6139079260043590614a6e565b92809294508391503d83116145db575b6145c681836147c7565b810103126118615751829184916138dd61459a565b503d6145bc565b50346105765760203660031901126105765760043581526007602052604090208054600160a01b6001900360018301541691600281015490600381015460048201546005830154600684015460078501549160088601549360098701614647906147e8565b95614654600a89016147e8565b97600b01614661906147e8565b986040519b8c9b8c5260208c015260408b015260608a0152608089015260a088015260c087015260e086015263ffffffff8082166101008701528160201c166101208601528060401c60ff1615156101408601528060481c60ff16151561016086015260501c60ff161515610180850152610200806101a086015284016146e7916148b1565b8381036101c08501526146f9916148b1565b8281036101e08401526108f4916148b1565b90600182811c9216801561473b575b602083101461472557565b634e487b7160e01b600052602260045260246000fd5b91607f169161471a565b608081019081106001600160401b0382111761476057604052565b634e487b7160e01b600052604160045260246000fd5b604081019081106001600160401b0382111761476057604052565b606081019081106001600160401b0382111761476057604052565b60a081019081106001600160401b0382111761476057604052565b90601f801991011681019081106001600160401b0382111761476057604052565b90604051918260008254926147fc8461470b565b90818452600194858116908160001461486b5750600114614828575b5050614826925003836147c7565b565b9093915060005260209081600020936000915b81831061485357505061482693508201013880614818565b8554888401850152948501948794509183019161483b565b91505061482694506020925060ff191682840152151560051b8201013880614818565b60005b8381106148a15750506000910152565b8181015183820152602001614891565b906020916148ca8151809281855285808601910161488e565b601f01601f1916010190565b60409060031901126148ec576004359060243590565b600080fd5b80548210156149095760005260206000200190600090565b634e487b7160e01b600052603260045260246000fd5b600435906001600160a01b03821682036148ec57565b602435906001600160a01b03821682036148ec57565b346148ec5760003660031901126148ec57602060405168056bc75e2d631000008152f35b9181601f840112156148ec578235916001600160401b0383116148ec57602083818601950101116148ec57565b90815180825260208080930193019160005b8281106149bc575050505090565b8351855293810193928101926001016149ae565b80548210156149095760005260206000209060021b0190600090565b90815180825260208080930193019160005b828110614a0c575050505090565b83511515855293810193928101926001016149fe565b15614a2957565b60405162461bcd60e51b815260206004820152601f60248201527f5265656e7472616e637947756172643a207265656e7472616e742063616c6c006044820152606490fd5b91908201809211614a7b57565b634e487b7160e01b600052601160045260246000fd5b91908203918211614a7b57565b6000198114614a7b5760010190565b63ffffffff809116908114614a7b5760010190565b63ffffffff168015614a7b576000190190565b80518210156149095760209160051b010190565b908160209103126148ec575180151581036148ec5790565b6001600160401b0381116147605760051b60200190565b90614b2282614b01565b614b2f60405191826147c7565b8281528092614b40601f1991614b01565b0190602036910137565b6001600160a01b0316600090815260136020526040902054610e108101908110614a7b5780421015614b8457614b81904290614a91565b90565b50600090565b6040519192916001600160a01b0390911690614ba581614776565b6020918282527f5361666545524332303a206c6f772d6c6576656c2063616c6c206661696c656483830152803b15614cd45760008581969282868195519301915af1933d15614cc5573d946001600160401b038611614cb157614c2993949560405190614c1b87601f19601f84011601836147c7565b81528092863d92013e614d19565b805190828215928315614c99575b50505015614c425750565b6084906040519062461bcd60e51b82526004820152602a60248201527f5361666545524332303a204552433230206f7065726174696f6e20646964206e6044820152691bdd081cdd58d8d9595960b21b6064820152fd5b614ca99350820181019101614ae9565b388281614c37565b634e487b7160e01b82526041600452602482fd5b50614c29919293606090614d19565b60405162461bcd60e51b815260048101849052601d60248201527f416464726573733a2063616c6c20746f206e6f6e2d636f6e74726163740000006044820152606490fd5b90919015614d25575090565b815115614d355750805190602001fd5b60405162461bcd60e51b815260206004820152908190614d599060248301906148b1565b0390fdfea2646970667358221220859329ed4c4d7a799153ee6b169174c00e87483503e9d4005e65dfb9cc68189a64736f6c63430008140033","opcodes":"PUSH1 0xC0 CALLVALUE PUSH3 0x263 JUMPI PUSH1 0x1F PUSH3 0x5012 CODESIZE DUP2 SWAP1 SUB SWAP2 DUP3 ADD PUSH1 0x1F NOT AND DUP4 ADD SWAP3 SWAP2 SWAP1 PUSH1 0x1 PUSH1 0x1 PUSH1 0x40 SHL SUB DUP5 GT DUP4 DUP6 LT OR PUSH3 0x268 JUMPI DUP2 PUSH1 0x20 SWAP3 DUP5 SWAP3 PUSH1 0x40 SWAP7 DUP8 MSTORE DUP4 CODECOPY DUP2 ADD SUB SLT PUSH3 0x263 JUMPI MLOAD PUSH1 0x1 PUSH1 0x1 PUSH1 0xA0 SHL SUB DUP2 AND SWAP1 DUP2 SWAP1 SUB PUSH3 0x263 JUMPI PUSH1 0x0 SWAP1 PUSH1 0x1 DUP3 SSTORE PUSH1 0xFF NOT SWAP1 DUP2 PUSH1 0x1 SLOAD AND PUSH1 0x1 SSTORE DUP1 ISZERO PUSH3 0x252 JUMPI PUSH1 0x80 MSTORE CALLER PUSH1 0xA0 MSTORE CALLER DUP3 MSTORE PUSH1 0x2 PUSH1 0x20 MSTORE PUSH1 0x1 DUP4 DUP4 KECCAK256 SWAP2 DUP3 SLOAD AND OR SWAP1 SSTORE PUSH1 0x1 PUSH1 0x3 SSTORE DUP1 PUSH1 0x8 SSTORE DUP1 PUSH1 0xB SSTORE PUSH1 0x60 DUP1 PUSH8 0x8AC7230489E80000 SWAP3 DUP4 PUSH1 0x4 SSTORE PUSH2 0x12C SWAP4 DUP5 PUSH1 0x5 SSTORE PUSH1 0xA PUSH1 0x6 SSTORE DUP2 DUP7 MLOAD TIMESTAMP DUP2 MSTORE PUSH32 0xC879829B6AB559448E08C444FD0EF1F6E6EC47D851C79F50BC979D2F8F00E180 PUSH1 0x20 CALLER SWAP3 LOG3 PUSH1 0x13 DUP7 MLOAD PUSH32 0x6D696E496E766573746D656E74416D6F756E7400000000000000000000000000 DUP2 MSTORE KECCAK256 SWAP1 DUP7 MLOAD SWAP1 DUP4 DUP3 MSTORE PUSH1 0x20 DUP3 ADD MSTORE TIMESTAMP DUP8 DUP3 ADD MSTORE PUSH32 0x7B2F327FE3724E45A6D300853FC8629E1D8FD83607F6943007D3C5C3E3C7576F SWAP5 DUP6 SWAP2 LOG2 PUSH1 0xE DUP6 MLOAD PUSH14 0x3B37BA34B733A23AB930BA34B7B7 PUSH1 0x91 SHL DUP2 MSTORE KECCAK256 SWAP4 DUP6 MLOAD SWAP2 DUP3 MSTORE PUSH1 0x20 DUP3 ADD MSTORE TIMESTAMP DUP6 DUP3 ADD MSTORE LOG2 MLOAD PUSH2 0x4D93 SWAP1 DUP2 PUSH3 0x27F DUP3 CODECOPY PUSH1 0x80 MLOAD DUP2 DUP2 DUP2 PUSH2 0x30D ADD MSTORE DUP2 DUP2 PUSH2 0xA12 ADD MSTORE DUP2 DUP2 PUSH2 0xC14 ADD MSTORE DUP2 DUP2 PUSH2 0xD39 ADD MSTORE DUP2 DUP2 PUSH2 0xD99 ADD MSTORE DUP2 DUP2 PUSH2 0x12B9 ADD MSTORE DUP2 DUP2 PUSH2 0x13A6 ADD MSTORE DUP2 DUP2 PUSH2 0x15EB ADD MSTORE DUP2 DUP2 PUSH2 0x1B6C ADD MSTORE DUP2 DUP2 PUSH2 0x1DF7 ADD MSTORE DUP2 DUP2 PUSH2 0x20EF ADD MSTORE DUP2 DUP2 PUSH2 0x2620 ADD MSTORE DUP2 DUP2 PUSH2 0x2CA0 ADD MSTORE DUP2 DUP2 PUSH2 0x2EEB ADD MSTORE DUP2 DUP2 PUSH2 0x388B ADD MSTORE DUP2 DUP2 PUSH2 0x3F61 ADD MSTORE PUSH2 0x455E ADD MSTORE PUSH1 0xA0 MLOAD DUP2 DUP2 DUP2 PUSH2 0x77A ADD MSTORE DUP2 DUP2 PUSH2 0xA57 ADD MSTORE DUP2 DUP2 PUSH2 0x204E ADD MSTORE DUP2 DUP2 PUSH2 0x23B9 ADD MSTORE DUP2 DUP2 PUSH2 0x24EF ADD MSTORE DUP2 DUP2 PUSH2 0x28CC ADD MSTORE DUP2 DUP2 PUSH2 0x2A5B ADD MSTORE DUP2 DUP2 PUSH2 0x2BC4 ADD MSTORE DUP2 DUP2 PUSH2 0x3752 ADD MSTORE DUP2 DUP2 PUSH2 0x3BD7 ADD MSTORE DUP2 DUP2 PUSH2 0x3C63 ADD MSTORE DUP2 DUP2 PUSH2 0x3DBB ADD MSTORE PUSH2 0x44ED ADD MSTORE RETURN JUMPDEST DUP4 MLOAD PUSH4 0xD92E233D PUSH1 0xE0 SHL DUP2 MSTORE PUSH1 0x4 SWAP1 REVERT JUMPDEST PUSH1 0x0 DUP1 REVERT JUMPDEST PUSH4 0x4E487B71 PUSH1 0xE0 SHL PUSH1 0x0 MSTORE PUSH1 0x41 PUSH1 0x4 MSTORE PUSH1 0x24 PUSH1 0x0 REVERT INVALID PUSH1 0x80 PUSH1 0x40 MSTORE PUSH1 0x4 CALLDATASIZE LT ISZERO PUSH2 0x12 JUMPI PUSH1 0x0 DUP1 REVERT JUMPDEST PUSH1 0x0 DUP1 CALLDATALOAD PUSH1 0xE0 SHR DUP1 PUSH4 0x13CF08B EQ PUSH2 0x45E2 JUMPI DUP1 PUSH4 0xBFCC57B EQ PUSH2 0x4527 JUMPI DUP1 PUSH4 0xD61B519 EQ PUSH2 0x3E53 JUMPI DUP1 PUSH4 0x132002FC EQ PUSH2 0x3E35 JUMPI DUP1 PUSH4 0x16997EDB EQ PUSH2 0x3DEA JUMPI DUP1 PUSH4 0x1785F53C EQ PUSH2 0x3C06 JUMPI DUP1 PUSH4 0x1A5007DD EQ PUSH2 0x1252 JUMPI DUP1 PUSH4 0x1AF5B8CD EQ PUSH2 0x39B5 JUMPI DUP1 PUSH4 0x1E5DCA96 EQ PUSH2 0x3850 JUMPI DUP1 PUSH4 0x2B7832B3 EQ PUSH2 0x3832 JUMPI DUP1 PUSH4 0x3469219C EQ PUSH2 0x3816 JUMPI DUP1 PUSH4 0x348ACAEC EQ PUSH2 0x37FA JUMPI DUP1 PUSH4 0x36D95F56 EQ PUSH2 0x37D7 JUMPI DUP1 PUSH4 0x3F42B535 EQ PUSH2 0x3781 JUMPI DUP1 PUSH4 0x3F4BA83A EQ PUSH2 0x36C5 JUMPI DUP1 PUSH4 0x429B62E5 EQ PUSH2 0x3686 JUMPI DUP1 PUSH4 0x4598985E EQ PUSH2 0x1C04 JUMPI DUP1 PUSH4 0x467F67F9 EQ PUSH2 0x3669 JUMPI DUP1 PUSH4 0x4C15676B EQ PUSH2 0x2E5C JUMPI DUP1 PUSH4 0x4D298A07 EQ PUSH2 0x2E3E JUMPI DUP1 PUSH4 0x5B7AD578 EQ PUSH2 0x2E05 JUMPI DUP1 PUSH4 0x5B7BAF64 EQ PUSH2 0x2BF3 JUMPI DUP1 PUSH4 0x5BCFADB5 EQ PUSH2 0x2AAD JUMPI DUP1 PUSH4 0x5C975ABB EQ PUSH2 0x2A8A JUMPI DUP1 PUSH4 0x5D33B93B EQ PUSH2 0x28FB JUMPI DUP1 PUSH4 0x70480275 EQ PUSH2 0x2934 JUMPI DUP1 PUSH4 0x7325120E EQ PUSH2 0x28FB JUMPI DUP1 PUSH4 0x7CD22238 EQ PUSH2 0x2591 JUMPI DUP1 PUSH4 0x7E31D46E EQ PUSH2 0x251E JUMPI DUP1 PUSH4 0x7FBB1086 EQ PUSH2 0x23E8 JUMPI DUP1 PUSH4 0x8456CB59 EQ PUSH2 0x2327 JUMPI DUP1 PUSH4 0x86463A2C EQ PUSH2 0x22E3 JUMPI DUP1 PUSH4 0x8873FA2D EQ PUSH2 0x226A JUMPI DUP1 PUSH4 0x88F8EB0C EQ PUSH2 0x224C JUMPI DUP1 PUSH4 0x93E2C0A6 EQ PUSH2 0x1EFF JUMPI DUP1 PUSH4 0x9D097B33 EQ PUSH2 0x1C04 JUMPI DUP1 PUSH4 0x9FE8B3BA EQ PUSH2 0x21F7 JUMPI DUP1 PUSH4 0xA083301B EQ PUSH2 0x207D JUMPI DUP1 PUSH4 0xA907111D EQ PUSH2 0x1F38 JUMPI DUP1 PUSH4 0xAA38C4B7 EQ PUSH2 0x1EFF JUMPI DUP1 PUSH4 0xADD79064 EQ PUSH2 0x1EDA JUMPI DUP1 PUSH4 0xB613B114 EQ PUSH2 0x1EA1 JUMPI DUP1 PUSH4 0xBFA4AF4C EQ PUSH2 0x1E75 JUMPI DUP1 PUSH4 0xC5D7B649 EQ PUSH2 0x1DA4 JUMPI DUP1 PUSH4 0xC7F758A8 EQ PUSH2 0x1C59 JUMPI DUP1 PUSH4 0xC97BFE6B EQ PUSH2 0x1C09 JUMPI DUP1 PUSH4 0xCEF163C2 EQ PUSH2 0x1C04 JUMPI DUP1 PUSH4 0xCF9BE734 EQ PUSH2 0x1B1D JUMPI DUP1 PUSH4 0xD2DD506F EQ PUSH2 0x1A2C JUMPI DUP1 PUSH4 0xD46A5D7E EQ PUSH2 0x1270 JUMPI DUP1 PUSH4 0xDA35C664 EQ PUSH2 0x1252 JUMPI DUP1 PUSH4 0xDA5467A5 EQ PUSH2 0x120F JUMPI DUP1 PUSH4 0xE078D687 EQ PUSH2 0x11F1 JUMPI DUP1 PUSH4 0xE2F9E99C EQ PUSH2 0xC89 JUMPI DUP1 PUSH4 0xE7458310 EQ PUSH2 0xBD4 JUMPI DUP1 PUSH4 0xEAF1061C EQ PUSH2 0xBB8 JUMPI DUP1 PUSH4 0xEEFE85E4 EQ PUSH2 0xB9A JUMPI DUP1 PUSH4 0xEFA90D36 EQ PUSH2 0xB0F JUMPI DUP1 PUSH4 0xF7063E8B EQ PUSH2 0xA86 JUMPI DUP1 PUSH4 0xF851A440 EQ PUSH2 0xA41 JUMPI DUP1 PUSH4 0xF96DAE0A EQ PUSH2 0x9FC JUMPI DUP1 PUSH4 0xF9EF0687 EQ PUSH2 0x7A9 JUMPI DUP1 PUSH4 0xFFAFDDE1 EQ PUSH2 0x579 JUMPI PUSH4 0xFFC4BFDE EQ PUSH2 0x2DD JUMPI PUSH1 0x0 DUP1 REVERT JUMPDEST CALLVALUE PUSH2 0x576 JUMPI DUP1 PUSH1 0x3 NOT CALLDATASIZE ADD SLT PUSH2 0x576 JUMPI PUSH1 0x8 SLOAD PUSH1 0x40 MLOAD PUSH4 0x70A08231 PUSH1 0xE0 SHL DUP2 MSTORE ADDRESS PUSH1 0x4 DUP3 ADD MSTORE DUP3 DUP1 DUP1 PUSH1 0x20 DUP2 DUP1 DUP1 PUSH32 0x0 PUSH1 0x1 PUSH1 0x1 PUSH1 0xA0 SHL SUB AND DUP5 DUP10 PUSH1 0x24 DUP2 DUP5 GAS STATICCALL SWAP9 DUP10 ISZERO PUSH2 0x411 JUMPI DUP5 SWAP10 PUSH2 0x547 JUMPI JUMPDEST POP PUSH1 0x1 JUMPDEST DUP11 DUP2 GT ISZERO PUSH2 0x41C JUMPI POP SWAP10 DUP5 PUSH1 0x4 SWAP12 PUSH1 0x40 MLOAD SWAP13 DUP14 DUP1 SWAP3 PUSH4 0x18160DDD PUSH1 0xE0 SHL DUP3 MSTORE GAS STATICCALL SWAP11 DUP12 ISZERO PUSH2 0x411 JUMPI DUP5 SWAP12 PUSH2 0x3D6 JUMPI JUMPDEST POP PUSH2 0x140 SWAP11 PUSH8 0x8AC7230489E80000 SWAP1 DIV SWAP4 DUP5 ISZERO PUSH2 0x3CD JUMPI SWAP4 SWAP5 JUMPDEST PUSH1 0x40 MLOAD SWAP11 DUP12 MSTORE DUP11 ADD MSTORE PUSH1 0x40 DUP10 ADD MSTORE PUSH1 0x60 DUP9 ADD MSTORE PUSH1 0x80 DUP8 ADD MSTORE PUSH1 0xA0 DUP7 ADD MSTORE PUSH1 0xC0 DUP6 ADD MSTORE PUSH1 0xE0 DUP5 ADD MSTORE PUSH2 0x100 DUP4 ADD MSTORE PUSH2 0x120 DUP3 ADD MSTORE RETURN JUMPDEST DUP1 SWAP5 POP SWAP5 PUSH2 0x398 JUMP JUMPDEST SWAP11 POP DUP5 DUP12 DUP2 RETURNDATASIZE DUP4 GT PUSH2 0x40A JUMPI JUMPDEST PUSH2 0x3ED DUP2 DUP4 PUSH2 0x47C7 JUMP JUMPDEST DUP2 ADD SUB SLT PUSH2 0x406 JUMPI SWAP10 MLOAD SWAP10 PUSH8 0x8AC7230489E80000 PUSH2 0x37E JUMP JUMPDEST DUP4 DUP1 REVERT JUMPDEST POP RETURNDATASIZE PUSH2 0x3E3 JUMP JUMPDEST PUSH1 0x40 MLOAD RETURNDATASIZE DUP7 DUP3 RETURNDATACOPY RETURNDATASIZE SWAP1 REVERT JUMPDEST DUP1 DUP6 SWAP13 SWAP10 SWAP13 MSTORE PUSH1 0x7 DUP7 MSTORE PUSH1 0x40 DUP6 KECCAK256 PUSH1 0x8 DUP2 ADD SLOAD SWAP10 PUSH1 0xFF DUP12 PUSH1 0x40 SHR AND DUP1 ISZERO SWAP12 DUP13 DUP1 SWAP14 PUSH2 0x53A JUMPI JUMPDEST ISZERO PUSH2 0x4A4 JUMPI POP POP PUSH2 0x455 PUSH2 0x462 SWAP2 PUSH2 0x4A9E JUMP JUMPDEST SWAP14 JUMPDEST PUSH1 0x3 DUP4 ADD SLOAD SWAP1 PUSH2 0x4A6E JUMP JUMPDEST SWAP10 DUP1 PUSH2 0x497 JUMPI JUMPDEST PUSH2 0x47D JUMPI JUMPDEST POP PUSH2 0x478 SWAP1 PUSH2 0x4A9E JUMP JUMPDEST PUSH2 0x34F JUMP JUMPDEST PUSH2 0x478 SWAP2 SWAP9 PUSH1 0x2 PUSH2 0x490 SWAP3 ADD SLOAD SWAP1 PUSH2 0x4A6E JUMP JUMPDEST SWAP8 SWAP1 PUSH2 0x46E JUMP JUMPDEST POP PUSH1 0x7 DUP2 ADD SLOAD TIMESTAMP LT PUSH2 0x469 JUMP JUMPDEST SWAP2 SWAP15 SWAP10 SWAP6 SWAP2 DUP2 DUP1 PUSH2 0x52D JUMPI JUMPDEST ISZERO PUSH2 0x4D8 JUMPI POP POP PUSH2 0x4D2 PUSH2 0x4C6 PUSH2 0x462 SWAP3 PUSH2 0x4A9E JUMP JUMPDEST SWAP6 PUSH1 0x2 DUP5 ADD SLOAD SWAP1 PUSH2 0x4A6E JUMP JUMPDEST SWAP9 PUSH2 0x457 JUMP JUMPDEST SWAP6 SWAP10 SWAP2 SWAP6 DUP2 PUSH2 0x506 JUMPI JUMPDEST POP PUSH2 0x4F1 JUMPI JUMPDEST PUSH2 0x462 SWAP1 PUSH2 0x457 JUMP JUMPDEST SWAP5 PUSH2 0x4FE PUSH2 0x462 SWAP2 PUSH2 0x4A9E JUMP JUMPDEST SWAP6 SWAP1 POP PUSH2 0x4E8 JUMP JUMPDEST SWAP1 POP PUSH1 0xFF DUP2 PUSH1 0x50 SHR AND SWAP1 DUP2 ISZERO PUSH2 0x51E JUMPI JUMPDEST POP CODESIZE PUSH2 0x4E2 JUMP JUMPDEST PUSH1 0xFF SWAP2 POP PUSH1 0x48 SHR AND ISZERO CODESIZE PUSH2 0x517 JUMP JUMPDEST POP PUSH1 0xFF DUP2 PUSH1 0x48 SHR AND PUSH2 0x4B0 JUMP JUMPDEST POP PUSH1 0x7 DUP5 ADD SLOAD TIMESTAMP LT PUSH2 0x442 JUMP JUMPDEST SWAP1 SWAP9 POP DUP5 DUP2 DUP2 RETURNDATASIZE DUP4 GT PUSH2 0x56F JUMPI JUMPDEST PUSH2 0x55F DUP2 DUP4 PUSH2 0x47C7 JUMP JUMPDEST DUP2 ADD SUB SLT PUSH2 0x406 JUMPI MLOAD SWAP8 CODESIZE PUSH2 0x34B JUMP JUMPDEST POP RETURNDATASIZE PUSH2 0x555 JUMP JUMPDEST DUP1 REVERT JUMPDEST POP CALLVALUE PUSH2 0x576 JUMPI PUSH2 0x588 CALLDATASIZE PUSH2 0x48D6 JUMP JUMPDEST CALLER DUP4 MSTORE PUSH1 0x20 SWAP1 PUSH1 0x2 DUP3 MSTORE PUSH1 0xFF PUSH1 0x40 DUP6 KECCAK256 SLOAD AND ISZERO DUP1 PUSH2 0x776 JUMPI JUMPDEST PUSH2 0x765 JUMPI DUP3 ISZERO DUP1 ISZERO PUSH2 0x75A JUMPI JUMPDEST PUSH2 0x741 JUMPI DUP1 ISZERO PUSH2 0x703 JUMPI DUP3 DUP5 MSTORE PUSH1 0x7 DUP3 MSTORE PUSH1 0x40 DUP5 KECCAK256 PUSH1 0xFF PUSH1 0x8 DUP3 ADD SLOAD PUSH1 0x40 SHR AND PUSH2 0x6BE JUMPI PUSH1 0x7 ADD DUP1 SLOAD SWAP3 PUSH2 0x5E2 DUP4 DUP6 PUSH2 0x4A6E JUMP JUMPDEST SWAP2 PUSH2 0x5EF PUSH1 0x5 SLOAD DUP7 PUSH2 0x4A91 JUMP JUMPDEST PUSH3 0x278D00 DUP2 ADD DUP1 SWAP2 GT PUSH2 0x6AA JUMPI DUP4 GT PUSH2 0x64B JUMPI SWAP2 PUSH1 0xA0 SWAP4 SWAP2 DUP2 PUSH32 0xB9873FCCABEC700BDB36EC123D2606EEDDB0EF1CE51730BA5A83C0E27A098287 SWAP7 SWAP5 SSTORE PUSH1 0x40 MLOAD SWAP4 DUP5 MSTORE DUP4 ADD MSTORE PUSH1 0x40 DUP3 ADD MSTORE PUSH1 0x1 PUSH1 0x60 DUP3 ADD MSTORE TIMESTAMP PUSH1 0x80 DUP3 ADD MSTORE LOG2 DUP1 RETURN JUMPDEST PUSH1 0x40 MLOAD PUSH3 0x461BCD PUSH1 0xE5 SHL DUP2 MSTORE PUSH1 0x4 DUP2 ADD DUP4 SWAP1 MSTORE PUSH1 0x31 PUSH1 0x24 DUP3 ADD MSTORE PUSH32 0x457874656E73696F6E2065786365656473206D6178696D756D20616C6C6F7765 PUSH1 0x44 DUP3 ADD MSTORE PUSH17 0x32103B37BA34B73390323AB930BA34B7B7 PUSH1 0x79 SHL PUSH1 0x64 DUP3 ADD MSTORE PUSH1 0x84 SWAP1 REVERT JUMPDEST PUSH4 0x4E487B71 PUSH1 0xE0 SHL DUP9 MSTORE PUSH1 0x11 PUSH1 0x4 MSTORE PUSH1 0x24 DUP9 REVERT JUMPDEST PUSH1 0x40 MLOAD PUSH3 0x461BCD PUSH1 0xE5 SHL DUP2 MSTORE PUSH1 0x4 DUP2 ADD DUP5 SWAP1 MSTORE PUSH1 0x1F PUSH1 0x24 DUP3 ADD MSTORE PUSH32 0x43616E6E6F7420657874656E642065786563757465642070726F706F73616C00 PUSH1 0x44 DUP3 ADD MSTORE PUSH1 0x64 SWAP1 REVERT JUMPDEST PUSH1 0x40 MLOAD PUSH3 0x461BCD PUSH1 0xE5 SHL DUP2 MSTORE PUSH1 0x4 DUP2 ADD DUP4 SWAP1 MSTORE PUSH1 0x16 PUSH1 0x24 DUP3 ADD MSTORE PUSH22 0x496E76616C696420657874656E73696F6E2074696D65 PUSH1 0x50 SHL PUSH1 0x44 DUP3 ADD MSTORE PUSH1 0x64 SWAP1 REVERT JUMPDEST PUSH1 0x40 MLOAD PUSH4 0x654DD7A9 PUSH1 0xE0 SHL DUP2 MSTORE PUSH1 0x4 DUP2 ADD DUP5 SWAP1 MSTORE PUSH1 0x24 SWAP1 REVERT JUMPDEST POP PUSH1 0x8 SLOAD DUP4 GT PUSH2 0x5AE JUMP JUMPDEST PUSH1 0x40 MLOAD PUSH3 0x82B429 PUSH1 0xE8 SHL DUP2 MSTORE PUSH1 0x4 SWAP1 REVERT JUMPDEST POP CALLER PUSH32 0x0 PUSH1 0x1 PUSH1 0x1 PUSH1 0xA0 SHL SUB AND EQ ISZERO PUSH2 0x5A1 JUMP JUMPDEST POP CALLVALUE PUSH2 0x576 JUMPI PUSH1 0x20 SWAP1 DUP2 PUSH1 0x3 NOT CALLDATASIZE ADD SLT PUSH2 0x576 JUMPI PUSH1 0x4 CALLDATALOAD DUP1 ISZERO DUP1 ISZERO PUSH2 0x9F1 JUMPI JUMPDEST PUSH2 0x9D9 JUMPI DUP2 MSTORE PUSH1 0x7 DUP3 MSTORE PUSH1 0x40 DUP2 KECCAK256 PUSH1 0x10 DUP4 MSTORE PUSH1 0x40 DUP3 KECCAK256 PUSH1 0x40 MLOAD DUP1 DUP3 DUP7 DUP3 SWAP5 SLOAD SWAP4 DUP5 DUP2 MSTORE ADD SWAP1 DUP7 MSTORE DUP7 DUP7 KECCAK256 SWAP3 DUP7 JUMPDEST DUP9 DUP3 DUP3 LT PUSH2 0x9BA JUMPI POP POP POP PUSH2 0x80D SWAP3 POP SUB DUP3 PUSH2 0x47C7 JUMP JUMPDEST DUP1 MLOAD PUSH2 0x818 DUP2 PUSH2 0x4B01 JUMP JUMPDEST SWAP4 PUSH2 0x826 PUSH1 0x40 MLOAD SWAP6 DUP7 PUSH2 0x47C7 JUMP JUMPDEST DUP2 DUP6 MSTORE PUSH2 0x832 DUP3 PUSH2 0x4B01 JUMP JUMPDEST DUP6 DUP8 ADD SWAP7 SWAP1 PUSH1 0x1F NOT ADD CALLDATASIZE DUP9 CALLDATACOPY PUSH2 0x847 DUP4 PUSH2 0x4B18 JUMP JUMPDEST SWAP2 PUSH2 0x851 DUP5 PUSH2 0x4B18 JUMP JUMPDEST SWAP4 PUSH2 0x85B DUP2 PUSH2 0x4B18 JUMP JUMPDEST SWAP6 PUSH2 0x865 DUP3 PUSH2 0x4B18 JUMP JUMPDEST SWAP8 DUP4 SWAP2 PUSH1 0xE DUP3 ADD PUSH1 0xF DUP4 ADD SWAP2 PUSH1 0xC PUSH1 0xD DUP6 ADD SWAP5 ADD SWAP5 JUMPDEST DUP7 DUP2 LT PUSH2 0x915 JUMPI POP POP POP POP POP POP POP PUSH1 0x40 MLOAD SWAP7 PUSH1 0xA0 DUP9 ADD SWAP1 PUSH1 0xA0 DUP10 MSTORE MLOAD DUP1 SWAP2 MSTORE PUSH1 0xC0 DUP9 ADD SWAP9 SWAP2 JUMPDEST DUP2 DUP2 LT PUSH2 0x8F8 JUMPI POP POP POP PUSH2 0x8E6 SWAP3 PUSH2 0x8CA DUP9 PUSH2 0x8F4 SWAP8 SWAP7 SWAP5 PUSH2 0x8D8 SWAP5 DUP11 DUP1 SWAP13 SUB SWAP1 DUP12 ADD MSTORE PUSH2 0x499C JUMP JUMPDEST SWAP1 DUP8 DUP3 SUB PUSH1 0x40 DUP10 ADD MSTORE PUSH2 0x49EC JUMP JUMPDEST SWAP1 DUP6 DUP3 SUB PUSH1 0x60 DUP8 ADD MSTORE PUSH2 0x499C JUMP JUMPDEST SWAP1 DUP4 DUP3 SUB PUSH1 0x80 DUP6 ADD MSTORE PUSH2 0x49EC JUMP JUMPDEST SUB SWAP1 RETURN JUMPDEST DUP3 MLOAD PUSH1 0x1 PUSH1 0x1 PUSH1 0xA0 SHL SUB AND DUP11 MSTORE SWAP9 DUP4 ADD SWAP9 SWAP2 DUP4 ADD SWAP2 PUSH1 0x1 ADD PUSH2 0x8A1 JUMP JUMPDEST DUP1 DUP14 DUP10 SWAP16 SWAP10 DUP3 DUP16 DUP16 SWAP1 DUP16 SWAP4 DUP16 DUP16 SWAP1 DUP6 DUP16 SWAP3 SWAP5 DUP16 DUP16 DUP16 SWAP11 DUP16 SWAP12 PUSH2 0x9B2 SWAP16 SWAP10 PUSH2 0x956 PUSH2 0x9A8 SWAP15 PUSH2 0x94C PUSH1 0x40 SWAP14 PUSH1 0x1 DUP1 PUSH1 0xA0 SHL SUB SWAP3 PUSH2 0x4AD5 JUMP JUMPDEST MLOAD AND SWAP8 DUP9 SWAP3 PUSH2 0x4AD5 JUMP JUMPDEST MSTORE DUP6 DUP10 MSTORE DUP7 MSTORE PUSH2 0x96A DUP12 DUP11 DUP11 KECCAK256 SLOAD SWAP3 PUSH2 0x4AD5 JUMP JUMPDEST MSTORE DUP4 DUP8 MSTORE DUP5 MSTORE PUSH1 0xFF SWAP8 PUSH2 0x983 DUP11 DUP11 DUP11 DUP11 KECCAK256 SLOAD AND SWAP3 PUSH2 0x4AD5 JUMP JUMPDEST SWAP1 ISZERO ISZERO SWAP1 MSTORE DUP3 DUP7 MSTORE DUP4 MSTORE PUSH2 0x99B DUP9 DUP8 DUP8 KECCAK256 SLOAD SWAP3 PUSH2 0x4AD5 JUMP JUMPDEST MSTORE DUP4 MSTORE MSTORE KECCAK256 SLOAD AND SWAP3 PUSH2 0x4AD5 JUMP JUMPDEST SWAP1 ISZERO ISZERO SWAP1 MSTORE PUSH2 0x4A9E JUMP JUMPDEST SWAP13 SWAP7 SWAP13 PUSH2 0x87B JUMP JUMPDEST DUP6 SLOAD PUSH1 0x1 PUSH1 0x1 PUSH1 0xA0 SHL SUB AND DUP5 MSTORE PUSH1 0x1 SWAP6 DUP7 ADD SWAP6 DUP8 SWAP6 POP SWAP4 ADD SWAP3 ADD PUSH2 0x7F6 JUMP JUMPDEST PUSH1 0x24 SWAP1 PUSH1 0x40 MLOAD SWAP1 PUSH4 0x654DD7A9 PUSH1 0xE0 SHL DUP3 MSTORE PUSH1 0x4 DUP3 ADD MSTORE REVERT JUMPDEST POP PUSH1 0x8 SLOAD DUP2 GT PUSH2 0x7C9 JUMP JUMPDEST POP CALLVALUE PUSH2 0x576 JUMPI DUP1 PUSH1 0x3 NOT CALLDATASIZE ADD SLT PUSH2 0x576 JUMPI PUSH1 0x40 MLOAD PUSH32 0x0 PUSH1 0x1 PUSH1 0x1 PUSH1 0xA0 SHL SUB AND DUP2 MSTORE PUSH1 0x20 SWAP1 RETURN JUMPDEST POP CALLVALUE PUSH2 0x576 JUMPI DUP1 PUSH1 0x3 NOT CALLDATASIZE ADD SLT PUSH2 0x576 JUMPI PUSH1 0x40 MLOAD PUSH32 0x0 PUSH1 0x1 PUSH1 0x1 PUSH1 0xA0 SHL SUB AND DUP2 MSTORE PUSH1 0x20 SWAP1 RETURN JUMPDEST POP CALLVALUE PUSH2 0x576 JUMPI PUSH1 0x40 CALLDATASIZE PUSH1 0x3 NOT ADD SLT PUSH2 0x576 JUMPI PUSH1 0x4 CALLDATALOAD SWAP1 PUSH2 0xAA4 PUSH2 0x4935 JUMP JUMPDEST DUP3 ISZERO DUP1 ISZERO PUSH2 0xB04 JUMPI JUMPDEST PUSH2 0x741 JUMPI PUSH1 0x60 SWAP3 DUP3 MSTORE PUSH1 0x7 PUSH1 0x20 MSTORE PUSH1 0x40 DUP3 KECCAK256 SWAP1 PUSH1 0x1 DUP1 PUSH1 0xA0 SHL SUB AND DUP3 MSTORE PUSH1 0xE DUP2 ADD PUSH1 0x20 MSTORE PUSH1 0x40 DUP1 DUP4 KECCAK256 SLOAD SWAP3 PUSH1 0xC DUP4 ADD PUSH1 0x20 MSTORE PUSH1 0xD PUSH1 0xFF DUP4 DUP4 KECCAK256 SLOAD AND SWAP4 ADD PUSH1 0x20 MSTORE KECCAK256 SLOAD SWAP1 PUSH1 0x40 MLOAD SWAP3 DUP4 MSTORE ISZERO ISZERO PUSH1 0x20 DUP4 ADD MSTORE PUSH1 0x40 DUP3 ADD MSTORE RETURN JUMPDEST POP PUSH1 0x8 SLOAD DUP4 GT PUSH2 0xAAD JUMP JUMPDEST POP CALLVALUE PUSH2 0x576 JUMPI DUP1 PUSH1 0x3 NOT CALLDATASIZE ADD SLT PUSH2 0x576 JUMPI PUSH1 0x40 MLOAD DUP1 SWAP2 DUP3 PUSH1 0x9 SLOAD DUP1 DUP5 MSTORE PUSH1 0x20 DUP1 SWAP5 ADD SWAP1 PUSH1 0x9 DUP5 MSTORE PUSH32 0x6E1540171B6C0C960B71A7020D9F60077F6AF931A8BBF590DA0223DACF75C7AF SWAP4 JUMPDEST DUP6 DUP3 DUP3 LT PUSH2 0xB84 JUMPI POP POP POP PUSH2 0xB70 SWAP3 POP SUB DUP4 PUSH2 0x47C7 JUMP JUMPDEST PUSH2 0x8F4 PUSH1 0x40 MLOAD SWAP3 DUP3 DUP5 SWAP4 DUP5 MSTORE DUP4 ADD SWAP1 PUSH2 0x499C JUMP JUMPDEST DUP6 SLOAD DUP5 MSTORE PUSH1 0x1 SWAP6 DUP7 ADD SWAP6 DUP9 SWAP6 POP SWAP4 ADD SWAP3 ADD PUSH2 0xB59 JUMP JUMPDEST POP CALLVALUE PUSH2 0x576 JUMPI DUP1 PUSH1 0x3 NOT CALLDATASIZE ADD SLT PUSH2 0x576 JUMPI PUSH1 0x20 PUSH1 0x40 MLOAD PUSH3 0x278D00 DUP2 MSTORE RETURN JUMPDEST POP CALLVALUE PUSH2 0x576 JUMPI DUP1 PUSH1 0x3 NOT CALLDATASIZE ADD SLT PUSH2 0x576 JUMPI PUSH1 0x20 PUSH1 0x40 MLOAD PUSH1 0x3C DUP2 MSTORE RETURN JUMPDEST POP CALLVALUE PUSH2 0x576 JUMPI PUSH1 0x20 CALLDATASIZE PUSH1 0x3 NOT ADD SLT PUSH2 0x576 JUMPI PUSH1 0x40 MLOAD PUSH4 0x95EA7B3 PUSH1 0xE0 SHL DUP2 MSTORE ADDRESS PUSH1 0x4 DUP1 DUP4 ADD SWAP2 SWAP1 SWAP2 MSTORE CALLDATALOAD PUSH1 0x24 DUP3 ADD MSTORE PUSH1 0x20 DUP2 PUSH1 0x44 DUP2 DUP6 PUSH1 0x1 PUSH1 0x1 PUSH1 0xA0 SHL SUB PUSH32 0x0 AND GAS CALL SWAP1 DUP2 ISZERO PUSH2 0xC7E JUMPI PUSH1 0x20 SWAP3 SWAP2 PUSH2 0xC51 JUMPI JUMPDEST POP PUSH1 0x40 MLOAD SWAP1 ISZERO ISZERO DUP2 MSTORE RETURN JUMPDEST PUSH2 0xC71 SWAP2 POP DUP3 RETURNDATASIZE DUP2 GT PUSH2 0xC77 JUMPI JUMPDEST PUSH2 0xC69 DUP2 DUP4 PUSH2 0x47C7 JUMP JUMPDEST DUP2 ADD SWAP1 PUSH2 0x4AE9 JUMP JUMPDEST CODESIZE PUSH2 0xC46 JUMP JUMPDEST POP RETURNDATASIZE PUSH2 0xC5F JUMP JUMPDEST PUSH1 0x40 MLOAD RETURNDATASIZE DUP5 DUP3 RETURNDATACOPY RETURNDATASIZE SWAP1 REVERT JUMPDEST POP CALLVALUE PUSH2 0x576 JUMPI PUSH1 0x20 CALLDATASIZE PUSH1 0x3 NOT ADD SLT PUSH2 0x576 JUMPI PUSH2 0xCA3 PUSH2 0x491F JUMP JUMPDEST PUSH1 0x40 MLOAD SWAP1 PUSH2 0x1A0 DUP3 ADD DUP3 DUP2 LT PUSH1 0x1 PUSH1 0x1 PUSH1 0x40 SHL SUB DUP3 GT OR PUSH2 0x11DD JUMPI PUSH1 0x40 MSTORE DUP3 DUP3 MSTORE DUP3 PUSH1 0x20 DUP4 ADD MSTORE DUP3 PUSH1 0x40 DUP4 ADD MSTORE DUP3 PUSH1 0x60 DUP4 ADD MSTORE DUP3 PUSH1 0x80 DUP4 ADD MSTORE DUP3 PUSH1 0xA0 DUP4 ADD MSTORE DUP3 PUSH1 0xC0 DUP4 ADD MSTORE DUP3 PUSH1 0xE0 DUP4 ADD MSTORE DUP3 PUSH2 0x100 DUP4 ADD MSTORE DUP3 PUSH2 0x120 DUP4 ADD MSTORE DUP3 PUSH2 0x140 DUP4 ADD MSTORE DUP3 PUSH2 0x160 DUP4 ADD MSTORE PUSH1 0x60 PUSH2 0x180 DUP4 ADD MSTORE PUSH1 0x40 MLOAD SWAP1 PUSH4 0x70A08231 PUSH1 0xE0 SHL DUP3 MSTORE PUSH1 0x1 DUP1 PUSH1 0xA0 SHL SUB SWAP2 DUP3 DUP3 AND PUSH1 0x4 DUP3 ADD MSTORE PUSH1 0x20 DUP2 PUSH1 0x24 DUP2 DUP7 PUSH32 0x0 AND GAS STATICCALL SWAP1 DUP2 ISZERO PUSH2 0x11A0 JUMPI DUP6 SWAP2 PUSH2 0x11AB JUMPI JUMPDEST POP PUSH1 0xC0 DUP5 ADD MSTORE PUSH1 0x40 MLOAD PUSH4 0x6EB1769F PUSH1 0xE1 SHL DUP2 MSTORE PUSH1 0x1 PUSH1 0x1 PUSH1 0xA0 SHL SUB DUP3 AND PUSH1 0x4 DUP3 ADD MSTORE ADDRESS PUSH1 0x24 DUP3 ADD MSTORE PUSH1 0x20 DUP2 PUSH1 0x44 DUP2 PUSH32 0x0 DUP8 AND GAS STATICCALL SWAP1 DUP2 ISZERO PUSH2 0x11A0 JUMPI DUP6 SWAP2 PUSH2 0x116A JUMPI JUMPDEST POP PUSH1 0xE0 DUP5 ADD MSTORE PUSH9 0x56BC75E2D63100000 PUSH2 0x100 DUP5 ADD MSTORE PUSH9 0x56BC75E2D63100000 PUSH2 0x120 DUP5 ADD MSTORE DUP2 DUP2 AND DUP5 MSTORE PUSH1 0xF PUSH1 0x20 MSTORE PUSH1 0x40 DUP5 KECCAK256 SLOAD PUSH2 0x160 DUP5 ADD MSTORE AND DUP3 MSTORE PUSH1 0x13 PUSH1 0x20 MSTORE PUSH1 0x40 DUP3 KECCAK256 SLOAD PUSH2 0xE10 DUP2 ADD DUP2 GT PUSH2 0x1156 JUMPI PUSH2 0x180 SWAP3 SWAP1 PUSH2 0xE10 DUP2 ADD TIMESTAMP LT PUSH2 0x1141 JUMPI POP JUMPDEST DUP1 PUSH2 0x140 DUP4 ADD MSTORE PUSH9 0x56BC75E2D63100000 PUSH1 0xC0 DUP4 ADD MLOAD LT DUP1 ISZERO SWAP1 DUP2 PUSH1 0x20 DUP6 ADD MSTORE DUP2 PUSH1 0x40 DUP6 ADD MSTORE PUSH9 0x56BC75E2D63100000 PUSH1 0xE0 DUP6 ADD MLOAD LT SWAP1 DUP2 ISZERO SWAP4 DUP5 PUSH1 0x60 DUP8 ADD MSTORE ISZERO SWAP3 DUP4 PUSH1 0x80 DUP8 ADD MSTORE PUSH2 0x160 DUP7 ADD MLOAD PUSH1 0x6 SLOAD GT SWAP5 DUP6 PUSH1 0xA0 DUP9 ADD MSTORE DUP2 DUP1 SWAP3 PUSH2 0x1139 JUMPI JUMPDEST POP DUP2 PUSH2 0x1131 JUMPI JUMPDEST POP DUP1 PUSH2 0x112A JUMPI JUMPDEST DUP1 PUSH2 0x1123 JUMPI JUMPDEST DUP1 PUSH2 0x1116 JUMPI JUMPDEST ISZERO ISZERO DUP6 MSTORE PUSH1 0x1 SLOAD PUSH1 0xFF AND ISZERO PUSH2 0xF96 JUMPI POP POP POP POP PUSH1 0x40 MLOAD PUSH2 0xEC9 DUP2 PUSH2 0x4776 JUMP JUMPDEST PUSH1 0x12 DUP2 MSTORE PUSH18 0x10DBDB9D1C9858DD081A5CC81C185D5CD959 PUSH1 0x72 SHL PUSH1 0x20 DUP3 ADD MSTORE DUP3 DUP3 ADD MSTORE JUMPDEST PUSH2 0x8F4 PUSH1 0x40 MLOAD SWAP3 DUP4 SWAP3 PUSH1 0x20 DUP5 MSTORE DUP1 MLOAD ISZERO ISZERO PUSH1 0x20 DUP6 ADD MSTORE PUSH1 0x20 DUP2 ADD MLOAD ISZERO ISZERO PUSH1 0x40 DUP6 ADD MSTORE PUSH1 0x40 DUP2 ADD MLOAD ISZERO ISZERO PUSH1 0x60 DUP6 ADD MSTORE PUSH1 0x60 DUP2 ADD MLOAD ISZERO ISZERO PUSH1 0x80 DUP6 ADD MSTORE PUSH1 0x80 DUP2 ADD MLOAD ISZERO ISZERO PUSH1 0xA0 DUP6 ADD MSTORE PUSH1 0xA0 DUP2 ADD MLOAD ISZERO ISZERO PUSH1 0xC0 DUP6 ADD MSTORE PUSH1 0xC0 DUP2 ADD MLOAD PUSH1 0xE0 DUP6 ADD MSTORE PUSH1 0xE0 DUP2 ADD MLOAD PUSH2 0x100 DUP6 ADD MSTORE PUSH2 0x100 DUP2 ADD MLOAD PUSH2 0x120 DUP6 ADD MSTORE PUSH2 0x120 DUP2 ADD MLOAD PUSH2 0x140 DUP6 ADD MSTORE PUSH2 0x140 DUP2 ADD MLOAD PUSH2 0x160 DUP6 ADD MSTORE PUSH2 0x160 DUP2 ADD MLOAD DUP3 DUP6 ADD MSTORE ADD MLOAD PUSH2 0x1A0 DUP1 DUP5 ADD MSTORE PUSH2 0x1C0 DUP4 ADD SWAP1 PUSH2 0x48B1 JUMP JUMPDEST ISZERO PUSH2 0xFF2 JUMPI POP POP POP PUSH1 0x40 MLOAD PUSH2 0xFAA DUP2 PUSH2 0x4791 JUMP JUMPDEST PUSH1 0x2C DUP2 MSTORE PUSH32 0x4E656564206174206C656173742031303020746F6B656E7320746F2063726561 PUSH1 0x20 DUP3 ADD MSTORE PUSH12 0x74652070726F706F73616C73 PUSH1 0xA0 SHL PUSH1 0x40 DUP3 ADD MSTORE DUP3 DUP3 ADD MSTORE PUSH2 0xEED JUMP JUMPDEST ISZERO PUSH2 0x1045 JUMPI POP POP PUSH1 0x40 MLOAD PUSH2 0x1005 DUP2 PUSH2 0x4791 JUMP JUMPDEST PUSH1 0x24 DUP2 MSTORE PUSH32 0x4D75737420617070726F76652044414F20746F207370656E642031303020746F PUSH1 0x20 DUP3 ADD MSTORE PUSH4 0x6B656E73 PUSH1 0xE0 SHL PUSH1 0x40 DUP3 ADD MSTORE DUP3 DUP3 ADD MSTORE PUSH2 0xEED JUMP JUMPDEST PUSH2 0x1089 JUMPI POP PUSH1 0x40 MLOAD PUSH2 0x1056 DUP2 PUSH2 0x4776 JUMP JUMPDEST PUSH1 0x18 DUP2 MSTORE PUSH32 0x50726F706F73616C20636F6F6C646F776E206163746976650000000000000000 PUSH1 0x20 DUP3 ADD MSTORE DUP3 DUP3 ADD MSTORE PUSH2 0xEED JUMP JUMPDEST PUSH2 0x10D7 JUMPI PUSH1 0x40 MLOAD PUSH2 0x1099 DUP2 PUSH2 0x4791 JUMP JUMPDEST PUSH1 0x22 DUP2 MSTORE PUSH32 0x4D6178696D756D2070726F706F73616C73207065722075736572207265616368 PUSH1 0x20 DUP3 ADD MSTORE PUSH2 0x1959 PUSH1 0xF2 SHL PUSH1 0x40 DUP3 ADD MSTORE DUP3 DUP3 ADD MSTORE PUSH2 0xEED JUMP JUMPDEST PUSH1 0x40 MLOAD PUSH2 0x10E3 DUP2 PUSH2 0x4776 JUMP JUMPDEST PUSH1 0x18 DUP2 MSTORE PUSH32 0x526561647920746F206372656174652070726F706F73616C0000000000000000 PUSH1 0x20 DUP3 ADD MSTORE DUP3 DUP3 ADD MSTORE PUSH2 0xEED JUMP JUMPDEST POP PUSH1 0xFF PUSH1 0x1 SLOAD AND ISZERO PUSH2 0xEAA JUMP JUMPDEST POP DUP4 PUSH2 0xEA4 JUMP JUMPDEST POP DUP3 PUSH2 0xE9E JUMP JUMPDEST SWAP1 POP CODESIZE PUSH2 0xE97 JUMP JUMPDEST SWAP2 POP CODESIZE PUSH2 0xE90 JUMP JUMPDEST PUSH2 0x1151 SWAP2 POP PUSH2 0xE10 TIMESTAMP SWAP2 ADD PUSH2 0x4A91 JUMP JUMPDEST PUSH2 0xE2F JUMP JUMPDEST PUSH4 0x4E487B71 PUSH1 0xE0 SHL DUP4 MSTORE PUSH1 0x11 PUSH1 0x4 MSTORE PUSH1 0x24 DUP4 REVERT JUMPDEST SWAP1 POP PUSH1 0x20 DUP2 RETURNDATASIZE PUSH1 0x20 GT PUSH2 0x1198 JUMPI JUMPDEST DUP2 PUSH2 0x1185 PUSH1 0x20 SWAP4 DUP4 PUSH2 0x47C7 JUMP JUMPDEST DUP2 ADD SUB SLT PUSH2 0x1194 JUMPI MLOAD CODESIZE PUSH2 0xDCA JUMP JUMPDEST DUP5 DUP1 REVERT JUMPDEST RETURNDATASIZE SWAP2 POP PUSH2 0x1178 JUMP JUMPDEST PUSH1 0x40 MLOAD RETURNDATASIZE DUP8 DUP3 RETURNDATACOPY RETURNDATASIZE SWAP1 REVERT JUMPDEST SWAP1 POP PUSH1 0x20 DUP2 RETURNDATASIZE PUSH1 0x20 GT PUSH2 0x11D5 JUMPI JUMPDEST DUP2 PUSH2 0x11C6 PUSH1 0x20 SWAP4 DUP4 PUSH2 0x47C7 JUMP JUMPDEST DUP2 ADD SUB SLT PUSH2 0x1194 JUMPI MLOAD CODESIZE PUSH2 0xD69 JUMP JUMPDEST RETURNDATASIZE SWAP2 POP PUSH2 0x11B9 JUMP JUMPDEST PUSH4 0x4E487B71 PUSH1 0xE0 SHL DUP5 MSTORE PUSH1 0x41 PUSH1 0x4 MSTORE PUSH1 0x24 DUP5 REVERT JUMPDEST POP CALLVALUE PUSH2 0x576 JUMPI DUP1 PUSH1 0x3 NOT CALLDATASIZE ADD SLT PUSH2 0x576 JUMPI PUSH1 0x20 PUSH1 0xB SLOAD PUSH1 0x40 MLOAD SWAP1 DUP2 MSTORE RETURN JUMPDEST POP CALLVALUE PUSH2 0x576 JUMPI PUSH1 0x20 CALLDATASIZE PUSH1 0x3 NOT ADD SLT PUSH2 0x576 JUMPI PUSH1 0x4 CALLDATALOAD DUP1 ISZERO DUP1 ISZERO PUSH2 0x1247 JUMPI JUMPDEST PUSH2 0x9D9 JUMPI DUP2 PUSH1 0x40 SWAP2 PUSH1 0x20 SWAP4 MSTORE PUSH1 0x10 DUP4 MSTORE KECCAK256 SLOAD PUSH1 0x40 MLOAD SWAP1 DUP2 MSTORE RETURN JUMPDEST POP PUSH1 0x8 SLOAD DUP2 GT PUSH2 0x122D JUMP JUMPDEST POP CALLVALUE PUSH2 0x576 JUMPI DUP1 PUSH1 0x3 NOT CALLDATASIZE ADD SLT PUSH2 0x576 JUMPI PUSH1 0x20 PUSH1 0x8 SLOAD PUSH1 0x40 MLOAD SWAP1 DUP2 MSTORE RETURN JUMPDEST POP CALLVALUE PUSH2 0x576 JUMPI PUSH1 0x60 CALLDATASIZE PUSH1 0x3 NOT ADD SLT PUSH2 0x576 JUMPI PUSH1 0x24 CALLDATALOAD ISZERO ISZERO PUSH1 0x24 CALLDATALOAD SUB PUSH2 0x576 JUMPI PUSH1 0x4 CALLDATALOAD ISZERO DUP1 ISZERO PUSH2 0x1A1F JUMPI JUMPDEST PUSH2 0x1A06 JUMPI PUSH1 0x40 MLOAD PUSH4 0x70A08231 PUSH1 0xE0 SHL DUP2 MSTORE CALLER PUSH1 0x4 DUP3 ADD MSTORE PUSH1 0x20 DUP2 PUSH1 0x24 DUP2 PUSH32 0x0 PUSH1 0x1 PUSH1 0x1 PUSH1 0xA0 SHL SUB AND GAS STATICCALL SWAP1 DUP2 ISZERO PUSH2 0xC7E JUMPI DUP3 SWAP2 PUSH2 0x19D0 JUMPI JUMPDEST POP PUSH1 0x4 SLOAD SWAP1 DUP2 DUP2 LT PUSH2 0x19B2 JUMPI POP PUSH2 0x130C PUSH1 0x2 DUP4 SLOAD EQ ISZERO PUSH2 0x4A22 JUMP JUMPDEST PUSH1 0x2 DUP3 SSTORE PUSH1 0xFF PUSH1 0x1 SLOAD AND PUSH2 0x19A0 JUMPI PUSH1 0x4 CALLDATALOAD DUP3 MSTORE PUSH1 0x7 PUSH1 0x20 MSTORE PUSH1 0x40 DUP3 KECCAK256 SWAP1 PUSH1 0x1 DUP1 PUSH1 0xA0 SHL SUB PUSH1 0x1 DUP4 ADD SLOAD AND CALLER EQ PUSH2 0x1987 JUMPI PUSH1 0x7 DUP3 ADD SLOAD TIMESTAMP LT ISZERO PUSH2 0x196E JUMPI CALLER DUP4 MSTORE PUSH1 0xC DUP3 ADD PUSH1 0x20 MSTORE PUSH1 0xFF PUSH1 0x40 DUP5 KECCAK256 SLOAD AND DUP1 PUSH2 0x1957 JUMPI JUMPDEST PUSH2 0x18F5 JUMPI PUSH1 0xFF PUSH1 0x8 DUP4 ADD SLOAD PUSH1 0x40 SHR AND PUSH2 0x18DC JUMPI DUP1 PUSH1 0x44 CALLDATALOAD LT PUSH2 0x18BD JUMPI POP PUSH1 0x2 DUP2 ADD SLOAD PUSH1 0x44 CALLDATALOAD GT PUSH2 0x1878 JUMPI PUSH1 0x40 MLOAD PUSH4 0x70A08231 PUSH1 0xE0 SHL DUP2 MSTORE CALLER PUSH1 0x4 DUP3 ADD MSTORE SWAP1 PUSH1 0x20 DUP3 PUSH1 0x24 DUP2 PUSH32 0x0 PUSH1 0x1 PUSH1 0x1 PUSH1 0xA0 SHL SUB AND GAS STATICCALL SWAP2 DUP3 ISZERO PUSH2 0x186D JUMPI DUP4 SWAP3 PUSH2 0x1835 JUMPI JUMPDEST POP CALLER DUP4 MSTORE PUSH1 0xE DUP2 ADD PUSH1 0x20 MSTORE PUSH1 0x40 DUP4 KECCAK256 SLOAD SWAP1 PUSH2 0x13FB DUP3 PUSH1 0x44 CALLDATALOAD PUSH2 0x4A91 JUMP JUMPDEST SWAP2 DUP3 DUP5 LT PUSH2 0x1817 JUMPI CALLER DUP6 MSTORE PUSH1 0xE DUP3 ADD PUSH1 0x20 MSTORE PUSH1 0x40 DUP6 KECCAK256 SLOAD ISZERO PUSH2 0x176A JUMPI JUMPDEST PUSH1 0xC DUP3 ADD PUSH1 0x20 MSTORE PUSH1 0x40 DUP6 KECCAK256 PUSH1 0x1 PUSH1 0xFF NOT DUP3 SLOAD AND OR SWAP1 SSTORE PUSH1 0xD DUP3 ADD PUSH1 0x20 MSTORE TIMESTAMP PUSH1 0x40 DUP7 KECCAK256 SSTORE PUSH1 0xF DUP3 ADD SWAP1 DUP2 PUSH1 0x20 MSTORE PUSH2 0x145F PUSH1 0x24 CALLDATALOAD PUSH1 0x40 DUP9 KECCAK256 SWAP1 PUSH1 0xFF DUP1 NOT DUP4 SLOAD AND SWAP2 ISZERO ISZERO AND OR SWAP1 SSTORE JUMP JUMPDEST PUSH1 0xE DUP4 ADD PUSH1 0x20 MSTORE PUSH1 0x44 CALLDATALOAD PUSH1 0x40 DUP8 KECCAK256 SSTORE PUSH1 0x6 DUP4 ADD PUSH2 0x147D DUP6 DUP3 SLOAD PUSH2 0x4A6E JUMP JUMPDEST SWAP1 SSTORE ISZERO SWAP1 DUP2 ISZERO PUSH2 0x174D JUMPI POP DUP5 SWAP1 JUMPDEST PUSH1 0x24 CALLDATALOAD ISZERO PUSH2 0x16A9 JUMPI PUSH1 0x4 DUP4 ADD PUSH2 0x14A2 DUP7 DUP3 SLOAD PUSH2 0x4A6E JUMP JUMPDEST SWAP1 SSTORE ISZERO PUSH2 0x163D JUMPI POP PUSH1 0x8 DUP1 DUP3 ADD SLOAD PUSH4 0xFFFFFFFF PUSH2 0x14C0 DUP2 DUP4 AND PUSH2 0x4AAD JUMP JUMPDEST AND SWAP1 PUSH4 0xFFFFFFFF NOT AND OR SWAP2 ADD SSTORE JUMPDEST CALLER DUP4 MSTORE PUSH1 0xD PUSH1 0x20 MSTORE PUSH1 0x40 DUP4 KECCAK256 PUSH1 0x40 MLOAD SWAP1 PUSH2 0x14E7 DUP3 PUSH2 0x4745 JUMP JUMPDEST PUSH1 0x4 CALLDATALOAD DUP3 MSTORE PUSH1 0x44 CALLDATALOAD PUSH1 0x20 DUP4 ADD MSTORE TIMESTAMP PUSH1 0x40 DUP4 ADD MSTORE PUSH1 0x24 CALLDATALOAD ISZERO ISZERO PUSH1 0x60 DUP4 ADD MSTORE DUP1 SLOAD SWAP1 PUSH1 0x1 PUSH1 0x40 SHL DUP3 LT ISZERO PUSH2 0x1629 JUMPI SWAP1 PUSH2 0x1523 SWAP2 PUSH1 0x1 DUP3 ADD DUP2 SSTORE PUSH2 0x49D0 JUMP JUMPDEST SWAP2 SWAP1 SWAP2 PUSH2 0x1615 JUMPI SWAP1 PUSH1 0x3 PUSH1 0x60 DUP4 PUSH2 0x1562 SWAP5 MLOAD DUP5 SSTORE PUSH1 0x20 DUP2 ADD MLOAD PUSH1 0x1 DUP6 ADD SSTORE PUSH1 0x40 DUP2 ADD MLOAD PUSH1 0x2 DUP6 ADD SSTORE ADD MLOAD ISZERO ISZERO SWAP2 ADD SWAP1 PUSH1 0xFF DUP1 NOT DUP4 SLOAD AND SWAP2 ISZERO ISZERO AND OR SWAP1 SSTORE JUMP JUMPDEST DUP1 PUSH2 0x15B6 JUMPI JUMPDEST POP PUSH1 0x40 DUP1 MLOAD SWAP2 DUP3 MSTORE PUSH1 0x44 CALLDATALOAD PUSH1 0x20 DUP4 ADD MSTORE TIMESTAMP SWAP1 DUP3 ADD MSTORE PUSH1 0x24 CALLDATALOAD ISZERO ISZERO SWAP1 CALLER SWAP1 PUSH1 0x4 CALLDATALOAD SWAP1 PUSH32 0x2C707893AF580790816FD02F801C18ABD3C09CBCD05759060A0C85A0072FAF7C SWAP1 PUSH1 0x60 SWAP1 LOG4 PUSH1 0x1 DUP2 SSTORE DUP1 RETURN JUMPDEST PUSH2 0x160F SWAP1 PUSH1 0x40 MLOAD SWAP1 PUSH4 0x23B872DD PUSH1 0xE0 SHL PUSH1 0x20 DUP4 ADD MSTORE CALLER PUSH1 0x24 DUP4 ADD MSTORE ADDRESS PUSH1 0x44 DUP4 ADD MSTORE PUSH1 0x64 DUP3 ADD MSTORE PUSH1 0x64 DUP2 MSTORE PUSH2 0x15E9 DUP2 PUSH2 0x47AC JUMP JUMPDEST PUSH32 0x0 PUSH2 0x4B8A JUMP JUMPDEST CODESIZE PUSH2 0x1568 JUMP JUMPDEST PUSH4 0x4E487B71 PUSH1 0xE0 SHL DUP6 MSTORE PUSH1 0x4 DUP6 SWAP1 MSTORE PUSH1 0x24 DUP6 REVERT JUMPDEST PUSH4 0x4E487B71 PUSH1 0xE0 SHL DUP7 MSTORE PUSH1 0x41 PUSH1 0x4 MSTORE PUSH1 0x24 DUP7 REVERT JUMPDEST PUSH2 0x1648 JUMPI JUMPDEST POP PUSH2 0x14CE JUMP JUMPDEST DUP1 PUSH1 0x8 PUSH2 0x167F DUP2 PUSH2 0x16A3 SWAP5 ADD SLOAD PUSH4 0xFFFFFFFF SWAP1 DUP2 PUSH2 0x1667 DUP2 DUP4 AND PUSH2 0x4AAD JUMP JUMPDEST AND SWAP1 PUSH4 0xFFFFFFFF NOT AND OR DUP1 DUP5 DUP7 ADD SSTORE PUSH1 0x20 SHR AND PUSH2 0x4AC2 JUMP JUMPDEST SWAP2 ADD SWAP1 PUSH8 0xFFFFFFFF00000000 DUP3 SLOAD SWAP2 PUSH1 0x20 SHL AND SWAP1 PUSH8 0xFFFFFFFF00000000 NOT AND OR SWAP1 SSTORE JUMP JUMPDEST CODESIZE PUSH2 0x1642 JUMP JUMPDEST PUSH1 0x5 DUP4 ADD PUSH2 0x16B8 DUP7 DUP3 SLOAD PUSH2 0x4A6E JUMP JUMPDEST SWAP1 SSTORE ISZERO PUSH2 0x16E0 JUMPI POP DUP1 PUSH1 0x8 PUSH2 0x167F PUSH4 0xFFFFFFFF DUP3 PUSH2 0x16DB SWAP6 ADD SLOAD PUSH1 0x20 SHR AND PUSH2 0x4AAD JUMP JUMPDEST PUSH2 0x14CE JUMP JUMPDEST PUSH2 0x16EA JUMPI POP PUSH2 0x14CE JUMP JUMPDEST PUSH1 0x8 PUSH4 0xFFFFFFFF PUSH2 0x172A PUSH2 0x1705 DUP3 DUP5 DUP7 ADD SLOAD PUSH1 0x20 SHR AND PUSH2 0x4AAD JUMP JUMPDEST DUP4 DUP6 ADD SWAP1 PUSH8 0xFFFFFFFF00000000 DUP3 SLOAD SWAP2 PUSH1 0x20 SHL AND SWAP1 PUSH8 0xFFFFFFFF00000000 NOT AND OR SWAP1 SSTORE JUMP JUMPDEST DUP2 DUP4 ADD SLOAD SWAP1 PUSH2 0x173A DUP2 DUP4 AND PUSH2 0x4AC2 JUMP JUMPDEST AND SWAP1 PUSH4 0xFFFFFFFF NOT AND OR SWAP2 ADD SSTORE CODESIZE PUSH2 0x1642 JUMP JUMPDEST CALLER DUP7 MSTORE PUSH1 0x20 MSTORE PUSH1 0x24 CALLDATALOAD ISZERO ISZERO PUSH1 0xFF PUSH1 0x40 DUP8 KECCAK256 SLOAD AND ISZERO ISZERO EQ ISZERO SWAP1 PUSH2 0x148B JUMP JUMPDEST PUSH1 0x4 CALLDATALOAD DUP6 MSTORE PUSH1 0x10 PUSH1 0x20 MSTORE PUSH1 0x40 DUP6 KECCAK256 DUP1 SLOAD SWAP1 PUSH1 0x1 PUSH1 0x40 SHL DUP3 LT ISZERO PUSH2 0x1803 JUMPI SWAP1 PUSH2 0x1797 SWAP2 PUSH1 0x1 DUP3 ADD DUP2 SSTORE PUSH2 0x48F1 JUMP JUMPDEST DUP2 SLOAD PUSH1 0x1 PUSH1 0x1 PUSH1 0xA0 SHL SUB PUSH1 0x3 SWAP3 SWAP1 SWAP3 SHL SWAP2 DUP3 SHL NOT AND CALLER SWAP1 SWAP2 SHL OR SWAP1 SSTORE PUSH1 0x4 CALLDATALOAD DUP6 MSTORE PUSH1 0x10 PUSH1 0x20 MSTORE PUSH1 0x40 DUP6 KECCAK256 SLOAD PUSH1 0x0 NOT DUP2 ADD DUP2 LT PUSH2 0x17EF JUMPI PUSH1 0x4 CALLDATALOAD DUP7 MSTORE PUSH1 0x11 PUSH1 0x20 MSTORE PUSH1 0x40 DUP7 KECCAK256 CALLER DUP8 MSTORE PUSH1 0x20 MSTORE PUSH1 0x0 NOT ADD PUSH1 0x40 DUP7 KECCAK256 SSTORE PUSH2 0x1418 JUMP JUMPDEST PUSH4 0x4E487B71 PUSH1 0xE0 SHL DUP7 MSTORE PUSH1 0x11 PUSH1 0x4 MSTORE PUSH1 0x24 DUP7 REVERT JUMPDEST PUSH4 0x4E487B71 PUSH1 0xE0 SHL DUP8 MSTORE PUSH1 0x41 PUSH1 0x4 MSTORE PUSH1 0x24 DUP8 REVERT JUMPDEST PUSH1 0x44 DUP4 DUP6 PUSH1 0x40 MLOAD SWAP2 PUSH4 0xC7BCC1B9 PUSH1 0xE0 SHL DUP4 MSTORE PUSH1 0x4 DUP4 ADD MSTORE PUSH1 0x24 DUP3 ADD MSTORE REVERT JUMPDEST SWAP1 SWAP2 POP PUSH1 0x20 DUP2 RETURNDATASIZE PUSH1 0x20 GT PUSH2 0x1865 JUMPI JUMPDEST DUP2 PUSH2 0x1851 PUSH1 0x20 SWAP4 DUP4 PUSH2 0x47C7 JUMP JUMPDEST DUP2 ADD SUB SLT PUSH2 0x1861 JUMPI MLOAD SWAP1 CODESIZE PUSH2 0x13DE JUMP JUMPDEST DUP3 DUP1 REVERT JUMPDEST RETURNDATASIZE SWAP2 POP PUSH2 0x1844 JUMP JUMPDEST PUSH1 0x40 MLOAD RETURNDATASIZE DUP6 DUP3 RETURNDATACOPY RETURNDATASIZE SWAP1 REVERT JUMPDEST PUSH1 0x40 MLOAD PUSH3 0x461BCD PUSH1 0xE5 SHL DUP2 MSTORE PUSH1 0x20 PUSH1 0x4 DUP3 ADD MSTORE PUSH1 0x1F PUSH1 0x24 DUP3 ADD MSTORE PUSH32 0x496E766573746D656E7420657863656564732066756E64696E6720676F616C00 PUSH1 0x44 DUP3 ADD MSTORE PUSH1 0x64 SWAP1 REVERT JUMPDEST PUSH1 0x44 SWAP1 PUSH1 0x40 MLOAD SWAP1 PUSH4 0xC7BCC1B9 PUSH1 0xE0 SHL DUP3 MSTORE PUSH1 0x4 DUP3 ADD MSTORE DUP2 CALLDATALOAD PUSH1 0x24 DUP3 ADD MSTORE REVERT JUMPDEST PUSH1 0x24 PUSH1 0x40 MLOAD PUSH4 0x27764073 PUSH1 0xE1 SHL DUP2 MSTORE PUSH1 0x4 CALLDATALOAD PUSH1 0x4 DUP3 ADD MSTORE REVERT JUMPDEST PUSH1 0x40 MLOAD PUSH3 0x461BCD PUSH1 0xE5 SHL DUP2 MSTORE PUSH1 0x20 PUSH1 0x4 DUP3 ADD MSTORE PUSH1 0x34 PUSH1 0x24 DUP3 ADD MSTORE PUSH32 0x43616E206F6E6C7920766F746520616761696E207769746820696E6372656173 PUSH1 0x44 DUP3 ADD MSTORE PUSH20 0x1959081A5B9D995CDD1B595B9D08185B5BDD5B9D PUSH1 0x62 SHL PUSH1 0x64 DUP3 ADD MSTORE PUSH1 0x84 SWAP1 REVERT JUMPDEST POP PUSH1 0xE DUP3 ADD PUSH1 0x20 MSTORE PUSH1 0x40 DUP4 KECCAK256 SLOAD PUSH1 0x44 CALLDATALOAD GT ISZERO PUSH2 0x1360 JUMP JUMPDEST PUSH1 0x24 PUSH1 0x40 MLOAD PUSH4 0x489B5C2B PUSH1 0xE0 SHL DUP2 MSTORE PUSH1 0x4 CALLDATALOAD PUSH1 0x4 DUP3 ADD MSTORE REVERT JUMPDEST PUSH1 0x24 PUSH1 0x40 MLOAD PUSH4 0x291F60FD PUSH1 0xE2 SHL DUP2 MSTORE PUSH1 0x4 CALLDATALOAD PUSH1 0x4 DUP3 ADD MSTORE REVERT JUMPDEST PUSH1 0x40 MLOAD PUSH4 0xAB35696F PUSH1 0xE0 SHL DUP2 MSTORE PUSH1 0x4 SWAP1 REVERT JUMPDEST PUSH1 0x44 SWAP3 POP PUSH1 0x40 MLOAD SWAP2 PUSH4 0xC7BCC1B9 PUSH1 0xE0 SHL DUP4 MSTORE PUSH1 0x4 DUP4 ADD MSTORE PUSH1 0x24 DUP3 ADD MSTORE REVERT JUMPDEST SWAP1 POP PUSH1 0x20 DUP2 RETURNDATASIZE PUSH1 0x20 GT PUSH2 0x19FE JUMPI JUMPDEST DUP2 PUSH2 0x19EB PUSH1 0x20 SWAP4 DUP4 PUSH2 0x47C7 JUMP JUMPDEST DUP2 ADD SUB SLT PUSH2 0x19FA JUMPI MLOAD CODESIZE PUSH2 0x12F1 JUMP JUMPDEST POP DUP1 REVERT JUMPDEST RETURNDATASIZE SWAP2 POP PUSH2 0x19DE JUMP JUMPDEST PUSH1 0x24 PUSH1 0x40 MLOAD PUSH4 0x654DD7A9 PUSH1 0xE0 SHL DUP2 MSTORE PUSH1 0x4 CALLDATALOAD PUSH1 0x4 DUP3 ADD MSTORE REVERT JUMPDEST POP PUSH1 0x8 SLOAD PUSH1 0x4 CALLDATALOAD GT PUSH2 0x129A JUMP JUMPDEST POP CALLVALUE PUSH2 0x576 JUMPI PUSH1 0x20 DUP1 PUSH1 0x3 NOT CALLDATASIZE ADD SLT PUSH2 0x19FA JUMPI PUSH2 0x1A47 PUSH2 0x491F JUMP JUMPDEST PUSH1 0x8 SLOAD SWAP1 PUSH1 0x1 PUSH1 0x1 PUSH1 0xA0 SHL SUB AND DUP4 PUSH1 0x1 JUMPDEST DUP4 DUP2 GT ISZERO PUSH2 0x1ADA JUMPI POP PUSH2 0x1A6A SWAP1 PUSH2 0x4B18 JUMP JUMPDEST SWAP4 DUP1 SWAP2 PUSH1 0x1 JUMPDEST DUP5 DUP2 GT ISZERO PUSH2 0x1A8B JUMPI PUSH1 0x40 MLOAD DUP7 DUP2 MSTORE DUP1 PUSH2 0x8F4 DUP2 DUP10 ADD DUP11 PUSH2 0x499C JUMP JUMPDEST DUP1 DUP4 MSTORE PUSH1 0x7 DUP7 MSTORE PUSH1 0xC PUSH1 0x40 DUP5 KECCAK256 ADD DUP3 DUP5 MSTORE DUP7 MSTORE PUSH1 0xFF PUSH1 0x40 DUP5 KECCAK256 SLOAD AND PUSH2 0x1AB9 JUMPI JUMPDEST PUSH2 0x1AB4 SWAP1 PUSH2 0x4A9E JUMP JUMPDEST PUSH2 0x1A70 JUMP JUMPDEST SWAP3 PUSH2 0x1AD2 DUP2 DUP6 PUSH2 0x1ACC PUSH2 0x1AB4 SWAP5 DUP12 PUSH2 0x4AD5 JUMP JUMPDEST MSTORE PUSH2 0x4A9E JUMP JUMPDEST SWAP4 SWAP1 POP PUSH2 0x1AAB JUMP JUMPDEST DUP1 DUP7 MSTORE PUSH1 0x7 DUP6 MSTORE PUSH1 0xC PUSH1 0x40 DUP8 KECCAK256 ADD DUP4 DUP8 MSTORE DUP6 MSTORE PUSH1 0xFF PUSH1 0x40 DUP8 KECCAK256 SLOAD AND PUSH2 0x1B08 JUMPI JUMPDEST PUSH2 0x1B03 SWAP1 PUSH2 0x4A9E JUMP JUMPDEST PUSH2 0x1A58 JUMP JUMPDEST SWAP1 PUSH2 0x1B15 PUSH2 0x1B03 SWAP2 PUSH2 0x4A9E JUMP JUMPDEST SWAP2 SWAP1 POP PUSH2 0x1AFA JUMP JUMPDEST POP CALLVALUE PUSH2 0x576 JUMPI PUSH1 0x40 CALLDATASIZE PUSH1 0x3 NOT ADD SLT PUSH2 0x576 JUMPI PUSH2 0x1B37 PUSH2 0x491F JUMP JUMPDEST PUSH1 0x40 MLOAD PUSH4 0x6EB1769F PUSH1 0xE1 SHL DUP2 MSTORE PUSH1 0x1 PUSH1 0x1 PUSH1 0xA0 SHL SUB SWAP2 DUP3 AND PUSH1 0x4 DUP3 ADD MSTORE ADDRESS PUSH1 0x24 DUP1 DUP4 ADD SWAP2 SWAP1 SWAP2 MSTORE CALLDATALOAD SWAP2 PUSH1 0x20 SWAP1 DUP3 SWAP1 PUSH1 0x44 SWAP1 DUP3 SWAP1 PUSH32 0x0 AND GAS STATICCALL SWAP1 DUP2 ISZERO PUSH2 0x186D JUMPI DUP4 SWAP2 PUSH2 0x1BD2 JUMPI JUMPDEST POP PUSH1 0x60 SWAP3 DUP3 DUP3 LT DUP1 ISZERO SWAP4 DUP4 SWAP2 PUSH2 0x1BC2 JUMPI POP POP SWAP1 JUMPDEST PUSH1 0x40 MLOAD SWAP3 DUP4 MSTORE PUSH1 0x20 DUP4 ADD MSTORE PUSH1 0x40 DUP3 ADD MSTORE RETURN JUMPDEST PUSH2 0x1BCC SWAP3 POP PUSH2 0x4A91 JUMP JUMPDEST SWAP1 PUSH2 0x1BB0 JUMP JUMPDEST SWAP1 POP PUSH1 0x20 DUP2 RETURNDATASIZE DUP3 GT PUSH2 0x1BFC JUMPI JUMPDEST DUP2 PUSH2 0x1BEC PUSH1 0x20 SWAP4 DUP4 PUSH2 0x47C7 JUMP JUMPDEST DUP2 ADD SUB SLT PUSH2 0x1861 JUMPI MLOAD PUSH1 0x60 PUSH2 0x1B9C JUMP JUMPDEST RETURNDATASIZE SWAP2 POP PUSH2 0x1BDF JUMP JUMPDEST PUSH2 0x494B JUMP JUMPDEST POP CALLVALUE PUSH2 0x576 JUMPI PUSH1 0x20 CALLDATASIZE PUSH1 0x3 NOT ADD SLT PUSH2 0x576 JUMPI PUSH1 0x4 CALLDATALOAD PUSH1 0x9 SLOAD DUP2 LT ISZERO PUSH2 0x19FA JUMPI PUSH1 0x9 PUSH1 0x20 SWAP3 MSTORE PUSH32 0x6E1540171B6C0C960B71A7020D9F60077F6AF931A8BBF590DA0223DACF75C7AF ADD SLOAD PUSH1 0x40 MLOAD SWAP1 DUP2 MSTORE RETURN JUMPDEST POP CALLVALUE PUSH2 0x576 JUMPI PUSH1 0x20 CALLDATASIZE PUSH1 0x3 NOT ADD SLT PUSH2 0x576 JUMPI PUSH1 0x4 CALLDATALOAD DUP1 ISZERO DUP1 ISZERO PUSH2 0x1D99 JUMPI JUMPDEST PUSH2 0x9D9 JUMPI DUP2 MSTORE PUSH1 0x7 PUSH1 0x20 MSTORE PUSH1 0x40 SWAP1 KECCAK256 DUP1 SLOAD PUSH1 0x1 PUSH1 0xA0 SHL PUSH1 0x1 SWAP1 SUB PUSH1 0x1 DUP4 ADD SLOAD AND SWAP2 PUSH1 0x2 DUP2 ADD SLOAD SWAP1 PUSH1 0x3 DUP2 ADD SLOAD SWAP1 PUSH1 0x7 DUP2 ADD SLOAD SWAP2 PUSH1 0x8 DUP3 ADD SLOAD SWAP3 PUSH1 0x4 DUP4 ADD SLOAD SWAP1 PUSH1 0x5 DUP5 ADD SLOAD SWAP3 PUSH1 0x6 DUP6 ADD SLOAD SWAP5 PUSH1 0x9 DUP2 ADD PUSH2 0x1CCF SWAP1 PUSH2 0x47E8 JUMP JUMPDEST SWAP1 PUSH2 0x1CDC PUSH1 0xA DUP3 ADD PUSH2 0x47E8 JUMP JUMPDEST SWAP1 PUSH1 0xB ADD PUSH2 0x1CE9 SWAP1 PUSH2 0x47E8 JUMP JUMPDEST SWAP2 PUSH1 0x40 MLOAD SWAP12 DUP13 SWAP12 DUP13 MSTORE PUSH1 0x20 DUP13 ADD MSTORE PUSH2 0x200 DUP1 PUSH1 0x40 DUP14 ADD MSTORE DUP12 ADD PUSH2 0x1D0B SWAP2 PUSH2 0x48B1 JUMP JUMPDEST DUP11 DUP2 SUB PUSH1 0x60 DUP13 ADD MSTORE PUSH2 0x1D1C SWAP2 PUSH2 0x48B1 JUMP JUMPDEST DUP10 DUP2 SUB PUSH1 0x80 DUP12 ADD MSTORE PUSH2 0x1D2D SWAP2 PUSH2 0x48B1 JUMP JUMPDEST SWAP7 PUSH1 0xA0 DUP10 ADD MSTORE PUSH1 0xC0 DUP9 ADD MSTORE PUSH1 0xE0 DUP8 ADD MSTORE DUP4 PUSH1 0x40 SHR PUSH1 0xFF AND ISZERO ISZERO PUSH2 0x100 DUP8 ADD MSTORE DUP4 PUSH1 0x48 SHR PUSH1 0xFF AND ISZERO ISZERO PUSH2 0x120 DUP8 ADD MSTORE DUP4 PUSH1 0x50 SHR PUSH1 0xFF AND ISZERO ISZERO PUSH2 0x140 DUP8 ADD MSTORE PUSH2 0x160 DUP7 ADD MSTORE PUSH2 0x180 DUP6 ADD MSTORE PUSH2 0x1A0 DUP5 ADD MSTORE PUSH4 0xFFFFFFFF SWAP1 DUP2 DUP2 AND PUSH2 0x1C0 DUP6 ADD MSTORE PUSH1 0x20 SHR AND PUSH2 0x1E0 DUP4 ADD MSTORE SUB SWAP1 RETURN JUMPDEST POP PUSH1 0x8 SLOAD DUP2 GT PUSH2 0x1C77 JUMP JUMPDEST POP CALLVALUE PUSH2 0x576 JUMPI PUSH1 0x20 SWAP1 DUP2 PUSH1 0x3 NOT CALLDATASIZE ADD SLT PUSH2 0x576 JUMPI PUSH2 0x1DF3 DUP3 PUSH2 0x1DC4 PUSH2 0x491F JUMP JUMPDEST PUSH1 0x40 MLOAD PUSH4 0x6EB1769F PUSH1 0xE1 SHL DUP2 MSTORE PUSH1 0x1 PUSH1 0x1 PUSH1 0xA0 SHL SUB SWAP1 SWAP2 AND PUSH1 0x4 DUP3 ADD MSTORE ADDRESS PUSH1 0x24 DUP3 ADD MSTORE SWAP2 DUP3 SWAP1 DUP2 SWAP1 PUSH1 0x44 DUP3 ADD SWAP1 JUMP JUMPDEST SUB DUP2 PUSH32 0x0 PUSH1 0x1 PUSH1 0x1 PUSH1 0xA0 SHL SUB AND GAS STATICCALL SWAP2 DUP3 ISZERO PUSH2 0x1E69 JUMPI DUP1 SWAP3 PUSH2 0x1E39 JUMPI JUMPDEST POP POP PUSH1 0x40 MLOAD SWAP1 DUP2 MSTORE RETURN JUMPDEST SWAP1 SWAP2 POP DUP3 DUP3 DUP2 RETURNDATASIZE DUP4 GT PUSH2 0x1E62 JUMPI JUMPDEST PUSH2 0x1E51 DUP2 DUP4 PUSH2 0x47C7 JUMP JUMPDEST DUP2 ADD SUB SLT PUSH2 0x576 JUMPI POP MLOAD CODESIZE DUP1 PUSH2 0x1E2F JUMP JUMPDEST POP RETURNDATASIZE PUSH2 0x1E47 JUMP JUMPDEST PUSH1 0x40 MLOAD SWAP1 RETURNDATASIZE SWAP1 DUP3 RETURNDATACOPY RETURNDATASIZE SWAP1 REVERT JUMPDEST POP CALLVALUE PUSH2 0x576 JUMPI PUSH1 0x20 CALLDATASIZE PUSH1 0x3 NOT ADD SLT PUSH2 0x576 JUMPI PUSH1 0x20 PUSH2 0x1E99 PUSH2 0x1E94 PUSH2 0x491F JUMP JUMPDEST PUSH2 0x4B4A JUMP JUMPDEST PUSH1 0x40 MLOAD SWAP1 DUP2 MSTORE RETURN JUMPDEST POP CALLVALUE PUSH2 0x576 JUMPI PUSH1 0x20 CALLDATASIZE PUSH1 0x3 NOT ADD SLT PUSH2 0x576 JUMPI PUSH1 0x20 SWAP1 PUSH1 0x40 SWAP1 PUSH1 0x1 PUSH1 0x1 PUSH1 0xA0 SHL SUB PUSH2 0x1EC9 PUSH2 0x491F JUMP JUMPDEST AND DUP2 MSTORE PUSH1 0x12 DUP4 MSTORE KECCAK256 SLOAD PUSH1 0x40 MLOAD SWAP1 DUP2 MSTORE RETURN JUMPDEST POP CALLVALUE PUSH2 0x576 JUMPI DUP1 PUSH1 0x3 NOT CALLDATASIZE ADD SLT PUSH2 0x576 JUMPI PUSH1 0x20 PUSH1 0x40 MLOAD PUSH10 0xD3C21BCECCEDA1000000 DUP2 MSTORE RETURN JUMPDEST POP CALLVALUE PUSH2 0x576 JUMPI PUSH1 0x20 CALLDATASIZE PUSH1 0x3 NOT ADD SLT PUSH2 0x576 JUMPI PUSH1 0x20 SWAP1 PUSH1 0x40 SWAP1 PUSH1 0x1 PUSH1 0x1 PUSH1 0xA0 SHL SUB PUSH2 0x1F27 PUSH2 0x491F JUMP JUMPDEST AND DUP2 MSTORE PUSH1 0xE DUP4 MSTORE KECCAK256 SLOAD PUSH1 0x40 MLOAD SWAP1 DUP2 MSTORE RETURN JUMPDEST POP CALLVALUE PUSH2 0x576 JUMPI PUSH1 0x20 CALLDATASIZE PUSH1 0x3 NOT ADD SLT PUSH2 0x576 JUMPI PUSH1 0x4 CALLDATALOAD CALLER DUP3 MSTORE PUSH1 0x2 PUSH1 0x20 MSTORE PUSH1 0xFF PUSH1 0x40 DUP4 KECCAK256 SLOAD AND ISZERO DUP1 PUSH2 0x204A JUMPI JUMPDEST PUSH2 0x765 JUMPI DUP1 ISZERO DUP1 ISZERO PUSH2 0x2040 JUMPI JUMPDEST PUSH2 0x2003 JUMPI PUSH32 0x7B2F327FE3724E45A6D300853FC8629E1D8FD83607F6943007D3C5C3E3C7576F PUSH32 0x8EA64594BEF4D9EA7DF01023C0D54BCD1F35C4C0479051FB25AD2D4CD3FADD97 SWAP2 PUSH1 0x6 SLOAD SWAP1 DUP1 PUSH1 0x6 SSTORE PUSH19 0x36B0BC283937B837B9B0B639A832B92AB9B2B9 PUSH1 0x69 SHL PUSH1 0x40 MLOAD MSTORE PUSH2 0x1FFD PUSH1 0x40 MLOAD SWAP3 DUP4 SWAP3 TIMESTAMP SWAP2 DUP5 PUSH1 0x40 SWAP2 SWAP5 SWAP4 SWAP3 PUSH1 0x60 DUP3 ADD SWAP6 DUP3 MSTORE PUSH1 0x20 DUP3 ADD MSTORE ADD MSTORE JUMP JUMPDEST SUB SWAP1 LOG2 DUP1 RETURN JUMPDEST PUSH1 0x40 MLOAD PUSH3 0x461BCD PUSH1 0xE5 SHL DUP2 MSTORE PUSH1 0x20 PUSH1 0x4 DUP3 ADD MSTORE PUSH1 0x15 PUSH1 0x24 DUP3 ADD MSTORE PUSH21 0x496E76616C6964206D61782070726F706F73616C73 PUSH1 0x58 SHL PUSH1 0x44 DUP3 ADD MSTORE PUSH1 0x64 SWAP1 REVERT JUMPDEST POP PUSH1 0x64 DUP2 GT PUSH2 0x1F71 JUMP JUMPDEST POP CALLER PUSH32 0x0 PUSH1 0x1 PUSH1 0x1 PUSH1 0xA0 SHL SUB AND EQ ISZERO PUSH2 0x1F64 JUMP JUMPDEST POP CALLVALUE PUSH2 0x576 JUMPI DUP1 PUSH1 0x3 NOT CALLDATASIZE ADD SLT PUSH2 0x576 JUMPI PUSH2 0x209C PUSH1 0x2 DUP3 SLOAD EQ ISZERO PUSH2 0x4A22 JUMP JUMPDEST PUSH1 0x2 DUP2 SSTORE CALLER DUP2 MSTORE PUSH1 0x20 PUSH1 0x12 DUP2 MSTORE PUSH1 0x40 DUP3 KECCAK256 SLOAD SWAP1 DUP2 ISZERO PUSH2 0x21BE JUMPI CALLER DUP1 DUP5 MSTORE PUSH1 0x12 DUP3 MSTORE PUSH1 0x40 DUP1 DUP6 KECCAK256 DUP6 SWAP1 SSTORE MLOAD PUSH4 0xA9059CBB PUSH1 0xE0 SHL DUP2 MSTORE PUSH1 0x4 DUP2 ADD SWAP2 SWAP1 SWAP2 MSTORE PUSH1 0x24 DUP2 ADD DUP4 SWAP1 MSTORE DUP2 DUP2 PUSH1 0x44 DUP2 DUP8 PUSH1 0x1 PUSH1 0x1 PUSH1 0xA0 SHL SUB PUSH32 0x0 AND GAS CALL SWAP1 DUP2 ISZERO PUSH2 0x411 JUMPI DUP5 SWAP2 PUSH2 0x21A1 JUMPI JUMPDEST POP ISZERO PUSH2 0x215D JUMPI PUSH1 0x40 MLOAD SWAP2 DUP3 MSTORE TIMESTAMP SWAP1 DUP3 ADD MSTORE PUSH32 0xD9ECBBE9911F2FB5A5B34CDEFD44ABE992B519F9A3FF70767AC7D00016A42354 PUSH1 0x40 CALLER SWAP3 LOG2 PUSH1 0x1 DUP2 SSTORE DUP1 RETURN JUMPDEST PUSH1 0x64 SWAP1 PUSH1 0x40 MLOAD SWAP1 PUSH3 0x461BCD PUSH1 0xE5 SHL DUP3 MSTORE PUSH1 0x4 DUP3 ADD MSTORE PUSH1 0x18 PUSH1 0x24 DUP3 ADD MSTORE PUSH32 0x526566756E64207769746864726177616C206661696C65640000000000000000 PUSH1 0x44 DUP3 ADD MSTORE REVERT JUMPDEST PUSH2 0x21B8 SWAP2 POP DUP3 RETURNDATASIZE DUP5 GT PUSH2 0xC77 JUMPI PUSH2 0xC69 DUP2 DUP4 PUSH2 0x47C7 JUMP JUMPDEST CODESIZE PUSH2 0x211F JUMP JUMPDEST PUSH1 0x64 SWAP1 PUSH1 0x40 MLOAD SWAP1 PUSH3 0x461BCD PUSH1 0xE5 SHL DUP3 MSTORE PUSH1 0x4 DUP3 ADD MSTORE PUSH1 0x12 PUSH1 0x24 DUP3 ADD MSTORE PUSH18 0x4E6F2070656E64696E6720726566756E6473 PUSH1 0x70 SHL PUSH1 0x44 DUP3 ADD MSTORE REVERT JUMPDEST POP CALLVALUE PUSH2 0x576 JUMPI PUSH1 0x20 CALLDATASIZE PUSH1 0x3 NOT ADD SLT PUSH2 0x576 JUMPI PUSH1 0x40 PUSH1 0x80 SWAP2 PUSH1 0x4 CALLDATALOAD DUP2 MSTORE PUSH1 0xA PUSH1 0x20 MSTORE KECCAK256 DUP1 SLOAD SWAP1 PUSH1 0x1 DUP1 PUSH1 0xA0 SHL SUB PUSH1 0x1 DUP3 ADD SLOAD AND SWAP1 PUSH1 0x3 PUSH1 0x2 DUP3 ADD SLOAD SWAP2 ADD SLOAD SWAP2 PUSH1 0x40 MLOAD SWAP4 DUP5 MSTORE PUSH1 0x20 DUP5 ADD MSTORE PUSH1 0x40 DUP4 ADD MSTORE PUSH1 0x60 DUP3 ADD MSTORE RETURN JUMPDEST POP CALLVALUE PUSH2 0x576 JUMPI DUP1 PUSH1 0x3 NOT CALLDATASIZE ADD SLT PUSH2 0x576 JUMPI PUSH1 0x20 PUSH1 0x6 SLOAD PUSH1 0x40 MLOAD SWAP1 DUP2 MSTORE RETURN JUMPDEST POP CALLVALUE PUSH2 0x576 JUMPI PUSH1 0x40 CALLDATASIZE PUSH1 0x3 NOT ADD SLT PUSH2 0x576 JUMPI PUSH2 0x2284 PUSH2 0x491F JUMP JUMPDEST PUSH1 0x1 PUSH1 0x1 PUSH1 0xA0 SHL SUB AND DUP2 MSTORE PUSH1 0xD PUSH1 0x20 MSTORE PUSH1 0x40 DUP2 KECCAK256 DUP1 SLOAD PUSH1 0x24 CALLDATALOAD SWAP3 SWAP1 DUP4 LT ISZERO PUSH2 0x576 JUMPI PUSH1 0x80 PUSH2 0x22B2 DUP5 DUP5 PUSH2 0x49D0 JUMP JUMPDEST POP DUP1 SLOAD SWAP1 PUSH1 0x1 DUP2 ADD SLOAD SWAP1 PUSH1 0xFF PUSH1 0x3 PUSH1 0x2 DUP4 ADD SLOAD SWAP3 ADD SLOAD AND SWAP2 PUSH1 0x40 MLOAD SWAP4 DUP5 MSTORE PUSH1 0x20 DUP5 ADD MSTORE PUSH1 0x40 DUP4 ADD MSTORE ISZERO ISZERO PUSH1 0x60 DUP3 ADD MSTORE RETURN JUMPDEST POP CALLVALUE PUSH2 0x576 JUMPI PUSH1 0x40 CALLDATASIZE PUSH1 0x3 NOT ADD SLT PUSH2 0x576 JUMPI PUSH1 0x40 PUSH1 0x20 SWAP2 PUSH2 0x2302 PUSH2 0x4935 JUMP JUMPDEST PUSH1 0x4 CALLDATALOAD DUP3 MSTORE PUSH1 0x11 DUP5 MSTORE DUP3 DUP3 KECCAK256 PUSH1 0x1 PUSH1 0x1 PUSH1 0xA0 SHL SUB SWAP1 SWAP2 AND DUP3 MSTORE DUP4 MSTORE KECCAK256 SLOAD PUSH1 0x40 MLOAD SWAP1 DUP2 MSTORE RETURN JUMPDEST POP CALLVALUE PUSH2 0x576 JUMPI DUP1 PUSH1 0x3 NOT CALLDATASIZE ADD SLT PUSH2 0x576 JUMPI CALLER DUP2 MSTORE PUSH1 0x2 PUSH1 0x20 MSTORE PUSH1 0xFF PUSH1 0x40 DUP3 KECCAK256 SLOAD AND ISZERO DUP1 PUSH2 0x23B5 JUMPI JUMPDEST PUSH2 0x765 JUMPI PUSH1 0x1 SLOAD PUSH1 0xFF DUP2 AND PUSH2 0x23A3 JUMPI PUSH1 0xFF NOT AND PUSH1 0x1 SWAP1 DUP2 OR SWAP1 SSTORE PUSH1 0x40 DUP1 MLOAD CALLER DUP2 MSTORE TIMESTAMP PUSH1 0x20 DUP3 ADD MSTORE PUSH32 0xAB40A374BC51DE372200A8BC981AF8C9ECDC08DFDAEF0BB6E09F88F3C616EF3D SWAP2 DUP2 SWAP1 DUP2 ADD JUMPDEST SUB SWAP1 LOG1 DUP1 RETURN JUMPDEST PUSH1 0x40 MLOAD PUSH4 0xD93C0665 PUSH1 0xE0 SHL DUP2 MSTORE PUSH1 0x4 SWAP1 REVERT JUMPDEST POP CALLER PUSH32 0x0 PUSH1 0x1 PUSH1 0x1 PUSH1 0xA0 SHL SUB AND EQ ISZERO PUSH2 0x234F JUMP JUMPDEST POP CALLVALUE PUSH2 0x576 JUMPI PUSH1 0x20 CALLDATASIZE PUSH1 0x3 NOT ADD SLT PUSH2 0x576 JUMPI PUSH1 0x4 CALLDATALOAD CALLER DUP3 MSTORE PUSH1 0x2 PUSH1 0x20 MSTORE PUSH1 0xFF PUSH1 0x40 DUP4 KECCAK256 SLOAD AND ISZERO DUP1 PUSH2 0x24EB JUMPI JUMPDEST PUSH2 0x765 JUMPI DUP1 ISZERO PUSH2 0x24A6 JUMPI PUSH32 0x7B2F327FE3724E45A6D300853FC8629E1D8FD83607F6943007D3C5C3E3C7576F PUSH32 0xE608BDBF01EA587A7CB8C0BB558E5BF6EAFEBC535B5C810844E15D4E971FEE9F SWAP2 PUSH1 0x4 SLOAD SWAP1 DUP1 PUSH1 0x4 SSTORE PUSH19 0x1B5A5B925B9D995CDD1B595B9D105B5BDD5B9D PUSH1 0x6A SHL PUSH1 0x40 MLOAD MSTORE PUSH2 0x1FFD PUSH1 0x40 MLOAD SWAP3 DUP4 SWAP3 TIMESTAMP SWAP2 DUP5 PUSH1 0x40 SWAP2 SWAP5 SWAP4 SWAP3 PUSH1 0x60 DUP3 ADD SWAP6 DUP3 MSTORE PUSH1 0x20 DUP3 ADD MSTORE ADD MSTORE JUMP JUMPDEST PUSH1 0x40 MLOAD PUSH3 0x461BCD PUSH1 0xE5 SHL DUP2 MSTORE PUSH1 0x20 PUSH1 0x4 DUP3 ADD MSTORE PUSH1 0x19 PUSH1 0x24 DUP3 ADD MSTORE PUSH32 0x496E76616C696420696E766573746D656E7420616D6F756E7400000000000000 PUSH1 0x44 DUP3 ADD MSTORE PUSH1 0x64 SWAP1 REVERT JUMPDEST POP CALLER PUSH32 0x0 PUSH1 0x1 PUSH1 0x1 PUSH1 0xA0 SHL SUB AND EQ ISZERO PUSH2 0x2414 JUMP JUMPDEST POP CALLVALUE PUSH2 0x576 JUMPI PUSH1 0x20 DUP1 PUSH1 0x3 NOT CALLDATASIZE ADD SLT PUSH2 0x19FA JUMPI PUSH1 0x1 PUSH1 0x1 PUSH1 0xA0 SHL SUB PUSH2 0x2541 PUSH2 0x491F JUMP JUMPDEST AND DUP3 MSTORE PUSH1 0xC DUP2 MSTORE PUSH1 0x40 DUP3 KECCAK256 SWAP2 PUSH1 0x40 MLOAD DUP1 SWAP4 DUP5 SWAP2 DUP5 DUP3 SLOAD SWAP2 DUP3 DUP2 MSTORE ADD SWAP2 DUP5 MSTORE DUP5 DUP5 KECCAK256 SWAP4 JUMPDEST DUP6 DUP3 DUP3 LT PUSH2 0x257B JUMPI POP POP POP PUSH2 0xB70 SWAP3 POP SUB DUP4 PUSH2 0x47C7 JUMP JUMPDEST DUP6 SLOAD DUP5 MSTORE PUSH1 0x1 SWAP6 DUP7 ADD SWAP6 DUP9 SWAP6 POP SWAP4 ADD SWAP3 ADD PUSH2 0x2564 JUMP JUMPDEST POP CALLVALUE PUSH2 0x576 JUMPI PUSH1 0x60 CALLDATASIZE PUSH1 0x3 NOT ADD SLT PUSH2 0x576 JUMPI PUSH1 0x4 CALLDATALOAD PUSH2 0x25AE PUSH2 0x4935 JUMP JUMPDEST SWAP1 PUSH1 0x44 CALLDATALOAD PUSH1 0x1 PUSH1 0x1 PUSH1 0x40 SHL SUB DUP2 GT PUSH2 0x406 JUMPI PUSH2 0x25CE SWAP1 CALLDATASIZE SWAP1 PUSH1 0x4 ADD PUSH2 0x496F JUMP JUMPDEST SWAP2 SWAP1 CALLER DUP6 MSTORE PUSH1 0x20 SWAP2 PUSH1 0x2 DUP4 MSTORE PUSH1 0xFF PUSH1 0x40 DUP8 KECCAK256 SLOAD AND ISZERO DUP1 PUSH2 0x28C8 JUMPI JUMPDEST PUSH2 0x765 JUMPI PUSH1 0x1 PUSH1 0x1 PUSH1 0xA0 SHL SUB DUP6 DUP2 AND SWAP6 SWAP1 DUP7 ISZERO PUSH2 0x28B6 JUMPI PUSH2 0x260E PUSH1 0x2 DUP10 SLOAD EQ ISZERO PUSH2 0x4A22 JUMP JUMPDEST PUSH1 0x2 DUP9 SSTORE DUP3 ISZERO PUSH2 0x2880 JUMPI DUP6 ISZERO PUSH2 0x2849 JUMPI PUSH32 0x0 AND SWAP1 PUSH1 0x40 MLOAD PUSH4 0x70A08231 PUSH1 0xE0 SHL DUP2 MSTORE ADDRESS PUSH1 0x4 DUP3 ADD MSTORE DUP6 DUP2 PUSH1 0x24 DUP2 DUP7 GAS STATICCALL SWAP1 DUP2 ISZERO PUSH2 0x283E JUMPI DUP10 SWAP2 PUSH2 0x280D JUMPI JUMPDEST POP PUSH1 0x5 DUP2 MUL DUP2 DUP2 DIV PUSH1 0x5 EQ DUP3 ISZERO OR ISZERO PUSH2 0x27F9 JUMPI PUSH1 0x64 SWAP1 DIV DUP5 GT PUSH2 0x27A9 JUMPI DUP4 GT PUSH2 0x276D JUMPI PUSH1 0x40 MLOAD PUSH4 0xA9059CBB PUSH1 0xE0 SHL DUP2 MSTORE PUSH1 0x1 PUSH1 0x1 PUSH1 0xA0 SHL SUB SWAP2 SWAP1 SWAP2 AND PUSH1 0x4 DUP3 ADD MSTORE PUSH1 0x24 DUP2 ADD DUP4 SWAP1 MSTORE SWAP1 DUP5 SWAP1 DUP3 SWAP1 PUSH1 0x44 SWAP1 DUP3 SWAP1 DUP12 SWAP1 GAS CALL SWAP1 DUP2 ISZERO PUSH2 0x2762 JUMPI DUP8 SWAP2 PUSH2 0x2745 JUMPI JUMPDEST POP ISZERO PUSH2 0x2733 JUMPI DUP4 PUSH32 0xDF59A9581DA64B249F2685AAA5EFC1E94F9D3E2C1113931BF6FE212F05C085A5 SWAP5 PUSH1 0x80 SWAP4 PUSH1 0x60 PUSH1 0x40 MLOAD SWAP7 DUP8 SWAP6 DUP7 MSTORE DUP6 ADD MSTORE DUP2 PUSH1 0x60 DUP6 ADD MSTORE DUP5 DUP5 ADD CALLDATACOPY DUP2 DUP2 ADD DUP4 ADD DUP8 SWAP1 MSTORE TIMESTAMP PUSH1 0x40 DUP4 ADD MSTORE PUSH1 0x1F ADD PUSH1 0x1F NOT AND DUP2 ADD SUB ADD SWAP1 LOG2 PUSH1 0x1 DUP2 SSTORE DUP1 RETURN JUMPDEST PUSH1 0x40 MLOAD PUSH4 0x12171D83 PUSH1 0xE3 SHL DUP2 MSTORE PUSH1 0x4 SWAP1 REVERT JUMPDEST PUSH2 0x275C SWAP2 POP DUP5 RETURNDATASIZE DUP7 GT PUSH2 0xC77 JUMPI PUSH2 0xC69 DUP2 DUP4 PUSH2 0x47C7 JUMP JUMPDEST CODESIZE PUSH2 0x26CE JUMP JUMPDEST PUSH1 0x40 MLOAD RETURNDATASIZE DUP10 DUP3 RETURNDATACOPY RETURNDATASIZE SWAP1 REVERT JUMPDEST PUSH1 0x40 MLOAD PUSH3 0x461BCD PUSH1 0xE5 SHL DUP2 MSTORE PUSH1 0x4 DUP2 ADD DUP7 SWAP1 MSTORE PUSH1 0x14 PUSH1 0x24 DUP3 ADD MSTORE PUSH20 0x496E73756666696369656E742062616C616E6365 PUSH1 0x60 SHL PUSH1 0x44 DUP3 ADD MSTORE PUSH1 0x64 SWAP1 REVERT JUMPDEST PUSH1 0x40 MLOAD PUSH3 0x461BCD PUSH1 0xE5 SHL DUP2 MSTORE PUSH1 0x4 DUP2 ADD DUP8 SWAP1 MSTORE PUSH1 0x22 PUSH1 0x24 DUP3 ADD MSTORE PUSH32 0x4578636565647320656D657267656E6379207769746864726177616C206C696D PUSH1 0x44 DUP3 ADD MSTORE PUSH2 0x1A5D PUSH1 0xF2 SHL PUSH1 0x64 DUP3 ADD MSTORE PUSH1 0x84 SWAP1 REVERT JUMPDEST PUSH4 0x4E487B71 PUSH1 0xE0 SHL DUP11 MSTORE PUSH1 0x11 PUSH1 0x4 MSTORE PUSH1 0x24 DUP11 REVERT JUMPDEST SWAP1 POP DUP6 DUP2 DUP2 RETURNDATASIZE DUP4 GT PUSH2 0x2837 JUMPI JUMPDEST PUSH2 0x2824 DUP2 DUP4 PUSH2 0x47C7 JUMP JUMPDEST DUP2 ADD SUB SLT PUSH2 0x2833 JUMPI MLOAD CODESIZE PUSH2 0x266A JUMP JUMPDEST DUP9 DUP1 REVERT JUMPDEST POP RETURNDATASIZE PUSH2 0x281A JUMP JUMPDEST PUSH1 0x40 MLOAD RETURNDATASIZE DUP12 DUP3 RETURNDATACOPY RETURNDATASIZE SWAP1 REVERT JUMPDEST PUSH1 0x40 MLOAD PUSH3 0x461BCD PUSH1 0xE5 SHL DUP2 MSTORE PUSH1 0x4 DUP2 ADD DUP7 SWAP1 MSTORE PUSH1 0xF PUSH1 0x24 DUP3 ADD MSTORE PUSH15 0x1499585CDBDB881C995C5D5A5C9959 PUSH1 0x8A SHL PUSH1 0x44 DUP3 ADD MSTORE PUSH1 0x64 SWAP1 REVERT JUMPDEST PUSH1 0x40 MLOAD PUSH3 0x461BCD PUSH1 0xE5 SHL DUP2 MSTORE PUSH1 0x4 DUP2 ADD DUP7 SWAP1 MSTORE PUSH1 0xE PUSH1 0x24 DUP3 ADD MSTORE PUSH14 0x125B9D985B1A5908185B5BDD5B9D PUSH1 0x92 SHL PUSH1 0x44 DUP3 ADD MSTORE PUSH1 0x64 SWAP1 REVERT JUMPDEST PUSH1 0x40 MLOAD PUSH4 0xD92E233D PUSH1 0xE0 SHL DUP2 MSTORE PUSH1 0x4 SWAP1 REVERT JUMPDEST POP CALLER PUSH32 0x0 PUSH1 0x1 PUSH1 0x1 PUSH1 0xA0 SHL SUB AND EQ ISZERO PUSH2 0x25E9 JUMP JUMPDEST POP CALLVALUE PUSH2 0x576 JUMPI PUSH1 0x20 CALLDATASIZE PUSH1 0x3 NOT ADD SLT PUSH2 0x576 JUMPI PUSH1 0x20 SWAP1 PUSH1 0x40 SWAP1 PUSH1 0x1 PUSH1 0x1 PUSH1 0xA0 SHL SUB PUSH2 0x2923 PUSH2 0x491F JUMP JUMPDEST AND DUP2 MSTORE PUSH1 0xF DUP4 MSTORE KECCAK256 SLOAD PUSH1 0x40 MLOAD SWAP1 DUP2 MSTORE RETURN JUMPDEST POP CALLVALUE PUSH2 0x576 JUMPI PUSH1 0x20 DUP1 PUSH1 0x3 NOT CALLDATASIZE ADD SLT PUSH2 0x19FA JUMPI PUSH2 0x294F PUSH2 0x491F JUMP JUMPDEST CALLER DUP4 MSTORE PUSH1 0x2 DUP3 MSTORE PUSH1 0xFF PUSH1 0x40 DUP5 KECCAK256 SLOAD AND ISZERO DUP1 PUSH2 0x2A57 JUMPI JUMPDEST PUSH2 0x765 JUMPI PUSH1 0x1 PUSH1 0x1 PUSH1 0xA0 SHL SUB AND DUP1 ISZERO PUSH2 0x28B6 JUMPI DUP1 DUP4 MSTORE PUSH1 0x2 DUP3 MSTORE PUSH1 0xFF PUSH1 0x40 DUP5 KECCAK256 SLOAD AND PUSH2 0x2A1F JUMPI PUSH1 0xA PUSH1 0x3 SLOAD LT ISZERO PUSH2 0x29E8 JUMPI DUP1 DUP4 MSTORE PUSH1 0x2 DUP3 MSTORE PUSH1 0x40 DUP4 KECCAK256 PUSH1 0x1 PUSH1 0xFF NOT DUP3 SLOAD AND OR SWAP1 SSTORE PUSH2 0x29B7 PUSH1 0x3 SLOAD PUSH2 0x4A9E JUMP JUMPDEST PUSH1 0x3 SSTORE PUSH32 0xC879829B6AB559448E08C444FD0EF1F6E6EC47D851C79F50BC979D2F8F00E180 PUSH1 0x40 MLOAD SWAP3 TIMESTAMP DUP5 MSTORE CALLER SWAP4 LOG3 DUP1 RETURN JUMPDEST PUSH1 0x40 MLOAD PUSH3 0x461BCD PUSH1 0xE5 SHL DUP2 MSTORE PUSH1 0x4 DUP2 ADD DUP4 SWAP1 MSTORE PUSH1 0xF PUSH1 0x24 DUP3 ADD MSTORE PUSH15 0x546F6F206D616E792061646D696E73 PUSH1 0x88 SHL PUSH1 0x44 DUP3 ADD MSTORE PUSH1 0x64 SWAP1 REVERT JUMPDEST PUSH1 0x40 MLOAD PUSH3 0x461BCD PUSH1 0xE5 SHL DUP2 MSTORE PUSH1 0x4 DUP2 ADD DUP4 SWAP1 MSTORE PUSH1 0x10 PUSH1 0x24 DUP3 ADD MSTORE PUSH16 0x20B63932B0B23C9030B71030B236B4B7 PUSH1 0x81 SHL PUSH1 0x44 DUP3 ADD MSTORE PUSH1 0x64 SWAP1 REVERT JUMPDEST POP CALLER PUSH32 0x0 PUSH1 0x1 PUSH1 0x1 PUSH1 0xA0 SHL SUB AND EQ ISZERO PUSH2 0x2965 JUMP JUMPDEST POP CALLVALUE PUSH2 0x576 JUMPI DUP1 PUSH1 0x3 NOT CALLDATASIZE ADD SLT PUSH2 0x576 JUMPI PUSH1 0x20 PUSH1 0xFF PUSH1 0x1 SLOAD AND PUSH1 0x40 MLOAD SWAP1 ISZERO ISZERO DUP2 MSTORE RETURN JUMPDEST POP CALLVALUE PUSH2 0x576 JUMPI PUSH1 0x20 CALLDATASIZE PUSH1 0x3 NOT ADD SLT PUSH2 0x576 JUMPI PUSH1 0x4 CALLDATALOAD CALLER DUP3 MSTORE PUSH1 0x2 PUSH1 0x20 MSTORE PUSH1 0xFF PUSH1 0x40 DUP4 KECCAK256 SLOAD AND ISZERO DUP1 PUSH2 0x2BC0 JUMPI JUMPDEST PUSH2 0x765 JUMPI PUSH1 0x3C DUP2 LT DUP1 ISZERO PUSH2 0x2BB4 JUMPI JUMPDEST PUSH2 0x2B6F JUMPI PUSH32 0x7B2F327FE3724E45A6D300853FC8629E1D8FD83607F6943007D3C5C3E3C7576F PUSH32 0xABBFAB0BF365E6C544C4BDC8C27846B398EF85DEEB99659A1BD1CBBFDDBC69A1 SWAP2 PUSH1 0x5 SLOAD SWAP1 DUP1 PUSH1 0x5 SSTORE PUSH14 0x3B37BA34B733A23AB930BA34B7B7 PUSH1 0x91 SHL PUSH1 0x40 MLOAD MSTORE PUSH2 0x1FFD PUSH1 0x40 MLOAD SWAP3 DUP4 SWAP3 TIMESTAMP SWAP2 DUP5 PUSH1 0x40 SWAP2 SWAP5 SWAP4 SWAP3 PUSH1 0x60 DUP3 ADD SWAP6 DUP3 MSTORE PUSH1 0x20 DUP3 ADD MSTORE ADD MSTORE JUMP JUMPDEST PUSH1 0x40 MLOAD PUSH3 0x461BCD PUSH1 0xE5 SHL DUP2 MSTORE PUSH1 0x20 PUSH1 0x4 DUP3 ADD MSTORE PUSH1 0x17 PUSH1 0x24 DUP3 ADD MSTORE PUSH32 0x496E76616C696420766F74696E67206475726174696F6E000000000000000000 PUSH1 0x44 DUP3 ADD MSTORE PUSH1 0x64 SWAP1 REVERT JUMPDEST POP PUSH3 0x278D00 DUP2 GT PUSH2 0x2AE8 JUMP JUMPDEST POP CALLER PUSH32 0x0 PUSH1 0x1 PUSH1 0x1 PUSH1 0xA0 SHL SUB AND EQ ISZERO PUSH2 0x2AD9 JUMP JUMPDEST POP CALLVALUE PUSH2 0x576 JUMPI PUSH1 0x20 DUP1 PUSH1 0x3 NOT CALLDATASIZE ADD SLT PUSH2 0x19FA JUMPI PUSH1 0x4 CALLDATALOAD DUP1 ISZERO DUP1 ISZERO PUSH2 0x2DFA JUMPI JUMPDEST PUSH2 0x9D9 JUMPI PUSH2 0x2C24 PUSH1 0x2 DUP5 SLOAD EQ ISZERO PUSH2 0x4A22 JUMP JUMPDEST PUSH1 0x2 DUP4 SSTORE DUP1 DUP4 MSTORE PUSH1 0x7 DUP3 MSTORE PUSH1 0x40 DUP4 KECCAK256 PUSH1 0x8 DUP2 ADD SLOAD PUSH1 0xFF DUP2 PUSH1 0x40 SHR AND ISZERO PUSH2 0x2DB5 JUMPI PUSH1 0x48 SHR PUSH1 0xFF AND PUSH2 0x2D70 JUMPI PUSH1 0xE ADD CALLER DUP5 MSTORE DUP1 DUP4 MSTORE PUSH1 0x40 DUP5 KECCAK256 SLOAD ISZERO PUSH2 0x2D2B JUMPI CALLER DUP1 DUP6 MSTORE SWAP1 DUP4 MSTORE PUSH1 0x40 DUP1 DUP6 KECCAK256 DUP1 SLOAD SWAP1 DUP7 SWAP1 SSTORE SWAP1 MLOAD PUSH4 0xA9059CBB PUSH1 0xE0 SHL DUP2 MSTORE PUSH1 0x4 DUP2 ADD SWAP3 SWAP1 SWAP3 MSTORE PUSH1 0x24 DUP3 ADD DUP2 SWAP1 MSTORE SWAP3 SWAP1 DUP2 DUP2 PUSH1 0x44 DUP2 DUP9 PUSH1 0x1 PUSH1 0x1 PUSH1 0xA0 SHL SUB PUSH32 0x0 AND GAS CALL SWAP1 DUP2 ISZERO PUSH2 0x11A0 JUMPI DUP6 SWAP2 PUSH2 0x2D0E JUMPI JUMPDEST POP ISZERO PUSH2 0x2733 JUMPI PUSH1 0x40 MLOAD SWAP3 DUP4 MSTORE TIMESTAMP SWAP1 DUP4 ADD MSTORE PUSH32 0x8FAA8F78DBA131FCF5A374C153D58B8F646053B7C2789321A5449F127258E1CD PUSH1 0x40 CALLER SWAP4 LOG3 PUSH1 0x1 DUP2 SSTORE DUP1 RETURN JUMPDEST PUSH2 0x2D25 SWAP2 POP DUP3 RETURNDATASIZE DUP5 GT PUSH2 0xC77 JUMPI PUSH2 0xC69 DUP2 DUP4 PUSH2 0x47C7 JUMP JUMPDEST CODESIZE PUSH2 0x2CD0 JUMP JUMPDEST PUSH1 0x40 MLOAD PUSH3 0x461BCD PUSH1 0xE5 SHL DUP2 MSTORE PUSH1 0x4 DUP2 ADD DUP5 SWAP1 MSTORE PUSH1 0x17 PUSH1 0x24 DUP3 ADD MSTORE PUSH32 0x4E6F20696E766573746D656E7420746F20726566756E64000000000000000000 PUSH1 0x44 DUP3 ADD MSTORE PUSH1 0x64 SWAP1 REVERT JUMPDEST PUSH1 0x40 MLOAD PUSH3 0x461BCD PUSH1 0xE5 SHL DUP2 MSTORE PUSH1 0x4 DUP2 ADD DUP5 SWAP1 MSTORE PUSH1 0x1D PUSH1 0x24 DUP3 ADD MSTORE PUSH32 0x43616E6E6F7420726566756E64207061737365642070726F706F73616C000000 PUSH1 0x44 DUP3 ADD MSTORE PUSH1 0x64 SWAP1 REVERT JUMPDEST PUSH1 0x40 MLOAD PUSH3 0x461BCD PUSH1 0xE5 SHL DUP2 MSTORE PUSH1 0x4 DUP2 ADD DUP6 SWAP1 MSTORE PUSH1 0x19 PUSH1 0x24 DUP3 ADD MSTORE PUSH32 0x50726F706F73616C206E6F742079657420657865637574656400000000000000 PUSH1 0x44 DUP3 ADD MSTORE PUSH1 0x64 SWAP1 REVERT JUMPDEST POP PUSH1 0x8 SLOAD DUP2 GT PUSH2 0x2C12 JUMP JUMPDEST POP CALLVALUE PUSH2 0x576 JUMPI PUSH1 0x20 CALLDATASIZE PUSH1 0x3 NOT ADD SLT PUSH2 0x576 JUMPI PUSH1 0x20 SWAP1 PUSH1 0x40 SWAP1 PUSH1 0x1 PUSH1 0x1 PUSH1 0xA0 SHL SUB PUSH2 0x2E2D PUSH2 0x491F JUMP JUMPDEST AND DUP2 MSTORE PUSH1 0x13 DUP4 MSTORE KECCAK256 SLOAD PUSH1 0x40 MLOAD SWAP1 DUP2 MSTORE RETURN JUMPDEST POP CALLVALUE PUSH2 0x576 JUMPI DUP1 PUSH1 0x3 NOT CALLDATASIZE ADD SLT PUSH2 0x576 JUMPI PUSH1 0x20 PUSH1 0x4 SLOAD PUSH1 0x40 MLOAD SWAP1 DUP2 MSTORE RETURN JUMPDEST POP CALLVALUE PUSH2 0x576 JUMPI PUSH1 0x80 CALLDATASIZE PUSH1 0x3 NOT ADD SLT PUSH2 0x576 JUMPI PUSH1 0x4 CALLDATALOAD PUSH1 0x1 PUSH1 0x1 PUSH1 0x40 SHL SUB DUP2 GT PUSH2 0x19FA JUMPI PUSH2 0x2E8D SWAP1 CALLDATASIZE SWAP1 PUSH1 0x4 ADD PUSH2 0x496F JUMP JUMPDEST PUSH1 0x24 CALLDATALOAD PUSH1 0x1 PUSH1 0x1 PUSH1 0x40 SHL SUB DUP2 GT PUSH2 0x406 JUMPI PUSH2 0x2EAC SWAP1 CALLDATASIZE SWAP1 PUSH1 0x4 ADD PUSH2 0x496F JUMP JUMPDEST SWAP1 SWAP2 PUSH1 0x44 CALLDATALOAD PUSH1 0x1 PUSH1 0x1 PUSH1 0x40 SHL SUB DUP2 GT PUSH2 0x3665 JUMPI PUSH2 0x2ECD SWAP1 CALLDATASIZE SWAP1 PUSH1 0x4 ADD PUSH2 0x496F JUMP JUMPDEST PUSH1 0x40 MLOAD PUSH4 0x70A08231 PUSH1 0xE0 SHL DUP2 MSTORE CALLER PUSH1 0x4 DUP3 ADD MSTORE SWAP1 SWAP3 SWAP1 PUSH1 0x20 DUP2 PUSH1 0x24 DUP2 PUSH32 0x0 PUSH1 0x1 PUSH1 0x1 PUSH1 0xA0 SHL SUB AND GAS STATICCALL SWAP1 DUP2 ISZERO PUSH2 0x365A JUMPI DUP9 SWAP2 PUSH2 0x3624 JUMPI JUMPDEST POP PUSH9 0x56BC75E2D63100000 DUP2 LT PUSH2 0x35FD JUMPI POP PUSH2 0x2F43 PUSH1 0x2 DUP9 SLOAD EQ ISZERO PUSH2 0x4A22 JUMP JUMPDEST PUSH1 0x2 DUP8 SSTORE PUSH1 0xFF PUSH1 0x1 SLOAD AND PUSH2 0x19A0 JUMPI PUSH8 0x8AC7230489E80000 PUSH1 0x64 CALLDATALOAD LT DUP1 ISZERO PUSH2 0x35E8 JUMPI JUMPDEST PUSH2 0x35CE JUMPI DUP4 ISZERO DUP1 ISZERO PUSH2 0x35C6 JUMPI JUMPDEST DUP1 ISZERO PUSH2 0x35BE JUMPI JUMPDEST PUSH2 0x3581 JUMPI CALLER DUP8 MSTORE PUSH1 0x13 PUSH1 0x20 MSTORE PUSH1 0x40 DUP8 KECCAK256 SLOAD PUSH2 0xE10 SWAP1 DUP2 DUP2 ADD DUP1 SWAP2 GT PUSH2 0x356D JUMPI TIMESTAMP LT PUSH2 0x351F JUMPI POP CALLER DUP8 MSTORE PUSH1 0xF PUSH1 0x20 MSTORE PUSH1 0x40 DUP8 KECCAK256 SLOAD PUSH1 0x6 SLOAD DUP1 SWAP2 LT ISZERO PUSH2 0x3507 JUMPI POP PUSH2 0x2FC3 PUSH1 0x8 SLOAD PUSH2 0x4A9E JUMP JUMPDEST PUSH1 0x8 DUP2 SWAP1 SSTORE DUP1 DUP9 MSTORE PUSH1 0x7 PUSH1 0x20 MSTORE PUSH1 0x40 DUP9 KECCAK256 SWAP1 DUP2 SSTORE PUSH1 0x1 DUP2 ADD DUP1 SLOAD PUSH1 0x1 PUSH1 0x1 PUSH1 0xA0 SHL SUB NOT AND CALLER OR SWAP1 SSTORE SWAP6 PUSH1 0x1 PUSH1 0x1 PUSH1 0x40 SHL SUB DUP3 GT PUSH2 0x34F3 JUMPI DUP2 SWAP1 PUSH2 0x3009 PUSH1 0x9 DUP10 ADD SLOAD PUSH2 0x470B JUMP JUMPDEST PUSH1 0x1F DUP2 GT PUSH2 0x34A3 JUMPI JUMPDEST POP DUP9 SWAP1 PUSH1 0x1F DUP4 GT PUSH1 0x1 EQ PUSH2 0x3437 JUMPI DUP10 SWAP3 PUSH2 0x342C JUMPI JUMPDEST POP POP DUP2 PUSH1 0x1 SHL SWAP2 PUSH1 0x0 NOT SWAP1 PUSH1 0x3 SHL SHR NOT AND OR PUSH1 0x9 DUP7 ADD SSTORE JUMPDEST PUSH1 0x1 PUSH1 0x1 PUSH1 0x40 SHL SUB DUP4 GT PUSH2 0x1629 JUMPI PUSH2 0x305A PUSH1 0xA DUP7 ADD SLOAD PUSH2 0x470B JUMP JUMPDEST PUSH1 0x1F DUP2 GT PUSH2 0x33E8 JUMPI JUMPDEST POP DUP3 DUP7 PUSH1 0x1F DUP3 GT PUSH1 0x1 EQ PUSH2 0x337E JUMPI DUP8 SWAP2 PUSH2 0x3373 JUMPI JUMPDEST POP DUP4 PUSH1 0x1 SHL SWAP1 PUSH1 0x0 NOT DUP6 PUSH1 0x3 SHL SHR NOT AND OR PUSH1 0xA DUP7 ADD SSTORE JUMPDEST PUSH1 0x1 PUSH1 0x1 PUSH1 0x40 SHL SUB DUP3 GT PUSH2 0x1629 JUMPI DUP2 SWAP1 PUSH2 0x30AC PUSH1 0xB DUP8 ADD SLOAD PUSH2 0x470B JUMP JUMPDEST PUSH1 0x1F DUP2 GT PUSH2 0x3323 JUMPI JUMPDEST POP DUP7 SWAP1 PUSH1 0x1F DUP4 GT PUSH1 0x1 EQ PUSH2 0x32B7 JUMPI DUP8 SWAP3 PUSH2 0x32AC JUMPI JUMPDEST POP POP DUP2 PUSH1 0x1 SHL SWAP2 PUSH1 0x0 NOT SWAP1 PUSH1 0x3 SHL SHR NOT AND OR PUSH1 0xB DUP5 ADD SSTORE JUMPDEST PUSH1 0x64 CALLDATALOAD PUSH1 0x2 DUP5 ADD SSTORE PUSH9 0x56BC75E2D63100000 PUSH1 0x3 DUP5 ADD SSTORE DUP4 PUSH1 0x6 PUSH2 0x3108 PUSH1 0x5 SLOAD TIMESTAMP PUSH2 0x4A6E JUMP JUMPDEST SWAP5 PUSH1 0x7 DUP2 ADD SWAP6 DUP7 SSTORE PUSH1 0x8 DUP2 ADD PUSH11 0xFFFFFFFFFFFFFFFFFFFFFF NOT DUP2 SLOAD AND SWAP1 SSTORE ADD SSTORE CALLER DUP5 MSTORE PUSH1 0xE PUSH1 0x20 MSTORE PUSH1 0x40 DUP5 KECCAK256 DUP1 SLOAD SWAP1 PUSH9 0x56BC75E2D63100000 DUP3 ADD DUP1 SWAP3 GT PUSH2 0x17EF JUMPI SSTORE CALLER DUP5 MSTORE PUSH1 0xF PUSH1 0x20 MSTORE PUSH1 0x40 DUP5 KECCAK256 PUSH2 0x3161 DUP2 SLOAD PUSH2 0x4A9E JUMP JUMPDEST SWAP1 SSTORE CALLER DUP5 MSTORE PUSH1 0x13 PUSH1 0x20 MSTORE TIMESTAMP PUSH1 0x40 DUP6 KECCAK256 SSTORE PUSH1 0x8 SLOAD PUSH1 0x9 SLOAD PUSH1 0x1 PUSH1 0x40 SHL SWAP1 DUP2 DUP2 LT ISZERO PUSH2 0x1803 JUMPI PUSH1 0x1 DUP2 ADD DUP1 PUSH1 0x9 SSTORE DUP2 LT ISZERO PUSH2 0x3298 JUMPI DUP3 SWAP1 PUSH32 0x6E1540171B6C0C960B71A7020D9F60077F6AF931A8BBF590DA0223DACF75C7AF ADD SSTORE CALLER DUP7 MSTORE PUSH1 0xC PUSH1 0x20 MSTORE PUSH1 0x40 DUP7 KECCAK256 DUP1 SLOAD SWAP2 DUP3 LT ISZERO PUSH2 0x1803 JUMPI SWAP1 PUSH2 0x31DF SWAP2 PUSH1 0x1 DUP3 ADD DUP2 SSTORE PUSH2 0x48F1 JUMP JUMPDEST DUP2 SWAP3 SWAP2 SLOAD SWAP1 PUSH1 0x3 SHL SWAP2 DUP3 SHL SWAP2 PUSH1 0x0 NOT SWAP1 SHL NOT AND OR SWAP1 SSTORE PUSH2 0x3230 PUSH1 0x40 MLOAD PUSH4 0x23B872DD PUSH1 0xE0 SHL PUSH1 0x20 DUP3 ADD MSTORE CALLER PUSH1 0x24 DUP3 ADD MSTORE ADDRESS PUSH1 0x44 DUP3 ADD MSTORE PUSH9 0x56BC75E2D63100000 PUSH1 0x64 DUP3 ADD MSTORE PUSH1 0x64 DUP2 MSTORE PUSH2 0x15E9 DUP2 PUSH2 0x47AC JUMP JUMPDEST PUSH1 0x8 SLOAD SWAP3 SLOAD SWAP2 DUP2 PUSH1 0x40 MLOAD SWAP3 DUP4 SWAP3 DUP4 CALLDATACOPY DUP2 ADD DUP6 DUP2 MSTORE SUB SWAP1 KECCAK256 SWAP2 PUSH1 0x40 MLOAD SWAP2 PUSH1 0x64 CALLDATALOAD DUP4 MSTORE PUSH9 0x56BC75E2D63100000 PUSH1 0x20 DUP5 ADD MSTORE PUSH1 0x40 DUP4 ADD MSTORE TIMESTAMP PUSH1 0x60 DUP4 ADD MSTORE PUSH32 0xDD0274AC6C4A9179CF8818EF29728B8DE044741912DDA8E475B72DF2047CF56F PUSH1 0x80 CALLER SWAP4 LOG4 PUSH1 0x1 DUP2 SSTORE DUP1 RETURN JUMPDEST PUSH4 0x4E487B71 PUSH1 0xE0 SHL DUP8 MSTORE PUSH1 0x32 PUSH1 0x4 MSTORE PUSH1 0x24 DUP8 REVERT JUMPDEST ADD CALLDATALOAD SWAP1 POP CODESIZE DUP1 PUSH2 0x30CA JUMP JUMPDEST PUSH1 0xB DUP8 ADD DUP9 MSTORE PUSH1 0x20 DUP9 KECCAK256 DUP9 SWAP5 POP SWAP2 JUMPDEST PUSH1 0x1F NOT DUP5 AND DUP6 LT PUSH2 0x330B JUMPI PUSH1 0x1 SWAP5 POP DUP4 PUSH1 0x1F NOT DUP2 AND LT PUSH2 0x32F1 JUMPI JUMPDEST POP POP POP DUP2 SHL ADD PUSH1 0xB DUP5 ADD SSTORE PUSH2 0x30E2 JUMP JUMPDEST ADD CALLDATALOAD PUSH1 0x0 NOT PUSH1 0x3 DUP5 SWAP1 SHL PUSH1 0xF8 AND SHR NOT AND SWAP1 SSTORE CODESIZE DUP1 DUP1 PUSH2 0x32E1 JUMP JUMPDEST DUP2 DUP2 ADD CALLDATALOAD DUP4 SSTORE PUSH1 0x20 SWAP5 DUP6 ADD SWAP5 PUSH1 0x1 SWAP1 SWAP4 ADD SWAP3 ADD PUSH2 0x32C6 JUMP JUMPDEST SWAP1 SWAP2 POP PUSH1 0xB DUP7 ADD DUP8 MSTORE PUSH1 0x20 DUP8 KECCAK256 PUSH1 0x1F DUP5 ADD PUSH1 0x5 SHR DUP2 ADD PUSH1 0x20 DUP6 LT PUSH2 0x336C JUMPI JUMPDEST SWAP1 DUP5 SWAP4 SWAP3 SWAP2 JUMPDEST PUSH1 0x1F DUP4 ADD PUSH1 0x5 SHR DUP3 ADD DUP2 LT PUSH2 0x335E JUMPI POP POP PUSH2 0x30B5 JUMP JUMPDEST DUP10 DUP2 SSTORE DUP6 SWAP5 POP PUSH1 0x1 ADD PUSH2 0x3348 JUMP JUMPDEST POP DUP1 PUSH2 0x3342 JUMP JUMPDEST SWAP1 POP DUP5 ADD CALLDATALOAD CODESIZE PUSH2 0x3078 JUMP JUMPDEST PUSH1 0xA DUP8 ADD DUP9 MSTORE PUSH1 0x20 DUP9 KECCAK256 SWAP2 POP DUP8 JUMPDEST PUSH1 0x1F NOT DUP7 AND DUP2 LT PUSH2 0x33D0 JUMPI POP DUP5 PUSH1 0x1F NOT DUP2 AND LT PUSH2 0x33B6 JUMPI JUMPDEST POP POP PUSH1 0x1 DUP4 DUP2 SHL ADD PUSH1 0xA DUP7 ADD SSTORE PUSH2 0x308F JUMP JUMPDEST DUP6 ADD CALLDATALOAD PUSH1 0x0 NOT PUSH1 0x3 DUP7 SWAP1 SHL PUSH1 0xF8 AND SHR NOT AND SWAP1 SSTORE CODESIZE DUP1 PUSH2 0x33A4 JUMP JUMPDEST SWAP1 SWAP2 PUSH1 0x20 PUSH1 0x1 DUP2 SWAP3 DUP6 DUP11 ADD CALLDATALOAD DUP2 SSTORE ADD SWAP4 ADD SWAP2 ADD PUSH2 0x338C JUMP JUMPDEST PUSH1 0xA DUP7 ADD DUP8 MSTORE PUSH1 0x20 DUP8 KECCAK256 PUSH1 0x1F DUP6 ADD PUSH1 0x5 SHR DUP2 ADD PUSH1 0x20 DUP7 LT PUSH2 0x3425 JUMPI JUMPDEST PUSH1 0x1F DUP4 ADD PUSH1 0x5 SHR DUP3 ADD DUP2 LT PUSH2 0x341A JUMPI POP POP PUSH2 0x3063 JUMP JUMPDEST DUP9 DUP2 SSTORE PUSH1 0x1 ADD PUSH2 0x3404 JUMP JUMPDEST POP DUP1 PUSH2 0x3404 JUMP JUMPDEST ADD CALLDATALOAD SWAP1 POP CODESIZE DUP1 PUSH2 0x3027 JUMP JUMPDEST PUSH1 0x9 DUP10 ADD DUP11 MSTORE PUSH1 0x20 DUP11 KECCAK256 DUP11 SWAP5 POP SWAP2 JUMPDEST PUSH1 0x1F NOT DUP5 AND DUP6 LT PUSH2 0x348B JUMPI PUSH1 0x1 SWAP5 POP DUP4 PUSH1 0x1F NOT DUP2 AND LT PUSH2 0x3471 JUMPI JUMPDEST POP POP POP DUP2 SHL ADD PUSH1 0x9 DUP7 ADD SSTORE PUSH2 0x303F JUMP JUMPDEST ADD CALLDATALOAD PUSH1 0x0 NOT PUSH1 0x3 DUP5 SWAP1 SHL PUSH1 0xF8 AND SHR NOT AND SWAP1 SSTORE CODESIZE DUP1 DUP1 PUSH2 0x3461 JUMP JUMPDEST DUP2 DUP2 ADD CALLDATALOAD DUP4 SSTORE PUSH1 0x20 SWAP5 DUP6 ADD SWAP5 PUSH1 0x1 SWAP1 SWAP4 ADD SWAP3 ADD PUSH2 0x3446 JUMP JUMPDEST SWAP1 SWAP2 POP PUSH1 0x9 DUP9 ADD DUP10 MSTORE PUSH1 0x20 DUP10 KECCAK256 PUSH1 0x1F DUP5 ADD PUSH1 0x5 SHR DUP2 ADD PUSH1 0x20 DUP6 LT PUSH2 0x34EC JUMPI JUMPDEST SWAP1 DUP5 SWAP4 SWAP3 SWAP2 JUMPDEST PUSH1 0x1F DUP4 ADD PUSH1 0x5 SHR DUP3 ADD DUP2 LT PUSH2 0x34DE JUMPI POP POP PUSH2 0x3012 JUMP JUMPDEST DUP12 DUP2 SSTORE DUP6 SWAP5 POP PUSH1 0x1 ADD PUSH2 0x34C8 JUMP JUMPDEST POP DUP1 PUSH2 0x34C2 JUMP JUMPDEST PUSH4 0x4E487B71 PUSH1 0xE0 SHL DUP9 MSTORE PUSH1 0x41 PUSH1 0x4 MSTORE PUSH1 0x24 DUP9 REVERT JUMPDEST PUSH1 0x24 SWAP1 PUSH1 0x40 MLOAD SWAP1 PUSH4 0x58260193 PUSH1 0xE1 SHL DUP3 MSTORE PUSH1 0x4 DUP3 ADD MSTORE REVERT JUMPDEST DUP8 PUSH1 0x24 SWAP2 CALLER DUP3 MSTORE PUSH1 0x13 PUSH1 0x20 MSTORE PUSH1 0x40 DUP3 KECCAK256 SLOAD SWAP1 DUP2 ADD DUP1 SWAP2 GT PUSH2 0x355B JUMPI PUSH2 0x3546 SWAP2 POP TIMESTAMP SWAP1 PUSH2 0x4A91 JUMP JUMPDEST PUSH1 0x40 MLOAD SWAP1 PUSH4 0xF11533D PUSH1 0xE3 SHL DUP3 MSTORE PUSH1 0x4 DUP3 ADD MSTORE REVERT JUMPDEST POP PUSH4 0x4E487B71 PUSH1 0xE0 SHL DUP2 MSTORE PUSH1 0x11 PUSH1 0x4 MSTORE REVERT JUMPDEST PUSH4 0x4E487B71 PUSH1 0xE0 SHL DUP10 MSTORE PUSH1 0x11 PUSH1 0x4 MSTORE PUSH1 0x24 DUP10 REVERT JUMPDEST PUSH1 0x40 MLOAD PUSH3 0x461BCD PUSH1 0xE5 SHL DUP2 MSTORE PUSH1 0x20 PUSH1 0x4 DUP3 ADD MSTORE PUSH1 0x15 PUSH1 0x24 DUP3 ADD MSTORE PUSH21 0x456D707479207265717569726564206669656C6473 PUSH1 0x58 SHL PUSH1 0x44 DUP3 ADD MSTORE PUSH1 0x64 SWAP1 REVERT JUMPDEST POP DUP1 ISZERO PUSH2 0x2F79 JUMP JUMPDEST POP DUP3 ISZERO PUSH2 0x2F72 JUMP JUMPDEST PUSH1 0x40 MLOAD PUSH4 0xE086199 PUSH1 0xE3 SHL DUP2 MSTORE PUSH1 0x64 CALLDATALOAD PUSH1 0x4 DUP3 ADD MSTORE PUSH1 0x24 SWAP1 REVERT JUMPDEST POP PUSH10 0xD3C21BCECCEDA1000000 PUSH1 0x64 CALLDATALOAD GT PUSH2 0x2F65 JUMP JUMPDEST PUSH1 0x44 SWAP1 PUSH1 0x40 MLOAD SWAP1 PUSH4 0xC7BCC1B9 PUSH1 0xE0 SHL DUP3 MSTORE PUSH9 0x56BC75E2D63100000 PUSH1 0x4 DUP4 ADD MSTORE PUSH1 0x24 DUP3 ADD MSTORE REVERT JUMPDEST SWAP1 POP PUSH1 0x20 DUP2 RETURNDATASIZE PUSH1 0x20 GT PUSH2 0x3652 JUMPI JUMPDEST DUP2 PUSH2 0x363F PUSH1 0x20 SWAP4 DUP4 PUSH2 0x47C7 JUMP JUMPDEST DUP2 ADD SUB SLT PUSH2 0x364E JUMPI MLOAD CODESIZE PUSH2 0x2F23 JUMP JUMPDEST DUP8 DUP1 REVERT JUMPDEST RETURNDATASIZE SWAP2 POP PUSH2 0x3632 JUMP JUMPDEST PUSH1 0x40 MLOAD RETURNDATASIZE DUP11 DUP3 RETURNDATACOPY RETURNDATASIZE SWAP1 REVERT JUMPDEST DUP6 DUP1 REVERT JUMPDEST POP CALLVALUE PUSH2 0x576 JUMPI DUP1 PUSH1 0x3 NOT CALLDATASIZE ADD SLT PUSH2 0x576 JUMPI PUSH1 0x20 PUSH1 0x40 MLOAD PUSH2 0xE10 DUP2 MSTORE RETURN JUMPDEST POP CALLVALUE PUSH2 0x576 JUMPI PUSH1 0x20 CALLDATASIZE PUSH1 0x3 NOT ADD SLT PUSH2 0x576 JUMPI PUSH1 0x20 SWAP1 PUSH1 0xFF SWAP1 PUSH1 0x40 SWAP1 PUSH1 0x1 PUSH1 0x1 PUSH1 0xA0 SHL SUB PUSH2 0x36B1 PUSH2 0x491F JUMP JUMPDEST AND DUP2 MSTORE PUSH1 0x2 DUP5 MSTORE KECCAK256 SLOAD AND PUSH1 0x40 MLOAD SWAP1 ISZERO ISZERO DUP2 MSTORE RETURN JUMPDEST POP CALLVALUE PUSH2 0x576 JUMPI DUP1 PUSH1 0x3 NOT CALLDATASIZE ADD SLT PUSH2 0x576 JUMPI CALLER DUP2 MSTORE PUSH1 0x2 PUSH1 0x20 MSTORE PUSH1 0xFF PUSH1 0x40 DUP3 KECCAK256 SLOAD AND ISZERO DUP1 PUSH2 0x374E JUMPI JUMPDEST PUSH2 0x765 JUMPI PUSH1 0x1 SLOAD PUSH1 0xFF DUP2 AND ISZERO PUSH2 0x373C JUMPI PUSH1 0xFF NOT AND PUSH1 0x1 SSTORE PUSH1 0x40 DUP1 MLOAD CALLER DUP2 MSTORE TIMESTAMP PUSH1 0x20 DUP3 ADD MSTORE PUSH32 0x3582D1828E26BF56BD801502BC021AC0BC8AFB57C826E4986B45593C8FAD389C SWAP2 DUP2 SWAP1 DUP2 ADD PUSH2 0x239D JUMP JUMPDEST PUSH1 0x40 MLOAD PUSH4 0x8DFC202B PUSH1 0xE0 SHL DUP2 MSTORE PUSH1 0x4 SWAP1 REVERT JUMPDEST POP CALLER PUSH32 0x0 PUSH1 0x1 PUSH1 0x1 PUSH1 0xA0 SHL SUB AND EQ ISZERO PUSH2 0x36ED JUMP JUMPDEST POP CALLVALUE PUSH2 0x576 JUMPI PUSH1 0x40 CALLDATASIZE PUSH1 0x3 NOT ADD SLT PUSH2 0x576 JUMPI PUSH2 0x379B PUSH2 0x491F JUMP JUMPDEST PUSH1 0x1 PUSH1 0x1 PUSH1 0xA0 SHL SUB AND DUP2 MSTORE PUSH1 0xC PUSH1 0x20 MSTORE PUSH1 0x40 DUP2 KECCAK256 DUP1 SLOAD PUSH1 0x24 CALLDATALOAD SWAP3 SWAP1 DUP4 LT ISZERO PUSH2 0x576 JUMPI PUSH1 0x20 PUSH2 0x37C9 DUP5 DUP5 PUSH2 0x48F1 JUMP JUMPDEST SWAP1 SLOAD PUSH1 0x40 MLOAD SWAP2 PUSH1 0x3 SHL SHR DUP2 MSTORE RETURN JUMPDEST POP CALLVALUE PUSH2 0x576 JUMPI DUP1 PUSH1 0x3 NOT CALLDATASIZE ADD SLT PUSH2 0x576 JUMPI PUSH1 0x20 PUSH1 0x40 MLOAD PUSH8 0x8AC7230489E80000 DUP2 MSTORE RETURN JUMPDEST POP CALLVALUE PUSH2 0x576 JUMPI DUP1 PUSH1 0x3 NOT CALLDATASIZE ADD SLT PUSH2 0x576 JUMPI PUSH1 0x20 PUSH1 0x40 MLOAD PUSH1 0x32 DUP2 MSTORE RETURN JUMPDEST POP CALLVALUE PUSH2 0x576 JUMPI DUP1 PUSH1 0x3 NOT CALLDATASIZE ADD SLT PUSH2 0x576 JUMPI PUSH1 0x20 PUSH1 0x40 MLOAD PUSH1 0x5 DUP2 MSTORE RETURN JUMPDEST POP CALLVALUE PUSH2 0x576 JUMPI DUP1 PUSH1 0x3 NOT CALLDATASIZE ADD SLT PUSH2 0x576 JUMPI PUSH1 0x20 PUSH1 0x3 SLOAD PUSH1 0x40 MLOAD SWAP1 DUP2 MSTORE RETURN JUMPDEST POP CALLVALUE PUSH2 0x576 JUMPI PUSH1 0x20 SWAP1 DUP2 PUSH1 0x3 NOT CALLDATASIZE ADD SLT PUSH2 0x576 JUMPI PUSH1 0x40 MLOAD PUSH4 0x6EB1769F PUSH1 0xE1 SHL DUP2 MSTORE CALLER PUSH1 0x4 DUP1 DUP4 ADD SWAP2 SWAP1 SWAP2 MSTORE ADDRESS PUSH1 0x24 DUP4 ADD MSTORE PUSH1 0x1 PUSH1 0x1 PUSH1 0xA0 SHL SUB PUSH32 0x0 AND SWAP2 SWAP1 CALLDATALOAD SWAP1 DUP5 DUP2 PUSH1 0x44 DUP2 DUP7 GAS STATICCALL SWAP1 DUP2 ISZERO PUSH2 0x411 JUMPI DUP5 SWAP2 PUSH2 0x3988 JUMPI JUMPDEST POP DUP2 DUP2 LT PUSH2 0x3939 JUMPI DUP4 SWAP3 PUSH2 0x38DD DUP7 SWAP4 PUSH2 0x3907 SWAP4 PUSH2 0x4A91 JUMP JUMPDEST PUSH1 0x40 MLOAD PUSH4 0x95EA7B3 PUSH1 0xE0 SHL DUP2 MSTORE ADDRESS PUSH1 0x4 DUP3 ADD MSTORE PUSH1 0x24 DUP2 ADD SWAP2 SWAP1 SWAP2 MSTORE SWAP4 DUP5 SWAP3 DUP4 SWAP2 SWAP1 DUP3 SWAP1 PUSH1 0x44 DUP3 ADD SWAP1 JUMP JUMPDEST SUB SWAP3 GAS CALL SWAP2 DUP3 ISZERO PUSH2 0x1E69 JUMPI SWAP2 PUSH2 0x3922 JUMPI POP PUSH1 0x40 MLOAD SWAP1 ISZERO ISZERO DUP2 MSTORE RETURN JUMPDEST PUSH2 0xC71 SWAP2 POP DUP3 RETURNDATASIZE DUP5 GT PUSH2 0xC77 JUMPI PUSH2 0xC69 DUP2 DUP4 PUSH2 0x47C7 JUMP JUMPDEST PUSH1 0x40 MLOAD PUSH3 0x461BCD PUSH1 0xE5 SHL DUP2 MSTORE PUSH1 0x4 DUP2 ADD DUP7 SWAP1 MSTORE PUSH1 0x21 PUSH1 0x24 DUP3 ADD MSTORE PUSH32 0x446563726561736520616D6F756E74206578636565647320616C6C6F77616E63 PUSH1 0x44 DUP3 ADD MSTORE PUSH1 0x65 PUSH1 0xF8 SHL PUSH1 0x64 DUP3 ADD MSTORE PUSH1 0x84 SWAP1 REVERT JUMPDEST SWAP1 POP DUP5 DUP2 DUP2 RETURNDATASIZE DUP4 GT PUSH2 0x39AE JUMPI JUMPDEST PUSH2 0x399F DUP2 DUP4 PUSH2 0x47C7 JUMP JUMPDEST DUP2 ADD SUB SLT PUSH2 0x406 JUMPI MLOAD CODESIZE PUSH2 0x38C5 JUMP JUMPDEST POP RETURNDATASIZE PUSH2 0x3995 JUMP JUMPDEST POP CALLVALUE PUSH2 0x576 JUMPI PUSH2 0x39C4 CALLDATASIZE PUSH2 0x48D6 JUMP JUMPDEST CALLER DUP4 MSTORE PUSH1 0x20 SWAP1 PUSH1 0x2 DUP3 MSTORE PUSH1 0xFF PUSH1 0x40 DUP6 KECCAK256 SLOAD AND ISZERO DUP1 PUSH2 0x3BD3 JUMPI JUMPDEST PUSH2 0x765 JUMPI DUP3 ISZERO DUP1 ISZERO PUSH2 0x3BC8 JUMPI JUMPDEST PUSH2 0x741 JUMPI DUP1 ISZERO PUSH2 0x3B8A JUMPI DUP3 DUP5 MSTORE PUSH1 0x7 DUP3 MSTORE PUSH1 0x40 DUP5 KECCAK256 PUSH1 0xFF PUSH1 0x8 DUP3 ADD SLOAD PUSH1 0x40 SHR AND PUSH2 0x3B45 JUMPI PUSH1 0x7 ADD DUP1 SLOAD SWAP3 PUSH1 0x3C TIMESTAMP ADD SWAP2 DUP3 TIMESTAMP GT PUSH2 0x3B31 JUMPI DUP4 DUP6 GT ISZERO PUSH2 0x3AEC JUMPI PUSH2 0x3A32 DUP5 DUP7 PUSH2 0x4A91 JUMP JUMPDEST SWAP3 DUP4 LT PUSH2 0x3A81 JUMPI SWAP2 PUSH1 0xA0 SWAP4 SWAP2 DUP2 PUSH32 0xB9873FCCABEC700BDB36EC123D2606EEDDB0EF1CE51730BA5A83C0E27A098287 SWAP7 SWAP5 SSTORE PUSH1 0x40 MLOAD SWAP4 DUP5 MSTORE DUP4 ADD MSTORE PUSH1 0x40 DUP3 ADD MSTORE DUP5 PUSH1 0x60 DUP3 ADD MSTORE TIMESTAMP PUSH1 0x80 DUP3 ADD MSTORE LOG2 DUP1 RETURN JUMPDEST PUSH1 0x40 MLOAD PUSH3 0x461BCD PUSH1 0xE5 SHL DUP2 MSTORE PUSH1 0x4 DUP2 ADD DUP4 SWAP1 MSTORE PUSH1 0x3B PUSH1 0x24 DUP3 ADD MSTORE PUSH32 0x4E657720656E642074696D6520746F6F206561726C79202D206D75737420616C PUSH1 0x44 DUP3 ADD MSTORE PUSH32 0x6C6F77206D696E696D756D20766F74696E67206475726174696F6E0000000000 PUSH1 0x64 DUP3 ADD MSTORE PUSH1 0x84 SWAP1 REVERT JUMPDEST PUSH1 0x40 MLOAD PUSH3 0x461BCD PUSH1 0xE5 SHL DUP2 MSTORE PUSH1 0x4 DUP2 ADD DUP4 SWAP1 MSTORE PUSH1 0x18 PUSH1 0x24 DUP3 ADD MSTORE PUSH32 0x526564756374696F6E2074696D6520746F6F206C617267650000000000000000 PUSH1 0x44 DUP3 ADD MSTORE PUSH1 0x64 SWAP1 REVERT JUMPDEST PUSH4 0x4E487B71 PUSH1 0xE0 SHL DUP8 MSTORE PUSH1 0x11 PUSH1 0x4 MSTORE PUSH1 0x24 DUP8 REVERT JUMPDEST PUSH1 0x40 MLOAD PUSH3 0x461BCD PUSH1 0xE5 SHL DUP2 MSTORE PUSH1 0x4 DUP2 ADD DUP5 SWAP1 MSTORE PUSH1 0x1F PUSH1 0x24 DUP3 ADD MSTORE PUSH32 0x43616E6E6F74206D6F646966792065786563757465642070726F706F73616C00 PUSH1 0x44 DUP3 ADD MSTORE PUSH1 0x64 SWAP1 REVERT JUMPDEST PUSH1 0x40 MLOAD PUSH3 0x461BCD PUSH1 0xE5 SHL DUP2 MSTORE PUSH1 0x4 DUP2 ADD DUP4 SWAP1 MSTORE PUSH1 0x16 PUSH1 0x24 DUP3 ADD MSTORE PUSH22 0x496E76616C696420726564756374696F6E2074696D65 PUSH1 0x50 SHL PUSH1 0x44 DUP3 ADD MSTORE PUSH1 0x64 SWAP1 REVERT JUMPDEST POP PUSH1 0x8 SLOAD DUP4 GT PUSH2 0x39EA JUMP JUMPDEST POP CALLER PUSH32 0x0 PUSH1 0x1 PUSH1 0x1 PUSH1 0xA0 SHL SUB AND EQ ISZERO PUSH2 0x39DD JUMP JUMPDEST POP CALLVALUE PUSH2 0x576 JUMPI PUSH1 0x20 DUP1 PUSH1 0x3 NOT CALLDATASIZE ADD SLT PUSH2 0x19FA JUMPI PUSH2 0x3C21 PUSH2 0x491F JUMP JUMPDEST CALLER DUP4 MSTORE PUSH1 0x2 DUP3 MSTORE PUSH1 0xFF PUSH1 0x40 DUP5 KECCAK256 SLOAD AND ISZERO DUP1 PUSH2 0x3DB7 JUMPI JUMPDEST PUSH2 0x765 JUMPI PUSH1 0x1 PUSH1 0x1 PUSH1 0xA0 SHL SUB SWAP1 DUP2 AND SWAP1 DUP2 ISZERO PUSH2 0x28B6 JUMPI DUP2 DUP5 MSTORE PUSH1 0x2 DUP4 MSTORE PUSH1 0xFF PUSH1 0x40 DUP6 KECCAK256 SLOAD AND ISZERO PUSH2 0x3D83 JUMPI PUSH32 0x0 AND DUP2 EQ PUSH2 0x3D3E JUMPI PUSH1 0x1 PUSH1 0x3 SLOAD GT ISZERO PUSH2 0x3CF9 JUMPI DUP1 DUP4 MSTORE PUSH1 0x2 DUP3 MSTORE PUSH1 0x40 DUP4 KECCAK256 DUP1 SLOAD PUSH1 0xFF NOT AND SWAP1 SSTORE PUSH1 0x3 SLOAD DUP1 ISZERO PUSH2 0x3CE5 JUMPI PUSH1 0x0 NOT ADD PUSH1 0x3 SSTORE PUSH1 0x40 MLOAD TIMESTAMP DUP2 MSTORE CALLER SWAP3 PUSH32 0xDEE304E7E1AFFE12C7A37539C214ABE72D3BE7FBC78070C4B889E5E57DE433A8 SWAP2 LOG3 DUP1 RETURN JUMPDEST PUSH4 0x4E487B71 PUSH1 0xE0 SHL DUP5 MSTORE PUSH1 0x11 PUSH1 0x4 MSTORE PUSH1 0x24 DUP5 REVERT JUMPDEST PUSH1 0x40 MLOAD PUSH3 0x461BCD PUSH1 0xE5 SHL DUP2 MSTORE PUSH1 0x4 DUP2 ADD DUP4 SWAP1 MSTORE PUSH1 0x1C PUSH1 0x24 DUP3 ADD MSTORE PUSH32 0x4D7573742068617665206174206C65617374206F6E652061646D696E00000000 PUSH1 0x44 DUP3 ADD MSTORE PUSH1 0x64 SWAP1 REVERT JUMPDEST PUSH1 0x40 MLOAD PUSH3 0x461BCD PUSH1 0xE5 SHL DUP2 MSTORE PUSH1 0x4 DUP2 ADD DUP4 SWAP1 MSTORE PUSH1 0x1B PUSH1 0x24 DUP3 ADD MSTORE PUSH32 0x43616E6E6F742072656D6F7665207072696D6172792061646D696E0000000000 PUSH1 0x44 DUP3 ADD MSTORE PUSH1 0x64 SWAP1 REVERT JUMPDEST PUSH1 0x40 MLOAD PUSH3 0x461BCD PUSH1 0xE5 SHL DUP2 MSTORE PUSH1 0x4 DUP2 ADD DUP5 SWAP1 MSTORE PUSH1 0xC PUSH1 0x24 DUP3 ADD MSTORE PUSH12 0x2737BA1030B71030B236B4B7 PUSH1 0xA1 SHL PUSH1 0x44 DUP3 ADD MSTORE PUSH1 0x64 SWAP1 REVERT JUMPDEST POP CALLER PUSH32 0x0 PUSH1 0x1 PUSH1 0x1 PUSH1 0xA0 SHL SUB AND EQ ISZERO PUSH2 0x3C37 JUMP JUMPDEST POP CALLVALUE PUSH2 0x576 JUMPI PUSH2 0x3DF9 CALLDATASIZE PUSH2 0x48D6 JUMP JUMPDEST SWAP2 SWAP1 DUP2 MSTORE PUSH1 0x10 PUSH1 0x20 MSTORE PUSH1 0x40 DUP2 KECCAK256 SWAP1 DUP2 SLOAD DUP4 LT ISZERO PUSH2 0x576 JUMPI PUSH1 0x20 PUSH2 0x3E1C DUP5 DUP5 PUSH2 0x48F1 JUMP JUMPDEST SWAP1 SLOAD PUSH1 0x40 MLOAD PUSH1 0x3 SWAP3 SWAP1 SWAP3 SHL SHR PUSH1 0x1 PUSH1 0x1 PUSH1 0xA0 SHL SUB AND DUP2 MSTORE RETURN JUMPDEST POP CALLVALUE PUSH2 0x576 JUMPI DUP1 PUSH1 0x3 NOT CALLDATASIZE ADD SLT PUSH2 0x576 JUMPI PUSH1 0x20 PUSH1 0x5 SLOAD PUSH1 0x40 MLOAD SWAP1 DUP2 MSTORE RETURN JUMPDEST POP CALLVALUE PUSH2 0x576 JUMPI PUSH1 0x20 SWAP1 DUP2 PUSH1 0x3 NOT CALLDATASIZE ADD SLT PUSH2 0x576 JUMPI PUSH1 0x4 CALLDATALOAD DUP1 ISZERO DUP1 ISZERO PUSH2 0x451C JUMPI JUMPDEST PUSH2 0x9D9 JUMPI CALLER DUP3 MSTORE PUSH1 0x2 DUP4 MSTORE PUSH1 0xFF PUSH1 0x40 DUP4 KECCAK256 SLOAD AND ISZERO DUP1 PUSH2 0x44E9 JUMPI JUMPDEST PUSH2 0x765 JUMPI PUSH2 0x3E9F PUSH1 0x2 DUP4 SLOAD EQ ISZERO PUSH2 0x4A22 JUMP JUMPDEST PUSH1 0x2 DUP3 SSTORE PUSH1 0x1 SWAP1 PUSH1 0xFF DUP3 SLOAD AND PUSH2 0x19A0 JUMPI DUP1 DUP4 MSTORE PUSH1 0x7 DUP5 MSTORE PUSH1 0x40 DUP4 KECCAK256 SWAP4 PUSH1 0x8 DUP6 ADD SWAP1 DUP2 SLOAD PUSH1 0xFF DUP2 PUSH1 0x40 SHR AND PUSH2 0x44D0 JUMPI PUSH1 0x6 DUP8 ADD SLOAD SWAP3 PUSH1 0x2 DUP9 ADD SWAP4 DUP5 SLOAD GT DUP1 ISZERO SWAP3 DUP2 PUSH1 0x7 DUP12 ADD SLOAD TIMESTAMP LT DUP2 PUSH2 0x44C8 JUMPI JUMPDEST POP PUSH2 0x44AF JUMPI PUSH1 0x1 PUSH1 0x40 SHL PUSH9 0xFF0000000000000000 NOT DUP3 AND OR DUP4 SSTORE PUSH1 0x4 DUP11 ADD SLOAD SWAP2 PUSH2 0x3F1D PUSH1 0x5 DUP13 ADD SLOAD DUP1 DUP6 GT SWAP5 PUSH2 0x4A6E JUMP JUMPDEST ISZERO ISZERO SWAP3 DUP6 SWAP2 PUSH2 0x449A JUMPI JUMPDEST POP ISZERO PUSH2 0x4208 JUMPI POP POP DUP1 SLOAD PUSH10 0xFF000000000000000000 NOT AND PUSH10 0x1000000000000000000 OR SWAP1 SSTORE PUSH1 0x40 MLOAD PUSH4 0x70A08231 PUSH1 0xE0 SHL DUP2 MSTORE ADDRESS PUSH1 0x4 DUP3 ADD MSTORE PUSH32 0x0 SWAP8 PUSH1 0x1 PUSH1 0x1 PUSH1 0xA0 SHL SUB SWAP2 DUP5 DUP2 PUSH1 0x24 DUP2 DUP7 DUP15 AND GAS STATICCALL SWAP1 DUP2 ISZERO PUSH2 0x283E JUMPI DUP10 SWAP2 PUSH2 0x41DB JUMPI JUMPDEST POP DUP6 SLOAD GT PUSH2 0x418B JUMPI SWAP7 PUSH2 0x4089 DUP2 SWAP10 DUP8 PUSH1 0x3 DUP11 SWAP12 DUP9 DUP11 DUP9 DUP15 PUSH32 0xAA8C17C2592E9BD58842FC20E64BC1E041ADB179C5CED209D37D0AE18CC4A3CF SWAP15 SWAP16 PUSH1 0x40 SWAP1 PUSH2 0x3FEA PUSH1 0xB SLOAD PUSH2 0x4A9E JUMP JUMPDEST SWAP7 DUP8 PUSH1 0xB SSTORE ADD SWAP11 PUSH1 0xA DUP5 DUP14 SLOAD AND SWAP6 SLOAD SWAP7 DUP4 MLOAD SWAP11 PUSH2 0x4006 DUP13 PUSH2 0x4745 JUMP JUMPDEST DUP12 MSTORE DUP1 DUP12 ADD SWAP7 DUP8 MSTORE DUP4 DUP12 ADD SWAP8 DUP9 MSTORE TIMESTAMP PUSH1 0x60 DUP13 ADD SWAP1 DUP2 MSTORE SWAP9 DUP4 MSTORE MSTORE KECCAK256 SWAP7 MLOAD DUP8 SSTORE SWAP2 MLOAD SWAP2 DUP7 ADD DUP1 SLOAD SWAP2 SWAP1 SWAP3 AND PUSH1 0x1 PUSH1 0x1 PUSH1 0xA0 SHL SUB NOT SWAP1 SWAP2 AND OR SWAP1 SSTORE MLOAD PUSH1 0x2 DUP5 ADD SSTORE MLOAD SWAP2 ADD SSTORE DUP3 SLOAD DUP8 SLOAD PUSH1 0x40 MLOAD PUSH4 0xA9059CBB PUSH1 0xE0 SHL DUP10 DUP3 ADD MSTORE SWAP2 DUP7 AND PUSH1 0x1 PUSH1 0x1 PUSH1 0xA0 SHL SUB AND PUSH1 0x24 DUP4 ADD MSTORE PUSH1 0x44 DUP1 DUP4 ADD SWAP2 SWAP1 SWAP2 MSTORE DUP2 MSTORE SWAP1 PUSH2 0x4084 PUSH1 0x64 DUP4 PUSH2 0x47C7 JUMP JUMPDEST PUSH2 0x4B8A JUMP JUMPDEST SLOAD AND SWAP3 SLOAD SWAP3 PUSH32 0xFBC3A599B784FE88772FC5ABCC07223F64CA0B13ACC341F4FB1E46BEF0510EB4 PUSH1 0x40 DUP1 MLOAD DUP7 DUP2 MSTORE TIMESTAMP DUP7 DUP3 ADD MSTORE LOG2 ISZERO PUSH2 0x4134 JUMPI PUSH2 0x412C PUSH1 0x40 MLOAD PUSH2 0x40D0 DUP2 PUSH2 0x4791 JUMP JUMPDEST PUSH1 0x26 DUP2 MSTORE PUSH32 0x50726F706F73616C207061737365643A2046756E64696E6720676F616C206163 DUP4 DUP3 ADD MSTORE PUSH6 0x1A1A595D9959 PUSH1 0xD2 SHL PUSH1 0x40 DUP3 ADD MSTORE JUMPDEST PUSH1 0x40 MLOAD SWAP4 DUP5 SWAP4 DUP9 DUP6 MSTORE DUP5 ADD MSTORE TIMESTAMP PUSH1 0x40 DUP5 ADD MSTORE PUSH1 0x80 PUSH1 0x60 DUP5 ADD MSTORE PUSH1 0x80 DUP4 ADD SWAP1 PUSH2 0x48B1 JUMP JUMPDEST SUB SWAP1 LOG2 DUP2 SSTORE DUP1 RETURN JUMPDEST PUSH2 0x412C PUSH1 0x40 MLOAD PUSH2 0x4143 DUP2 PUSH2 0x4791 JUMP JUMPDEST PUSH1 0x31 DUP2 MSTORE PUSH32 0x50726F706F73616C207061737365643A20466F7220766F746573206578636565 DUP4 DUP3 ADD MSTORE PUSH17 0x64656420616761696E737420766F746573 PUSH1 0x78 SHL PUSH1 0x40 DUP3 ADD MSTORE PUSH2 0x4109 JUMP JUMPDEST PUSH1 0x40 MLOAD PUSH3 0x461BCD PUSH1 0xE5 SHL DUP2 MSTORE PUSH1 0x4 DUP2 ADD DUP6 SWAP1 MSTORE PUSH1 0x22 PUSH1 0x24 DUP3 ADD MSTORE PUSH32 0x496E73756666696369656E742044414F2066756E647320666F722066756E6469 PUSH1 0x44 DUP3 ADD MSTORE PUSH2 0x6E67 PUSH1 0xF0 SHL PUSH1 0x64 DUP3 ADD MSTORE PUSH1 0x84 SWAP1 REVERT JUMPDEST SWAP1 POP DUP5 DUP2 DUP2 RETURNDATASIZE DUP4 GT PUSH2 0x4201 JUMPI JUMPDEST PUSH2 0x41F2 DUP2 DUP4 PUSH2 0x47C7 JUMP JUMPDEST DUP2 ADD SUB SLT PUSH2 0x2833 JUMPI MLOAD CODESIZE PUSH2 0x3FA2 JUMP JUMPDEST POP RETURNDATASIZE PUSH2 0x41E8 JUMP JUMPDEST DUP9 SWAP10 SWAP4 POP PUSH11 0x100010000000000000000 SWAP2 SWAP9 SWAP6 POP PUSH11 0xFF00FF0000000000000000 NOT AND OR SWAP1 SSTORE DUP4 DUP4 MSTORE PUSH1 0x7 DUP3 MSTORE DUP5 PUSH1 0x40 DUP5 KECCAK256 PUSH1 0x10 DUP5 MSTORE PUSH1 0x40 DUP6 KECCAK256 SWAP1 PUSH1 0x40 MLOAD SWAP2 DUP3 DUP7 DUP3 SLOAD SWAP2 DUP3 DUP2 MSTORE ADD SWAP2 DUP9 MSTORE DUP7 DUP9 KECCAK256 SWAP1 DUP9 JUMPDEST DUP2 DUP2 LT PUSH2 0x447A JUMPI POP POP POP DUP3 PUSH2 0x426E SWAP2 SUB DUP4 PUSH2 0x47C7 JUMP JUMPDEST PUSH1 0xE DUP7 SWAP2 ADD SWAP3 JUMPDEST PUSH2 0x43DB JUMPI JUMPDEST POP POP POP PUSH2 0x412C SWAP1 PUSH32 0xAA8C17C2592E9BD58842FC20E64BC1E041ADB179C5CED209D37D0AE18CC4A3CF SWAP5 SWAP6 SWAP7 PUSH1 0x0 EQ PUSH2 0x43AC JUMPI PUSH1 0x40 MLOAD PUSH2 0x42B8 DUP2 PUSH2 0x4791 JUMP JUMPDEST PUSH1 0x2B DUP2 MSTORE PUSH32 0x416761696E737420766F746573206578636565646564206F7220657175616C65 DUP5 DUP3 ADD MSTORE PUSH11 0x6420666F7220766F746573 PUSH1 0xA8 SHL PUSH1 0x40 DUP3 ADD MSTORE SWAP1 JUMPDEST DUP8 PUSH1 0x1 DUP1 PUSH1 0xA0 SHL SUB SWAP2 ADD SLOAD AND DUP7 PUSH32 0xBC8A9D0BA3F4DCA083B7608D4A9FA1B7F9C9A0381F048804054AF16296EEC1D7 PUSH1 0x40 MLOAD TIMESTAMP DUP2 MSTORE PUSH1 0x40 DUP8 DUP3 ADD MSTORE DUP1 PUSH2 0x433F PUSH1 0x40 DUP3 ADD DUP8 PUSH2 0x48B1 JUMP JUMPDEST SUB SWAP1 LOG3 PUSH2 0x4389 PUSH1 0x33 PUSH1 0x40 MLOAD DUP1 SWAP4 PUSH19 0x283937B837B9B0B6103932B532B1BA32B21D1 PUSH1 0x6D SHL DUP8 DUP4 ADD MSTORE PUSH2 0x4379 DUP2 MLOAD DUP1 SWAP3 DUP10 DUP7 DUP7 ADD SWAP2 ADD PUSH2 0x488E JUMP JUMPDEST DUP2 ADD SUB PUSH1 0x13 DUP2 ADD DUP5 MSTORE ADD DUP3 PUSH2 0x47C7 JUMP JUMPDEST PUSH1 0x40 MLOAD SWAP4 DUP5 SWAP4 DUP2 DUP6 MSTORE DUP5 ADD MSTORE TIMESTAMP PUSH1 0x40 DUP5 ADD MSTORE PUSH1 0x80 PUSH1 0x60 DUP5 ADD MSTORE PUSH1 0x80 DUP4 ADD SWAP1 PUSH2 0x48B1 JUMP JUMPDEST PUSH1 0x40 MLOAD PUSH2 0x43B8 DUP2 PUSH2 0x4776 JUMP JUMPDEST PUSH1 0x11 DUP2 MSTORE PUSH17 0x139BC81D9BDD195CC81C9958D95A5D9959 PUSH1 0x7A SHL DUP5 DUP3 ADD MSTORE SWAP1 PUSH2 0x42F7 JUMP JUMPDEST DUP2 MLOAD DUP2 LT ISZERO PUSH2 0x4475 JUMPI DUP8 SWAP3 SWAP2 SWAP1 PUSH2 0x441E SWAP1 PUSH1 0x1 PUSH1 0x1 PUSH1 0xA0 SHL SUB PUSH2 0x43FE DUP3 DUP6 PUSH2 0x4AD5 JUMP JUMPDEST MLOAD AND DUP1 DUP10 MSTORE DUP5 DUP9 MSTORE DUP10 DUP10 PUSH1 0x40 DUP2 KECCAK256 DUP1 SLOAD DUP1 PUSH2 0x4426 JUMPI JUMPDEST POP POP POP POP POP PUSH2 0x4A9E JUMP JUMPDEST SWAP1 SWAP2 SWAP3 PUSH2 0x4275 JUMP JUMPDEST PUSH32 0x365CA7C850BEA522B7A0D5F1AA9AC24E37B725BC7C463FC1AECF3BD1DFAA4D10 SWAP3 PUSH1 0x40 SWAP3 SSTORE PUSH1 0x12 DUP13 MSTORE DUP2 DUP14 KECCAK256 PUSH2 0x445E DUP3 DUP3 SLOAD PUSH2 0x4A6E JUMP JUMPDEST SWAP1 SSTORE DUP2 MLOAD SWAP1 DUP2 MSTORE TIMESTAMP DUP13 DUP3 ADD MSTORE LOG3 CODESIZE DUP10 DUP10 DUP3 DUP1 PUSH2 0x4414 JUMP JUMPDEST PUSH2 0x427A JUMP JUMPDEST DUP3 SLOAD PUSH1 0x1 PUSH1 0x1 PUSH1 0xA0 SHL SUB AND DUP5 MSTORE DUP14 SWAP10 POP DUP12 SWAP7 SWAP4 DUP10 ADD SWAP4 SWAP3 DUP4 ADD SWAP3 ADD PUSH2 0x4258 JUMP JUMPDEST SWAP1 POP DUP1 PUSH2 0x44A8 JUMPI JUMPDEST CODESIZE PUSH2 0x3F27 JUMP JUMPDEST POP DUP2 PUSH2 0x44A2 JUMP JUMPDEST PUSH1 0x40 MLOAD PUSH4 0x28675FF PUSH1 0xE0 SHL DUP2 MSTORE PUSH1 0x4 DUP2 ADD DUP9 SWAP1 MSTORE PUSH1 0x24 SWAP1 REVERT JUMPDEST SWAP1 POP CODESIZE PUSH2 0x3EEC JUMP JUMPDEST PUSH1 0x40 MLOAD PUSH4 0x27764073 PUSH1 0xE1 SHL DUP2 MSTORE PUSH1 0x4 DUP2 ADD DUP6 SWAP1 MSTORE PUSH1 0x24 SWAP1 REVERT JUMPDEST POP CALLER PUSH32 0x0 PUSH1 0x1 PUSH1 0x1 PUSH1 0xA0 SHL SUB AND EQ ISZERO PUSH2 0x3E8D JUMP JUMPDEST POP PUSH1 0x8 SLOAD DUP2 GT PUSH2 0x3E73 JUMP JUMPDEST POP CALLVALUE PUSH2 0x576 JUMPI PUSH1 0x20 SWAP1 DUP2 PUSH1 0x3 NOT CALLDATASIZE ADD SLT PUSH2 0x576 JUMPI PUSH1 0x40 MLOAD PUSH4 0x6EB1769F PUSH1 0xE1 SHL DUP2 MSTORE CALLER PUSH1 0x4 DUP3 ADD MSTORE ADDRESS PUSH1 0x24 DUP3 ADD MSTORE PUSH1 0x1 PUSH1 0x1 PUSH1 0xA0 SHL SUB PUSH32 0x0 AND SWAP1 DUP4 DUP2 PUSH1 0x44 DUP2 DUP6 GAS STATICCALL SWAP1 DUP2 ISZERO PUSH2 0x186D JUMPI SWAP2 DUP5 SWAP2 DUP5 SWAP4 DUP5 SWAP2 PUSH2 0x45AC JUMPI JUMPDEST POP SWAP1 PUSH2 0x38DD PUSH2 0x3907 SWAP3 PUSH1 0x4 CALLDATALOAD SWAP1 PUSH2 0x4A6E JUMP JUMPDEST SWAP3 DUP1 SWAP3 SWAP5 POP DUP4 SWAP2 POP RETURNDATASIZE DUP4 GT PUSH2 0x45DB JUMPI JUMPDEST PUSH2 0x45C6 DUP2 DUP4 PUSH2 0x47C7 JUMP JUMPDEST DUP2 ADD SUB SLT PUSH2 0x1861 JUMPI MLOAD DUP3 SWAP2 DUP5 SWAP2 PUSH2 0x38DD PUSH2 0x459A JUMP JUMPDEST POP RETURNDATASIZE PUSH2 0x45BC JUMP JUMPDEST POP CALLVALUE PUSH2 0x576 JUMPI PUSH1 0x20 CALLDATASIZE PUSH1 0x3 NOT ADD SLT PUSH2 0x576 JUMPI PUSH1 0x4 CALLDATALOAD DUP2 MSTORE PUSH1 0x7 PUSH1 0x20 MSTORE PUSH1 0x40 SWAP1 KECCAK256 DUP1 SLOAD PUSH1 0x1 PUSH1 0xA0 SHL PUSH1 0x1 SWAP1 SUB PUSH1 0x1 DUP4 ADD SLOAD AND SWAP2 PUSH1 0x2 DUP2 ADD SLOAD SWAP1 PUSH1 0x3 DUP2 ADD SLOAD PUSH1 0x4 DUP3 ADD SLOAD PUSH1 0x5 DUP4 ADD SLOAD PUSH1 0x6 DUP5 ADD SLOAD PUSH1 0x7 DUP6 ADD SLOAD SWAP2 PUSH1 0x8 DUP7 ADD SLOAD SWAP4 PUSH1 0x9 DUP8 ADD PUSH2 0x4647 SWAP1 PUSH2 0x47E8 JUMP JUMPDEST SWAP6 PUSH2 0x4654 PUSH1 0xA DUP10 ADD PUSH2 0x47E8 JUMP JUMPDEST SWAP8 PUSH1 0xB ADD PUSH2 0x4661 SWAP1 PUSH2 0x47E8 JUMP JUMPDEST SWAP9 PUSH1 0x40 MLOAD SWAP12 DUP13 SWAP12 DUP13 MSTORE PUSH1 0x20 DUP13 ADD MSTORE PUSH1 0x40 DUP12 ADD MSTORE PUSH1 0x60 DUP11 ADD MSTORE PUSH1 0x80 DUP10 ADD MSTORE PUSH1 0xA0 DUP9 ADD MSTORE PUSH1 0xC0 DUP8 ADD MSTORE PUSH1 0xE0 DUP7 ADD MSTORE PUSH4 0xFFFFFFFF DUP1 DUP3 AND PUSH2 0x100 DUP8 ADD MSTORE DUP2 PUSH1 0x20 SHR AND PUSH2 0x120 DUP7 ADD MSTORE DUP1 PUSH1 0x40 SHR PUSH1 0xFF AND ISZERO ISZERO PUSH2 0x140 DUP7 ADD MSTORE DUP1 PUSH1 0x48 SHR PUSH1 0xFF AND ISZERO ISZERO PUSH2 0x160 DUP7 ADD MSTORE PUSH1 0x50 SHR PUSH1 0xFF AND ISZERO ISZERO PUSH2 0x180 DUP6 ADD MSTORE PUSH2 0x200 DUP1 PUSH2 0x1A0 DUP7 ADD MSTORE DUP5 ADD PUSH2 0x46E7 SWAP2 PUSH2 0x48B1 JUMP JUMPDEST DUP4 DUP2 SUB PUSH2 0x1C0 DUP6 ADD MSTORE PUSH2 0x46F9 SWAP2 PUSH2 0x48B1 JUMP JUMPDEST DUP3 DUP2 SUB PUSH2 0x1E0 DUP5 ADD MSTORE PUSH2 0x8F4 SWAP2 PUSH2 0x48B1 JUMP JUMPDEST SWAP1 PUSH1 0x1 DUP3 DUP2 SHR SWAP3 AND DUP1 ISZERO PUSH2 0x473B JUMPI JUMPDEST PUSH1 0x20 DUP4 LT EQ PUSH2 0x4725 JUMPI JUMP JUMPDEST PUSH4 0x4E487B71 PUSH1 0xE0 SHL PUSH1 0x0 MSTORE PUSH1 0x22 PUSH1 0x4 MSTORE PUSH1 0x24 PUSH1 0x0 REVERT JUMPDEST SWAP2 PUSH1 0x7F AND SWAP2 PUSH2 0x471A JUMP JUMPDEST PUSH1 0x80 DUP2 ADD SWAP1 DUP2 LT PUSH1 0x1 PUSH1 0x1 PUSH1 0x40 SHL SUB DUP3 GT OR PUSH2 0x4760 JUMPI PUSH1 0x40 MSTORE JUMP JUMPDEST PUSH4 0x4E487B71 PUSH1 0xE0 SHL PUSH1 0x0 MSTORE PUSH1 0x41 PUSH1 0x4 MSTORE PUSH1 0x24 PUSH1 0x0 REVERT JUMPDEST PUSH1 0x40 DUP2 ADD SWAP1 DUP2 LT PUSH1 0x1 PUSH1 0x1 PUSH1 0x40 SHL SUB DUP3 GT OR PUSH2 0x4760 JUMPI PUSH1 0x40 MSTORE JUMP JUMPDEST PUSH1 0x60 DUP2 ADD SWAP1 DUP2 LT PUSH1 0x1 PUSH1 0x1 PUSH1 0x40 SHL SUB DUP3 GT OR PUSH2 0x4760 JUMPI PUSH1 0x40 MSTORE JUMP JUMPDEST PUSH1 0xA0 DUP2 ADD SWAP1 DUP2 LT PUSH1 0x1 PUSH1 0x1 PUSH1 0x40 SHL SUB DUP3 GT OR PUSH2 0x4760 JUMPI PUSH1 0x40 MSTORE JUMP JUMPDEST SWAP1 PUSH1 0x1F DUP1 NOT SWAP2 ADD AND DUP2 ADD SWAP1 DUP2 LT PUSH1 0x1 PUSH1 0x1 PUSH1 0x40 SHL SUB DUP3 GT OR PUSH2 0x4760 JUMPI PUSH1 0x40 MSTORE JUMP JUMPDEST SWAP1 PUSH1 0x40 MLOAD SWAP2 DUP3 PUSH1 0x0 DUP3 SLOAD SWAP3 PUSH2 0x47FC DUP5 PUSH2 0x470B JUMP JUMPDEST SWAP1 DUP2 DUP5 MSTORE PUSH1 0x1 SWAP5 DUP6 DUP2 AND SWAP1 DUP2 PUSH1 0x0 EQ PUSH2 0x486B JUMPI POP PUSH1 0x1 EQ PUSH2 0x4828 JUMPI JUMPDEST POP POP PUSH2 0x4826 SWAP3 POP SUB DUP4 PUSH2 0x47C7 JUMP JUMPDEST JUMP JUMPDEST SWAP1 SWAP4 SWAP2 POP PUSH1 0x0 MSTORE PUSH1 0x20 SWAP1 DUP2 PUSH1 0x0 KECCAK256 SWAP4 PUSH1 0x0 SWAP2 JUMPDEST DUP2 DUP4 LT PUSH2 0x4853 JUMPI POP POP PUSH2 0x4826 SWAP4 POP DUP3 ADD ADD CODESIZE DUP1 PUSH2 0x4818 JUMP JUMPDEST DUP6 SLOAD DUP9 DUP5 ADD DUP6 ADD MSTORE SWAP5 DUP6 ADD SWAP5 DUP8 SWAP5 POP SWAP2 DUP4 ADD SWAP2 PUSH2 0x483B JUMP JUMPDEST SWAP2 POP POP PUSH2 0x4826 SWAP5 POP PUSH1 0x20 SWAP3 POP PUSH1 0xFF NOT AND DUP3 DUP5 ADD MSTORE ISZERO ISZERO PUSH1 0x5 SHL DUP3 ADD ADD CODESIZE DUP1 PUSH2 0x4818 JUMP JUMPDEST PUSH1 0x0 JUMPDEST DUP4 DUP2 LT PUSH2 0x48A1 JUMPI POP POP PUSH1 0x0 SWAP2 ADD MSTORE JUMP JUMPDEST DUP2 DUP2 ADD MLOAD DUP4 DUP3 ADD MSTORE PUSH1 0x20 ADD PUSH2 0x4891 JUMP JUMPDEST SWAP1 PUSH1 0x20 SWAP2 PUSH2 0x48CA DUP2 MLOAD DUP1 SWAP3 DUP2 DUP6 MSTORE DUP6 DUP1 DUP7 ADD SWAP2 ADD PUSH2 0x488E JUMP JUMPDEST PUSH1 0x1F ADD PUSH1 0x1F NOT AND ADD ADD SWAP1 JUMP JUMPDEST PUSH1 0x40 SWAP1 PUSH1 0x3 NOT ADD SLT PUSH2 0x48EC JUMPI PUSH1 0x4 CALLDATALOAD SWAP1 PUSH1 0x24 CALLDATALOAD SWAP1 JUMP JUMPDEST PUSH1 0x0 DUP1 REVERT JUMPDEST DUP1 SLOAD DUP3 LT ISZERO PUSH2 0x4909 JUMPI PUSH1 0x0 MSTORE PUSH1 0x20 PUSH1 0x0 KECCAK256 ADD SWAP1 PUSH1 0x0 SWAP1 JUMP JUMPDEST PUSH4 0x4E487B71 PUSH1 0xE0 SHL PUSH1 0x0 MSTORE PUSH1 0x32 PUSH1 0x4 MSTORE PUSH1 0x24 PUSH1 0x0 REVERT JUMPDEST PUSH1 0x4 CALLDATALOAD SWAP1 PUSH1 0x1 PUSH1 0x1 PUSH1 0xA0 SHL SUB DUP3 AND DUP3 SUB PUSH2 0x48EC JUMPI JUMP JUMPDEST PUSH1 0x24 CALLDATALOAD SWAP1 PUSH1 0x1 PUSH1 0x1 PUSH1 0xA0 SHL SUB DUP3 AND DUP3 SUB PUSH2 0x48EC JUMPI JUMP JUMPDEST CALLVALUE PUSH2 0x48EC JUMPI PUSH1 0x0 CALLDATASIZE PUSH1 0x3 NOT ADD SLT PUSH2 0x48EC JUMPI PUSH1 0x20 PUSH1 0x40 MLOAD PUSH9 0x56BC75E2D63100000 DUP2 MSTORE RETURN JUMPDEST SWAP2 DUP2 PUSH1 0x1F DUP5 ADD SLT ISZERO PUSH2 0x48EC JUMPI DUP3 CALLDATALOAD SWAP2 PUSH1 0x1 PUSH1 0x1 PUSH1 0x40 SHL SUB DUP4 GT PUSH2 0x48EC JUMPI PUSH1 0x20 DUP4 DUP2 DUP7 ADD SWAP6 ADD ADD GT PUSH2 0x48EC JUMPI JUMP JUMPDEST SWAP1 DUP2 MLOAD DUP1 DUP3 MSTORE PUSH1 0x20 DUP1 DUP1 SWAP4 ADD SWAP4 ADD SWAP2 PUSH1 0x0 JUMPDEST DUP3 DUP2 LT PUSH2 0x49BC JUMPI POP POP POP POP SWAP1 JUMP JUMPDEST DUP4 MLOAD DUP6 MSTORE SWAP4 DUP2 ADD SWAP4 SWAP3 DUP2 ADD SWAP3 PUSH1 0x1 ADD PUSH2 0x49AE JUMP JUMPDEST DUP1 SLOAD DUP3 LT ISZERO PUSH2 0x4909 JUMPI PUSH1 0x0 MSTORE PUSH1 0x20 PUSH1 0x0 KECCAK256 SWAP1 PUSH1 0x2 SHL ADD SWAP1 PUSH1 0x0 SWAP1 JUMP JUMPDEST SWAP1 DUP2 MLOAD DUP1 DUP3 MSTORE PUSH1 0x20 DUP1 DUP1 SWAP4 ADD SWAP4 ADD SWAP2 PUSH1 0x0 JUMPDEST DUP3 DUP2 LT PUSH2 0x4A0C JUMPI POP POP POP POP SWAP1 JUMP JUMPDEST DUP4 MLOAD ISZERO ISZERO DUP6 MSTORE SWAP4 DUP2 ADD SWAP4 SWAP3 DUP2 ADD SWAP3 PUSH1 0x1 ADD PUSH2 0x49FE JUMP JUMPDEST ISZERO PUSH2 0x4A29 JUMPI JUMP JUMPDEST PUSH1 0x40 MLOAD PUSH3 0x461BCD PUSH1 0xE5 SHL DUP2 MSTORE PUSH1 0x20 PUSH1 0x4 DUP3 ADD MSTORE PUSH1 0x1F PUSH1 0x24 DUP3 ADD MSTORE PUSH32 0x5265656E7472616E637947756172643A207265656E7472616E742063616C6C00 PUSH1 0x44 DUP3 ADD MSTORE PUSH1 0x64 SWAP1 REVERT JUMPDEST SWAP2 SWAP1 DUP3 ADD DUP1 SWAP3 GT PUSH2 0x4A7B JUMPI JUMP JUMPDEST PUSH4 0x4E487B71 PUSH1 0xE0 SHL PUSH1 0x0 MSTORE PUSH1 0x11 PUSH1 0x4 MSTORE PUSH1 0x24 PUSH1 0x0 REVERT JUMPDEST SWAP2 SWAP1 DUP3 SUB SWAP2 DUP3 GT PUSH2 0x4A7B JUMPI JUMP JUMPDEST PUSH1 0x0 NOT DUP2 EQ PUSH2 0x4A7B JUMPI PUSH1 0x1 ADD SWAP1 JUMP JUMPDEST PUSH4 0xFFFFFFFF DUP1 SWAP2 AND SWAP1 DUP2 EQ PUSH2 0x4A7B JUMPI PUSH1 0x1 ADD SWAP1 JUMP JUMPDEST PUSH4 0xFFFFFFFF AND DUP1 ISZERO PUSH2 0x4A7B JUMPI PUSH1 0x0 NOT ADD SWAP1 JUMP JUMPDEST DUP1 MLOAD DUP3 LT ISZERO PUSH2 0x4909 JUMPI PUSH1 0x20 SWAP2 PUSH1 0x5 SHL ADD ADD SWAP1 JUMP JUMPDEST SWAP1 DUP2 PUSH1 0x20 SWAP2 SUB SLT PUSH2 0x48EC JUMPI MLOAD DUP1 ISZERO ISZERO DUP2 SUB PUSH2 0x48EC JUMPI SWAP1 JUMP JUMPDEST PUSH1 0x1 PUSH1 0x1 PUSH1 0x40 SHL SUB DUP2 GT PUSH2 0x4760 JUMPI PUSH1 0x5 SHL PUSH1 0x20 ADD SWAP1 JUMP JUMPDEST SWAP1 PUSH2 0x4B22 DUP3 PUSH2 0x4B01 JUMP JUMPDEST PUSH2 0x4B2F PUSH1 0x40 MLOAD SWAP2 DUP3 PUSH2 0x47C7 JUMP JUMPDEST DUP3 DUP2 MSTORE DUP1 SWAP3 PUSH2 0x4B40 PUSH1 0x1F NOT SWAP2 PUSH2 0x4B01 JUMP JUMPDEST ADD SWAP1 PUSH1 0x20 CALLDATASIZE SWAP2 ADD CALLDATACOPY JUMP JUMPDEST PUSH1 0x1 PUSH1 0x1 PUSH1 0xA0 SHL SUB AND PUSH1 0x0 SWAP1 DUP2 MSTORE PUSH1 0x13 PUSH1 0x20 MSTORE PUSH1 0x40 SWAP1 KECCAK256 SLOAD PUSH2 0xE10 DUP2 ADD SWAP1 DUP2 LT PUSH2 0x4A7B JUMPI DUP1 TIMESTAMP LT ISZERO PUSH2 0x4B84 JUMPI PUSH2 0x4B81 SWAP1 TIMESTAMP SWAP1 PUSH2 0x4A91 JUMP JUMPDEST SWAP1 JUMP JUMPDEST POP PUSH1 0x0 SWAP1 JUMP JUMPDEST PUSH1 0x40 MLOAD SWAP2 SWAP3 SWAP2 PUSH1 0x1 PUSH1 0x1 PUSH1 0xA0 SHL SUB SWAP1 SWAP2 AND SWAP1 PUSH2 0x4BA5 DUP2 PUSH2 0x4776 JUMP JUMPDEST PUSH1 0x20 SWAP2 DUP3 DUP3 MSTORE PUSH32 0x5361666545524332303A206C6F772D6C6576656C2063616C6C206661696C6564 DUP4 DUP4 ADD MSTORE DUP1 EXTCODESIZE ISZERO PUSH2 0x4CD4 JUMPI PUSH1 0x0 DUP6 DUP2 SWAP7 SWAP3 DUP3 DUP7 DUP2 SWAP6 MLOAD SWAP4 ADD SWAP2 GAS CALL SWAP4 RETURNDATASIZE ISZERO PUSH2 0x4CC5 JUMPI RETURNDATASIZE SWAP5 PUSH1 0x1 PUSH1 0x1 PUSH1 0x40 SHL SUB DUP7 GT PUSH2 0x4CB1 JUMPI PUSH2 0x4C29 SWAP4 SWAP5 SWAP6 PUSH1 0x40 MLOAD SWAP1 PUSH2 0x4C1B DUP8 PUSH1 0x1F NOT PUSH1 0x1F DUP5 ADD AND ADD DUP4 PUSH2 0x47C7 JUMP JUMPDEST DUP2 MSTORE DUP1 SWAP3 DUP7 RETURNDATASIZE SWAP3 ADD RETURNDATACOPY PUSH2 0x4D19 JUMP JUMPDEST DUP1 MLOAD SWAP1 DUP3 DUP3 ISZERO SWAP3 DUP4 ISZERO PUSH2 0x4C99 JUMPI JUMPDEST POP POP POP ISZERO PUSH2 0x4C42 JUMPI POP JUMP JUMPDEST PUSH1 0x84 SWAP1 PUSH1 0x40 MLOAD SWAP1 PUSH3 0x461BCD PUSH1 0xE5 SHL DUP3 MSTORE PUSH1 0x4 DUP3 ADD MSTORE PUSH1 0x2A PUSH1 0x24 DUP3 ADD MSTORE PUSH32 0x5361666545524332303A204552433230206F7065726174696F6E20646964206E PUSH1 0x44 DUP3 ADD MSTORE PUSH10 0x1BDD081CDD58D8D95959 PUSH1 0xB2 SHL PUSH1 0x64 DUP3 ADD MSTORE REVERT JUMPDEST PUSH2 0x4CA9 SWAP4 POP DUP3 ADD DUP2 ADD SWAP2 ADD PUSH2 0x4AE9 JUMP JUMPDEST CODESIZE DUP3 DUP2 PUSH2 0x4C37 JUMP JUMPDEST PUSH4 0x4E487B71 PUSH1 0xE0 SHL DUP3 MSTORE PUSH1 0x41 PUSH1 0x4 MSTORE PUSH1 0x24 DUP3 REVERT JUMPDEST POP PUSH2 0x4C29 SWAP2 SWAP3 SWAP4 PUSH1 0x60 SWAP1 PUSH2 0x4D19 JUMP JUMPDEST PUSH1 0x40 MLOAD PUSH3 0x461BCD PUSH1 0xE5 SHL DUP2 MSTORE PUSH1 0x4 DUP2 ADD DUP5 SWAP1 MSTORE PUSH1 0x1D PUSH1 0x24 DUP3 ADD MSTORE PUSH32 0x416464726573733A2063616C6C20746F206E6F6E2D636F6E7472616374000000 PUSH1 0x44 DUP3 ADD MSTORE PUSH1 0x64 SWAP1 REVERT JUMPDEST SWAP1 SWAP2 SWAP1 ISZERO PUSH2 0x4D25 JUMPI POP SWAP1 JUMP JUMPDEST DUP2 MLOAD ISZERO PUSH2 0x4D35 JUMPI POP DUP1 MLOAD SWAP1 PUSH1 0x20 ADD REVERT JUMPDEST PUSH1 0x40 MLOAD PUSH3 0x461BCD PUSH1 0xE5 SHL DUP2 MSTORE PUSH1 0x20 PUSH1 0x4 DUP3 ADD MSTORE SWAP1 DUP2 SWAP1 PUSH2 0x4D59 SWAP1 PUSH1 0x24 DUP4 ADD SWAP1 PUSH2 0x48B1 JUMP JUMPDEST SUB SWAP1 REVERT INVALID LOG2 PUSH5 0x6970667358 0x22 SLT KECCAK256 DUP6 SWAP4 0x29 0xED 0x4C 0x4D PUSH27 0x799153EE6B169174C00E87483503E9D4005E65DFB9CC68189A6473 PUSH16 0x6C634300081400330000000000000000 "},"methodIdentifiers":{"MAX_EMERGENCY_WITHDRAW_PERCENT()":"3469219c","MAX_FUNDING_GOAL()":"add79064","MAX_VOTING_DURATION()":"eefe85e4","MIN_FUNDING_GOAL()":"36d95f56","MIN_QUORUM_PERCENT()":"348acaec","MIN_TOKENS_FOR_PROPOSAL()":"cef163c2","MIN_VOTING_DURATION()":"eaf1061c","PROPOSAL_COOLDOWN()":"467f67f9","PROPOSAL_CREATION_FEE()":"9d097b33","TOTAL_TOKENS_REQUIRED()":"4598985e","addAdmin(address)":"70480275","admin()":"f851a440","adminCount()":"2b7832b3","admins(address)":"429b62e5","allProposalIds(uint256)":"c97bfe6b","approveDAO(uint256)":"e7458310","checkAllowanceSufficiency(address,uint256)":"cf9be734","checkProposalRequirements(address)":"e2f9e99c","claimRefund(uint256)":"5b7baf64","createProposal(string,string,string,uint256)":"4c15676b","decreaseDAOAllowance(uint256)":"1e5dca96","emergencyWithdraw(uint256,address,string)":"7cd22238","executeProposal(uint256)":"0d61b519","extendProposalVotingTime(uint256,uint256)":"ffafdde1","fundingHistory(uint256)":"9fe8b3ba","fundingRecordCount()":"e078d687","getAllProposalIds()":"efa90d36","getDAOAllowance(address)":"c5d7b649","getDAOStats()":"ffc4bfde","getInvestorCount(uint256)":"da5467a5","getInvestorDetails(uint256)":"f9ef0687","getProposal(uint256)":"c7f758a8","getProposalCountByUser(address)":"7325120e","getProposalsIDByProposer(address)":"7e31d46e","getProposalsIdByInvestor(address)":"d2dd506f","getTimeUntilNextProposal(address)":"bfa4af4c","getTotalCreationFeesPaid(address)":"93e2c0a6","getTotalProposals()":"1a5007dd","getUserInvestment(uint256,address)":"f7063e8b","governanceToken()":"f96dae0a","increaseDAOAllowance(uint256)":"0bfcc57b","lastProposalTime(address)":"5b7ad578","maxProposalsPerUser()":"88f8eb0c","minInvestmentAmount()":"4d298a07","pause()":"8456cb59","paused()":"5c975abb","pendingRefunds(address)":"b613b114","proposalCount()":"da35c664","proposalCountByUser(address)":"5d33b93b","proposalInvestorIndex(uint256,address)":"86463a2c","proposalInvestors(uint256,uint256)":"16997edb","proposals(uint256)":"013cf08b","proposalsByProposer(address,uint256)":"3f42b535","reduceProposalVotingTime(uint256,uint256)":"1af5b8cd","removeAdmin(address)":"1785f53c","setMaxProposalsPerUser(uint256)":"a907111d","setMinInvestmentAmount(uint256)":"7fbb1086","setVotingDuration(uint256)":"5bcfadb5","totalCreationFeesPaid(address)":"aa38c4b7","unpause()":"3f4ba83a","vote(uint256,bool,uint256)":"d46a5d7e","votesByInvestor(address,uint256)":"8873fa2d","votingDuration()":"132002fc","withdrawPendingRefunds()":"a083301b"}}}}}