{
  "_format": "hh-sol-artifact-1",
  "contractName": "BEP20Token",
  "sourceName": "contracts/gnjToken.sol",
  "abi": [
    {
      "inputs": [
        {
          "internalType": "address[]",
          "name": "_owners",
          "type": "address[]"
        },
        {
          "internalType": "uint256",
          "name": "_requiredConfirmations",
          "type": "uint256"
        }
      ],
      "stateMutability": "nonpayable",
      "type": "constructor"
    },
    {
      "anonymous": false,
      "inputs": [
        {
          "indexed": true,
          "internalType": "address",
          "name": "owner",
          "type": "address"
        },
        {
          "indexed": true,
          "internalType": "address",
          "name": "spender",
          "type": "address"
        },
        {
          "indexed": false,
          "internalType": "uint256",
          "name": "value",
          "type": "uint256"
        }
      ],
      "name": "Approval",
      "type": "event"
    },
    {
      "anonymous": false,
      "inputs": [
        {
          "indexed": true,
          "internalType": "address",
          "name": "account",
          "type": "address"
        },
        {
          "indexed": false,
          "internalType": "bool",
          "name": "status",
          "type": "bool"
        },
        {
          "indexed": true,
          "internalType": "address",
          "name": "updatedBy",
          "type": "address"
        }
      ],
      "name": "BlacklistUpdated",
      "type": "event"
    },
    {
      "anonymous": false,
      "inputs": [
        {
          "indexed": true,
          "internalType": "address",
          "name": "from",
          "type": "address"
        },
        {
          "indexed": false,
          "internalType": "uint256",
          "name": "value",
          "type": "uint256"
        }
      ],
      "name": "Burn",
      "type": "event"
    },
    {
      "anonymous": false,
      "inputs": [
        {
          "indexed": true,
          "internalType": "address",
          "name": "from",
          "type": "address"
        },
        {
          "indexed": false,
          "internalType": "uint256",
          "name": "value",
          "type": "uint256"
        },
        {
          "indexed": false,
          "internalType": "string",
          "name": "burnType",
          "type": "string"
        }
      ],
      "name": "BurnAction",
      "type": "event"
    },
    {
      "anonymous": false,
      "inputs": [
        {
          "indexed": false,
          "internalType": "uint256",
          "name": "oldLimit",
          "type": "uint256"
        },
        {
          "indexed": false,
          "internalType": "uint256",
          "name": "newLimit",
          "type": "uint256"
        },
        {
          "indexed": true,
          "internalType": "address",
          "name": "updatedBy",
          "type": "address"
        }
      ],
      "name": "DailyLimitUpdated",
      "type": "event"
    },
    {
      "anonymous": false,
      "inputs": [
        {
          "indexed": false,
          "internalType": "string",
          "name": "action",
          "type": "string"
        },
        {
          "indexed": true,
          "internalType": "address",
          "name": "executor",
          "type": "address"
        }
      ],
      "name": "EmergencyAction",
      "type": "event"
    },
    {
      "anonymous": false,
      "inputs": [
        {
          "indexed": true,
          "internalType": "address",
          "name": "recipient",
          "type": "address"
        },
        {
          "indexed": false,
          "internalType": "uint256",
          "name": "amount",
          "type": "uint256"
        }
      ],
      "name": "EmergencyWithdrawal",
      "type": "event"
    },
    {
      "anonymous": false,
      "inputs": [
        {
          "indexed": true,
          "internalType": "address",
          "name": "owner",
          "type": "address"
        }
      ],
      "name": "OwnerAddition",
      "type": "event"
    },
    {
      "anonymous": false,
      "inputs": [
        {
          "indexed": true,
          "internalType": "address",
          "name": "owner",
          "type": "address"
        }
      ],
      "name": "OwnerRemoval",
      "type": "event"
    },
    {
      "anonymous": false,
      "inputs": [
        {
          "indexed": false,
          "internalType": "address",
          "name": "account",
          "type": "address"
        }
      ],
      "name": "Paused",
      "type": "event"
    },
    {
      "anonymous": false,
      "inputs": [
        {
          "indexed": false,
          "internalType": "uint256",
          "name": "required",
          "type": "uint256"
        }
      ],
      "name": "RequirementChange",
      "type": "event"
    },
    {
      "anonymous": false,
      "inputs": [
        {
          "indexed": false,
          "internalType": "string",
          "name": "alertType",
          "type": "string"
        },
        {
          "indexed": true,
          "internalType": "address",
          "name": "triggeredBy",
          "type": "address"
        },
        {
          "indexed": false,
          "internalType": "uint256",
          "name": "timestamp",
          "type": "uint256"
        }
      ],
      "name": "SecurityAlert",
      "type": "event"
    },
    {
      "anonymous": false,
      "inputs": [
        {
          "indexed": true,
          "internalType": "uint256",
          "name": "transactionId",
          "type": "uint256"
        },
        {
          "indexed": true,
          "internalType": "address",
          "name": "owner",
          "type": "address"
        }
      ],
      "name": "TransactionConfirmation",
      "type": "event"
    },
    {
      "anonymous": false,
      "inputs": [
        {
          "indexed": true,
          "internalType": "uint256",
          "name": "transactionId",
          "type": "uint256"
        }
      ],
      "name": "TransactionExecution",
      "type": "event"
    },
    {
      "anonymous": false,
      "inputs": [
        {
          "indexed": true,
          "internalType": "uint256",
          "name": "transactionId",
          "type": "uint256"
        }
      ],
      "name": "TransactionFailure",
      "type": "event"
    },
    {
      "anonymous": false,
      "inputs": [
        {
          "indexed": true,
          "internalType": "uint256",
          "name": "transactionId",
          "type": "uint256"
        },
        {
          "indexed": true,
          "internalType": "address",
          "name": "owner",
          "type": "address"
        }
      ],
      "name": "TransactionRevocation",
      "type": "event"
    },
    {
      "anonymous": false,
      "inputs": [
        {
          "indexed": true,
          "internalType": "uint256",
          "name": "transactionId",
          "type": "uint256"
        },
        {
          "indexed": true,
          "internalType": "address",
          "name": "submitter",
          "type": "address"
        },
        {
          "indexed": false,
          "internalType": "string",
          "name": "description",
          "type": "string"
        }
      ],
      "name": "TransactionSubmission",
      "type": "event"
    },
    {
      "anonymous": false,
      "inputs": [
        {
          "indexed": true,
          "internalType": "address",
          "name": "from",
          "type": "address"
        },
        {
          "indexed": true,
          "internalType": "address",
          "name": "to",
          "type": "address"
        },
        {
          "indexed": false,
          "internalType": "uint256",
          "name": "value",
          "type": "uint256"
        }
      ],
      "name": "Transfer",
      "type": "event"
    },
    {
      "anonymous": false,
      "inputs": [
        {
          "indexed": false,
          "internalType": "address",
          "name": "account",
          "type": "address"
        }
      ],
      "name": "Unpaused",
      "type": "event"
    },
    {
      "inputs": [],
      "name": "EMERGENCY_TIMELOCK",
      "outputs": [
        {
          "internalType": "uint256",
          "name": "",
          "type": "uint256"
        }
      ],
      "stateMutability": "view",
      "type": "function"
    },
    {
      "inputs": [],
      "name": "FIXED_SUPPLY",
      "outputs": [
        {
          "internalType": "bool",
          "name": "",
          "type": "bool"
        }
      ],
      "stateMutability": "view",
      "type": "function"
    },
    {
      "inputs": [],
      "name": "TIMELOCK_DELAY",
      "outputs": [
        {
          "internalType": "uint256",
          "name": "",
          "type": "uint256"
        }
      ],
      "stateMutability": "view",
      "type": "function"
    },
    {
      "inputs": [
        {
          "internalType": "address",
          "name": "account",
          "type": "address"
        },
        {
          "internalType": "uint256",
          "name": "amount",
          "type": "uint256"
        }
      ],
      "name": "_burnLarge",
      "outputs": [],
      "stateMutability": "nonpayable",
      "type": "function"
    },
    {
      "inputs": [],
      "name": "_emergencyPauseContract",
      "outputs": [],
      "stateMutability": "nonpayable",
      "type": "function"
    },
    {
      "inputs": [
        {
          "internalType": "address",
          "name": "recipient",
          "type": "address"
        }
      ],
      "name": "_emergencyWithdraw",
      "outputs": [],
      "stateMutability": "nonpayable",
      "type": "function"
    },
    {
      "inputs": [],
      "name": "_pauseContract",
      "outputs": [],
      "stateMutability": "nonpayable",
      "type": "function"
    },
    {
      "inputs": [
        {
          "internalType": "address",
          "name": "account",
          "type": "address"
        },
        {
          "internalType": "bool",
          "name": "status",
          "type": "bool"
        }
      ],
      "name": "_setBlacklisted",
      "outputs": [],
      "stateMutability": "nonpayable",
      "type": "function"
    },
    {
      "inputs": [
        {
          "internalType": "uint256",
          "name": "newLimit",
          "type": "uint256"
        }
      ],
      "name": "_setDailyTransferLimit",
      "outputs": [],
      "stateMutability": "nonpayable",
      "type": "function"
    },
    {
      "inputs": [],
      "name": "_unpauseContract",
      "outputs": [],
      "stateMutability": "nonpayable",
      "type": "function"
    },
    {
      "inputs": [
        {
          "internalType": "address",
          "name": "owner",
          "type": "address"
        },
        {
          "internalType": "address",
          "name": "spender",
          "type": "address"
        }
      ],
      "name": "allowance",
      "outputs": [
        {
          "internalType": "uint256",
          "name": "",
          "type": "uint256"
        }
      ],
      "stateMutability": "view",
      "type": "function"
    },
    {
      "inputs": [
        {
          "internalType": "address",
          "name": "spender",
          "type": "address"
        },
        {
          "internalType": "uint256",
          "name": "amount",
          "type": "uint256"
        }
      ],
      "name": "approve",
      "outputs": [
        {
          "internalType": "bool",
          "name": "",
          "type": "bool"
        }
      ],
      "stateMutability": "nonpayable",
      "type": "function"
    },
    {
      "inputs": [
        {
          "internalType": "address",
          "name": "account",
          "type": "address"
        }
      ],
      "name": "balanceOf",
      "outputs": [
        {
          "internalType": "uint256",
          "name": "",
          "type": "uint256"
        }
      ],
      "stateMutability": "view",
      "type": "function"
    },
    {
      "inputs": [
        {
          "internalType": "address",
          "name": "",
          "type": "address"
        }
      ],
      "name": "blacklisted",
      "outputs": [
        {
          "internalType": "bool",
          "name": "",
          "type": "bool"
        }
      ],
      "stateMutability": "view",
      "type": "function"
    },
    {
      "inputs": [
        {
          "internalType": "uint256",
          "name": "amount",
          "type": "uint256"
        }
      ],
      "name": "burn",
      "outputs": [],
      "stateMutability": "nonpayable",
      "type": "function"
    },
    {
      "inputs": [
        {
          "internalType": "address",
          "name": "account",
          "type": "address"
        },
        {
          "internalType": "uint256",
          "name": "amount",
          "type": "uint256"
        }
      ],
      "name": "burnFrom",
      "outputs": [],
      "stateMutability": "nonpayable",
      "type": "function"
    },
    {
      "inputs": [
        {
          "internalType": "uint256",
          "name": "transactionId",
          "type": "uint256"
        }
      ],
      "name": "canExecute",
      "outputs": [
        {
          "internalType": "bool",
          "name": "",
          "type": "bool"
        }
      ],
      "stateMutability": "view",
      "type": "function"
    },
    {
      "inputs": [
        {
          "internalType": "uint256",
          "name": "transactionId",
          "type": "uint256"
        }
      ],
      "name": "confirmTransaction",
      "outputs": [],
      "stateMutability": "nonpayable",
      "type": "function"
    },
    {
      "inputs": [
        {
          "internalType": "uint256",
          "name": "",
          "type": "uint256"
        },
        {
          "internalType": "address",
          "name": "",
          "type": "address"
        }
      ],
      "name": "confirmations",
      "outputs": [
        {
          "internalType": "bool",
          "name": "",
          "type": "bool"
        }
      ],
      "stateMutability": "view",
      "type": "function"
    },
    {
      "inputs": [
        {
          "internalType": "address",
          "name": "account",
          "type": "address"
        },
        {
          "internalType": "bool",
          "name": "status",
          "type": "bool"
        }
      ],
      "name": "createBlacklistTransaction",
      "outputs": [
        {
          "internalType": "uint256",
          "name": "",
          "type": "uint256"
        }
      ],
      "stateMutability": "nonpayable",
      "type": "function"
    },
    {
      "inputs": [
        {
          "internalType": "uint256",
          "name": "newLimit",
          "type": "uint256"
        }
      ],
      "name": "createDailyLimitTransaction",
      "outputs": [
        {
          "internalType": "uint256",
          "name": "",
          "type": "uint256"
        }
      ],
      "stateMutability": "nonpayable",
      "type": "function"
    },
    {
      "inputs": [],
      "name": "createEmergencyPauseTransaction",
      "outputs": [
        {
          "internalType": "uint256",
          "name": "",
          "type": "uint256"
        }
      ],
      "stateMutability": "nonpayable",
      "type": "function"
    },
    {
      "inputs": [
        {
          "internalType": "address",
          "name": "recipient",
          "type": "address"
        }
      ],
      "name": "createEmergencyWithdrawTransaction",
      "outputs": [
        {
          "internalType": "uint256",
          "name": "",
          "type": "uint256"
        }
      ],
      "stateMutability": "nonpayable",
      "type": "function"
    },
    {
      "inputs": [
        {
          "internalType": "address",
          "name": "account",
          "type": "address"
        },
        {
          "internalType": "uint256",
          "name": "amount",
          "type": "uint256"
        }
      ],
      "name": "createLargeBurnTransaction",
      "outputs": [
        {
          "internalType": "uint256",
          "name": "",
          "type": "uint256"
        }
      ],
      "stateMutability": "nonpayable",
      "type": "function"
    },
    {
      "inputs": [],
      "name": "createPauseTransaction",
      "outputs": [
        {
          "internalType": "uint256",
          "name": "",
          "type": "uint256"
        }
      ],
      "stateMutability": "nonpayable",
      "type": "function"
    },
    {
      "inputs": [],
      "name": "createUnpauseTransaction",
      "outputs": [
        {
          "internalType": "uint256",
          "name": "",
          "type": "uint256"
        }
      ],
      "stateMutability": "nonpayable",
      "type": "function"
    },
    {
      "inputs": [
        {
          "internalType": "address",
          "name": "",
          "type": "address"
        }
      ],
      "name": "dailyTransferAmount",
      "outputs": [
        {
          "internalType": "uint256",
          "name": "",
          "type": "uint256"
        }
      ],
      "stateMutability": "view",
      "type": "function"
    },
    {
      "inputs": [],
      "name": "decimals",
      "outputs": [
        {
          "internalType": "uint8",
          "name": "",
          "type": "uint8"
        }
      ],
      "stateMutability": "pure",
      "type": "function"
    },
    {
      "inputs": [
        {
          "internalType": "address",
          "name": "spender",
          "type": "address"
        },
        {
          "internalType": "uint256",
          "name": "subtractedValue",
          "type": "uint256"
        }
      ],
      "name": "decreaseAllowance",
      "outputs": [
        {
          "internalType": "bool",
          "name": "",
          "type": "bool"
        }
      ],
      "stateMutability": "nonpayable",
      "type": "function"
    },
    {
      "inputs": [],
      "name": "emergencyMode",
      "outputs": [
        {
          "internalType": "bool",
          "name": "",
          "type": "bool"
        }
      ],
      "stateMutability": "view",
      "type": "function"
    },
    {
      "inputs": [
        {
          "internalType": "uint256",
          "name": "transactionId",
          "type": "uint256"
        }
      ],
      "name": "executeTransaction",
      "outputs": [],
      "stateMutability": "nonpayable",
      "type": "function"
    },
    {
      "inputs": [
        {
          "internalType": "uint256",
          "name": "transactionId",
          "type": "uint256"
        }
      ],
      "name": "getConfirmationCount",
      "outputs": [
        {
          "internalType": "uint256",
          "name": "",
          "type": "uint256"
        }
      ],
      "stateMutability": "view",
      "type": "function"
    },
    {
      "inputs": [],
      "name": "getContractInfo",
      "outputs": [
        {
          "internalType": "string",
          "name": "",
          "type": "string"
        }
      ],
      "stateMutability": "pure",
      "type": "function"
    },
    {
      "inputs": [],
      "name": "getGovernanceInfo",
      "outputs": [
        {
          "internalType": "uint256",
          "name": "totalOwners",
          "type": "uint256"
        },
        {
          "internalType": "uint256",
          "name": "requiredSigs",
          "type": "uint256"
        },
        {
          "internalType": "uint256",
          "name": "timelockDelay",
          "type": "uint256"
        },
        {
          "internalType": "uint256",
          "name": "pendingTransactions",
          "type": "uint256"
        }
      ],
      "stateMutability": "view",
      "type": "function"
    },
    {
      "inputs": [],
      "name": "getOwner",
      "outputs": [
        {
          "internalType": "address",
          "name": "",
          "type": "address"
        }
      ],
      "stateMutability": "view",
      "type": "function"
    },
    {
      "inputs": [],
      "name": "getOwners",
      "outputs": [
        {
          "internalType": "address[]",
          "name": "",
          "type": "address[]"
        }
      ],
      "stateMutability": "view",
      "type": "function"
    },
    {
      "inputs": [],
      "name": "getTransactionCount",
      "outputs": [
        {
          "internalType": "uint256",
          "name": "",
          "type": "uint256"
        }
      ],
      "stateMutability": "view",
      "type": "function"
    },
    {
      "inputs": [
        {
          "internalType": "address",
          "name": "spender",
          "type": "address"
        },
        {
          "internalType": "uint256",
          "name": "addedValue",
          "type": "uint256"
        }
      ],
      "name": "increaseAllowance",
      "outputs": [
        {
          "internalType": "bool",
          "name": "",
          "type": "bool"
        }
      ],
      "stateMutability": "nonpayable",
      "type": "function"
    },
    {
      "inputs": [
        {
          "internalType": "uint256",
          "name": "transactionId",
          "type": "uint256"
        }
      ],
      "name": "isConfirmed",
      "outputs": [
        {
          "internalType": "bool",
          "name": "",
          "type": "bool"
        }
      ],
      "stateMutability": "view",
      "type": "function"
    },
    {
      "inputs": [
        {
          "internalType": "address",
          "name": "",
          "type": "address"
        }
      ],
      "name": "isOwner",
      "outputs": [
        {
          "internalType": "bool",
          "name": "",
          "type": "bool"
        }
      ],
      "stateMutability": "view",
      "type": "function"
    },
    {
      "inputs": [
        {
          "internalType": "address",
          "name": "",
          "type": "address"
        }
      ],
      "name": "lastTransferDay",
      "outputs": [
        {
          "internalType": "uint256",
          "name": "",
          "type": "uint256"
        }
      ],
      "stateMutability": "view",
      "type": "function"
    },
    {
      "inputs": [],
      "name": "maxDailyTransferLimit",
      "outputs": [
        {
          "internalType": "uint256",
          "name": "",
          "type": "uint256"
        }
      ],
      "stateMutability": "view",
      "type": "function"
    },
    {
      "inputs": [],
      "name": "name",
      "outputs": [
        {
          "internalType": "string",
          "name": "",
          "type": "string"
        }
      ],
      "stateMutability": "pure",
      "type": "function"
    },
    {
      "inputs": [
        {
          "internalType": "uint256",
          "name": "",
          "type": "uint256"
        }
      ],
      "name": "owners",
      "outputs": [
        {
          "internalType": "address",
          "name": "",
          "type": "address"
        }
      ],
      "stateMutability": "view",
      "type": "function"
    },
    {
      "inputs": [],
      "name": "paused",
      "outputs": [
        {
          "internalType": "bool",
          "name": "",
          "type": "bool"
        }
      ],
      "stateMutability": "view",
      "type": "function"
    },
    {
      "inputs": [],
      "name": "requiredConfirmations",
      "outputs": [
        {
          "internalType": "uint256",
          "name": "",
          "type": "uint256"
        }
      ],
      "stateMutability": "view",
      "type": "function"
    },
    {
      "inputs": [
        {
          "internalType": "uint256",
          "name": "transactionId",
          "type": "uint256"
        }
      ],
      "name": "revokeConfirmation",
      "outputs": [],
      "stateMutability": "nonpayable",
      "type": "function"
    },
    {
      "inputs": [
        {
          "internalType": "address",
          "name": "to",
          "type": "address"
        },
        {
          "internalType": "bytes",
          "name": "data",
          "type": "bytes"
        },
        {
          "internalType": "string",
          "name": "description",
          "type": "string"
        }
      ],
      "name": "submitTransaction",
      "outputs": [
        {
          "internalType": "uint256",
          "name": "transactionId",
          "type": "uint256"
        }
      ],
      "stateMutability": "nonpayable",
      "type": "function"
    },
    {
      "inputs": [],
      "name": "symbol",
      "outputs": [
        {
          "internalType": "string",
          "name": "",
          "type": "string"
        }
      ],
      "stateMutability": "pure",
      "type": "function"
    },
    {
      "inputs": [],
      "name": "totalSupply",
      "outputs": [
        {
          "internalType": "uint256",
          "name": "",
          "type": "uint256"
        }
      ],
      "stateMutability": "view",
      "type": "function"
    },
    {
      "inputs": [
        {
          "internalType": "uint256",
          "name": "",
          "type": "uint256"
        }
      ],
      "name": "transactions",
      "outputs": [
        {
          "internalType": "address",
          "name": "to",
          "type": "address"
        },
        {
          "internalType": "bytes",
          "name": "data",
          "type": "bytes"
        },
        {
          "internalType": "bool",
          "name": "executed",
          "type": "bool"
        },
        {
          "internalType": "uint256",
          "name": "confirmations",
          "type": "uint256"
        },
        {
          "internalType": "uint256",
          "name": "timestamp",
          "type": "uint256"
        },
        {
          "internalType": "string",
          "name": "description",
          "type": "string"
        }
      ],
      "stateMutability": "view",
      "type": "function"
    },
    {
      "inputs": [
        {
          "internalType": "address",
          "name": "recipient",
          "type": "address"
        },
        {
          "internalType": "uint256",
          "name": "amount",
          "type": "uint256"
        }
      ],
      "name": "transfer",
      "outputs": [
        {
          "internalType": "bool",
          "name": "",
          "type": "bool"
        }
      ],
      "stateMutability": "nonpayable",
      "type": "function"
    },
    {
      "inputs": [
        {
          "internalType": "address",
          "name": "sender",
          "type": "address"
        },
        {
          "internalType": "address",
          "name": "recipient",
          "type": "address"
        },
        {
          "internalType": "uint256",
          "name": "amount",
          "type": "uint256"
        }
      ],
      "name": "transferFrom",
      "outputs": [
        {
          "internalType": "bool",
          "name": "",
          "type": "bool"
        }
      ],
      "stateMutability": "nonpayable",
      "type": "function"
    }
  ],
  "bytecode": "0x60406080815234620003bc5762003d5c803803806200001e81620003c1565b9283398101918082840312620003bc5781516001600160401b039390848111620003bc57830190601f93818584011215620003bc578251958611620001a65760059186831b602094858062000075818501620003c1565b809b81520192820101928311620003bc5790858094939201905b82821062000390575050500151948051156200034c578515158062000340575b15620002eb5760005b8151811015620002425780831b82018401516001600160a01b03168015620002005780600052600180865260ff876000205416620001bc576000828152818752878120805460ff191683179055549068010000000000000000821015620001a657810180600055811015620001905760008080528681209190910180546001600160a01b031916831790557ff39e6e1eb0edcf53c221607b54b00cd28f3196fed0a24994dc308b8f611b682d9080a260001981146200017a57600101620000b8565b634e487b7160e01b600052601160045260246000fd5b634e487b7160e01b600052603260045260246000fd5b634e487b7160e01b600052604160045260246000fd5b865162461bcd60e51b815260048101879052601960248201527f4d756c74695369673a206475706c6963617465206f776e6572000000000000006044820152606490fd5b6064858888519162461bcd60e51b8352600483015260248201527f4d756c74695369673a20696e76616c6964206f776e65722061646472657373006044820152fd5b50507fa3f1ee9126a074d9326c682f561767f710e927faa811f7a99829d49dc421797a8286806002558551908152a160ff1990818154169055600160065569d3c21bcecceda1000000600b55600e5416600e5560007fddf252ad1be2c89b69c2b068fc378daa952ba7f163c4a11628f55a4df523b3ef6a084595161401484a000000928360095533835260078152838584205584519384523393a3516139749081620003e88239f35b835162461bcd60e51b815260048101849052602860248201527f4d756c74695369673a20696e76616c696420726571756972656420636f6e6669604482015267726d6174696f6e7360c01b6064820152608490fd5b508051861115620000af565b835162461bcd60e51b815260048101849052601960248201527f4d756c74695369673a206f776e657273207265717569726564000000000000006044820152606490fd5b815193945091929091906001600160a01b0381168103620003bc5781528593929184019084016200008f565b600080fd5b6040519190601f01601f191682016001600160401b03811183821017620001a65760405256fe608080604052600436101561001357600080fd5b60003560e01c908163025e7c271461274b57508063044007b91461269f57806306fdde03146126585780630905f56014612635578063095ea7b31461260757806318160ddd146125e957806320ea8d86146124c857806323b872dd14612488578063263bc1aa146121725780632e7700f0146121545780632f54bf6e14612115578063313ce567146120f95780633411c81c146120ac578063395093511461205357806339be9f3214611cee5780633d829b4114611cd057806342966c6814611bd457806348f6db1114611b4d5780634bc8472c14611aba5780635ba1c1a914611a9c5780635c975abb14611a7957806360d7442b14611a5c578063676a246d1461192757806370a08231146118ed57806372b8c0c7146118b5578063784547a71461189757806379cc6790146118585780637cc1f867146117ae57806382e717f71461179057806387299888146116ed578063893d20e81461166a5780638b51d13f1461163f5780638b6deeba146115765780638ed0099b146114df578063923f43371461145257806395d89b411461140d5780639abb68e8146113d35780639ace38c214611313578063a0e67e2b1461124c578063a181b99014610f26578063a3aab78e14610dc6578063a457c2d714610d11578063a9059cbb14610cd8578063ac9358a714610c9e578063b0b463fa14610b64578063c01a8c8414610a4b578063c969943e14610a2f578063cc63604a14610a07578063dbac26e9146109c8578063dd62ed3e14610977578063e398f56b146108bc578063ee22610b146106d65763f09460c11461026657600080fd5b346106d15760603660031901126106d15761027f6127a3565b6024356001600160401b0381116106d157366023820112156106d1576102af9036906024816004013591016129f1565b906044356001600160401b0381116106d157366023820112156106d1576102e09036906024816004013591016129f1565b3360005260016020526102fa60ff60406000205416612b0a565b600354916040519361030b85612949565b6001600160a01b03918216855260208501908152600060408601819052606086015242608086015260a08501839052600160401b84101561062557600184016003556103568461283e565b9290926106bb57855183546001600160a01b0319169116178255518051906001600160401b0382116106255761039c826103936001860154612879565b60018601612f47565b602090601f831160011461064657918060a0949260059460009261063b575b50508160011b916000199060031b1c19161760018201555b6103f260408701511515600283019060ff801983541691151516179055565b6060860151600382015560808601516004820155019301519283516001600160401b0381116106255761042f816104298454612879565b84612f47565b602094601f82116001146105bf579481929394956000926105b4575b50508160011b916000199060031b1c19161790555b8160008051602061391f8339815191526040516020815280610487339560208301906127cf565b0390a33360005260016020526104a460ff60406000205416612b0a565b6104b16003548210612f9b565b80600052600460205260406000203360005260205260ff6040600020541661055f578060005260046020526040600020336000526020526040600020600160ff1982541617905560036105038261283e565b500180549190600019831461054957600160209301905533817f1205fbf8acc69299dd15e8db91a27442f39bde8c77c4b61a1f713c51e707a6fc600080a3604051908152f35b634e487b7160e01b600052601160045260246000fd5b60405162461bcd60e51b815260206004820152602760248201527f4d756c74695369673a207472616e73616374696f6e20616c726561647920636f6044820152661b999a5c9b595960ca1b6064820152608490fd5b01519050388061044b565b601f198216958360005260206000209160005b88811061060d575083600195969798106105f4575b505050811b019055610460565b015160001960f88460031b161c191690553880806105e7565b919260206001819286850151815501940192016105d2565b634e487b7160e01b600052604160045260246000fd5b0151905038806103bb565b906001840160005260206000209160005b601f19851681106106a357509260a0949260019260059583601f1981161061068a575b505050811b0160018201556103d3565b015160001960f88460031b161c1916905538808061067a565b91926020600181928685015181550194019201610657565b634e487b7160e01b600052600060045260246000fd5b600080fd5b346106d1576020806003193601126106d1576004359033600052600180825261070660ff60406000205416612b0a565b6107136003548410612f9b565b61072d60ff60026107238661283e565b5001541615612ff3565b61073683612a4b565b1561086b576107448361283e565b50600281019260ff199280848654161785558060018060a01b0384541693016040519260009282549261077684612879565b9388838216918260001461085257505060011461081a575b5050505091816000809493819403925af13d15610815576107b96107b13d6129d6565b6040516129b5565b156107e75750507fa04152e2017fefaf7d75b86e3c491d40f690e6936155ca58eacae210f5655e60600080a2005b90917f6ee13fa93051b7cad9019e9932d8040cc31c2cf14ea6692e1d6b6c2f2ba322c1600080a28154169055005b6107b9565b600090815282812093945091925b848310610841575050509082019050816000818161078e565b805486840152918301918101610828565b168752505050508015150282019050816000818161078e565b60405162461bcd60e51b8152600481018390526024808201527f4d756c74695369673a2063616e6e6f742065786563757465207472616e7361636044820152633a34b7b760e11b6064820152608490fd5b346106d15760203660031901126106d1576004356108db303314613092565b6108e68115156138bb565b600b549080600b5560405191825260208201527f9c1605b55d1eafe13062f1b47079c158f82feaf16266e90067771249bf97219f60403292a260007f6ac6f29cb533706676e94ff2d30d8f95dd3e0c525a0e07e44c1f7762360b48946080604051604081526013604082015272111052531657d31253525517d5541110551151606a1b6060820152426020820152a2005b346106d15760403660031901126106d1576109906127a3565b6109986127b9565b9060018060a01b038091166000526008602052604060002091166000526020526020604060002054604051908152f35b346106d15760203660031901126106d1576001600160a01b036109e96127a3565b16600052600a602052602060ff604060002054166040519015158152f35b346106d15760203660031901126106d1576020610a25600435612a4b565b6040519015158152f35b346106d15760003660031901126106d157602060405160018152f35b346106d1576020806003193601126106d157600435903360005260018152610a7a60ff60406000205416612b0a565b610a876003548310612f9b565b8160005260048152604060002033600052815260ff60406000205416610b1057816000526004815260406000209033600052526040600020600160ff198254161790556003610ad58261283e565b50018054600019811461054957600101905533907f1205fbf8acc69299dd15e8db91a27442f39bde8c77c4b61a1f713c51e707a6fc600080a3005b6084906040519062461bcd60e51b82526004820152602760248201527f4d756c74695369673a207472616e73616374696f6e20616c726561647920636f6044820152661b999a5c9b595960ca1b6064820152fd5b346106d157610c657f6ac6f29cb533706676e94ff2d30d8f95dd3e0c525a0e07e44c1f7762360b4894610b963661280f565b9290610ba3303314613092565b6001600160a01b031692610bb8841515613820565b8360005260209060018252610bd560ff6040600020541615613865565b84600052600a8252610bf78160406000209060ff801983541691151516179055565b6040518115158152857fcae3b5efc2bd583aa46266b1fb3d632ecd709b47d81ad21012414e6774af2d0d843293a315610c7057604051610c3681612964565b600d81526c10931050d2d31254d517d05111609a1b82820152905b6040519283926040845260408401906127cf565b9042908301520390a2005b604051610c7c81612964565b601081526f424c41434b4c4953545f52454d4f564560801b8282015290610c51565b346106d15760203660031901126106d1576001600160a01b03610cbf6127a3565b16600052600c6020526020604060002054604051908152f35b346106d15760403660031901126106d157610d06610cf46127a3565b610cfc61304e565b60243590336131ff565b602060405160018152f35b346106d15760403660031901126106d157610d2a6127a3565b602435610d3561304e565b336000526008602052604060002060018060a01b03831660005260205260406000205490808210610d7357810390811161054957610d069133613550565b60405162461bcd60e51b815260206004820152602560248201527f42455032303a2064656372656173656420616c6c6f77616e63652062656c6f77604482015264207a65726f60d81b6064820152608490fd5b346106d1576020806003193601126106d157610de06127a3565b90610dec303314613092565b6001600160a01b038216918215610ee1578260005260018252610e1660ff604060002054166131a7565b3060005260078252604060002054908115610e9c5790610e59817f23d6711a1d031134a36921253c75aa59e967d38e369ac625992824315e204f209493306131ff565b836000805160206138ff833981519152606060405185815260128682015271454d455247454e43595f574954484452415760701b6040820152a2604051908152a2005b60405162461bcd60e51b815260048101849052601c60248201527f42455032303a206e6f20746f6b656e7320746f207769746864726177000000006044820152606490fd5b60405162461bcd60e51b815260048101839052601860248201527f42455032303a20696e76616c696420726563697069656e7400000000000000006044820152606490fd5b346106d15760203660031901126106d157600435336000526001602052610f5460ff60406000205416612b0a565b610f5f8115156138bb565b6040519063e398f56b60e01b6020830152602482015260248152610f828161297f565b604051610f8e8161297f565b602681527f4d756c74692d5369673a20557064617465206461696c79207472616e73666572602082015265081b1a5b5a5d60d21b6040820152336000526001602052610fe160ff60406000205416612b0a565b6003549060405192610ff284612949565b3084526020840190815260006040850152600060608501524260808501528160a0850152600160401b83101561062557600183016003556110328361283e565b9190916106bb57845182546001600160a01b0319166001600160a01b0391909116178255518051906001600160401b03821161062557611079826103936001860154612879565b602090601f83116001146111d757918060a094926005946000926111cc575b50508160011b916000199060031b1c19161760018201555b6110cf60408701511515600283019060ff801983541691151516179055565b6060860151600382015560808601516004820155019301519283516001600160401b03811161062557611106816104298454612879565b602094601f82116001146111675794819293949560009261115c5750508160011b916000199060031b1c19161790558160008051602061391f8339815191526040516020815280610487339560208301906127cf565b01519050858061044b565b601f198216958360005260206000209160005b8881106111b45750836001959697981061119b57505050811b019055610460565b015160001960f88460031b161c191690558580806105e7565b9192602060018192868501518155019401920161117a565b015190508880611098565b906001840160005260206000209160005b601f198516811061123457509260a0949260019260059583601f1981161061121b575b505050811b0160018201556110b0565b015160001960f88460031b161c1916905588808061120b565b919260206001819286850151815501940192016111e8565b346106d15760003660031901126106d1576040518060005480835260208093018091600080527f290decd9548b62a8d60345a988386fc84ba6bc95484008f6362f93160ef3e5639060005b868282106112f65786866112ad828803836129b5565b604051928392818401908285525180915260408401929160005b8281106112d657505050500390f35b83516001600160a01b0316855286955093810193928101926001016112c7565b83546001600160a01b031685529093019260019283019201611297565b346106d15760203660031901126106d1576004356003548110156106d15761133a9061283e565b5060018060a01b038154166113cf604051926113648461135d81600185016128b3565b03856129b5565b600560ff60028301541691600381015461139460048301549261138d60405180968193016128b3565b03846129b5565b6113b0604051978897885260c0602089015260c08801906127cf565b93151560408701526060860152608085015283820360a08501526127cf565b0390f35b346106d15760203660031901126106d1576001600160a01b036113f46127a3565b16600052600d6020526020604060002054604051908152f35b346106d15760003660031901126106d1576113cf60405161142d81612964565b6004815263474e4a5360e01b60208201526040519182916020835260208301906127cf565b346106d15760003660031901126106d15761146e303314613092565b61147661304e565b600160ff1960055416176005557f62e78cea01bee320cd4e420270b5ea74000d11b0c9f74754ebdbfc544b05a2586020604051338152a1604051602081526005602082015264504155534560d81b60408201526000805160206138ff83398151915260603292a2005b346106d15760003660031901126106d1576114fb303314613092565b61150361304e565b600160ff1960055416176005557f62e78cea01bee320cd4e420270b5ea74000d11b0c9f74754ebdbfc544b05a2586020604051338152a160405160208152600f60208201526e454d455247454e43595f504155534560881b60408201526000805160206138ff83398151915260603292a2005b346106d15760003660031901126106d157611592303314613092565b60055460ff8116156116035760ff19166005557f5db9ee0a495bf2e6ff9c91a7834c1ba4fdd244a5e8aa4e537bd38aeae4b073aa6020604051338152a1604051602081526007602082015266554e504155534560c81b60408201526000805160206138ff83398151915260603292a2005b60405162461bcd60e51b815260206004820152601460248201527314185d5cd8589b194e881b9bdd081c185d5cd95960621b6044820152606490fd5b346106d15760203660031901126106d1576020600361165f60043561283e565b500154604051908152f35b346106d15760003660031901126106d15760005415806116e3576116cd57600080527f290decd9548b62a8d60345a988386fc84ba6bc95484008f6362f93160ef3e563546020906001600160a01b03165b6040516001600160a01b039091168152f35b634e487b7160e01b600052603260045260246000fd5b50602060006116bb565b346106d15760003660031901126106d15733600052600160205261171860ff60406000205416612b0a565b6020611788604051638ed0099b60e01b838201526004815261173981612964565b604051906117468261297f565b602a82527f4d756c74692d5369673a20454d455247454e435920706175736520746f6b656e8483015269207472616e736665727360b01b604083015230612b55565b604051908152f35b346106d15760003660031901126106d1576020600254604051908152f35b346106d15760003660031901126106d1576113cf6040516117ce8161299a565b605781527f47616e6a657320546f6b656e2028474e4a5329202d204d756c74692d5369672060208201527f476f7665726e65642c20466978656420537570706c793a2031304d2c2050617560408201527f7361626c652c204275726e61626c652c2053656375726500000000000000000060608201526040519182916020835260208301906127cf565b346106d15760403660031901126106d1576118906118746127a3565b602435906118806130f1565b61188b823383613652565b6136e9565b6001600655005b346106d15760203660031901126106d1576020610a25600435612a28565b346106d15760003660031901126106d15760806000546002546003549060405192835260208301526201518060408301526060820152f35b346106d15760203660031901126106d1576001600160a01b0361190e6127a3565b1660005260076020526020604060002054604051908152f35b346106d15760403660031901126106d1576119406127a3565b602435336000526020916001835261195f60ff60406000205416612b0a565b60018060a01b031690816000526001835261198160ff60406000205416613147565b606460095404811115611a045790611788916040519163044007b960e01b8584015260248301526044820152604481526119ba8161299a565b604051906119c78261297f565b602582527f4d756c74692d5369673a204c6172676520746f6b656e206275726e206f706572848301526430ba34b7b760d91b604083015230612b55565b60405162461bcd60e51b815260048101849052602a60248201527f42455032303a2075736520646972656374206275726e282920666f7220736d616044820152696c6c20616d6f756e747360b01b6064820152608490fd5b346106d15760003660031901126106d1576020604051610e108152f35b346106d15760003660031901126106d157602060ff600554166040519015158152f35b346106d15760003660031901126106d1576020604051620151808152f35b346106d15760003660031901126106d157336000526001602052611ae560ff60406000205416612b0a565b60206117886040516345b6f75d60e11b8382015260048152611b0681612964565b60405190611b138261297f565b602282527f4d756c74692d5369673a20556e706175736520746f6b656e207472616e7366658483015261727360f01b604083015230612b55565b346106d15760003660031901126106d157336000526001602052611b7860ff60406000205416612b0a565b602061178860405163923f433760e01b8382015260048152611b9981612964565b60405190611ba682612964565b8382527f4d756c74692d5369673a20506175736520746f6b656e207472616e73666572738483015230612b55565b346106d15760203660031901126106d157600435336000526001602052611c0260ff60406000205416612b0a565b611c0a6130f1565b6064600954048111611c7557611c2081336136e9565b60405190815260406020820152600b60408201526a2224a922a1aa2fa12aa92760a91b60608201527f5ea61442894c79f0f25ebbdbf1d9a6d976586b539cf871a022f985083782865d60803392a26001600655005b60405162461bcd60e51b815260206004820152602d60248201527f42455032303a206c61726765206275726e732072657175697265206d756c746960448201526c0b5cda59c8185c1c1c9bdd985b609a1b6064820152608490fd5b346106d15760003660031901126106d1576020600b54604051908152f35b346106d157611cfc3661280f565b90336000526001602052611d1760ff60406000205416612b0a565b6001600160a01b0390811691611d2e831515613820565b826000526001602052611d4960ff6040600020541615613865565b6040519263585a31fd60e11b60208501526024840152801515604484015260448352611d748361299a565b1561200757604051611d8581612964565b601c81527f4d756c74692d5369673a20426c61636b6c69737420616464726573730000000060208201525b336000526001602052611dca60ff60406000205416612b0a565b6003549160405193611ddb85612949565b3085526020850190815260006040860152600060608601524260808601528260a0860152600160401b8410156106255760018401600355611e1b8461283e565b9290926106bb57855183546001600160a01b0319169116178255518051906001600160401b03821161062557611e58826103936001860154612879565b602090601f8311600114611f9257918060a09492600594600092611f87575b50508160011b916000199060031b1c19161760018201555b611eae60408701511515600283019060ff801983541691151516179055565b6060860151600382015560808601516004820155019301519283516001600160401b03811161062557611ee5816104298454612879565b602094601f8211600114611f3b5794819293949560009261115c5750508160011b916000199060031b1c19161790558160008051602061391f8339815191526040516020815280610487339560208301906127cf565b601f198216958360005260206000209160005b888110611f6f5750836001959697981061119b57505050811b019055610460565b91926020600181928685015181550194019201611f4e565b015190508880611e77565b906001840160005260206000209160005b601f1985168110611fef57509260a0949260019260059583601f19811610611fd6575b505050811b016001820155611e8f565b015160001960f88460031b161c19169055888080611fc6565b91926020600181928685015181550194019201611fa3565b6040516120138161297f565b602881527f4d756c74692d5369673a2052656d6f766520616464726573732066726f6d20626020820152671b1858dadb1a5cdd60c21b6040820152611db0565b346106d15760403660031901126106d157610d0661206f6127a3565b61207761304e565b336000526008602052604060002060018060a01b0382166000526020526120a5602435604060002054612a3e565b9033613550565b346106d15760403660031901126106d1576120c56127b9565b600435600052600460205260406000209060018060a01b0316600052602052602060ff604060002054166040519015158152f35b346106d15760003660031901126106d157602060405160128152f35b346106d15760203660031901126106d1576001600160a01b036121366127a3565b166000526001602052602060ff604060002054166040519015158152f35b346106d15760003660031901126106d1576020600354604051908152f35b346106d15760203660031901126106d15761218b6127a3565b3360005260016020526121a560ff60406000205416612b0a565b60018060a01b03809116908160005260016020526121ca60ff604060002054166131a7565b604051916351d55bc760e11b60208401526024830152602482526121ed8261297f565b6040516121f98161297f565b602581527f4d756c74692d5369673a20456d657267656e637920746f6b656e2077697468646020820152641c985dd85b60da1b604082015233600052600160205261224b60ff60406000205416612b0a565b600354916040519361225c85612949565b3085526020850190815260006040860152600060608601524260808601528260a0860152600160401b841015610625576001840160035561229c8461283e565b9290926106bb57855183546001600160a01b0319169116178255518051906001600160401b038211610625576122d9826103936001860154612879565b602090601f831160011461241357918060a09492600594600092612408575b50508160011b916000199060031b1c19161760018201555b61232f60408701511515600283019060ff801983541691151516179055565b6060860151600382015560808601516004820155019301519283516001600160401b03811161062557612366816104298454612879565b602094601f82116001146123bc5794819293949560009261115c5750508160011b916000199060031b1c19161790558160008051602061391f8339815191526040516020815280610487339560208301906127cf565b601f198216958360005260206000209160005b8881106123f05750836001959697981061119b57505050811b019055610460565b919260206001819286850151815501940192016123cf565b0151905088806122f8565b906001840160005260206000209160005b601f198516811061247057509260a0949260019260059583601f19811610612457575b505050811b016001820155612310565b015160001960f88460031b161c19169055888080612447565b91926020600181928685015181550194019201612424565b346106d15760603660031901126106d157610d066124a46127a3565b6124ac6127b9565b604435916124b861304e565b6124c3833383613652565b6131ff565b346106d1576020806003193601126106d1576004359033600052600181526124f760ff60406000205416612b0a565b6125046003548310612f9b565b61251460ff60026107238561283e565b8160005260048152604060002033600052815260ff60406000205416156125995781600052600481526040600020903360005252604060002060ff19815416905560036125608261283e565b5001805480156105495760001901905533907f320e919218f4d2fb16217ade7951038e1d5dbf90699405a9f2b52f7a4efdff42600080a3005b6084906040519062461bcd60e51b82526004820152602360248201527f4d756c74695369673a207472616e73616374696f6e206e6f7420636f6e6669726044820152621b595960ea1b6064820152fd5b346106d15760003660031901126106d1576020600954604051908152f35b346106d15760403660031901126106d157610d066126236127a3565b61262b61304e565b6024359033613550565b346106d15760003660031901126106d157602060ff600e54166040519015158152f35b346106d15760003660031901126106d1576113cf60405161267881612964565b600681526547616e6a657360d01b60208201526040519182916020835260208301906127cf565b346106d15760403660031901126106d1576126b86127a3565b7f5ea61442894c79f0f25ebbdbf1d9a6d976586b539cf871a022f985083782865d60806024356126e66130f1565b6126f1303314613092565b6127198160018060a01b0386169586600052600160205261188b60ff60406000205416613147565b60405190815260406020820152600d60408201526c26aaa62a24a9a4a3afa12aa92760991b6060820152a26001600655005b346106d15760203660031901126106d157600435906000548210156106d157600080527f290decd9548b62a8d60345a988386fc84ba6bc95484008f6362f93160ef3e563909101546001600160a01b03168152602090f35b600435906001600160a01b03821682036106d157565b602435906001600160a01b03821682036106d157565b919082519283825260005b8481106127fb575050826000602080949584010152601f8019910116010190565b6020818301810151848301820152016127da565b60409060031901126106d1576004356001600160a01b03811681036106d1579060243580151581036106d15790565b6003548110156116cd576006906003600052027fc2575a0e9e593c00f959f8c92f12db2869c3395a3b0502d05e2516446f71f85b0190600090565b90600182811c921680156128a9575b602083101461289357565b634e487b7160e01b600052602260045260246000fd5b91607f1691612888565b90600092918054916128c483612879565b91828252600193848116908160001461292657506001146128e6575b50505050565b90919394506000526020928360002092846000945b8386106129125750505050010190388080806128e0565b8054858701830152940193859082016128fb565b9294505050602093945060ff191683830152151560051b010190388080806128e0565b60c081019081106001600160401b0382111761062557604052565b604081019081106001600160401b0382111761062557604052565b606081019081106001600160401b0382111761062557604052565b608081019081106001600160401b0382111761062557604052565b90601f801991011681019081106001600160401b0382111761062557604052565b6001600160401b03811161062557601f01601f191660200190565b9291926129fd826129d6565b91612a0b60405193846129b5565b8294818452818301116106d1578281602093846000960137010152565b612a3360039161283e565b500154600254111590565b9190820180921161054957565b612a548161283e565b50612ad960405192612a6584612949565b82546001600160a01b03168452604051612a8d81612a8681600188016128b3565b03826129b5565b6020850152600560a060ff6002860154169560408101961515875260038601546060820152612ad26004870154966080830197885261138d60405180968193016128b3565b0152612a28565b9182612b00575b5081612aea575090565b9050516201518081018091116105495742101590565b5115915038612ae0565b15612b1157565b606460405162461bcd60e51b815260206004820152602060248201527f4d756c74695369673a2063616c6c6572206973206e6f7420616e206f776e65726044820152fd5b9190916000913383526001602052612b7360ff604085205416612b0a565b6003549360405190612b8482612949565b6001600160a01b03938416825260208201908152604082018590526060820185905242608083015260a08201839052600160401b861015612f335760018601600355612bcf8661283e565b949094612f1f57825185546001600160a01b0319169116178455518051906001600160401b038211612f0b578190612c1782612c0e6001890154612879565b60018901612f47565b602090601f8311600114612e9c578792612e91575b50508160011b916000199060031b1c19161760018401555b612c6360408201511515600285019060ff801983541691151516179055565b6060810151600384015560a0600560808301519460049586820155019101518051906001600160401b038211612e7e578190612ca982612ca38654612879565b86612f47565b602090601f8311600114612e1a578792612e0f575b50508160011b916000199060031b1c19161790555b8360008051602061391f8339815191526040516020815280612cfa339560208301906127cf565b0390a33382526001602052612d1560ff604084205416612b0a565b612d226003548410612f9b565b828252806020526040822033835260205260ff604083205416612dbb57828252806020526040822033835260205260408220600160ff198254161790556003612d6a8461283e565b5001805490916000198214612da857506001019055817f1205fbf8acc69299dd15e8db91a27442f39bde8c77c4b61a1f713c51e707a6fc339280a390565b634e487b7160e01b845260119052602483fd5b60849060206040519162461bcd60e51b8352820152602760248201527f4d756c74695369673a207472616e73616374696f6e20616c726561647920636f6044820152661b999a5c9b595960ca1b6064820152fd5b015190503880612cbe565b848852602088209250601f198416885b818110612e665750908460019594939210612e4d575b505050811b019055612cd3565b015160001960f88460031b161c19169055388080612e40565b92936020600181928786015181550195019301612e2a565b634e487b7160e01b865260418552602486fd5b015190503880612c2c565b9250600186018752602087209087935b601f1984168510612ef0576001945083601f19811610612ed7575b505050811b016001840155612c44565b015160001960f88460031b161c19169055388080612ec7565b81810151835560209485019460019093019290910190612eac565b634e487b7160e01b86526041600452602486fd5b634e487b7160e01b86526004869052602486fd5b634e487b7160e01b85526041600452602485fd5b90601f8111612f5557505050565b600091825260208220906020601f850160051c83019410612f91575b601f0160051c01915b828110612f8657505050565b818155600101612f7a565b9092508290612f71565b15612fa257565b60405162461bcd60e51b8152602060048201526024808201527f4d756c74695369673a207472616e73616374696f6e20646f6573206e6f7420656044820152631e1a5cdd60e21b6064820152608490fd5b15612ffa57565b60405162461bcd60e51b815260206004820152602660248201527f4d756c74695369673a207472616e73616374696f6e20616c72656164792065786044820152651958dd5d195960d21b6064820152608490fd5b60ff6005541661305a57565b60405162461bcd60e51b815260206004820152601060248201526f14185d5cd8589b194e881c185d5cd95960821b6044820152606490fd5b1561309957565b60405162461bcd60e51b815260206004820152602a60248201527f4d756c74695369673a206f6e6c792063616c6c61626c65207468726f75676820604482015269676f7665726e616e636560b01b6064820152608490fd5b600260065414613102576002600655565b60405162461bcd60e51b815260206004820152601f60248201527f5265656e7472616e637947756172643a207265656e7472616e742063616c6c006044820152606490fd5b1561314e57565b60405162461bcd60e51b815260206004820152602b60248201527f4d756c74695369673a2063616e206f6e6c79206275726e2066726f6d206f776e60448201526a6572206163636f756e747360a81b6064820152608490fd5b156131ae57565b60405162461bcd60e51b8152602060048201526024808201527f4d756c74695369673a20726563697069656e74206d75737420626520616e206f6044820152633bb732b960e11b6064820152608490fd5b6001600160a01b039081169182156134fd57169182156134ac57600090828252602091600a835260409060ff828220541661346857858152600a845260ff828220541661342457600a6009540483116133d3575b8481526001845260ff828220541615806133c9575b613317575b84815260078452818120548381106132c4579181847fddf252ad1be2c89b69c2b068fc378daa952ba7f163c4a11628f55a4df523b3ef969594888495526007875203828220558781522082815401905551908152a3565b825162461bcd60e51b815260048101869052602660248201527f42455032303a207472616e7366657220616d6f756e7420657863656564732062604482015265616c616e636560d01b6064820152608490fd5b620151804204600d85528083832054036133b2575b50600c845261333e8383832054612a3e565b600b541061336257848152600c845281812061335b848254612a3e565b905561326d565b815162461bcd60e51b8152600481018590526024808201527f42455032303a206461696c79207472616e73666572206c696d697420657863656044820152631959195960e21b6064820152608490fd5b600c85528183812055600d8552828220553861332c565b5030851415613268565b847f6ac6f29cb533706676e94ff2d30d8f95dd3e0c525a0e07e44c1f7762360b489460808451858152600e868201526d2620a923a2afaa2920a729a322a960911b60608201524288820152a2613253565b815162461bcd60e51b815260048101859052601f60248201527f42455032303a20726563697069656e7420697320626c61636b6c6973746564006044820152606490fd5b815162461bcd60e51b815260048101859052601c60248201527f42455032303a2073656e64657220697320626c61636b6c6973746564000000006044820152606490fd5b60405162461bcd60e51b815260206004820152602360248201527f42455032303a207472616e7366657220746f20746865207a65726f206164647260448201526265737360e81b6064820152608490fd5b60405162461bcd60e51b815260206004820152602560248201527f42455032303a207472616e736665722066726f6d20746865207a65726f206164604482015264647265737360d81b6064820152608490fd5b6001600160a01b0390811691821561360157169182156135b15760207f8c5be1e5ebec7d5bd14f71427d1e84f3dd0314c0f7b2291e5b200ac8c7c3b925918360005260088252604060002085600052825280604060002055604051908152a3565b60405162461bcd60e51b815260206004820152602260248201527f42455032303a20617070726f766520746f20746865207a65726f206164647265604482015261737360f01b6064820152608490fd5b60405162461bcd60e51b8152602060048201526024808201527f42455032303a20617070726f76652066726f6d20746865207a65726f206164646044820152637265737360e01b6064820152608490fd5b9060018060a01b03808316600052600860205260406000209082166000526020526040600020549260001984036136895750505050565b8084106136a45761369b930391613550565b388080806128e0565b60405162461bcd60e51b815260206004820152601d60248201527f42455032303a20696e73756666696369656e7420616c6c6f77616e63650000006044820152606490fd5b6001600160a01b03169081156137d15781600052600760205260406000205481811061378157817fcc16f5dbb4873280815c1ee09dbd06736cffcc184412cf7a71a0fdb75d397ca59260209285600052600784520360406000205580600954036009556000847fddf252ad1be2c89b69c2b068fc378daa952ba7f163c4a11628f55a4df523b3ef84604051858152a3604051908152a2565b60405162461bcd60e51b815260206004820152602260248201527f42455032303a206275726e20616d6f756e7420657863656564732062616c616e604482015261636560f01b6064820152608490fd5b60405162461bcd60e51b815260206004820152602160248201527f42455032303a206275726e2066726f6d20746865207a65726f206164647265736044820152607360f81b6064820152608490fd5b1561382757565b60405162461bcd60e51b815260206004820152601660248201527542455032303a20696e76616c6964206164647265737360501b6044820152606490fd5b1561386c57565b60405162461bcd60e51b815260206004820152602160248201527f4d756c74695369673a2063616e6e6f7420626c61636b6c697374206f776e65726044820152607360f81b6064820152608490fd5b156138c257565b60405162461bcd60e51b81526020600482015260146024820152731091540c8c0e881a5b9d985b1a59081b1a5b5a5d60621b6044820152606490fdfe2a09e26ec96218a3a144df2e04de096b7f0410106a4caff3cdfa5d667e604f2a8546ea40e101fc827ab39bbab7c2c8a00cda94f3a6ee1bd55cc7af23be294ec5a26469706673582212204f8626e4e496cac6f5447e8ea59ac080201ab1eb05c592b574d412fdaea801eb64736f6c63430008140033",
  "linkReferences": {},
  "deployedLinkReferences": {}
}