{
  "_format": "hh-sol-artifact-1",
  "contractName": "GanjesDAOOptimized",
  "sourceName": "contracts/GanjesDAOOptimized.sol",
  "abi": [
    {
      "inputs": [
        {
          "internalType": "address",
          "name": "_governanceToken",
          "type": "address"
        }
      ],
      "stateMutability": "nonpayable",
      "type": "constructor"
    },
    {
      "inputs": [],
      "name": "ContractPaused",
      "type": "error"
    },
    {
      "inputs": [],
      "name": "EnforcedPause",
      "type": "error"
    },
    {
      "inputs": [],
      "name": "ExpectedPause",
      "type": "error"
    },
    {
      "inputs": [
        {
          "internalType": "uint256",
          "name": "required",
          "type": "uint256"
        },
        {
          "internalType": "uint256",
          "name": "available",
          "type": "uint256"
        }
      ],
      "name": "InsufficientAllowance",
      "type": "error"
    },
    {
      "inputs": [
        {
          "internalType": "uint256",
          "name": "required",
          "type": "uint256"
        },
        {
          "internalType": "uint256",
          "name": "available",
          "type": "uint256"
        }
      ],
      "name": "InsufficientTokens",
      "type": "error"
    },
    {
      "inputs": [
        {
          "internalType": "uint256",
          "name": "goal",
          "type": "uint256"
        }
      ],
      "name": "InvalidFundingGoal",
      "type": "error"
    },
    {
      "inputs": [
        {
          "internalType": "uint256",
          "name": "proposalId",
          "type": "uint256"
        }
      ],
      "name": "InvalidProposal",
      "type": "error"
    },
    {
      "inputs": [
        {
          "internalType": "uint256",
          "name": "maxAllowed",
          "type": "uint256"
        }
      ],
      "name": "MaxProposalsReached",
      "type": "error"
    },
    {
      "inputs": [
        {
          "internalType": "uint256",
          "name": "proposalId",
          "type": "uint256"
        }
      ],
      "name": "ProposalAlreadyExecuted",
      "type": "error"
    },
    {
      "inputs": [
        {
          "internalType": "uint256",
          "name": "timeRemaining",
          "type": "uint256"
        }
      ],
      "name": "ProposalCooldownActive",
      "type": "error"
    },
    {
      "inputs": [
        {
          "internalType": "uint256",
          "name": "proposalId",
          "type": "uint256"
        }
      ],
      "name": "ProposerCannotVote",
      "type": "error"
    },
    {
      "inputs": [],
      "name": "TransferFailed",
      "type": "error"
    },
    {
      "inputs": [],
      "name": "Unauthorized",
      "type": "error"
    },
    {
      "inputs": [
        {
          "internalType": "uint256",
          "name": "proposalId",
          "type": "uint256"
        }
      ],
      "name": "VotingPeriodEnded",
      "type": "error"
    },
    {
      "inputs": [
        {
          "internalType": "uint256",
          "name": "proposalId",
          "type": "uint256"
        }
      ],
      "name": "VotingPeriodNotEnded",
      "type": "error"
    },
    {
      "inputs": [],
      "name": "ZeroAddress",
      "type": "error"
    },
    {
      "anonymous": false,
      "inputs": [
        {
          "indexed": true,
          "internalType": "address",
          "name": "newAdmin",
          "type": "address"
        },
        {
          "indexed": true,
          "internalType": "address",
          "name": "addedBy",
          "type": "address"
        },
        {
          "indexed": false,
          "internalType": "uint256",
          "name": "timestamp",
          "type": "uint256"
        }
      ],
      "name": "AdminAdded",
      "type": "event"
    },
    {
      "anonymous": false,
      "inputs": [
        {
          "indexed": true,
          "internalType": "address",
          "name": "removedAdmin",
          "type": "address"
        },
        {
          "indexed": true,
          "internalType": "address",
          "name": "removedBy",
          "type": "address"
        },
        {
          "indexed": false,
          "internalType": "uint256",
          "name": "timestamp",
          "type": "uint256"
        }
      ],
      "name": "AdminRemoved",
      "type": "event"
    },
    {
      "anonymous": false,
      "inputs": [
        {
          "indexed": true,
          "internalType": "uint256",
          "name": "proposalId",
          "type": "uint256"
        },
        {
          "indexed": true,
          "internalType": "address",
          "name": "investor",
          "type": "address"
        },
        {
          "indexed": false,
          "internalType": "uint256",
          "name": "amount",
          "type": "uint256"
        },
        {
          "indexed": false,
          "internalType": "uint256",
          "name": "timestamp",
          "type": "uint256"
        }
      ],
      "name": "AutoRefundProcessed",
      "type": "event"
    },
    {
      "anonymous": false,
      "inputs": [
        {
          "indexed": true,
          "internalType": "string",
          "name": "parameter",
          "type": "string"
        },
        {
          "indexed": false,
          "internalType": "uint256",
          "name": "oldValue",
          "type": "uint256"
        },
        {
          "indexed": false,
          "internalType": "uint256",
          "name": "newValue",
          "type": "uint256"
        },
        {
          "indexed": false,
          "internalType": "uint256",
          "name": "timestamp",
          "type": "uint256"
        }
      ],
      "name": "ConfigurationChanged",
      "type": "event"
    },
    {
      "anonymous": false,
      "inputs": [
        {
          "indexed": true,
          "internalType": "address",
          "name": "recipient",
          "type": "address"
        },
        {
          "indexed": false,
          "internalType": "uint256",
          "name": "amount",
          "type": "uint256"
        },
        {
          "indexed": false,
          "internalType": "string",
          "name": "reason",
          "type": "string"
        },
        {
          "indexed": false,
          "internalType": "uint256",
          "name": "timestamp",
          "type": "uint256"
        }
      ],
      "name": "EmergencyWithdrawal",
      "type": "event"
    },
    {
      "anonymous": false,
      "inputs": [
        {
          "indexed": true,
          "internalType": "address",
          "name": "recipient",
          "type": "address"
        },
        {
          "indexed": false,
          "internalType": "uint256",
          "name": "amount",
          "type": "uint256"
        },
        {
          "indexed": false,
          "internalType": "uint256",
          "name": "timestamp",
          "type": "uint256"
        }
      ],
      "name": "FundsWithdrawn",
      "type": "event"
    },
    {
      "anonymous": false,
      "inputs": [
        {
          "indexed": false,
          "internalType": "address",
          "name": "account",
          "type": "address"
        },
        {
          "indexed": false,
          "internalType": "uint256",
          "name": "timestamp",
          "type": "uint256"
        }
      ],
      "name": "Paused",
      "type": "event"
    },
    {
      "anonymous": false,
      "inputs": [
        {
          "indexed": true,
          "internalType": "address",
          "name": "investor",
          "type": "address"
        },
        {
          "indexed": false,
          "internalType": "uint256",
          "name": "amount",
          "type": "uint256"
        },
        {
          "indexed": false,
          "internalType": "uint256",
          "name": "timestamp",
          "type": "uint256"
        }
      ],
      "name": "PendingRefundWithdrawn",
      "type": "event"
    },
    {
      "anonymous": false,
      "inputs": [
        {
          "indexed": true,
          "internalType": "uint256",
          "name": "proposalId",
          "type": "uint256"
        },
        {
          "indexed": true,
          "internalType": "address",
          "name": "proposer",
          "type": "address"
        },
        {
          "indexed": true,
          "internalType": "string",
          "name": "projectName",
          "type": "string"
        },
        {
          "indexed": false,
          "internalType": "uint256",
          "name": "fundingGoal",
          "type": "uint256"
        },
        {
          "indexed": false,
          "internalType": "uint256",
          "name": "proposalDeposit",
          "type": "uint256"
        },
        {
          "indexed": false,
          "internalType": "uint256",
          "name": "endTime",
          "type": "uint256"
        },
        {
          "indexed": false,
          "internalType": "uint256",
          "name": "timestamp",
          "type": "uint256"
        }
      ],
      "name": "ProposalCreated",
      "type": "event"
    },
    {
      "anonymous": false,
      "inputs": [
        {
          "indexed": true,
          "internalType": "uint256",
          "name": "proposalId",
          "type": "uint256"
        },
        {
          "indexed": false,
          "internalType": "bool",
          "name": "passed",
          "type": "bool"
        },
        {
          "indexed": false,
          "internalType": "uint256",
          "name": "amountAllocated",
          "type": "uint256"
        },
        {
          "indexed": false,
          "internalType": "uint256",
          "name": "timestamp",
          "type": "uint256"
        },
        {
          "indexed": false,
          "internalType": "string",
          "name": "message",
          "type": "string"
        }
      ],
      "name": "ProposalExecuted",
      "type": "event"
    },
    {
      "anonymous": false,
      "inputs": [
        {
          "indexed": true,
          "internalType": "uint256",
          "name": "proposalId",
          "type": "uint256"
        },
        {
          "indexed": true,
          "internalType": "address",
          "name": "proposer",
          "type": "address"
        },
        {
          "indexed": false,
          "internalType": "uint256",
          "name": "timestamp",
          "type": "uint256"
        },
        {
          "indexed": false,
          "internalType": "string",
          "name": "reason",
          "type": "string"
        }
      ],
      "name": "ProposalRejected",
      "type": "event"
    },
    {
      "anonymous": false,
      "inputs": [
        {
          "indexed": true,
          "internalType": "uint256",
          "name": "proposalId",
          "type": "uint256"
        },
        {
          "indexed": false,
          "internalType": "uint256",
          "name": "oldEndTime",
          "type": "uint256"
        },
        {
          "indexed": false,
          "internalType": "uint256",
          "name": "newEndTime",
          "type": "uint256"
        },
        {
          "indexed": false,
          "internalType": "uint256",
          "name": "timeChange",
          "type": "uint256"
        },
        {
          "indexed": false,
          "internalType": "bool",
          "name": "isExtension",
          "type": "bool"
        },
        {
          "indexed": false,
          "internalType": "uint256",
          "name": "timestamp",
          "type": "uint256"
        }
      ],
      "name": "ProposalVotingTimeChanged",
      "type": "event"
    },
    {
      "anonymous": false,
      "inputs": [
        {
          "indexed": true,
          "internalType": "uint256",
          "name": "proposalId",
          "type": "uint256"
        },
        {
          "indexed": true,
          "internalType": "address",
          "name": "investor",
          "type": "address"
        },
        {
          "indexed": false,
          "internalType": "uint256",
          "name": "amount",
          "type": "uint256"
        },
        {
          "indexed": false,
          "internalType": "uint256",
          "name": "timestamp",
          "type": "uint256"
        }
      ],
      "name": "RefundClaimed",
      "type": "event"
    },
    {
      "anonymous": false,
      "inputs": [
        {
          "indexed": false,
          "internalType": "address",
          "name": "account",
          "type": "address"
        },
        {
          "indexed": false,
          "internalType": "uint256",
          "name": "timestamp",
          "type": "uint256"
        }
      ],
      "name": "Unpaused",
      "type": "event"
    },
    {
      "anonymous": false,
      "inputs": [
        {
          "indexed": true,
          "internalType": "uint256",
          "name": "proposalId",
          "type": "uint256"
        },
        {
          "indexed": true,
          "internalType": "address",
          "name": "voter",
          "type": "address"
        },
        {
          "indexed": true,
          "internalType": "bool",
          "name": "support",
          "type": "bool"
        },
        {
          "indexed": false,
          "internalType": "uint256",
          "name": "weight",
          "type": "uint256"
        },
        {
          "indexed": false,
          "internalType": "uint256",
          "name": "investmentAmount",
          "type": "uint256"
        },
        {
          "indexed": false,
          "internalType": "uint256",
          "name": "timestamp",
          "type": "uint256"
        }
      ],
      "name": "Voted",
      "type": "event"
    },
    {
      "inputs": [],
      "name": "MAX_EMERGENCY_WITHDRAW_PERCENT",
      "outputs": [
        {
          "internalType": "uint256",
          "name": "",
          "type": "uint256"
        }
      ],
      "stateMutability": "view",
      "type": "function"
    },
    {
      "inputs": [],
      "name": "MAX_FUNDING_GOAL",
      "outputs": [
        {
          "internalType": "uint256",
          "name": "",
          "type": "uint256"
        }
      ],
      "stateMutability": "view",
      "type": "function"
    },
    {
      "inputs": [],
      "name": "MAX_VOTING_DURATION",
      "outputs": [
        {
          "internalType": "uint256",
          "name": "",
          "type": "uint256"
        }
      ],
      "stateMutability": "view",
      "type": "function"
    },
    {
      "inputs": [],
      "name": "MIN_FUNDING_GOAL",
      "outputs": [
        {
          "internalType": "uint256",
          "name": "",
          "type": "uint256"
        }
      ],
      "stateMutability": "view",
      "type": "function"
    },
    {
      "inputs": [],
      "name": "MIN_QUORUM_PERCENT",
      "outputs": [
        {
          "internalType": "uint256",
          "name": "",
          "type": "uint256"
        }
      ],
      "stateMutability": "view",
      "type": "function"
    },
    {
      "inputs": [],
      "name": "MIN_TOKENS_FOR_PROPOSAL",
      "outputs": [
        {
          "internalType": "uint256",
          "name": "",
          "type": "uint256"
        }
      ],
      "stateMutability": "view",
      "type": "function"
    },
    {
      "inputs": [],
      "name": "MIN_VOTING_DURATION",
      "outputs": [
        {
          "internalType": "uint256",
          "name": "",
          "type": "uint256"
        }
      ],
      "stateMutability": "view",
      "type": "function"
    },
    {
      "inputs": [],
      "name": "PROPOSAL_COOLDOWN",
      "outputs": [
        {
          "internalType": "uint256",
          "name": "",
          "type": "uint256"
        }
      ],
      "stateMutability": "view",
      "type": "function"
    },
    {
      "inputs": [],
      "name": "PROPOSAL_CREATION_FEE",
      "outputs": [
        {
          "internalType": "uint256",
          "name": "",
          "type": "uint256"
        }
      ],
      "stateMutability": "view",
      "type": "function"
    },
    {
      "inputs": [],
      "name": "TOTAL_TOKENS_REQUIRED",
      "outputs": [
        {
          "internalType": "uint256",
          "name": "",
          "type": "uint256"
        }
      ],
      "stateMutability": "view",
      "type": "function"
    },
    {
      "inputs": [
        {
          "internalType": "address",
          "name": "_newAdmin",
          "type": "address"
        }
      ],
      "name": "addAdmin",
      "outputs": [],
      "stateMutability": "nonpayable",
      "type": "function"
    },
    {
      "inputs": [],
      "name": "admin",
      "outputs": [
        {
          "internalType": "address",
          "name": "",
          "type": "address"
        }
      ],
      "stateMutability": "view",
      "type": "function"
    },
    {
      "inputs": [],
      "name": "adminCount",
      "outputs": [
        {
          "internalType": "uint256",
          "name": "",
          "type": "uint256"
        }
      ],
      "stateMutability": "view",
      "type": "function"
    },
    {
      "inputs": [
        {
          "internalType": "address",
          "name": "",
          "type": "address"
        }
      ],
      "name": "admins",
      "outputs": [
        {
          "internalType": "bool",
          "name": "",
          "type": "bool"
        }
      ],
      "stateMutability": "view",
      "type": "function"
    },
    {
      "inputs": [
        {
          "internalType": "uint256",
          "name": "",
          "type": "uint256"
        }
      ],
      "name": "allProposalIds",
      "outputs": [
        {
          "internalType": "uint256",
          "name": "",
          "type": "uint256"
        }
      ],
      "stateMutability": "view",
      "type": "function"
    },
    {
      "inputs": [
        {
          "internalType": "uint256",
          "name": "_amount",
          "type": "uint256"
        }
      ],
      "name": "approveDAO",
      "outputs": [
        {
          "internalType": "bool",
          "name": "success",
          "type": "bool"
        }
      ],
      "stateMutability": "nonpayable",
      "type": "function"
    },
    {
      "inputs": [
        {
          "internalType": "address",
          "name": "_user",
          "type": "address"
        },
        {
          "internalType": "uint256",
          "name": "_requiredAmount",
          "type": "uint256"
        }
      ],
      "name": "checkAllowanceSufficiency",
      "outputs": [
        {
          "internalType": "bool",
          "name": "hasAllowance",
          "type": "bool"
        },
        {
          "internalType": "uint256",
          "name": "currentAllowance",
          "type": "uint256"
        },
        {
          "internalType": "uint256",
          "name": "shortfall",
          "type": "uint256"
        }
      ],
      "stateMutability": "view",
      "type": "function"
    },
    {
      "inputs": [
        {
          "internalType": "address",
          "name": "_proposer",
          "type": "address"
        }
      ],
      "name": "checkProposalRequirements",
      "outputs": [
        {
          "components": [
            {
              "internalType": "bool",
              "name": "canCreateProposal",
              "type": "bool"
            },
            {
              "internalType": "bool",
              "name": "hasMinTokens",
              "type": "bool"
            },
            {
              "internalType": "bool",
              "name": "hasDepositTokens",
              "type": "bool"
            },
            {
              "internalType": "bool",
              "name": "hasAllowance",
              "type": "bool"
            },
            {
              "internalType": "bool",
              "name": "cooldownPassed",
              "type": "bool"
            },
            {
              "internalType": "bool",
              "name": "belowMaxProposals",
              "type": "bool"
            },
            {
              "internalType": "uint256",
              "name": "userBalance",
              "type": "uint256"
            },
            {
              "internalType": "uint256",
              "name": "currentAllowance",
              "type": "uint256"
            },
            {
              "internalType": "uint256",
              "name": "tokensNeeded",
              "type": "uint256"
            },
            {
              "internalType": "uint256",
              "name": "depositNeeded",
              "type": "uint256"
            },
            {
              "internalType": "uint256",
              "name": "timeUntilNextProposal",
              "type": "uint256"
            },
            {
              "internalType": "uint256",
              "name": "proposalsCreated",
              "type": "uint256"
            },
            {
              "internalType": "string",
              "name": "statusMessage",
              "type": "string"
            }
          ],
          "internalType": "struct GanjesDAOOptimized.ProposalRequirements",
          "name": "requirements",
          "type": "tuple"
        }
      ],
      "stateMutability": "view",
      "type": "function"
    },
    {
      "inputs": [
        {
          "internalType": "uint256",
          "name": "proposalId",
          "type": "uint256"
        }
      ],
      "name": "claimRefund",
      "outputs": [],
      "stateMutability": "nonpayable",
      "type": "function"
    },
    {
      "inputs": [
        {
          "internalType": "string",
          "name": "description",
          "type": "string"
        },
        {
          "internalType": "string",
          "name": "projectName",
          "type": "string"
        },
        {
          "internalType": "string",
          "name": "projectUrl",
          "type": "string"
        },
        {
          "internalType": "uint256",
          "name": "fundingGoal",
          "type": "uint256"
        }
      ],
      "name": "createProposal",
      "outputs": [],
      "stateMutability": "nonpayable",
      "type": "function"
    },
    {
      "inputs": [
        {
          "internalType": "uint256",
          "name": "_subtractedValue",
          "type": "uint256"
        }
      ],
      "name": "decreaseDAOAllowance",
      "outputs": [
        {
          "internalType": "bool",
          "name": "success",
          "type": "bool"
        }
      ],
      "stateMutability": "nonpayable",
      "type": "function"
    },
    {
      "inputs": [
        {
          "internalType": "uint256",
          "name": "_amount",
          "type": "uint256"
        },
        {
          "internalType": "address",
          "name": "_to",
          "type": "address"
        },
        {
          "internalType": "string",
          "name": "_reason",
          "type": "string"
        }
      ],
      "name": "emergencyWithdraw",
      "outputs": [],
      "stateMutability": "nonpayable",
      "type": "function"
    },
    {
      "inputs": [
        {
          "internalType": "uint256",
          "name": "proposalId",
          "type": "uint256"
        }
      ],
      "name": "executeProposal",
      "outputs": [],
      "stateMutability": "nonpayable",
      "type": "function"
    },
    {
      "inputs": [
        {
          "internalType": "uint256",
          "name": "proposalId",
          "type": "uint256"
        },
        {
          "internalType": "uint256",
          "name": "_extensionTime",
          "type": "uint256"
        }
      ],
      "name": "extendProposalVotingTime",
      "outputs": [],
      "stateMutability": "nonpayable",
      "type": "function"
    },
    {
      "inputs": [
        {
          "internalType": "uint256",
          "name": "",
          "type": "uint256"
        }
      ],
      "name": "fundingHistory",
      "outputs": [
        {
          "internalType": "uint256",
          "name": "proposalId",
          "type": "uint256"
        },
        {
          "internalType": "address",
          "name": "recipient",
          "type": "address"
        },
        {
          "internalType": "uint256",
          "name": "amount",
          "type": "uint256"
        },
        {
          "internalType": "uint256",
          "name": "timestamp",
          "type": "uint256"
        }
      ],
      "stateMutability": "view",
      "type": "function"
    },
    {
      "inputs": [],
      "name": "fundingRecordCount",
      "outputs": [
        {
          "internalType": "uint256",
          "name": "",
          "type": "uint256"
        }
      ],
      "stateMutability": "view",
      "type": "function"
    },
    {
      "inputs": [],
      "name": "getAllProposalIds",
      "outputs": [
        {
          "internalType": "uint256[]",
          "name": "",
          "type": "uint256[]"
        }
      ],
      "stateMutability": "view",
      "type": "function"
    },
    {
      "inputs": [
        {
          "internalType": "address",
          "name": "_owner",
          "type": "address"
        }
      ],
      "name": "getDAOAllowance",
      "outputs": [
        {
          "internalType": "uint256",
          "name": "allowance",
          "type": "uint256"
        }
      ],
      "stateMutability": "view",
      "type": "function"
    },
    {
      "inputs": [],
      "name": "getDAOStats",
      "outputs": [
        {
          "internalType": "uint256",
          "name": "totalProposals",
          "type": "uint256"
        },
        {
          "internalType": "uint256",
          "name": "activeProposals",
          "type": "uint256"
        },
        {
          "internalType": "uint256",
          "name": "passedProposals",
          "type": "uint256"
        },
        {
          "internalType": "uint256",
          "name": "rejectedProposals",
          "type": "uint256"
        },
        {
          "internalType": "uint256",
          "name": "activeInvestorsCount",
          "type": "uint256"
        },
        {
          "internalType": "uint256",
          "name": "inactiveInvestorsCount",
          "type": "uint256"
        },
        {
          "internalType": "uint256",
          "name": "totalFunded",
          "type": "uint256"
        },
        {
          "internalType": "uint256",
          "name": "allowedFunding",
          "type": "uint256"
        },
        {
          "internalType": "uint256",
          "name": "totalDepositsLocked",
          "type": "uint256"
        },
        {
          "internalType": "uint256",
          "name": "contractBalance",
          "type": "uint256"
        }
      ],
      "stateMutability": "view",
      "type": "function"
    },
    {
      "inputs": [],
      "name": "getEmergencyWithdrawInfo",
      "outputs": [
        {
          "internalType": "uint256",
          "name": "totalBalance",
          "type": "uint256"
        },
        {
          "internalType": "uint256",
          "name": "committedFunds",
          "type": "uint256"
        },
        {
          "internalType": "uint256",
          "name": "uncommittedFunds",
          "type": "uint256"
        },
        {
          "internalType": "uint256",
          "name": "maxEmergencyWithdraw",
          "type": "uint256"
        }
      ],
      "stateMutability": "view",
      "type": "function"
    },
    {
      "inputs": [
        {
          "internalType": "uint256",
          "name": "proposalId",
          "type": "uint256"
        }
      ],
      "name": "getInvestorCount",
      "outputs": [
        {
          "internalType": "uint256",
          "name": "count",
          "type": "uint256"
        }
      ],
      "stateMutability": "view",
      "type": "function"
    },
    {
      "inputs": [
        {
          "internalType": "uint256",
          "name": "proposalId",
          "type": "uint256"
        }
      ],
      "name": "getInvestorDetails",
      "outputs": [
        {
          "internalType": "address[]",
          "name": "investors",
          "type": "address[]"
        },
        {
          "internalType": "uint256[]",
          "name": "investments",
          "type": "uint256[]"
        },
        {
          "internalType": "bool[]",
          "name": "voteSupports",
          "type": "bool[]"
        },
        {
          "internalType": "uint256[]",
          "name": "timestamps",
          "type": "uint256[]"
        },
        {
          "internalType": "bool[]",
          "name": "hasVotedFlags",
          "type": "bool[]"
        }
      ],
      "stateMutability": "view",
      "type": "function"
    },
    {
      "inputs": [
        {
          "internalType": "uint256",
          "name": "proposalId",
          "type": "uint256"
        }
      ],
      "name": "getProposal",
      "outputs": [
        {
          "internalType": "uint256",
          "name": "id",
          "type": "uint256"
        },
        {
          "internalType": "address",
          "name": "proposer",
          "type": "address"
        },
        {
          "internalType": "string",
          "name": "description",
          "type": "string"
        },
        {
          "internalType": "string",
          "name": "projectName",
          "type": "string"
        },
        {
          "internalType": "string",
          "name": "projectUrl",
          "type": "string"
        },
        {
          "internalType": "uint256",
          "name": "fundingGoal",
          "type": "uint256"
        },
        {
          "internalType": "uint256",
          "name": "creationFee",
          "type": "uint256"
        },
        {
          "internalType": "uint256",
          "name": "endTime",
          "type": "uint256"
        },
        {
          "internalType": "bool",
          "name": "executed",
          "type": "bool"
        },
        {
          "internalType": "bool",
          "name": "passed",
          "type": "bool"
        },
        {
          "internalType": "bool",
          "name": "rejected",
          "type": "bool"
        },
        {
          "internalType": "uint256",
          "name": "totalVotesFor",
          "type": "uint256"
        },
        {
          "internalType": "uint256",
          "name": "totalVotesAgainst",
          "type": "uint256"
        },
        {
          "internalType": "uint256",
          "name": "totalInvested",
          "type": "uint256"
        },
        {
          "internalType": "uint32",
          "name": "votersFor",
          "type": "uint32"
        },
        {
          "internalType": "uint32",
          "name": "votersAgainst",
          "type": "uint32"
        }
      ],
      "stateMutability": "view",
      "type": "function"
    },
    {
      "inputs": [
        {
          "internalType": "address",
          "name": "_user",
          "type": "address"
        }
      ],
      "name": "getProposalCountByUser",
      "outputs": [
        {
          "internalType": "uint256",
          "name": "",
          "type": "uint256"
        }
      ],
      "stateMutability": "view",
      "type": "function"
    },
    {
      "inputs": [
        {
          "internalType": "address",
          "name": "_proposer",
          "type": "address"
        }
      ],
      "name": "getProposalsIDByProposer",
      "outputs": [
        {
          "internalType": "uint256[]",
          "name": "",
          "type": "uint256[]"
        }
      ],
      "stateMutability": "view",
      "type": "function"
    },
    {
      "inputs": [
        {
          "internalType": "address",
          "name": "_investor",
          "type": "address"
        }
      ],
      "name": "getProposalsIdByInvestor",
      "outputs": [
        {
          "internalType": "uint256[]",
          "name": "proposalIds",
          "type": "uint256[]"
        }
      ],
      "stateMutability": "view",
      "type": "function"
    },
    {
      "inputs": [
        {
          "internalType": "address",
          "name": "_user",
          "type": "address"
        }
      ],
      "name": "getTimeUntilNextProposal",
      "outputs": [
        {
          "internalType": "uint256",
          "name": "",
          "type": "uint256"
        }
      ],
      "stateMutability": "view",
      "type": "function"
    },
    {
      "inputs": [
        {
          "internalType": "address",
          "name": "_proposer",
          "type": "address"
        }
      ],
      "name": "getTotalCreationFeesPaid",
      "outputs": [
        {
          "internalType": "uint256",
          "name": "",
          "type": "uint256"
        }
      ],
      "stateMutability": "view",
      "type": "function"
    },
    {
      "inputs": [],
      "name": "getTotalProposals",
      "outputs": [
        {
          "internalType": "uint256",
          "name": "",
          "type": "uint256"
        }
      ],
      "stateMutability": "view",
      "type": "function"
    },
    {
      "inputs": [
        {
          "internalType": "uint256",
          "name": "proposalId",
          "type": "uint256"
        },
        {
          "internalType": "address",
          "name": "_user",
          "type": "address"
        }
      ],
      "name": "getUserInvestment",
      "outputs": [
        {
          "internalType": "uint256",
          "name": "investment",
          "type": "uint256"
        },
        {
          "internalType": "bool",
          "name": "hasVoted",
          "type": "bool"
        },
        {
          "internalType": "uint256",
          "name": "voteTime",
          "type": "uint256"
        }
      ],
      "stateMutability": "view",
      "type": "function"
    },
    {
      "inputs": [],
      "name": "governanceToken",
      "outputs": [
        {
          "internalType": "contract IERC20",
          "name": "",
          "type": "address"
        }
      ],
      "stateMutability": "view",
      "type": "function"
    },
    {
      "inputs": [
        {
          "internalType": "uint256",
          "name": "_addedValue",
          "type": "uint256"
        }
      ],
      "name": "increaseDAOAllowance",
      "outputs": [
        {
          "internalType": "bool",
          "name": "success",
          "type": "bool"
        }
      ],
      "stateMutability": "nonpayable",
      "type": "function"
    },
    {
      "inputs": [
        {
          "internalType": "address",
          "name": "",
          "type": "address"
        }
      ],
      "name": "lastProposalTime",
      "outputs": [
        {
          "internalType": "uint256",
          "name": "",
          "type": "uint256"
        }
      ],
      "stateMutability": "view",
      "type": "function"
    },
    {
      "inputs": [],
      "name": "maxProposalsPerUser",
      "outputs": [
        {
          "internalType": "uint256",
          "name": "",
          "type": "uint256"
        }
      ],
      "stateMutability": "view",
      "type": "function"
    },
    {
      "inputs": [],
      "name": "minInvestmentAmount",
      "outputs": [
        {
          "internalType": "uint256",
          "name": "",
          "type": "uint256"
        }
      ],
      "stateMutability": "view",
      "type": "function"
    },
    {
      "inputs": [],
      "name": "pause",
      "outputs": [],
      "stateMutability": "nonpayable",
      "type": "function"
    },
    {
      "inputs": [],
      "name": "paused",
      "outputs": [
        {
          "internalType": "bool",
          "name": "",
          "type": "bool"
        }
      ],
      "stateMutability": "view",
      "type": "function"
    },
    {
      "inputs": [
        {
          "internalType": "address",
          "name": "",
          "type": "address"
        }
      ],
      "name": "pendingRefunds",
      "outputs": [
        {
          "internalType": "uint256",
          "name": "",
          "type": "uint256"
        }
      ],
      "stateMutability": "view",
      "type": "function"
    },
    {
      "inputs": [],
      "name": "proposalCount",
      "outputs": [
        {
          "internalType": "uint256",
          "name": "",
          "type": "uint256"
        }
      ],
      "stateMutability": "view",
      "type": "function"
    },
    {
      "inputs": [
        {
          "internalType": "address",
          "name": "",
          "type": "address"
        }
      ],
      "name": "proposalCountByUser",
      "outputs": [
        {
          "internalType": "uint256",
          "name": "",
          "type": "uint256"
        }
      ],
      "stateMutability": "view",
      "type": "function"
    },
    {
      "inputs": [
        {
          "internalType": "uint256",
          "name": "",
          "type": "uint256"
        }
      ],
      "name": "proposalFundsCommitted",
      "outputs": [
        {
          "internalType": "bool",
          "name": "",
          "type": "bool"
        }
      ],
      "stateMutability": "view",
      "type": "function"
    },
    {
      "inputs": [
        {
          "internalType": "uint256",
          "name": "",
          "type": "uint256"
        },
        {
          "internalType": "address",
          "name": "",
          "type": "address"
        }
      ],
      "name": "proposalInvestorIndex",
      "outputs": [
        {
          "internalType": "uint256",
          "name": "",
          "type": "uint256"
        }
      ],
      "stateMutability": "view",
      "type": "function"
    },
    {
      "inputs": [
        {
          "internalType": "uint256",
          "name": "",
          "type": "uint256"
        },
        {
          "internalType": "uint256",
          "name": "",
          "type": "uint256"
        }
      ],
      "name": "proposalInvestors",
      "outputs": [
        {
          "internalType": "address",
          "name": "",
          "type": "address"
        }
      ],
      "stateMutability": "view",
      "type": "function"
    },
    {
      "inputs": [
        {
          "internalType": "uint256",
          "name": "",
          "type": "uint256"
        }
      ],
      "name": "proposals",
      "outputs": [
        {
          "internalType": "uint256",
          "name": "id",
          "type": "uint256"
        },
        {
          "internalType": "address",
          "name": "proposer",
          "type": "address"
        },
        {
          "internalType": "uint256",
          "name": "fundingGoal",
          "type": "uint256"
        },
        {
          "internalType": "uint256",
          "name": "creationFee",
          "type": "uint256"
        },
        {
          "internalType": "uint256",
          "name": "totalVotesFor",
          "type": "uint256"
        },
        {
          "internalType": "uint256",
          "name": "totalVotesAgainst",
          "type": "uint256"
        },
        {
          "internalType": "uint256",
          "name": "totalInvested",
          "type": "uint256"
        },
        {
          "internalType": "uint256",
          "name": "endTime",
          "type": "uint256"
        },
        {
          "internalType": "uint32",
          "name": "votersFor",
          "type": "uint32"
        },
        {
          "internalType": "uint32",
          "name": "votersAgainst",
          "type": "uint32"
        },
        {
          "internalType": "bool",
          "name": "executed",
          "type": "bool"
        },
        {
          "internalType": "bool",
          "name": "passed",
          "type": "bool"
        },
        {
          "internalType": "bool",
          "name": "rejected",
          "type": "bool"
        },
        {
          "internalType": "string",
          "name": "description",
          "type": "string"
        },
        {
          "internalType": "string",
          "name": "projectName",
          "type": "string"
        },
        {
          "internalType": "string",
          "name": "projectUrl",
          "type": "string"
        }
      ],
      "stateMutability": "view",
      "type": "function"
    },
    {
      "inputs": [
        {
          "internalType": "address",
          "name": "",
          "type": "address"
        },
        {
          "internalType": "uint256",
          "name": "",
          "type": "uint256"
        }
      ],
      "name": "proposalsByProposer",
      "outputs": [
        {
          "internalType": "uint256",
          "name": "",
          "type": "uint256"
        }
      ],
      "stateMutability": "view",
      "type": "function"
    },
    {
      "inputs": [
        {
          "internalType": "uint256",
          "name": "proposalId",
          "type": "uint256"
        },
        {
          "internalType": "uint256",
          "name": "_reductionTime",
          "type": "uint256"
        }
      ],
      "name": "reduceProposalVotingTime",
      "outputs": [],
      "stateMutability": "nonpayable",
      "type": "function"
    },
    {
      "inputs": [
        {
          "internalType": "address",
          "name": "_admin",
          "type": "address"
        }
      ],
      "name": "removeAdmin",
      "outputs": [],
      "stateMutability": "nonpayable",
      "type": "function"
    },
    {
      "inputs": [
        {
          "internalType": "uint256",
          "name": "_maxProposals",
          "type": "uint256"
        }
      ],
      "name": "setMaxProposalsPerUser",
      "outputs": [],
      "stateMutability": "nonpayable",
      "type": "function"
    },
    {
      "inputs": [
        {
          "internalType": "uint256",
          "name": "_minInvestmentAmount",
          "type": "uint256"
        }
      ],
      "name": "setMinInvestmentAmount",
      "outputs": [],
      "stateMutability": "nonpayable",
      "type": "function"
    },
    {
      "inputs": [
        {
          "internalType": "uint256",
          "name": "_duration",
          "type": "uint256"
        }
      ],
      "name": "setVotingDuration",
      "outputs": [],
      "stateMutability": "nonpayable",
      "type": "function"
    },
    {
      "inputs": [],
      "name": "totalCommittedFunds",
      "outputs": [
        {
          "internalType": "uint256",
          "name": "",
          "type": "uint256"
        }
      ],
      "stateMutability": "view",
      "type": "function"
    },
    {
      "inputs": [
        {
          "internalType": "address",
          "name": "",
          "type": "address"
        }
      ],
      "name": "totalCreationFeesPaid",
      "outputs": [
        {
          "internalType": "uint256",
          "name": "",
          "type": "uint256"
        }
      ],
      "stateMutability": "view",
      "type": "function"
    },
    {
      "inputs": [],
      "name": "unpause",
      "outputs": [],
      "stateMutability": "nonpayable",
      "type": "function"
    },
    {
      "inputs": [
        {
          "internalType": "uint256",
          "name": "proposalId",
          "type": "uint256"
        },
        {
          "internalType": "bool",
          "name": "support",
          "type": "bool"
        },
        {
          "internalType": "uint256",
          "name": "investmentAmount",
          "type": "uint256"
        }
      ],
      "name": "vote",
      "outputs": [],
      "stateMutability": "nonpayable",
      "type": "function"
    },
    {
      "inputs": [
        {
          "internalType": "address",
          "name": "",
          "type": "address"
        },
        {
          "internalType": "uint256",
          "name": "",
          "type": "uint256"
        }
      ],
      "name": "votesByInvestor",
      "outputs": [
        {
          "internalType": "uint256",
          "name": "proposalId",
          "type": "uint256"
        },
        {
          "internalType": "uint256",
          "name": "investmentAmount",
          "type": "uint256"
        },
        {
          "internalType": "uint256",
          "name": "timestamp",
          "type": "uint256"
        },
        {
          "internalType": "bool",
          "name": "support",
          "type": "bool"
        }
      ],
      "stateMutability": "view",
      "type": "function"
    },
    {
      "inputs": [],
      "name": "votingDuration",
      "outputs": [
        {
          "internalType": "uint256",
          "name": "",
          "type": "uint256"
        }
      ],
      "stateMutability": "view",
      "type": "function"
    },
    {
      "inputs": [],
      "name": "withdrawPendingRefunds",
      "outputs": [],
      "stateMutability": "nonpayable",
      "type": "function"
    }
  ],
  "bytecode": "0x60c0346200026a57601f6200533938819003918201601f191683019291906001600160401b038411838510176200026f5781602092849260409687528339810103126200026a57516001600160a01b038116908190036200026a576000906001825560ff19908160015416600155801562000259576080523360a052338252600260205260018383209182541617905560016003558060085580600b55606080678ac7230489e80000928360045561012c9384600555600a6006558186514281527fc879829b6ab559448e08c444fd0ef1f6e6ec47d851c79f50bc979d2f8f00e18060203392a3601386517f6d696e496e766573746d656e74416d6f756e740000000000000000000000000081522090865190838252602082015242878201527f7b2f327fe3724e45a6d300853fc8629e1d8fd83607f6943007d3c5c3e3c7576f948591a2600e85516d3b37ba34b733a23ab930ba34b7b760911b81522093855191825260208201524285820152a2516150b3908162000286823960805181818161032e01528181610a3301528181610c3501528181610d5a01528181610dba015281816112da015281816113c70152818161160c01528181611bfe01528181611e890152818161219f015281816126ff01528181612df501528181613040015281816139b801528181613b18015281816141f3015261487e015260a05181818161079b01528181610a78015281816120fe01528181612498015281816125ce01528181612a2101528181612bb001528181612d19015281816138e401528181613e6401528181613ef001528181614048015261480d0152f35b835163d92e233d60e01b8152600490fd5b600080fd5b634e487b7160e01b600052604160045260246000fdfe6080604052600436101561001257600080fd5b6000803560e01c8063013cf08b146149025780630bfcc57b146148475780630d61b519146140e0578063132002fc146140c257806316997edb146140775780631785f53c14613e935780631a5007dd146112735780631af5b8cd14613c425780631e5dca9614613add5780632b7832b314613abf5780633469219c14613aa3578063348acaec14613a8757806335ca53331461398c57806336d95f56146139695780633f42b535146139135780633f4ba83a14613857578063429b62e5146138185780634598985e14611c96578063467f67f9146137fb5780634c15676b14612fb15780634d298a0714612f935780635b7ad57814612f5a5780635b7baf6414612d485780635bcfadb514612c025780635c975abb14612bdf5780635d33b93b14612a505780637048027514612a895780637325120e14612a505780637cd22238146126705780637e31d46e146125fd5780637fbb1086146124c75780638456cb591461240657806386463a2c146123c25780638873fa2d1461234957806388f8eb0c1461232b5780638c2f6b57146122fc57806393e2c0a614611faf5780639d097b3314611c965780639fe8b3ba146122a7578063a083301b1461212d578063a907111d14611fe8578063aa38c4b714611faf578063add7906414611f8a578063b1806d4b14611f6c578063b613b11414611f33578063bfa4af4c14611f07578063c5d7b64914611e36578063c7f758a814611ceb578063c97bfe6b14611c9b578063cef163c214611c96578063cf9be73414611baf578063d2dd506f14611abe578063d46a5d7e14611291578063da35c66414611273578063da5467a514611230578063e078d68714611212578063e2f9e99c14610caa578063e745831014610bf5578063eaf1061c14610bd9578063eefe85e414610bbb578063efa90d3614610b30578063f7063e8b14610aa7578063f851a44014610a62578063f96dae0a14610a1d578063f9ef0687146107ca578063ffafdde11461059a5763ffc4bfde146102fe57600080fd5b346105975780600319360112610597576008546040516370a0823160e01b815230600482015282808060208180807f00000000000000000000000000000000000000000000000000000000000000006001600160a01b03168489602481845afa988915610432578499610568575b5060015b8a81111561043d5750998460049b6040519c8d80926318160ddd60e01b82525afa9a8b1561043257849b6103f7575b506101409a678ac7230489e8000090049384156103ee5793945b6040519a8b528a015260408901526060880152608087015260a086015260c085015260e0840152610100830152610120820152f35b809450946103b9565b9a50848b813d831161042b575b61040e8183614ae7565b8101031261042757995199678ac7230489e8000061039f565b8380fd5b503d610404565b6040513d86823e3d90fd5b80859c999c52600786526040852060088101549960ff8b60401c1680159b8c809d61055b575b156104c557505061047661048391614dbe565b9d5b600383015490614d8e565b99806104b8575b61049e575b5061049990614dbe565b610370565b610499919860026104b192015490614d8e565b979061048f565b506007810154421061048a565b919e999591818061054e575b156104f95750506104f36104e761048392614dbe565b95600284015490614d8e565b98610478565b9599919581610527575b50610512575b61048390610478565b9461051f61048391614dbe565b959050610509565b905060ff8160501c1690811561053f575b5038610503565b60ff915060481c161538610538565b5060ff8160481c166104d1565b5060078401544210610463565b9098508481813d8311610590575b6105808183614ae7565b810103126104275751973861036c565b503d610576565b80fd5b5034610597576105a936614bf6565b3383526020906002825260ff6040852054161580610797575b610786578215801561077b575b61076257801561072457828452600782526040842060ff600882015460401c166106df576007018054926106038385614d8e565b9161061060055486614db1565b62278d0081018091116106cb57831161066c579160a09391817fb9873fccabec700bdb36ec123d2606eeddb0ef1ce51730ba5a83c0e27a098287969455604051938452830152604082015260016060820152426080820152a280f35b60405162461bcd60e51b815260048101839052603160248201527f457874656e73696f6e2065786365656473206d6178696d756d20616c6c6f776560448201527032103b37ba34b73390323ab930ba34b7b760791b6064820152608490fd5b634e487b7160e01b88526011600452602488fd5b60405162461bcd60e51b815260048101849052601f60248201527f43616e6e6f7420657874656e642065786563757465642070726f706f73616c006044820152606490fd5b60405162461bcd60e51b8152600481018390526016602482015275496e76616c696420657874656e73696f6e2074696d6560501b6044820152606490fd5b60405163654dd7a960e01b815260048101849052602490fd5b5060085483116105cf565b6040516282b42960e81b8152600490fd5b50337f00000000000000000000000000000000000000000000000000000000000000006001600160a01b031614156105c2565b503461059757602090816003193601126105975760043580158015610a12575b6109fa57815260078252604081206010835260408220604051808286829454938481520190865286862092865b888282106109db5750505061082e92500382614ae7565b805161083981614e21565b936108476040519586614ae7565b81855261085382614e21565b8587019690601f190136883761086883614e38565b9161087284614e38565b9361087c81614e38565b9561088682614e38565b978391600e8201600f830191600c600d85019401945b86811061093657505050505050506040519660a088019060a089525180915260c0880198915b81811061091957505050610907926108eb886109159796946108f9948a809c03908b0152614cbc565b908782036040890152614d0c565b908582036060870152614cbc565b908382036080850152614d0c565b0390f35b82516001600160a01b03168a5298830198918301916001016108c2565b808d899f99828f8f908f938f8f90858f92948f8f8f9a8f9b6109d39f996109776109c99e61096d60409d60018060a01b0392614df5565b5116978892614df5565b52858952865261098b8b8a8a205492614df5565b52838752845260ff976109a48a8a8a8a20541692614df5565b901515905282865283526109bc888787205492614df5565b5283525220541692614df5565b9015159052614dbe565b9c969c61089c565b85546001600160a01b0316845260019586019587955093019201610817565b6024906040519063654dd7a960e01b82526004820152fd5b5060085481116107ea565b50346105975780600319360112610597576040517f00000000000000000000000000000000000000000000000000000000000000006001600160a01b03168152602090f35b50346105975780600319360112610597576040517f00000000000000000000000000000000000000000000000000000000000000006001600160a01b03168152602090f35b50346105975760403660031901126105975760043590610ac5614c55565b82158015610b25575b6107625760609282526007602052604082209060018060a01b03168252600e810160205260408083205492600c8301602052600d60ff83832054169301602052205490604051928352151560208301526040820152f35b506008548311610ace565b5034610597578060031936011261059757604051809182600954808452602080940190600984527f6e1540171b6c0c960b71a7020d9f60077f6af931a8bbf590da0223dacf75c7af935b85828210610ba557505050610b9192500383614ae7565b610915604051928284938452830190614cbc565b8554845260019586019588955093019201610b7a565b5034610597578060031936011261059757602060405162278d008152f35b50346105975780600319360112610597576020604051603c8152f35b50346105975760203660031901126105975760405163095ea7b360e01b815230600480830191909152356024820152602081604481856001600160a01b037f0000000000000000000000000000000000000000000000000000000000000000165af1908115610c9f5760209291610c72575b506040519015158152f35b610c929150823d8111610c98575b610c8a8183614ae7565b810190614e09565b38610c67565b503d610c80565b6040513d84823e3d90fd5b503461059757602036600319011261059757610cc4614c3f565b604051906101a082018281106001600160401b038211176111fe576040528282528260208301528260408301528260608301528260808301528260a08301528260c08301528260e0830152826101008301528261012083015282610140830152826101608301526060610180830152604051906370a0823160e01b825260018060a01b03918282166004820152602081602481867f0000000000000000000000000000000000000000000000000000000000000000165afa9081156111c15785916111cc575b5060c0840152604051636eb1769f60e11b81526001600160a01b03821660048201523060248201526020816044817f000000000000000000000000000000000000000000000000000000000000000087165afa9081156111c157859161118b575b5060e084015268056bc75e2d6310000061010084015268056bc75e2d631000006101208401528181168452600f602052604084205461016084015216825260156020526040822054610e1081018111611177576101809290610e108101421061116257505b8061014083015268056bc75e2d6310000060c08301511080159081602085015281604085015268056bc75e2d6310000060e08501511090811593846060870152159283608087015261016086015160065411948560a088015281809261115a575b5081611152575b508061114b575b80611144575b80611137575b1515855260015460ff1615610fb75750505050604051610eea81614a96565b601281527110dbdb9d1c9858dd081a5cc81c185d5cd95960721b6020820152828201525b610915604051928392602084528051151560208501526020810151151560408501526040810151151560608501526060810151151560808501526080810151151560a085015260a0810151151560c085015260c081015160e085015260e08101516101008501526101008101516101208501526101208101516101408501526101408101516101608501526101608101518285015201516101a0808401526101c0830190614bd1565b1561101357505050604051610fcb81614ab1565b602c81527f4e656564206174206c656173742031303020746f6b656e7320746f206372656160208201526b74652070726f706f73616c7360a01b604082015282820152610f0e565b1561106657505060405161102681614ab1565b602481527f4d75737420617070726f76652044414f20746f207370656e642031303020746f6020820152636b656e7360e01b604082015282820152610f0e565b6110aa575060405161107781614a96565b601881527f50726f706f73616c20636f6f6c646f776e206163746976650000000000000000602082015282820152610f0e565b6110f8576040516110ba81614ab1565b602281527f4d6178696d756d2070726f706f73616c73207065722075736572207265616368602082015261195960f21b604082015282820152610f0e565b60405161110481614a96565b601881527f526561647920746f206372656174652070726f706f73616c0000000000000000602082015282820152610f0e565b5060ff6001541615610ecb565b5083610ec5565b5082610ebf565b905038610eb8565b915038610eb1565b6111729150610e10429101614db1565b610e50565b634e487b7160e01b83526011600452602483fd5b90506020813d6020116111b9575b816111a660209383614ae7565b810103126111b5575138610deb565b8480fd5b3d9150611199565b6040513d87823e3d90fd5b90506020813d6020116111f6575b816111e760209383614ae7565b810103126111b5575138610d8a565b3d91506111da565b634e487b7160e01b84526041600452602484fd5b50346105975780600319360112610597576020600b54604051908152f35b50346105975760203660031901126105975760043580158015611268575b6109fa578160409160209352601083522054604051908152f35b50600854811161124e565b50346105975780600319360112610597576020600854604051908152f35b50346105975760603660031901126105975760243515156024350361059757600435158015611ab1575b611a98576040516370a0823160e01b81523360048201526020816024817f00000000000000000000000000000000000000000000000000000000000000006001600160a01b03165afa908115610c9f578291611a62575b5060045490818110611a44575061132d600283541415614d42565b6002825560ff60015416611a325760043582526007602052604082209060018060a01b036001830154163314611a19576007820154421015611a0057338352600c820160205260ff604084205416806119e9575b6119875760ff600883015460401c1661196e57806044351061194f575060028101546044351161190a576040516370a0823160e01b8152336004820152906020826024817f00000000000000000000000000000000000000000000000000000000000000006001600160a01b03165afa9182156118ff5783926118c7575b50338352600e8101602052604083205461141b81604435614db1565b928381106118a95750338452600e82016020526040842054156117fc575b600c820160205260408420600160ff19825416179055600d8201602052426040852055600f82018060205261147f602435604087209060ff801983541691151516179055565b600e830160205260443560408620556006830161149d858254614d8e565b905581151590816117de575b50816116b55750506024351561165e57600481016114ca6044358254614d8e565b905560088082015463ffffffff6114e2818316614dcd565b169063ffffffff1916179101555b338252600d602052604082206040519061150982614a65565b60043582526020820160443581526040830190428252606084019260243515158452805490600160401b82101561164a579061154a91600182018155614cf0565b949094611636579161158094939160039351855551600185015551600284015551151591019060ff801983541691151516179055565b806115d7575b5060408051604435808252602082015242918101919091526024351515903390600435907f2c707893af580790816fd02f801c18abd3c09cbcd05759060a0c85a0072faf7c90606090a46001815580f35b61163090604051906323b872dd60e01b602083015233602483015230604483015260648201526064815261160a81614acc565b7f0000000000000000000000000000000000000000000000000000000000000000614eaa565b38611586565b634e487b7160e01b87526004879052602487fd5b634e487b7160e01b88526041600452602488fd5b8060056116b092016116736044358254614d8e565b9055600861168c63ffffffff8284015460201c16614dcd565b91019067ffffffff0000000082549160201b169067ffffffff000000001916179055565b6114f0565b156117a4576024351561171e57906116b0916116d660058301918254614db1565b9055600481016116e96044358254614d8e565b9055600861168c8183015463ffffffff9081611706818316614dcd565b169063ffffffff191617808486015560201c16614de2565b61172d60048301918254614db1565b9055600581016117406044358254614d8e565b9055600863ffffffff61178261175d828486015460201c16614dcd565b8385019067ffffffff0000000082549160201b169067ffffffff000000001916179055565b8183015490611792818316614de2565b169063ffffffff1916179101556114f0565b6117b090604435614db1565b90602435156117cf5760046117c89101918254614d8e565b90556114f0565b60056117c89101918254614d8e565b33865260205250604084205460ff16151560243515151415386114a9565b6004358452601060205260408420805490600160401b821015611895579061182991600182018155614c11565b81546001600160a01b0360039290921b91821b19163390911b17905560043584526010602052604084205460001981018110611881576004358552601160205260408520338652602052600019016040852055611439565b634e487b7160e01b85526011600452602485fd5b634e487b7160e01b86526041600452602486fd5b836044916040519163c7bcc1b960e01b835260048301526024820152fd5b9091506020813d6020116118f7575b816118e360209383614ae7565b810103126118f3575190386113ff565b8280fd5b3d91506118d6565b6040513d85823e3d90fd5b60405162461bcd60e51b815260206004820152601f60248201527f496e766573746d656e7420657863656564732066756e64696e6720676f616c006044820152606490fd5b6044906040519063c7bcc1b960e01b8252600482015281356024820152fd5b6024604051632776407360e11b81526004356004820152fd5b60405162461bcd60e51b815260206004820152603460248201527f43616e206f6e6c7920766f746520616761696e207769746820696e63726561736044820152731959081a5b9d995cdd1b595b9d08185b5bdd5b9d60621b6064820152608490fd5b50600e820160205260408320546044351115611381565b602460405163489b5c2b60e01b81526004356004820152fd5b602460405163291f60fd60e21b81526004356004820152fd5b60405163ab35696f60e01b8152600490fd5b604492506040519163c7bcc1b960e01b835260048301526024820152fd5b90506020813d602011611a90575b81611a7d60209383614ae7565b81010312611a8c575138611312565b5080fd5b3d9150611a70565b602460405163654dd7a960e01b81526004356004820152fd5b50600854600435116112bb565b503461059757602080600319360112611a8c57611ad9614c3f565b600854906001600160a01b03168360015b83811115611b6c5750611afc90614e38565b93809160015b84811115611b1d57604051868152806109158189018a614cbc565b80835260078652600c6040842001828452865260ff604084205416611b4b575b611b4690614dbe565b611b02565b92611b648185611b5e611b46948b614df5565b52614dbe565b939050611b3d565b80865260078552600c6040872001838752855260ff604087205416611b9a575b611b9590614dbe565b611aea565b90611ba7611b9591614dbe565b919050611b8c565b503461059757604036600319011261059757611bc9614c3f565b604051636eb1769f60e11b81526001600160a01b039182166004820152306024808301919091523591602090829060449082907f0000000000000000000000000000000000000000000000000000000000000000165afa9081156118ff578391611c64575b506060928282108015938391611c54575050905b60405192835260208301526040820152f35b611c5e9250614db1565b90611c42565b90506020813d8211611c8e575b81611c7e60209383614ae7565b810103126118f357516060611c2e565b3d9150611c71565b614c6b565b503461059757602036600319011261059757600435600954811015611a8c576009602092527f6e1540171b6c0c960b71a7020d9f60077f6af931a8bbf590da0223dacf75c7af0154604051908152f35b50346105975760203660031901126105975760043580158015611e2b575b6109fa5781526007602052604090208054600160a01b600190036001830154169160028101549060038101549060078101549160088201549260048301549060058401549260068501549460098101611d6190614b08565b90611d6e600a8201614b08565b90600b01611d7b90614b08565b916040519b8c9b8c5260208c01526102008060408d01528b01611d9d91614bd1565b8a810360608c0152611dae91614bd1565b89810360808b0152611dbf91614bd1565b9660a089015260c088015260e08701528360401c60ff1615156101008701528360481c60ff1615156101208701528360501c60ff1615156101408701526101608601526101808501526101a084015263ffffffff908181166101c085015260201c166101e08301520390f35b506008548111611d09565b5034610597576020908160031936011261059757611e8582611e56614c3f565b604051636eb1769f60e11b81526001600160a01b03909116600482015230602482015291829081906044820190565b03817f00000000000000000000000000000000000000000000000000000000000000006001600160a01b03165afa918215611efb578092611ecb575b5050604051908152f35b9091508282813d8311611ef4575b611ee38183614ae7565b810103126105975750513880611ec1565b503d611ed9565b604051903d90823e3d90fd5b5034610597576020366003190112610597576020611f2b611f26614c3f565b614e6a565b604051908152f35b5034610597576020366003190112610597576020906040906001600160a01b03611f5b614c3f565b168152601283522054604051908152f35b50346105975780600319360112610597576020601354604051908152f35b5034610597578060031936011261059757602060405169d3c21bcecceda10000008152f35b5034610597576020366003190112610597576020906040906001600160a01b03611fd7614c3f565b168152600e83522054604051908152f35b503461059757602036600319011261059757600435338252600260205260ff60408320541615806120fa575b61078657801580156120f0575b6120b3577f7b2f327fe3724e45a6d300853fc8629e1d8fd83607f6943007d3c5c3e3c7576f7f8ea64594bef4d9ea7df01023c0d54bcd1f35c4c0479051fb25ad2d4cd3fadd979160065490806006557236b0bc283937b837b9b0b639a832b92ab9b2b960691b604051526120ad6040519283924291846040919493926060820195825260208201520152565b0390a280f35b60405162461bcd60e51b8152602060048201526015602482015274496e76616c6964206d61782070726f706f73616c7360581b6044820152606490fd5b5060648111612021565b50337f00000000000000000000000000000000000000000000000000000000000000006001600160a01b03161415612014565b503461059757806003193601126105975761214c600282541415614d42565b60028155338152602060128152604082205490811561226e57338084526012825260408085208590555163a9059cbb60e01b81526004810191909152602481018390528181604481876001600160a01b037f0000000000000000000000000000000000000000000000000000000000000000165af1908115610432578491612251575b501561220d5760405191825242908201527fd9ecbbe9911f2fb5a5b34cdefd44abe992b519f9a3ff70767ac7d00016a4235460403392a26001815580f35b6064906040519062461bcd60e51b82526004820152601860248201527f526566756e64207769746864726177616c206661696c656400000000000000006044820152fd5b6122689150823d8411610c9857610c8a8183614ae7565b386121cf565b6064906040519062461bcd60e51b8252600482015260126024820152714e6f2070656e64696e6720726566756e647360701b6044820152fd5b50346105975760203660031901126105975760406080916004358152600a6020522080549060018060a01b03600182015416906003600282015491015491604051938452602084015260408301526060820152f35b50346105975760203660031901126105975760ff60406020926004358152601484522054166040519015158152f35b50346105975780600319360112610597576020600654604051908152f35b503461059757604036600319011261059757612363614c3f565b6001600160a01b03168152600d60205260408120805460243592908310156105975760806123918484614cf0565b5080549060018101549060ff6003600283015492015416916040519384526020840152604083015215156060820152f35b50346105975760403660031901126105975760406020916123e1614c55565b6004358252601184528282206001600160a01b03909116825283522054604051908152f35b5034610597578060031936011261059757338152600260205260ff6040822054161580612494575b6107865760015460ff81166124825760ff191660019081179055604080513381524260208201527fab40a374bc51de372200a8bc981af8c9ecdc08dfdaef0bb6e09f88f3c616ef3d91819081015b0390a180f35b60405163d93c066560e01b8152600490fd5b50337f00000000000000000000000000000000000000000000000000000000000000006001600160a01b0316141561242e565b503461059757602036600319011261059757600435338252600260205260ff60408320541615806125ca575b610786578015612585577f7b2f327fe3724e45a6d300853fc8629e1d8fd83607f6943007d3c5c3e3c7576f7fe608bdbf01ea587a7cb8c0bb558e5bf6eafebc535b5c810844e15d4e971fee9f916004549080600455721b5a5b925b9d995cdd1b595b9d105b5bdd5b9d606a1b604051526120ad6040519283924291846040919493926060820195825260208201520152565b60405162461bcd60e51b815260206004820152601960248201527f496e76616c696420696e766573746d656e7420616d6f756e74000000000000006044820152606490fd5b50337f00000000000000000000000000000000000000000000000000000000000000006001600160a01b031614156124f3565b503461059757602080600319360112611a8c576001600160a01b03612620614c3f565b168252600c81526040822091604051809384918482549182815201918452848420935b8582821061265a57505050610b9192500383614ae7565b8554845260019586019588955093019201612643565b50346105975760603660031901126105975760043561268d614c55565b90604480356001600160401b0381116111b5576126ae903690600401614c8f565b923386526020926002845260ff6040882054161580612a1d575b610786576001600160a01b0386811696908715612a0b576126ed60028a541415614d42565b6002895583156129d65786156129a0577f000000000000000000000000000000000000000000000000000000000000000016916040516370a0823160e01b81523060048201528681602481875afa908115612995578a91612964575b506013548082111561295c5761275f9082614db1565b905b6005820282810460051483151715612948576064900486116128f95785116128be57841161286a575060405163a9059cbb60e01b81526001600160a01b0391909116600482015260248101839052908490829060449082908b905af190811561285f578791612842575b501561283057837fdf59a9581da64b249f2685aaa5efc1e94f9d3e2c1113931bf6fe212f05c085a59460809360606040519687958652850152816060850152848401378181018301879052426040830152601f01601f19168101030190a26001815580f35b6040516312171d8360e31b8152600490fd5b6128599150843d8611610c9857610c8a8183614ae7565b386127cb565b6040513d89823e3d90fd5b857f43616e6e6f7420776974686472617720636f6d6d69747465642070726f706f736084926040519262461bcd60e51b845260048401526028602484015282015267616c2066756e647360c01b6064820152fd5b60405162461bcd60e51b8152600481018890526014602482015273496e73756666696369656e742062616c616e636560601b81840152606490fd5b60405162461bcd60e51b815260048101899052602260248201527f4578636565647320656d657267656e6379207769746864726177616c206c696d81850152611a5d60f21b6064820152608490fd5b634e487b7160e01b8c52601160045260248cfd5b508990612761565b90508681813d831161298e575b61297b8183614ae7565b8101031261298a575138612749565b8980fd5b503d612971565b6040513d8c823e3d90fd5b60405162461bcd60e51b815260048101879052600f60248201526e1499585cdbdb881c995c5d5a5c9959608a1b81850152606490fd5b60405162461bcd60e51b815260048101879052600e60248201526d125b9d985b1a5908185b5bdd5b9d60921b81850152606490fd5b60405163d92e233d60e01b8152600490fd5b50337f00000000000000000000000000000000000000000000000000000000000000006001600160a01b031614156126c8565b5034610597576020366003190112610597576020906040906001600160a01b03612a78614c3f565b168152600f83522054604051908152f35b503461059757602080600319360112611a8c57612aa4614c3f565b3383526002825260ff6040842054161580612bac575b610786576001600160a01b03168015612a0b578083526002825260ff604084205416612b7457600a6003541015612b3d578083526002825260408320600160ff19825416179055612b0c600354614dbe565b6003557fc879829b6ab559448e08c444fd0ef1f6e6ec47d851c79f50bc979d2f8f00e180604051924284523393a380f35b60405162461bcd60e51b815260048101839052600f60248201526e546f6f206d616e792061646d696e7360881b6044820152606490fd5b60405162461bcd60e51b815260048101839052601060248201526f20b63932b0b23c9030b71030b236b4b760811b6044820152606490fd5b50337f00000000000000000000000000000000000000000000000000000000000000006001600160a01b03161415612aba565b5034610597578060031936011261059757602060ff600154166040519015158152f35b503461059757602036600319011261059757600435338252600260205260ff6040832054161580612d15575b61078657603c81108015612d09575b612cc4577f7b2f327fe3724e45a6d300853fc8629e1d8fd83607f6943007d3c5c3e3c7576f7fabbfab0bf365e6c544c4bdc8c27846b398ef85deeb99659a1bd1cbbfddbc69a19160055490806005556d3b37ba34b733a23ab930ba34b7b760911b604051526120ad6040519283924291846040919493926060820195825260208201520152565b60405162461bcd60e51b815260206004820152601760248201527f496e76616c696420766f74696e67206475726174696f6e0000000000000000006044820152606490fd5b5062278d008111612c3d565b50337f00000000000000000000000000000000000000000000000000000000000000006001600160a01b03161415612c2e565b503461059757602080600319360112611a8c5760043580158015612f4f575b6109fa57612d79600284541415614d42565b600283558083526007825260408320600881015460ff8160401c1615612f0a5760481c60ff16612ec557600e01338452808352604084205415612e8057338085529083526040808520805490869055905163a9059cbb60e01b815260048101929092526024820181905292908181604481886001600160a01b037f0000000000000000000000000000000000000000000000000000000000000000165af19081156111c1578591612e63575b50156128305760405192835242908301527f8faa8f78dba131fcf5a374c153d58b8f646053b7c2789321a5449f127258e1cd60403393a36001815580f35b612e7a9150823d8411610c9857610c8a8183614ae7565b38612e25565b60405162461bcd60e51b815260048101849052601760248201527f4e6f20696e766573746d656e7420746f20726566756e640000000000000000006044820152606490fd5b60405162461bcd60e51b815260048101849052601d60248201527f43616e6e6f7420726566756e64207061737365642070726f706f73616c0000006044820152606490fd5b60405162461bcd60e51b815260048101859052601960248201527f50726f706f73616c206e6f7420796574206578656375746564000000000000006044820152606490fd5b506008548111612d67565b5034610597576020366003190112610597576020906040906001600160a01b03612f82614c3f565b168152601583522054604051908152f35b50346105975780600319360112610597576020600454604051908152f35b5034610597576080366003190112610597576004356001600160401b038111611a8c57612fe2903690600401614c8f565b6024356001600160401b03811161042757613001903690600401614c8f565b90916044356001600160401b0381116137f757613022903690600401614c8f565b6040516370a0823160e01b81523360048201529092906020816024817f00000000000000000000000000000000000000000000000000000000000000006001600160a01b03165afa9081156137ec5788916137b6575b5068056bc75e2d63100000811061378f5750613098600288541415614d42565b6002875560ff60015416611a3257678ac7230489e8000060643510801561377a575b6137605783158015613758575b8015613750575b6137135733875260156020526040872054610e10908181018091116136ff5742106136b15750338752600f6020526040872054600654809110156136995750613118600854614dbe565b60088190558088526007602052604088209081556001810180546001600160a01b03191633179055956001600160401b03821161164a57819061315e6009890154614a2b565b601f8111613649575b508890601f83116001146135dd5789926135d2575b50508160011b916000199060031b1c19161760098601555b6001600160401b038311611895576131af600a860154614a2b565b601f811161358e575b508286601f8211600114613524578791613519575b508360011b906000198560031b1c191617600a8601555b6001600160401b038211611895578190613201600b870154614a2b565b601f81116134c9575b508690601f831160011461345d578792613452575b50508160011b916000199060031b1c191617600b8401555b606435600284015568056bc75e2d63100000600384015583600661325d60055442614d8e565b9460078101958655600881016affffffffffffffffffffff1981541690550155338452600e6020526040842080549068056bc75e2d63100000820180921161343e5755338452600f602052604084206132b68154614dbe565b905533845260156020524260408520556132d4606435601354614d8e565b601355600880548552601460205260408520805460ff1916600117905554600954600160401b908181101561341657600181018060095581101561342a5782907f6e1540171b6c0c960b71a7020d9f60077f6af931a8bbf590da0223dacf75c7af0155338652600c60205260408620805491821015613416579061335d91600182018155614c11565b819291549060031b91821b91600019901b19161790556133ae6040516323b872dd60e01b602082015233602482015230604482015268056bc75e2d6310000060648201526064815261160a81614acc565b60085492549181604051928392833781018581520390209160405191606435835268056bc75e2d63100000602084015260408301524260608301527fdd0274ac6c4a9179cf8818ef29728b8de044741912dda8e475b72df2047cf56f60803393a46001815580f35b634e487b7160e01b87526041600452602487fd5b634e487b7160e01b87526032600452602487fd5b634e487b7160e01b86526011600452602486fd5b01359050388061321f565b600b8701885260208820889450915b601f19841685106134b1576001945083601f19811610613497575b505050811b01600b840155613237565b0135600019600384901b60f8161c19169055388080613487565b8181013583556020948501946001909301920161346c565b909150600b8601875260208720601f840160051c810160208510613512575b90849392915b601f830160051c8201811061350457505061320a565b8981558594506001016134ee565b50806134e8565b9050840135386131cd565b600a87018852602088209150875b601f1986168110613576575084601f1981161061355c575b5050600183811b01600a8601556131e4565b850135600019600386901b60f8161c19169055388061354a565b9091602060018192858a013581550193019101613532565b600a8601875260208720601f850160051c8101602086106135cb575b601f830160051c820181106135c05750506131b8565b8881556001016135aa565b50806135aa565b01359050388061317c565b600989018a5260208a208a9450915b601f1984168510613631576001945083601f19811610613617575b505050811b016009860155613194565b0135600019600384901b60f8161c19169055388080613607565b818101358355602094850194600190930192016135ec565b90915060098801895260208920601f840160051c810160208510613692575b90849392915b601f830160051c82018110613684575050613167565b8b815585945060010161366e565b5080613668565b60249060405190635826019360e11b82526004820152fd5b87602491338252601560205260408220549081018091116136ed576136d891504290614db1565b60405190630f11533d60e31b82526004820152fd5b50634e487b7160e01b81526011600452fd5b634e487b7160e01b89526011600452602489fd5b60405162461bcd60e51b8152602060048201526015602482015274456d707479207265717569726564206669656c647360581b6044820152606490fd5b5080156130ce565b5082156130c7565b604051630e08619960e31b81526064356004820152602490fd5b5069d3c21bcecceda1000000606435116130ba565b6044906040519063c7bcc1b960e01b825268056bc75e2d6310000060048301526024820152fd5b90506020813d6020116137e4575b816137d160209383614ae7565b810103126137e0575138613078565b8780fd5b3d91506137c4565b6040513d8a823e3d90fd5b8580fd5b50346105975780600319360112610597576020604051610e108152f35b50346105975760203660031901126105975760209060ff906040906001600160a01b03613843614c3f565b168152600284522054166040519015158152f35b5034610597578060031936011261059757338152600260205260ff60408220541615806138e0575b6107865760015460ff8116156138ce5760ff1916600155604080513381524260208201527f3582d1828e26bf56bd801502bc021ac0bc8afb57c826e4986b45593c8fad389c918190810161247c565b604051638dfc202b60e01b8152600490fd5b50337f00000000000000000000000000000000000000000000000000000000000000006001600160a01b0316141561387f565b50346105975760403660031901126105975761392d614c3f565b6001600160a01b03168152600c602052604081208054602435929083101561059757602061395b8484614c11565b90546040519160031b1c8152f35b50346105975780600319360112610597576020604051678ac7230489e800008152f35b50346105975780600319360112610597576040516370a0823160e01b81523060048201526020816024817f00000000000000000000000000000000000000000000000000000000000000006001600160a01b03165afa908115610c9f578291613a56575b5060135480821115613a4f57613a068183614db1565b905b600582029382850460051483151715613a3b57509260649160809460405194855260208501526040840152046060820152f35b634e487b7160e01b81526011600452602490fd5b8290613a08565b90506020813d8211613a7f575b81613a7060209383614ae7565b81010312611a8c5751386139f0565b3d9150613a63565b5034610597578060031936011261059757602060405160328152f35b5034610597578060031936011261059757602060405160058152f35b50346105975780600319360112610597576020600354604051908152f35b5034610597576020908160031936011261059757604051636eb1769f60e11b8152336004808301919091523060248301526001600160a01b037f000000000000000000000000000000000000000000000000000000000000000016919035908481604481865afa908115610432578491613c15575b50818110613bc6578392613b6a8693613b9493614db1565b60405163095ea7b360e01b8152306004820152602481019190915293849283919082906044820190565b03925af1918215611efb5791613baf57506040519015158152f35b610c929150823d8411610c9857610c8a8183614ae7565b60405162461bcd60e51b815260048101869052602160248201527f446563726561736520616d6f756e74206578636565647320616c6c6f77616e636044820152606560f81b6064820152608490fd5b90508481813d8311613c3b575b613c2c8183614ae7565b81010312610427575138613b52565b503d613c22565b503461059757613c5136614bf6565b3383526020906002825260ff6040852054161580613e60575b6107865782158015613e55575b610762578015613e1757828452600782526040842060ff600882015460401c16613dd257600701805492603c420191824211613dbe5783851115613d7957613cbf8486614db1565b928310613d0e579160a09391817fb9873fccabec700bdb36ec123d2606eeddb0ef1ce51730ba5a83c0e27a0982879694556040519384528301526040820152846060820152426080820152a280f35b60405162461bcd60e51b815260048101839052603b60248201527f4e657720656e642074696d6520746f6f206561726c79202d206d75737420616c60448201527f6c6f77206d696e696d756d20766f74696e67206475726174696f6e00000000006064820152608490fd5b60405162461bcd60e51b815260048101839052601860248201527f526564756374696f6e2074696d6520746f6f206c6172676500000000000000006044820152606490fd5b634e487b7160e01b87526011600452602487fd5b60405162461bcd60e51b815260048101849052601f60248201527f43616e6e6f74206d6f646966792065786563757465642070726f706f73616c006044820152606490fd5b60405162461bcd60e51b8152600481018390526016602482015275496e76616c696420726564756374696f6e2074696d6560501b6044820152606490fd5b506008548311613c77565b50337f00000000000000000000000000000000000000000000000000000000000000006001600160a01b03161415613c6a565b503461059757602080600319360112611a8c57613eae614c3f565b3383526002825260ff6040842054161580614044575b610786576001600160a01b03908116908115612a0b578184526002835260ff60408520541615614010577f0000000000000000000000000000000000000000000000000000000000000000168114613fcb5760016003541115613f86578083526002825260408320805460ff191690556003548015613f72576000190160035560405142815233927fdee304e7e1affe12c7a37539c214abe72d3be7fbc78070c4b889e5e57de433a891a380f35b634e487b7160e01b84526011600452602484fd5b60405162461bcd60e51b815260048101839052601c60248201527f4d7573742068617665206174206c65617374206f6e652061646d696e000000006044820152606490fd5b60405162461bcd60e51b815260048101839052601b60248201527f43616e6e6f742072656d6f7665207072696d6172792061646d696e00000000006044820152606490fd5b60405162461bcd60e51b815260048101849052600c60248201526b2737ba1030b71030b236b4b760a11b6044820152606490fd5b50337f00000000000000000000000000000000000000000000000000000000000000006001600160a01b03161415613ec4565b50346105975761408636614bf6565b919081526010602052604081209081548310156105975760206140a98484614c11565b905460405160039290921b1c6001600160a01b03168152f35b50346105975780600319360112610597576020600554604051908152f35b50346105975760209081600319360112610597576004358015801561483c575b6109fa573382526002835260ff6040832054161580614809575b6107865761412c600283541415614d42565b6002825560019060ff825416611a32578083526007845260408320936008850190815460ff8160401c166147f05760068701549260028801938454809110908115938260078c01544210816147e8575b506147cf57600160401b68ff000000000000000019821617845560048b0154926141ad60058d015480861195614d8e565b15159386916147ba575b50156144ea575050815469ff0000000000000000001916690100000000000000000017909155506040516370a0823160e01b81523060048201527f0000000000000000000000000000000000000000000000000000000000000000976001600160a01b03918481602481868e165afa9081156144df5789916144ae575b50855480911061445e5788998760038b94888a888e9f9e869f987faa8c17c2592e9bd58842fc20e64bc1e041adb179c5ced209d37d0ae18cc4a3cf9f6143349a526014855260ff60408c205416614436575b50604081614295600b54614dbe565b9687600b55019a600a848d541695549683519a6142b18c614a65565b8b52808b01968752838b019788524260608c0190815298835252209651875591519186018054919092166001600160a01b0319909116179055516002840155519101558254875460405163a9059cbb60e01b898201529186166001600160a01b0316602483015260448083019190915281529061432f606483614ae7565b614eaa565b54169254927ffbc3a599b784fe88772fc5abcc07223f64ca0b13acc341f4fb1e46bef0510eb4604080518681524286820152a2156143df576143d760405161437b81614ab1565b602681527f50726f706f73616c207061737365643a2046756e64696e6720676f616c20616383820152651a1a595d995960d21b60408201525b604051938493888552840152426040840152608060608401526080830190614bd1565b0390a2815580f35b6143d76040516143ee81614ab1565b603181527f50726f706f73616c207061737365643a20466f7220766f746573206578636565838201527064656420616761696e737420766f74657360781b60408201526143b4565b61444290601354614db1565b601355868a526014845260408a20805460ff1916905538614286565b60405162461bcd60e51b815260048101869052602260248201527f496e73756666696369656e742044414f2066756e647320666f722066756e64696044820152616e6760f01b6064820152608490fd5b90508481813d83116144d8575b6144c58183614ae7565b810103126144d4575138614234565b8880fd5b503d6144bb565b6040513d8b823e3d90fd5b9093506a01000100000000000000009198999495506aff00ff000000000000000019161790558387526014835260ff604088205416614792575b509085916007825284604084206010845260408520906040519182868254918281520191885286882090885b8181106147725750505082614566910383614ae7565b600e869101925b6146d3575b5050506143d7907faa8c17c2592e9bd58842fc20e64bc1e041adb179c5ced209d37d0ae18cc4a3cf9495966000146146a4576040516145b081614ab1565b602b81527f416761696e737420766f746573206578636565646564206f7220657175616c65848201526a6420666f7220766f74657360a81b6040820152905b8760018060a01b0391015416867fbc8a9d0ba3f4dca083b7608d4a9fa1b7f9c9a0381f048804054af16296eec1d7604051428152604087820152806146376040820187614bd1565b0390a361468160336040518093720283937b837b9b0b6103932b532b1ba32b21d1606d1b8783015261467181518092898686019101614bae565b8101036013810184520182614ae7565b604051938493818552840152426040840152608060608401526080830190614bd1565b6040516146b081614a96565b6011815270139bc81d9bdd195cc81c9958d95a5d9959607a1b84820152906145ef565b815181101561476d5787929190614716906001600160a01b036146f68285614df5565b511680895284885289896040812080548061471e575b5050505050614dbe565b90919261456d565b7f365ca7c850bea522b7a0d5f1aa9ac24e37b725bc7c463fc1aecf3bd1dfaa4d10926040925560128c52818d20614756828254614d8e565b90558151908152428c820152a3388989828061470c565b614572565b82546001600160a01b031684528d99508b96938901939283019201614550565b61479e90601354614db1565b6013558286526014825260408620805460ff1916905538614524565b9050806147c8575b386141b7565b50826147c2565b60405163028675ff60e01b815260048101899052602490fd5b90503861417c565b604051632776407360e11b815260048101859052602490fd5b50337f00000000000000000000000000000000000000000000000000000000000000006001600160a01b0316141561411a565b506008548111614100565b5034610597576020908160031936011261059757604051636eb1769f60e11b81523360048201523060248201526001600160a01b037f000000000000000000000000000000000000000000000000000000000000000016908381604481855afa9081156118ff57918491849384916148cc575b5090613b6a613b949260043590614d8e565b92809294508391503d83116148fb575b6148e68183614ae7565b810103126118f3575182918491613b6a6148ba565b503d6148dc565b50346105975760203660031901126105975760043581526007602052604090208054600160a01b600190036001830154169160028101549060038101546004820154600583015460068401546007850154916008860154936009870161496790614b08565b95614974600a8901614b08565b97600b0161498190614b08565b986040519b8c9b8c5260208c015260408b015260608a0152608089015260a088015260c087015260e086015263ffffffff8082166101008701528160201c166101208601528060401c60ff1615156101408601528060481c60ff16151561016086015260501c60ff161515610180850152610200806101a08601528401614a0791614bd1565b8381036101c0850152614a1991614bd1565b8281036101e084015261091591614bd1565b90600182811c92168015614a5b575b6020831014614a4557565b634e487b7160e01b600052602260045260246000fd5b91607f1691614a3a565b608081019081106001600160401b03821117614a8057604052565b634e487b7160e01b600052604160045260246000fd5b604081019081106001600160401b03821117614a8057604052565b606081019081106001600160401b03821117614a8057604052565b60a081019081106001600160401b03821117614a8057604052565b90601f801991011681019081106001600160401b03821117614a8057604052565b9060405191826000825492614b1c84614a2b565b908184526001948581169081600014614b8b5750600114614b48575b5050614b4692500383614ae7565b565b9093915060005260209081600020936000915b818310614b73575050614b4693508201013880614b38565b85548884018501529485019487945091830191614b5b565b915050614b4694506020925060ff191682840152151560051b8201013880614b38565b60005b838110614bc15750506000910152565b8181015183820152602001614bb1565b90602091614bea81518092818552858086019101614bae565b601f01601f1916010190565b6040906003190112614c0c576004359060243590565b600080fd5b8054821015614c295760005260206000200190600090565b634e487b7160e01b600052603260045260246000fd5b600435906001600160a01b0382168203614c0c57565b602435906001600160a01b0382168203614c0c57565b34614c0c576000366003190112614c0c57602060405168056bc75e2d631000008152f35b9181601f84011215614c0c578235916001600160401b038311614c0c5760208381860195010111614c0c57565b90815180825260208080930193019160005b828110614cdc575050505090565b835185529381019392810192600101614cce565b8054821015614c295760005260206000209060021b0190600090565b90815180825260208080930193019160005b828110614d2c575050505090565b8351151585529381019392810192600101614d1e565b15614d4957565b60405162461bcd60e51b815260206004820152601f60248201527f5265656e7472616e637947756172643a207265656e7472616e742063616c6c006044820152606490fd5b91908201809211614d9b57565b634e487b7160e01b600052601160045260246000fd5b91908203918211614d9b57565b6000198114614d9b5760010190565b63ffffffff809116908114614d9b5760010190565b63ffffffff168015614d9b576000190190565b8051821015614c295760209160051b010190565b90816020910312614c0c57518015158103614c0c5790565b6001600160401b038111614a805760051b60200190565b90614e4282614e21565b614e4f6040519182614ae7565b8281528092614e60601f1991614e21565b0190602036910137565b6001600160a01b0316600090815260156020526040902054610e108101908110614d9b5780421015614ea457614ea1904290614db1565b90565b50600090565b6040519192916001600160a01b0390911690614ec581614a96565b6020918282527f5361666545524332303a206c6f772d6c6576656c2063616c6c206661696c656483830152803b15614ff45760008581969282868195519301915af1933d15614fe5573d946001600160401b038611614fd157614f4993949560405190614f3b87601f19601f8401160183614ae7565b81528092863d92013e615039565b805190828215928315614fb9575b50505015614f625750565b6084906040519062461bcd60e51b82526004820152602a60248201527f5361666545524332303a204552433230206f7065726174696f6e20646964206e6044820152691bdd081cdd58d8d9595960b21b6064820152fd5b614fc99350820181019101614e09565b388281614f57565b634e487b7160e01b82526041600452602482fd5b50614f49919293606090615039565b60405162461bcd60e51b815260048101849052601d60248201527f416464726573733a2063616c6c20746f206e6f6e2d636f6e74726163740000006044820152606490fd5b90919015615045575090565b8151156150555750805190602001fd5b60405162461bcd60e51b815260206004820152908190615079906024830190614bd1565b0390fdfea2646970667358221220c3b60ced869e89c0f1d4a52805092cd8be3dfc8a114d4b4761a3e3f6f88bfb3264736f6c63430008140033",
  "linkReferences": {},
  "deployedLinkReferences": {}
}